:020000040800F2
:10000000203E0020C9290008D1290008D329000872
:10001000D5290008D7290008D929000800000000C8
:10002000000000000000000000000000DB290008C4
:10003000DD29000800000000A7E9000859E00008D9
:10004000AF290008E3290008E3290008E329000894
:10005000E3290008E3290008E3290008E329000850
:10006000E3290008E3290008E3290008E329000840
:10007000E3290008E3290008E3290008E329000830
:10008000E3290008E3290008E3290008E329000820
:10009000E3290008E3290008E3290008E329000810
:1000A000E3290008E3290008E3290008E329000800
:1000B000E3290008E3290008E3290008E3290008F0
:1000C000E3290008E3290008E3290008E3290008E0
:1000D000E3290008E3290008E32900083D2500087A
:1000E000E3290008E3290008E3290008E3290008C0
:1000F000E3290008E3290008E3290008E3290008B0
:10010000E3290008E3290008E3290008E32900089F
:10011000E3290008E3290008E3290008E32900088F
:10012000E3290008E3290008E3290008E32900087F
:10013000DFF80CD00EF08CFB00480047CD390008EA
:10014000203E0020014600BF704700BF584A128879
:1001500012F0400FFAD0C2B2564B1A80704710B559
:1001600003F022FD10BD5448806940F0010052495F
:1001700088615248406820F0E06050494860084675
:10018000406840F080604860704708B54FF4806078
:1001900002F02CFC27208DF8000000208DF80100D3
:1001A0008DF8020001208DF80300684602F023FC60
:1001B00025208DF8000000208DF801008DF8020048
:1001C00001208DF80300684602F015FC34208DF8FC
:1001D000000000208DF801008DF8020001208DF84C
:1001E0000300684602F007FC26208DF8000000207E
:1001F0008DF801008DF8020001208DF8030068469B
:1002000002F0F9FB08BD10B586B0044601210520B7
:1002100002F09BFF0121480402F0A4FF0420ADF886
:10022000140018208DF8170003208DF8160005A97A
:10023000234802F0B7FC0820ADF8140004208DF824
:10024000170003208DF8160005A91D4802F0AAFC2E
:1002500001940020ADF80800ADF80A00ADF80C00DC
:10026000ADF810000C20ADF80E0001A9104803F005
:10027000A6F9FFF78AFF012240F225510C4803F04E
:1002800036FA01210A4803F026FA06B010BD70477D
:1002900010B5FFF764FFFFF7FAFF4FF4E130FFF707
:1002A000B2FFFFF772FF01F021FC02F019FA10BD56
:1002B000004400400444004000100240000001409F
:1002C00000080140F8480068704770B504460D46C4
:1002D0002CB9AC4201D0012070BD0020FCE70DB963
:1002E0000120F9E705E0207808B90020F4E7641C54
:1002F0006D1C20780DF087FF064628780DF083FFEF
:100300008642F0D020780DF07EFF064628780DF06A
:100310007AFF301AE0E770B5044620460DF0BDFFC5
:10032000451C2846E14909688847060000D170BD90
:100330002A46214630460DF06CFF3046F7E730B9CB
:10034000DB49DA4A1160DB49DB4A1160704701681A
:1003500009B1016800E0D649D44A1160416809B189
:10036000416800E0D349D44A116000BFEEE710B500
:100370002820CE490968884704461CB12821204618
:100380000DF060FF204610BD70B504461EE02568E4
:10039000E06810F4807F04D1A06810B1A068FFF776
:1003A000F3FFE06810F4807F05D1206918B1C249DD
:1003B000206909688847206A18B1BF49206A09681E
:1003C00088472046BC49096888472C46002CDED166
:1003D00070BD2DE9F04F8BB083468A46002004465D
:1003E00005460026B54F0021884689460990012020
:1003F00008909AF800002D2802D1B14F0AF1010AA5
:100400009AF80000302801D10AF1010A9AF8000098
:10041000312822DB9AF8000039281EDC00BF1AF8C8
:10042000011BA1F130000EF06EF80022A54BCDE9C2
:100430000601204629460DF0F5FFCDE90401DDE96E
:1004400006230DF04AFF04460D469AF800003028B6
:1004500003DB9AF800003928E1DD9AF800002E2825
:1004600030D19AF8010030282CDB9AF801003928A5
:1004700028DC0AF1010A00BF1AF8011BA1F13000C3
:100480000EF041F800228F4BCDE9060120462946A7
:100490000DF0C8FFCDE90401DDE906230DF01DFFD5
:1004A00004460D460022854B404649460DF0B4FFF8
:1004B000804689469AF80000302803DB9AF800004D
:1004C0003928D9DD9AF80000652803D09AF8000091
:1004D000452823D10AF1010A9AF800002B2802D1FD
:1004E0000AF1010A08E09AF800002D2804D14FF023
:1004F000FF3008900AF1010A08E01AF8010B3038C1
:10050000099901EB810100EB410009909AF8000084
:10051000302803DB9AF800003928EEDDDDE90821F8
:1005200001FB02F00DF0EFFF42464B46CDE9000122
:100530000DF0D3FE02460B46CDE9020100206149D1
:100540000FF03CF822462B46CDE9060130463946ED
:100550000DF068FFCDE90401DDE906230DF062FF2F
:1005600004460D46CBE90645204629460DF0DCFF42
:10057000CBF814000320CBF80C0050460BB0BDE8BC
:10058000F08F2DE9F05F8146D9E90645D9F81400CE
:100590000DF0B9FF064622462B460DF03DFF21F037
:1005A000004182460022484B0DF0F4FF1CD8474A18
:1005B000474B204629460DF0EDFF15D80022454B4C
:1005C000204629460DF0FAFF0ED815203749096854
:1005D00088478046B8F1000F4DD03FA14046D9F87A
:1005E00014200EF035FA46E040203049096888476B
:1005F0008046B8F1000F3ED0204629460EF012FF8B
:10060000064622462B460DF007FF21F000418246A8
:1006100000222D4B0DF0BEFF0FD825F000412646DD
:100620002E4A2F4B20460DF0B5FF06D222462B4610
:100630002CA140460EF00CFA1DE025F000412646A4
:100640002A4A2B4B20460DF0A5FF07D325F0004189
:100650000022284B20460DF0B1FF06D222462B4641
:1006600025A140460EF0F4F905E022462B4623A1D1
:1006700040460EF0EDF94046BDE8F09F01460022ED
:100680000878302806DB0878392803DC0878303809
:10069000024441E00878412832DB087846282FDC04
:1006A00008783738024437E01000002008000020A6
:1006B00051F5000801F500080C0000200000F03F93
:1006C0000000F0BF000024400000B03C0000C0FF6C
:1006D000FFFFDF410000E0C12564000044F3C2E4F5
:1006E000E4E9634C252E3066000000008DEDB5A0D6
:1006F000F7C6B03E65CDCD412565000025660000FA
:100700000878612806DB0878662803DC0878573803
:10071000024401E0002070471201491C087830288B
:1007200006DB0878392803DC08783038024415E005
:100730000878412806DB0878462803DC0878373833
:1007400002440BE00878612806DB0878662803DCA1
:1007500008785738024401E00020DCE71201491C08
:100760000878302806DB0878392803DC0878303828
:10077000024415E00878412806DB0878462803DCA7
:100780000878373802440BE00878612806DB0878DF
:10079000662803DC08785738024401E00020BAE7F5
:1007A0001201491C0878302806DB0878392803DC58
:1007B00008783038024415E00878412806DB0878CC
:1007C000462803DC0878373802440BE008786128B3
:1007D00006DB0878662803DC08785738024401E015
:1007E000002098E7104696E72DE9F05F834688469B
:1007F00008F10104002798F80000222805D0F948E4
:10080000C0F800800020BDE8F09F04E014F8011B50
:100810005C2900D1641C2078222804D0207810B1F3
:10082000781C0700F2D1781CEF4909688847814697
:10083000B9F1000F01D10020E5E708F101044D46B0
:100840009EE020785C2804D014F8010B05F8010B19
:1008500096E0641C2078722818D006DC622809D043
:1008600066280BD06E287ED10CE0742812D0752833
:1008700079D113E0082005F8010B7FE00C2005F882
:10088000010B7BE00A2005F8010B77E00D2005F84D
:10089000010B73E0092005F8010B6FE0601CFFF706
:1008A000EDFE0646241DB6F55C4F02D3B6F5604F4B
:1008B00000D306B962E0B6F5584F1CD3B6F55C4FCD
:1008C00019D260785C2802D1A078752800D055E054
:1008D000E01CFFF7D3FE8246A41DBAF55C4F02D39D
:1008E000BAF5604F00D349E0C6F30901504661F301
:1008F0009F2000F580360427802E01D2012708E0D2
:10090000B6F5006F01D2022703E0B6F5803F00D2B2
:1009100003273D44012F20D0022F15D0032F0AD0EA
:10092000042F24D106F0BF0040F08000691E0D4660
:100930000870B60900BF06F0BF0040F08000691ED5
:100940000D460870B60900BF06F0BF0040F08000F9
:10095000691E0D460870B60900BFA448C05D30434B
:10096000C1B2681E00E005E00546017000BF00BF8F
:100970003D4403E0207805F8010B00BF00BF641C74
:100980002078222803D0207800287FF45AAF002056
:1009900028702078222800D1641CCBF81090042005
:1009A000CBF80C0020462EE72DE9F04707464FF024
:1009B00000082FB9AFF2D020FFF7ADFCBDE8F087FB
:1009C0003D460DE049468AA00DF05EFC10B108F1ED
:1009D000010804E0B9F1200F01DA08F105086D1CE7
:1009E00095F80090B9F1000F04D008F101005FEA1A
:1009F0000008E7D108F103007B49096888470646EB
:100A00000EB90020DAE734463D46222004F8010BF7
:100A100047E028781F280ADD2878222807D0287880
:100A20005C2804D015F8010B04F8010B39E05C20B8
:100A300004F8010B15F8011B89460C2919D006DCB6
:100A4000082912D0092920D00A2922D115E00D2920
:100A500017D0222905D05C291BD15C2004F8010B9A
:100A60001EE0222004F8010B1AE0622004F8010BBA
:100A700016E0662004F8010B12E06E2004F8010B6A
:100A80000EE0722004F8010B0AE0742004F8010B58
:100A900006E04A4658A120460DF0DAFF641D00BF6B
:100AA00000BF28780028B4D1222004F8010B0020D0
:100AB00004F8010B304681E710B504462069FFF7C2
:100AC00073FF10BD00E0401C20B1017811B1017826
:100AD0002029F8DD70472DE9F04706460C462078BE
:100AE0007B2804D03F4804600020BDE8F087062042
:100AF000F060601CFFF7E6FF044620787D2801D1F6
:100B0000601CF2E7FFF733FC0546B060B06808B937
:100B10000020EAE72046FFF7D5FF80460146284639
:100B2000FFF762FE0746FFF7CDFF04460CB9002031
:100B3000DBE7286928620020286120783A2803D062
:100B4000284804600020D0E7601CFFF7BBFF804608
:100B50000146284600F0A7F80746FFF7B3FF044612
:100B60000CB90020C1E731E0FFF701FC070000D11C
:100B7000BBE72F607D603D46601CFFF7A3FF814609
:100B800001462846FFF730FE8046FFF79BFF0446EC
:100B90000CB90020A9E72869286200202861207884
:100BA0003A2803D00F48046000209EE7601CFFF73E
:100BB00089FF81460146284600F075F88046FFF718
:100BC00081FF04460CB900208FE700BF20782C2855
:100BD000CAD020787D2801D1601C86E701480460D6
:100BE000002082E71000002008000020DEFF00083F
:100BF000225C080C0A0D09007525303478000000CD
:100C00002DE9F04705460C4620785B2804D0FC48C7
:100C100004600020BDE8F0870520E860601CFFF755
:100C200051FF044620785D2801D1601CF2E7FFF7F0
:100C30009EFB0646A860A86808B90020EAE720469F
:100C4000FFF740FF80460146304600F02CF807468B
:100C5000FFF738FF04460CB90020DBE717E0FFF789
:100C600086FB070000D1D5E737607E603E46601CFA
:100C7000FFF728FF81460146304600F014F8804611
:100C8000FFF720FF04460CB90020C3E700BF20781F
:100C90002C28E4D020785D2801D1601CBAE7D84820
:100CA00004600020B6E770B505460C460CB900207C
:100CB00070BD0422D3A120460DF000FB18B902201C
:100CC000E860201DF4E70522D0A120460DF0F6FAD9
:100CD00018B90020E860601DEAE70422CDA1204693
:100CE0000DF0ECFA20B90120E8606861201DDFE713
:100CF0002078222804D121462846FFF775FDD7E742
:100D000020782D2805D02078302807DB2078392856
:100D100004DC21462846FFF75CFBC9E720785B2806
:100D200004D121462846FFF76BFFC1E720787B28D6
:100D300004D121462846FFF7CEFEB9E7B04804604B
:100D40000020B5E72DE9F04780460D461646002401
:100D5000FFF70DFB07460020A94908600FB9BDE861
:100D6000F0874046FFF7AEFE814601463846FFF762
:100D70009AFF044624B93846FFF706FB0020EEE749
:100D800066B12046FFF79EFE0446207830B1384613
:100D9000FFF7FAFA9A4804600020E0E705B12C60FA
:100DA0003846DCE710B50446002211462046FFF71E
:100DB000C9FF10BD2DE9F74F88B0884616464FF0A1
:100DC0000009CA46002007900720049000250898D3
:100DD0008068029000270020019003E07F1C0298A9
:100DE0000068029002980028F8D14FBB16B108F1B4
:100DF000040100E0032108468849096888470790F4
:100E0000079818B900200BB0BDE8F08F079C7B2035
:100E100004F8010B66B10A2004F8010B002503E079
:100E2000092004F8010B6D1CA8F10100A842F7DCB1
:100E30007D2004F8010B002004F8010B0798E2E77D
:100E4000B8007649096888478146B9F1000F01D199
:100E50000020D8E7B8007149096888478246BAF18E
:100E6000000F05D148466E49096888470020CAE747
:100E7000B90048460DF0E6F9B90050460DF0E2F928
:100E800008988068029008F1010816B1049840445F
:100E900004902DE00299086AFFF786FD05904AF854
:100EA000250032464146029800F07CF929466D1C27
:100EB000069049F821000598A8B1069898B10698BF
:100EC0000DF0EBF9834605980DF0E7F90BEB000107
:100ED000891C16B108F1020000E0002001440498CA
:100EE0000844049001E001200190029800680290FB
:100EF00002980028CED1019820B948490498096881
:100F000088470790079808B9012001900198F0B12F
:100F1000002510E05AF8250020B15AF82500404974
:100F20000968884759F8250020B159F825003C493F
:100F3000096888476D1CBD42ECDB5046384909689A
:100F40008847484636490968884700205BE77B2187
:100F5000079801700798441C16B10A2004F8010B89
:100F60000020207000253EE05EB10020039005E0E7
:100F7000092004F8010B0398401C03900398404596
:100F8000F6DB5AF8251020460DF08FF95AF82500A7
:100F90000DF083F904443A2004F8010B16B109203E
:100FA00004F8010B59F8251020460DF07EF959F888
:100FB00025000DF072F90444781EA84202D02C20BE
:100FC00004F8010B16B10A2004F8010B0020207070
:100FD0005AF8250012490968884759F82500104930
:100FE000096888476D1CBD42BEDB50460C49096844
:100FF000884748460A4909688847DEB1002515E058
:10100000100000206E756C6C0000000066616C734F
:101010006500000074727565000000000800002083
:101020000C000020092004F8010B6D1CA8F1010040
:10103000A842F7DC7D2004F8010B002004F8010B26
:101040000798E0E62DE9F74F82B083464FF000089D
:1010500005200190DBF80890002700250020009073
:1010600002E07F1CD9F80090B9F1000FF9D17FB9E7
:101070000320FF49096888478046B8F1000F03D074
:10108000FCA140460DF011F9404605B0BDE8F08FD7
:10109000B800F7490968884706460EB90020F4E70A
:1010A000B90030460DF0CEF8DBF808901FE0DDE91E
:1010B0000312491C484600F075F8824629466D1C0B
:1010C00046F821A0BAF1000F0DD050460DF0E5F81A
:1010D000801C049909B1012100E00021014401981C
:1010E0000844019001E001200090D9F80090B9F186
:1010F000000F02D000980028D9D0009820B9DC4910
:101100000198096888478046B8F1000F01D1012095
:101110000090009890B1002508E056F8250020B115
:1011200056F82500D449096888476D1CBD42F4DB98
:101130003046D149096888470020A6E75B2088F837
:10114000000008F101040020207000251CE056F882
:10115000251020460DF0A9F856F825000DF09DF851
:101160000444781EA84209D02C2004F8010B0498EE
:1011700010B1202004F8010B0020207056F8250043
:10118000BD49096888476D1CBD42E0DB3046BA495D
:10119000096888475D2004F8010B002004F8010B62
:1011A000404672E72DE9F04104460D4616460027F9
:1011B00014B90020BDE8F081E068C0B207282FD242
:1011C000DFE800F00A1004161B202700AFF2CC1055
:1011D000FFF7A1F8074623E0AFF2D010FFF79BF826
:1011E00007461DE0AFF2D410FFF795F8074617E069
:1011F0002046FFF7C6F9074612E02046FFF75CFCE1
:1012000007460DE0324629462046FFF71BFF0746FA
:1012100006E0324629462046FFF7CCFD074600BFD0
:1012200000BF3846C6E710B504460122002120461B
:10123000FFF7B8FF10BD10B5044600221146204646
:10124000FFF7B0FF10BD01468A68002001E0401C96
:101250001268002AFBD170470246906801E0491EDF
:10126000006808B10029FADC704770B505460E46E3
:10127000AC6800E024682CB13146206AFFF725F8FD
:101280000028F7D1204670BD01604860704770B5F6
:101290000546FFF76CF804460CB9002070BD282203
:1012A000294620460CF0B5FF00202062E06840F49B
:1012B0008070E0600020606020602046EEE770B53E
:1012C00005460E46AC6806B970BD0CB9AE6009E0C3
:1012D00000E0246814B120680028FAD13146204685
:1012E000FFF7D2FF00BFEFE770B506460D46144684
:1012F00004B970BD206A18B15F49206A096888473F
:101300002846FFF708F8206221463046FFF7D7FF4E
:1013100000BFEEE770B505460C462046FFF7B7FF65
:10132000064601462846FFF7CAFF70BD2DE9F04189
:1013300005460E4614462046FFF7A9FF074602461B
:1013400031462846FFF7D0FFBDE8F08110B50246D0
:101350000B46916801E009685B1E09B1002BFADCBD
:1013600009B9002010BD486810B1D1E9000420601F
:10137000086810B1D1E9004060609068884201D1EE
:10138000086890600020086048600846EAE770B589
:1013900004460D4629462046FFF7D8FF0646FEF7CD
:1013A000F3FF70BD2DE9F04105460F460026AC68FD
:1013B00001E0761C24682CB13946206AFEF785FFCF
:1013C0000028F6D12CB131462846FFF7BFFFBDE813
:1013D000F0810020FBE770B504460D462946204603
:1013E000FFF7E0FF0646FEF7CFFF70BD2DE9F041A5
:1013F00006460F461446B56801E02D687F1E0DB104
:10140000002FFADC0DB9BDE8F0812868206068681B
:101410006060206808B120684460B068A84201D1CB
:10142000B46001E0606804600020686028602846BD
:10143000FEF7AAFF00BFE6E72DE9F04105460E469C
:1014400017464FF00008AC6802E008F10108246874
:101450002CB13146206AFEF738FF0028F5D17CB167
:101460003046FEF758FF38623A464146284605E0C6
:10147000080000205B5D00000C000020FFF7B6FFB5
:10148000BDE8F08110B5FEF772FF04460CB10220F2
:10149000E060204610BD10B5FEF769FF04460CB1B0
:1014A0000120E060204610BD10B5FEF760FF044645
:1014B0000CB10020E060204610BD70B50546FEF777
:1014C00056FF044624B10DB1012000E00020E06089
:1014D000204670BD70B504460D46FEF748FF06462F
:1014E00046B10320F060C6E90645204629460DF0C6
:1014F0001BF87061304670BD70B50546FEF737FFCA
:1015000004462CB10420E0602846FEF704FF206169
:10151000204670BD10B5FEF72AFF04460CB1052029
:10152000E060204610BD10B5FEF721FF04460CB167
:101530000620E060204610BD2DE9F05F81468A4616
:101540000027BB46FFF7E6FF8046002611E059F86A
:1015500026000CF0D8FF0446FFF7BCFF074616B97B
:10156000C8F8087003E039465846FFF78DFEBB46C1
:10157000761CB8F1000F01D05645E8DB4046BDE8C7
:10158000F09F2DE9F05F81468A460027BB46FFF7B2
:10159000C1FF8046002611E059F826000CF0E3FF59
:1015A0000446FFF797FF074616B9C8F8087003E02E
:1015B00039465846FFF768FEBB46761CB8F1000F67
:1015C00001D05645E8DB4046BDE8F09F2DE9F047E5
:1015D000074688460025A946FFF79CFF06460024DB
:1015E00010E007EBC400D0E900211046FFF772FFBE
:1015F00005460CB9B56003E029464846FFF744FEAE
:10160000A946641C0EB14445EBDB3046BDE8F087CB
:101610002DE9F047074688460025A946FFF77AFFDF
:10162000064600240DE057F82400FFF765FF054645
:101630000CB9B56003E029464846FFF725FEA946E8
:10164000641C0EB14445EEDB3046BDE8F0872DE961
:10165000F047054689464FF0000815B90020BDE85F
:10166000F087FEF784FE04460CB90020F7E7E8682F
:1016700020F48070E06068696061D5E90601C4E922
:101680000601286950B12869FEF745FE20612069EE
:1016900020B92046FEF778FE0020E0E7286A50B126
:1016A000286AFEF738FE2062206A20B92046FEF73D
:1016B0006BFE0020D3E7B9F1000F01D12046CEE741
:1016C000AF6816E001213846FFF7C1FF064626B98C
:1016D0002046FEF759FE0020C1E7B8F1000F05D003
:1016E000C8F80060C6F80480B04601E0A660B046C5
:1016F0003F68002FE6D12046B1E7014654E002786A
:10170000202A01D1401C4FE00278092A01D1401C57
:101710004AE002780D2A01D1401C45E002780A2AED
:1017200001D1401C40E002782F2A0AD142782F2AAA
:1017300007D100E0401C02788AB302780A2A33D02D
:10174000F8E702782F2A0ED142782A2A0BD100E03E
:10175000401C02782AB102782A2AF9D142782F2A2D
:10176000F6D1801C20E00278222A19D110F8012B32
:1017700001F8012B0AE002785C2A03D110F8012B52
:1017800001F8012B10F8012B01F8012B027812B19E
:101790000278222AEFD110F8012B01F8012B03E087
:1017A00010F8012B01F8012B0278002AA7D10A704A
:1017B0007047000000B587B001210C2001F0C5FC86
:1017C0000121880301F0CEFC4FF46040ADF8040025
:1017D00003208DF8060018208DF8070001A9E148C4
:1017E00001F0E0F94FF48050ADF8040003208DF8CB
:1017F000060010208DF8070001A9DA4801F0D2F99F
:101800004FF48051D74801F078FA0020ADF8080075
:101810004FF48270ADF80A000020ADF80C000220F1
:10182000ADF80E000120ADF810004002ADF8120036
:101830000820ADF814000020ADF816000720ADF820
:10184000180002A9C84801F015FD0121C64801F0A1
:10185000B4FD07B000BD10B504462146C24801F0F2
:10186000E2FD00BF0221C04801F030FE0028F9D09F
:1018700000BF0121BC4801F029FE0028F9D0BA4878
:1018800001F0D3FDC0B210BD10B5A520FFF7E3FFF6
:1018900010BD70B504460D4645EA0421B24801F07A
:1018A000C2FD00BF0221B04801F010FE0028F9D0AF
:1018B00000BF0121AC4801F009FE0028F9D0AA4878
:1018C00001F0B3FDC0B270BD10B5044644F0800015
:1018D000002242EA0021A44801F0A5FD00BF022138
:1018E000A14801F0F3FD0028F9D000BF01219E4876
:1018F00001F0ECFD0028F9D09B4801F096FDC0B244
:1019000010BD10B500244FF48051964801F0F7F94E
:101910000520FFF7A0FF00BFA520FFF79CFF0446AE
:1019200004F001000128F7D04FF480518D4801F0F8
:10193000E4F910BD10B50446FFF7E3FF4FF4805102
:10194000884801F0DCF90620FFF785FF4FF480514D
:10195000844801F0D2F9FFF7D4FF4FF48051814859
:1019600001F0CDF9D820FFF776FF200CFFF773FFC9
:10197000200AFFF770FFE0B2FFF76DFF4FF48051D0
:10198000784801F0BAF910BD2DE9F04106460C4641
:101990001746FFF7B6FF4FF48051724801F0AFF9D8
:1019A0000320FFF758FFC4F30740FFF754FFC4F3C9
:1019B0000720FFF750FFE0B2FFF74DFF002503E0DF
:1019C000FFF762FF70556D1CBD42F9D34FF4805193
:1019D000644801F092F9BDE8F0812DE9F041064636
:1019E0000C461746FFF78DFF4FF480515D4801F01C
:1019F00086F90620FFF72FFF4FF48051594801F078
:101A00007CF9FFF77EFF4FF48051564801F077F9DB
:101A10000220FFF720FFC4F30740FFF71CFFC4F3C9
:101A20000720FFF718FFE0B2FFF715FF002503E0DE
:101A3000705DFFF710FF6D1CBD42F9D34FF480516C
:101A4000484801F05AF9BDE8F08170B586B0002031
:101A500005904FF48051434801F051F99F20FFF762
:101A6000FAFEFFF711FF8DF81400FFF70DFF8DF858
:101A70001500FFF709FF8DF816004FF48051394823
:101A800001F03BF900BF04A80BF01EFC04463748E8
:101A9000007810F0020F17D060086421B0FBF1F25B
:101AA00001FB1205C820B4FBF0F69DF817309DF835
:101AB00016209DF815108DE80E009DF814302A466A
:101AC00031462BA00CF0A0FF00BF9DF81400202889
:101AD0000AD19DF81500202806D19DF8160015287A
:101AE00002D1002006B070BDFF20FBE7F8B5FFF77C
:101AF00061FE0A200CF015FBFFF7A7FFC0B900BF7D
:101B000068460BF0E1FB04461848007810F0020F1D
:101B10000DD060086421B0FBF1F201FB1205C82072
:101B2000B4FBF0F62A4631461FA00CF06DFF18E01A
:101B300000BF68460BF0C8FB04460C48007810F064
:101B4000010F0DD060086421B0FBF1F201FB12051A
:101B5000C820B4FBF0F62A4631461FA00CF054FF13
:101B600000BFF8BD000C0140003800400400002018
:101B70005B253034642E253032642F495D3A20696C
:101B800064203D203078253032782C203078253084
:101B900032782C203078253032782C20307825305F
:101BA00032780D0A0D0A00005B253034642E253092
:101BB00032642F495D3A20666C6173682069642045
:101BC000636865636B207375636365737366756CB7
:101BD0006C79210D0A0D0A005B253034642E253006
:101BE00032642F455D3A20666C6173682069642019
:101BF000636865636B206661696C65640D0A0D0A34
:101C0000000000000023C3800381016082807047D0
:101C10000146C8880A89904201D1012070470020FE
:101C2000FCE70146CA880B899A4204DDCA880B8901
:101C3000D21A90B205E08A880B89D21ACB881A444E
:101C400090B270472DE9F04104460F461646E088F1
:101C50002189884204DDE0882189401A85B205E0A7
:101C6000A0882189401AE188084485B2B54202DA89
:101C70000020BDE8F081E088218988420ADD2289C0
:101C800021688818324639460CF0C3FA208930445E
:101C900020811EE0A0882189401A85B2B5420ADD64
:101CA000228921688818324639460CF0B2FA208918
:101CB000304420810DE02289216888182A4639465F
:101CC0000CF0A7FA721B791920680CF0A2FA701BAD
:101CD00020810120CDE72DE9F04104460F4616464C
:101CE000E0882189884206DDA088E188401A2189A0
:101CF000084485B203E02089E188401A85B2B542E4
:101D000002DA0020BDE8F081E088218988421FDDE9
:101D1000A088E188401A85B2B5420ADDE2882068D1
:101D20008118324638460CF074FAE0883044E0807E
:101D300018E0E288206881182A4638460CF069FAD3
:101D4000721B781921680CF064FA701BE08009E0BE
:101D5000E28820688118324638460CF05AFAE0884A
:101D60003044E0800120CDE700BF00BF7047000095
:101D70003EB5044602AB0022CDE9002313462246BD
:101D8000002108460BF0C5F83EBD3EB5044602AB47
:101D90000022CDE900232346114610460BF0B9F886
:101DA0003EBD08B50121082001F0CFF90120ADF8B2
:101DB000000010208DF8030003208DF80200694612
:101DC000FD4800F0EFFE0121FB4800F098FF0420E1
:101DD000FFF7CEFF0121F84800F08FFF0420FFF746
:101DE000C7FF0121F44800F08AFF08BD10B5FFF7D6
:101DF000D8FF10BD08B56A460021F04807F098FAF0
:101E000008BD2DE9FC41044600BF68460BF05CFAB2
:101E10000546EB48007810F0020F0ED068086421E8
:101E2000B0FBF1F201FB1206C820B5FBF0F7E54B61
:101E300032463946E4A00CF0E7FD00BF01ABC820F4
:101E400004FB00F1009300231A46E44808F08AF9E5
:101E5000BDF80400A0F5E441D9391CD100BF6846A3
:101E60000BF032FA0546D648007810F0020F0ED07B
:101E700068086421B0FBF1F201FB1206C820B5FB33
:101E8000F0F7D04B32463946D5A00CF0BDFD00BF6F
:101E90000020BDE8FC810120FBE770B505460E4639
:101EA00000240CE0295DD64801F085FC00BF8021AC
:101EB000D34801F0EEFC0028F9D0601C84B2B44293
:101EC000F0DB70BD1CB501AB009300231A46194628
:101ED000BA4807F02FF81CBD2DE9F04786B006463A
:101EE0000D464FF0000928460CF0D7F987B2FFF7EE
:101EF000E9FFC448FFF738FF30460CF0CEF91FFA6F
:101F000080FA51463046FFF7C8FF0420FFF779FFFB
:101F10008046B8F1010F27D10CE0012205A9B9488C
:101F2000FFF7D9FE9DF814204846411C01F0FF0937
:101F30000DF80020B348FFF76BFE0028EDD0002419
:101F40000CE0285D1DF80410884205D0FFF752FF11
:101F5000002006B0BDE8F087601CC4B2BC42F0DBD4
:101F6000FFF748FF0120F4E7FFF744FF0020F0E708
:101F70002DE9F047A8B005460E464FF00008802135
:101F800008A80CF05FF92B469FA2802108A80096B4
:101F90000CF04AFD00BF01A80BF096F907468848EF
:101FA000007810F0020F10D078086421B0FBF1F235
:101FB00001FB1209C820B7FBF0FA08AB00939A4B5B
:101FC0004A46514699A00CF01FFD00BFFFF77AFF6B
:101FD0009CA108A8FFF780FF0446F4B30A20FFF78E
:101FE00010FF0446012C3BD127E0012207A98548B8
:101FF000FFF771FE00BF01A80BF066F907467048B5
:10200000007810F0020F0FD078086421B0FBF1F2D5
:1020100001FB1209C820B7FBF0FA9DF81C304A46B4
:1020200051468AA00CF0F0FC00BF9DF81C204046F1
:10203000411C01F0FF0802A90A547248FFF7E8FDAD
:102040000028D2D0FFF7D6FE87A102A80CF006F92F
:1020500020B1012028B0BDE8F08705E00020F9E7B5
:10206000FFF7C8FE0020F5E7FFF7C4FE0020F1E708
:102070002DE9FE4F0027002602AB00227DA1574824
:1020800007F041FF02AA7EA14C4806F02CFD02AAEF
:102090007FA1844806F027FD29E28348007830B10B
:1020A000022868D004287ED005287DD1DEE100BF5B
:1020B00001A80BF009F980464148007810F0020FA2
:1020C0000FD04FEA58006421B0FBF1F201FB120976
:1020D000C820B8FBF0FA754B4A46514674A00CF084
:1020E00093FC00BFFFF75DFE0A20FFF741FE0120D1
:1020F0006D49087077A178A0FFF7EEFE01281CD18A
:1021000002206949087000BF01A80BF0DDF8804685
:102110002B48007810F0020F0ED04FEA58006421CF
:10212000B0FBF1F201FB1209C820B8FBF0FA4A46F5
:1021300051466BA00CF068FC1CE000205A49087066
:1021400000BF01A80BF0C0F880461D48007810F0D1
:10215000010F0ED04FEA58006421B0FBF1F201FBF1
:102160001209C820B8FBF0FA4A46514664A00CF0A8
:102170004BFC00BF9BE100BF01A80BF0A5F8804617
:102180000F48007810F0020F12D04FEA5800642177
:10219000B0FBF1F201FB1209C820B8FBF0FA434B87
:1021A0004A46514601E000E180E15DA00CF02CFCC4
:1021B00000BF0024F0E00000000C0140A402002059
:1021C000040000200D0001085B253034642E25300A
:1021D00032642F495D3A2025730D0A007C020020ED
:1021E0005B253034642E253032642F495D3A20253A
:1021F000733A2074696D656F75740D0A00000000F4
:10220000004800407002002041542B434950535471
:102210004152543D22544350222C222573222C2219
:102220002564220D0A000000F2FF00085B2530340F
:10223000642E253032642F495D3A2025733A2025DB
:10224000730D0A000D0A4F4B000000005B2530346F
:10225000642E253032642F495D3A20524543562082
:10226000253032780D0A0000434F4E4E454354202E
:102270004F4B000053494D3830305F5741495400AF
:1022800053494D3830305F4D5554455800000000DB
:1022900053494D3830305F53454E445F4D5554459A
:1022A00058000000D002002058000020E5FF000880
:1022B0005B253034642E253032642F495D3A202569
:1022C000733A2053544154455F554E494E49544545
:1022D000440D0A004154000041540D0A0000000062
:1022E0005B253034642E253032642F495D3A2070EE
:1022F0006F776572757020646F6E650D0A0000005F
:102300005B253034642E253032642F455D3A2070D1
:102310006F7765727570206661696C65640D0A007F
:102320005B253034642E253032642F495D3A2025F8
:10233000733A2053544154455F494E495445440D26
:102340000A000000FF4951F834000BF0A6FF1FFA05
:1023500080F8FC4951F834004146FFF79EFDF948EA
:1023600000EBC4008088B0F57A7F0DDBF54800EB08
:10237000C40080884FF47A7190FBF1F000F0FF0800
:102380004046FFF7F5FC05E0EE4901EBC401888803
:10239000FFF7FBFC601CC4B2082CD3DBEA48FFF754
:1023A000E3FC0420E949087081E000BF01A80AF0BD
:1023B0008BFF8046E648007810F0020F0FD04FEAFE
:1023C00058006421B0FBF1F201FB1209C820B8FBF0
:1023D000F0FAE04B4A465146DFA00CF015FB00BF77
:1023E00042F2B021E6A0FFF7C3FD0546012D1DD145
:1023F00000BF01A80AF068FF8046D548007810F0B9
:10240000010F0ED04FEA58006421B0FBF1F201FB3E
:102410001209C820B8FBF0FA4A465146DCA00CF07D
:10242000F3FA00BF0520C94908701EE000BF01A8EB
:102430000AF04AFF8046C648007810F0010F0ED01F
:102440004FEA58006421B0FBF1F201FB1209C820E9
:10245000B8FBF0FA4A465146D6A00CF0D5FA00BFB8
:102460000020BA490870701C86B220E000BF01A8A5
:102470000AF02AFF8046B648007810F0020F0FD00D
:102480004FEA58006421B0FBF1F201FB1209C820A9
:10249000B8FBF0FAAF4B4A465146D0A00CF0B4FA64
:1024A00000BF01270620A949087000BF00BF00BF78
:1024B000082E1CDD00BF01A80AF006FF8046A448D4
:1024C000007810F0010F10D04FEA58006421B0FBE3
:1024D000F1F201FB1209C820B8FBF0FA9D4B4A4605
:1024E0005146C8A000960CF08FFA00BF02E0002F02
:1024F0003FF4D3AD00BFFFB900BF01A80AF0E4FE6E
:1025000080469348007810F0010F11D04FEA580030
:102510006421B0FBF1F201FB1209C820B8FBF0FA0C
:10252000082300938B4B4A465146BEA00CF06CFA30
:1025300000BF0020BDE8FE8F0120FBE710B5C948B1
:10254000007800B910BD04F04DF801F02FFD04F043
:102550005AF800BFF6E77CB500BF68460AF0B4FE43
:1025600004467B48007810F0020F0FD06008642109
:10257000B0FBF1F201FB1205C820B4FBF0F6BA4B38
:102580002A463146AFF2C0300CF03EFA00BF01AA35
:102590004FF40071B54808F022F87CBD08B540F250
:1025A0002551B34801F08BF9F0B3B14801F007F9B8
:1025B000C0B200909DF80010AEA00CF025FAAE4815
:1025C0004078AD4908700846807848700846C07861
:1025D00088709DF80000C8705C48007809282CD2EB
:1025E000DFE800F005062B2B072B262B080025E043
:1025F00000BF00BFFFF766FC012269465248FFF7A3
:1026000021FB9D4800784F280DD19B4840784B28EE
:1026100009D1994880780D2805D19748C0780A28B3
:1026200001D1FFF798FF00E009E0FFF7E3FB05E0C9
:10263000FFF748FCFFF7DEFB00BF00BF00BF08BD8F
:102640007047002070472DE9FF4104460D468BA0DE
:102650000068029000BF01A80AF036FE06463C481A
:10266000007810F0020F10D070086421B0FBF1F276
:1026700001FB1207C820B6FBF0F8814B3A464146F1
:10268000AFF2584000940CF0BFF900BF03AB0093C9
:1026900000231A4619467B4806F04CFC0A202B49B9
:1026A00008700C2178A0FFF7F8FB6420FFF76DFBA2
:1026B000A9B22046FFF7F1FB082024490870012148
:1026C00002A8FFF7EAFBC820FFF75FFB06201F49BF
:1026D000087003AA00216B4806F02AFEBDE8FF81BE
:1026E00010B586B00121092000F02FFD01218804DA
:1026F00000F038FD4FF48060ADF8140018208DF81C
:10270000170003208DF8160005A9634800F04AFA67
:102710004FF40060ADF8140004208DF8170003207A
:102720008DF8160005A95C4800F03CFA4FF4E13042
:1027300001900020ADF80800ADF80A00ADF80C00DB
:10274000ACE00000140000207002002058000020BF
:1027500004000020E5FF00085B253034642E25309E
:1027600032642F495D3A2025733A20535441544531
:102770005F434F4E4E454354494E470D0A000000FB
:102780003133392E3232342E31372E313633000088
:102790005B253034642E253032642F455D3A20634A
:1027A0006F6E6E6563742073756363657373210D5B
:1027B0000A0000005B253034642E253032642F453A
:1027C0005D3A20636F6E6E656374206661696C6547
:1027D000642C207265747279210D0A005B253034F7
:1027E000642E253032642F495D3A2025733A2053F8
:1027F000544154455F434F4E4E45435445440D0AA2
:10280000000000005B253034642E253032642F45F3
:102810005D3A2025733A207265747279203D202537
:10282000640D0A005B253034642E253032642F4558
:102830005D3A2025733A2057652063616E6E6F7490
:1028400020636F6E6E656374207365727665722C9B
:1028500020726574726965642025642074696D65F1
:10286000730D0A00B5000020190001087C02002049
:102870000048004025630000540000201A000000BA
:1028800001000108D002002041542B434950534518
:102890004E440D0A00000000000C0140ADF810008D
:1028A0000C20ADF80E0001A9164800F088FE00BF0C
:1028B00015480088C4B24FF04020B0F80008C4B2F8
:1028C0004FF0010240F225510E4800F010FF0121A7
:1028D0000C4800F000FF4FF480720C490C48FFF7E1
:1028E00091F900200B490870AFF24F31272001F019
:1028F0003EFA0121272001F052FA272001F02DFA9B
:1029000006B010BD0048004004480040700100209F
:10291000700200205800002070B505460C4645F2B4
:10292000555000F08BFA204600F08EFA284600F051
:1029300088FA00F08CFA00F08FFA70BD10B500F044
:1029400086FA10BD10B50446204601F027F810BDE8
:1029500008B500208DF8000002208DF8010003204A
:102960008DF8020001208DF80300684600F043F85E
:1029700008BD70B506460C4615460121C80200F098
:10298000F1FB0F48007830400E490870284600F0EF
:10299000E4FF204600F0ECFF0A48007800F0FEFF5C
:1029A00001F005F8FFF7D4FF00F0EFFF70BD10B5A0
:1029B0000448007800F0EDFF00F0F9FF10BD0000C2
:1029C000590000205A00002006488047064800476A
:1029D000FEE7FEE7FEE7FEE7FEE7FEE7FEE7FEE7CF
:1029E000FEE7FEE7A93B0008310100083649014334
:1029F000364A1160704770B5002100230F22C47859
:102A00004CB3324C246804F4E064C4F5E0644FEA4B
:102A10001421C1F1040322FA01F2447804FA03F10B
:102A2000847804EA020444EA01014FEA0111284CC7
:102A30000678A155047804F01F054FF0010404FA4C
:102A400005F405784FEA65154FF0E02606EB85059D
:102A5000C5F8004109E0047804F01F050124AC40EA
:102A60001C4D0678761145F8264070BD1A4A0A407A
:102A700002431A4B1A60704741B1194A126842EA80
:102A800000024FF0E023C3F8102D07E0144A12684B
:102A900022EA00024FF0E023C3F8102D704704280B
:102AA00008D14FF0E021096941F004014FF0E02224
:102AB000116107E04FF0E021096921F004014FF0B6
:102AC000E0221161704700000000FA050CED00E003
:102AD00000E400E080E100E080FFFF1F08ED00E07F
:102AE00010ED00E010B50446CA48844208D1012127
:102AF000042000F044FB0021042000F040FB46E0ED
:102B0000C548844208D10121082000F038FB00218B
:102B1000082000F034FB3AE0C048844208D101218B
:102B2000102000F02CFB0021102000F028FB2EE0EC
:102B3000BB48844208D10121202000F020FB002165
:102B4000202000F01CFB22E0B648844208D101217D
:102B5000402000F014FB0021402000F010FB16E0A4
:102B6000B148844208D10121802000F008FB0021F7
:102B7000802000F004FB0AE0AC48844207D1012128
:102B8000801500F0FCFA0021A01500F0F8FA10BD45
:102B900010B50121084600F0F2FA0021012000F0F2
:102BA000EEFA10BD2DE9F041024600250026002076
:102BB00000230024002791F803C00CF00F0591F8C2
:102BC00003C01CF0100F03D091F802C04CEA0505B9
:102BD000B1F800C01CF0FF0F31D0146800202BE0CA
:102BE0004FF0010C0CFA00F3B1F800C00CEA030638
:102BF0009E4220D183004FF00F0C0CFA03F7BC4328
:102C000005FA03FC4CEA040491F803C0BCF1280F58
:102C100006D14FF0010C0CFA00FCC2F814C00AE017
:102C200091F803C0BCF1480F05D14FF0010C0CFA2C
:102C300000FCC2F810C0401C0828D1D31460B1F8C1
:102C400000C0BCF1FF0F34DD546800202EE000F11D
:102C5000080C4FF0010808FA0CF3B1F800C00CEAB8
:102C600003069E4221D183004FF00F0C0CFA03F7AC
:102C7000BC4305FA03FC4CEA040491F803C0BCF120
:102C8000280F05D100F1080C08FA0CF8C2F81480DE
:102C900091F803C0BCF1480F07D100F1080C4FF0C8
:102CA000010808FA0CF8C2F81080401C0828CED39E
:102CB0005460BDE8F0814FF6FF7101800221817000
:102CC0000421C17070470246002093680B4201D076
:102CD000012000E0002070470146886880B27047FC
:102CE00002460020D3680B4201D0012000E0002002
:102CF00070470146C86880B2704701617047416102
:102D000070470AB1016100E041617047C1607047DE
:102D10004FF480320A4382618161826182698269F3
:102D2000704702460020424B18684FF680731840E7
:102D300040EA021008433E4B186070473D49C861A5
:102D40007047F0B50A46002300240021002500F05A
:102D50000046B6F1004F02D1354EF16901E0344E24
:102D60007168C0F3034583B200F44016B6F5401F06
:102D700008D121F070612E4E766826F070662C4FD7
:102D80007E6012E000F48016B6F5801F06D103269F
:102D900006FA05F4A14341F0706106E0460D3601E4
:102DA00003FA06F6B14341F0706122B1460D3601D7
:102DB00003FA06F6314300F00046B6F1004F02D1A7
:102DC0001B4EF16101E01A4E7160F0BD30B500227A
:102DD0008B071C0F0F2303FA04F2154B08338C10DA
:102DE00053F824309343124C08348D1044F82530A6
:102DF00023468C1053F824308C07240F00FA04F477
:102E000023430B4C08348D1044F8253030BD0A495B
:102E10000860704700080140000C014000100140AC
:102E20000014014000180140001C01400020014036
:102E30000000014000002042DC0020420E490860F2
:102E400070470D49486070470B49886070474AF6E3
:102E5000AA200949086070474CF6CC400649086032
:102E6000704701460020044AD2680A4201D001207E
:102E700000E000207047000000300040DB480068A0
:102E800040F00100D949086008464068D849084028
:102E9000D649486008460068D6490840D3490860CA
:102EA0000846006820F4802008600846406820F446
:102EB000FE0048604FF41F0088607047CB490968E6
:102EC00021F48031C94A11601146096821F480213A
:102ED0001160B0F5803F03D0B0F5802F0ED106E031
:102EE000C249096841F48031C04A116007E0BF4916
:102EF000096841F4A021BD4A116000E000BF00BF95
:102F0000704710B501460022002300204A11012A13
:102F100002D1B64C236806E0022A02D1B34C236AE0
:102F200001E0B24C636A01F01F02012494401C428C
:102F300001D0012000E0002010BD70B50024002564
:102F4000002600BF3120FFF7DCFF0646641CB4F505
:102F5000A06F01D0002EF5D03120FFF7D2FF08B1CD
:102F6000012500E00025284670BD014600209F4A4B
:102F7000106820F0F80040EAC100106070479E49D8
:102F80000860704702460020984B586820F47C1077
:102F900042EA01031843954B58607047964908660A
:102FA000704701460020914A506820F00300084312
:102FB000506070478D48406800F00C007047014633
:102FC00000208A4A506820F0F000084350607047A3
:102FD00001460020854A506820F4E06008435060B4
:102FE000704701460020814A506820F4605040EA52
:102FF000C1005060704729B17C4A527A02437B4B32
:103000005A7206E0794A527AC343DBB21A40774BD0
:103010005A72704779490860704701460020734A28
:10302000506820F440400843506070470021744AC3
:1030300011706E4A82F82010012802D0042808D1AD
:1030400003E001216E4A117004E005216C4A117001
:1030500000E000BF00BF70476A49086070476349DD
:10306000096A0143614A1162704767490860704705
:1030700030B500210022002400235C4D6D6805F06E
:103080000C0121B1042905D0082923D105E05F4DA9
:10309000056022E05E4D05601FE0544D6D6805F44B
:1030A0007012524D6D6805F48034022505EB924292
:1030B0001CB9584D554305600BE04C4D6D6815F437
:1030C000003F03D0544D5543056002E0504D554339
:1030D000056002E04D4D056000BF00BF434D6D68C7
:1030E00005F0F00109094D4D6B5C0568DD40456058
:1030F0003E4D6D6805F4E061090A484D6B5C45681A
:10310000DD408560394D6D6805F46051C90A434D55
:103110006B5C4568DD40C560344D6D6805F4404129
:10312000890B3F4D6B5CC568B5FBF3F5056130BDA0
:1031300029B12E4A526902432C4B5A6104E02B4AB2
:1031400052698243294B5A61704729B1274A9269D3
:103150000243264B9A6104E0244A92698243234B3E
:103160009A61704729B1214AD26902431F4BDA6143
:1031700004E01E4AD26982431C4BDA61704729B1D0
:103180001A4AD2680243194BDA6004E0174AD2683F
:103190008243164BDA60704729B1144A1269024320
:1031A000124B1A6104E0114A126982430F4B1A61F3
:1031B00070471C49086070470F49C86470470B4945
:1031C000C87170470948406A40F0807007494862FA
:1031D000704701460020054A92680A4201D001204A
:1031E00000E00020704701498872704700100240DB
:1031F0000000FFF8FFFFF6FE00004242D800424206
:1032000020100240800442423C04424200127A00F4
:10321000001BB70000093D00808D5B005B000020B3
:103220006B0000204004424210B50446BF4884426F
:1032300008D101218014FFF7A2FF0021A014FFF79D
:103240009EFF16E0BA48844208D101210014FFF71E
:10325000A3FF00212014FFF79FFF0AE0B548844236
:1032600007D10121C013FFF797FF0021E013FFF7FB
:1032700093FF10BD10B50022028802F441520B8862
:103280004C8823438C882343CC8823430C892343D5
:103290004C8923438C892343CC8923431A430280DE
:1032A000838B4FF2FF74234083830B8A038210BD0C
:1032B0002DE9F04F85B005460C464FF00009022776
:1032C0004FF000084FF0010B0026B246A88B4FF2DA
:1032D00040010840A88302202884B5F81C90A0680B
:1032E000022801D100BF36E0A08810B94FF0010BD1
:1032F00001E04FF0020B8E48854200D100E000BF94
:103300006846FFF7B5FEDDF800A0E088B0F5007F65
:103310000AD14FEA1A2000EB80004000A168B0FB00
:10332000F1F0401D86B20BE04FEA4B10BAFBF0F013
:1033300000EB80004000A168B0FBF1F0401D86B2B8
:103340000A20B6FBF0F606F00108A6EB0800C0F371
:103350004F074FEA0828022F01DBFF2F02DD02276B
:103360004FF00008E08840EA080038432884A0882D
:10337000A1890843618808432188084340F400601C
:1033800040EA0909A5F81C9005B0BDE8F08F0021BE
:10339000018041808180C180018141818181C18121
:1033A0000721018270470021018041808180C18016
:1033B0000221816000218181704721B1028842F0A1
:1033C0004002028004E002884FF6BF731A40028078
:1033D000704721B1828B42F48062828304E0828B49
:1033E0004FF6FF331A408283704770B500240023E4
:1033F0000C110125A540ABB21AB185881D4385800B
:1034000004E08588DE43B6B23540858070BD10B5D6
:103410001AB183880B43838004E08388CC43A4B231
:103420002340838010BD81817047014688897047A1
:10343000A1F57E42FF3A04D0028842F480720280F5
:1034400004E002884FF6FF631A400280704721B102
:10345000828842F00402828004E082884FF6FB7387
:103460001A408280704702884FF2FF731A40028030
:1034700002880A4302807047018841F4805101802C
:10348000704721B1028842F40052028004E00288B1
:103490004DF6FF731A400280704702460020012952
:1034A00001D0108B00E0908A70470146088A70476F
:1034B000B1F5804F04D1028842F48042028004E0DA
:1034C00002884BF6FF731A400280704702460020C4
:1034D00013890B4201D0012000E000207047CA434D
:1034E00002817047F0B50246002000240023002529
:1034F00001F00F070126BE40B4B20B1101269E4019
:10350000B3B2968806EA03051689264202D00DB1A9
:10351000012000E00020F0BD10B5002201F00F04F2
:103520000123A3409AB2D343038110BD0030014070
:1035300000380040003C004010B50446FC4884427E
:1035400009D101218803FFF71AFE00214FF48040C2
:10355000FFF715FE32E0F748844209D10121480403
:10356000FFF71AFE00214FF40030FFF715FE25E0AB
:10357000F148844209D101218804FFF70DFE0021A2
:103580004FF48020FFF708FE18E0EC48844209D190
:103590000121C804FFF700FE00214FF40020FFF7CF
:1035A000FBFD0BE0E648844208D101210805FFF746
:1035B000F3FD00214FF48010FFF7EEFD10BD2DE963
:1035C000F04786B005460E460024A24600BFA1463D
:1035D0000027B08900B100BF2F462C8A4CF6FF703F
:1035E0000440F08804432C82AC894EF6F31004406A
:1035F000B08831890843718908430443AC81AC8A9F
:103600004FF6FF400440B0890443AC8201A8FFF7A5
:103610002FFDC748874202D1DDF810A001E0DDF898
:103620000CA0A88910F4004F08D00AEBCA0000EBE8
:103630000A1031684900B0FBF1F807E00AEBCA0054
:1036400000EB0A1031688900B0FBF1F86420B8FB88
:10365000F0F004012009642101FB1089A88910F40D
:10366000004F08D0322000EBC900B0FBF1F000F0B1
:103670000700044308E0322000EB09106421B0FB8E
:10368000F1F000F00F0004432C8106B0BDE8F08794
:103690004FF41651016000218180C18001810C210D
:1036A000418100218181704710B502460020108AB7
:1036B0004FF2FF0318400B884C8823438C88234328
:1036C000CC8823431843108210BD00210180418023
:1036D0008180C180704721B1828942F40052828189
:1036E00004E082894DF6FF731A4082817047F0B57D
:1036F00003460024002600250020A1F510676A3F3C
:1037000000D100BF1846C1F3421401F01F06012783
:1037100007FA06F5012C01D10C3004E0022C01D18E
:10372000103000E014301AB107682F43076002E040
:103730000768AF430760F0BD10B51AB1838A0B4329
:10374000838204E0838ACC43A4B22340838210BDE9
:10375000028A4FF6F0731A400282028A0A430282FA
:10376000704782894FF2FF731A40828182890A432F
:103770008281704721B1828942F00202828104E095
:1037800082894FF6FD731A4082817047028A4FF694
:10379000DF731A400282028A0A430282704721B113
:1037A000028A42F48042028204E0028A4BF6FF73EE
:1037B0001A4002827047C1F30802828070470146B6
:1037C0008888C0F308007047818941F00101818138
:1037D0007047028BD2B20283028B42EA012202833B
:1037E0007047028B02F47F420283028B0A430283FA
:1037F000704721B1828A42F02002828204E0828AEC
:103800004FF6DF731A408282704721B1828A42F0FC
:103810001002828204E0828A4FF6EF731A4082829D
:10382000704721B1828A42F00802828204E0828AD3
:103830004FF6F7731A408282704721B1828942F4B1
:103840000042828103E08289C2F30E0282817047C6
:1038500021B1828A42F40062828204E0828A4FF2BD
:10386000FF731A4082827047828A4FF6FB731A40B8
:103870008282828A0A438282704721B1828A42F020
:103880000202828204E0828A4FF6FD731A4082822D
:10389000704702460020B1F5007F00D100BF1388B9
:1038A0000B4201D0012000E00020704701F40072BB
:1038B000B2F5007F00D100BFCA430280704770B5E7
:1038C00002460024002300250020A1F510666A3E70
:1038D00000D100BFC1F3421501F01F03012606FA13
:1038E00003F3012D02D19689334006E0022D02D167
:1038F000168A334001E0968A33400C12012606FAFC
:1039000004F41688344013B10CB1012000E000200B
:1039100070BD10B500220023A1F510646A3C00D1EF
:1039200000BF0A1201249440A3B2DC43048010BDFE
:10393000003801400044004000480040004C004076
:103940000050004010B50121C802FFF725FC0021FE
:103950004FF40060FFF720FC10BD0021164A1268EA
:1039600022F4C07141EA0001144AC2F8041C7047F5
:103970000021114A126822F07F0100F07F0242EA22
:1039800001010E4AC2F8041C704701200C4908606E
:10399000704700F07F010B4A1160704740F08001D2
:1039A000084A1160704708480068C0B2704700209C
:1039B0000549086070470000042C004000200040CA
:1039C000A4800542002C0040082C00408AB000244E
:1039D0004FF4A060FFF70AF80AF04AFBFCF758FC26
:1039E00009A802F069FD30A00BF00EF800BF00BF7F
:1039F00000BF00F0D9FC044600BF00BF304800788B
:103A0000401C2F49087000BF00BF204600F0D0FCCA
:103A100000BF00BF00BF09AB03220021059106A82B
:103A20000EC00B464FF4007233212648CDE9032324
:103A3000CDE90101032300930023234A23A1264853
:103A400007F0CAFA00BF00BF00BF00F0ADFC04469B
:103A500000BF00BF1A480078401E19490870084688
:103A60000078A0B91D480088002809DD00BF00BF0C
:103A7000204600F09DFC00BF00BF03F049FB0DE0B5
:103A800000BF00BF204600F093FC00BF06E000BF6F
:103A900000BF204600F08CFC00BF00BF00BF09A89B
:103AA00002F0D9FF00BFFEE70D0A0D0A2B2B4E6F67
:103AB000772053746172742B2B0D0A0D0A000000DD
:103AC000FC00002098240020F5DD0008537461728A
:103AD00074205461736B0000D4230020C0000020C8
:103AE00000210020674A126842F48032654B1A6058
:103AF00000BF644A126802F40030491C10B9B1F5E5
:103B0000A06FF6D15F4A126812F4003F01D0012085
:103B100000E00020012842D15B4A126842F0100206
:103B2000594B1A601A46126822F003021A601A46AC
:103B3000126842F002021A60524A5268514B5A60AF
:103B40001A4652685A601A46526842F480625A60B5
:103B50001A46526822F47C125A601A46526842F49D
:103B600088125A601A46126842F080721A6000BFCA
:103B7000444A126812F0007FFAD0424A526822F09A
:103B80000302404B5A601A46526842F002025A60E1
:103B900000BF3C4A526802F00C02082AF9D1704773
:103BA00010B5FFF79DFF10BD10B53648006840F016
:103BB00001003449086008464068344908403149EA
:103BC000486008460068324908402E4908600846A7
:103BD000006820F4802008600846406820F4FE0059
:103BE00048604FF41F008860FFF7DAFF4FF0006075
:103BF0002849086010BD10B5002100200022214B8B
:103C00005B6803F00C0121B1042906D0082928D1F2
:103C100007E0214B214C236027E0214B1F4C236000
:103C200023E0184B5B6803F47010164B5B6803F4D9
:103C30008032022303EB904022B91A4B4343174CC6
:103C400023600DE00F4B5B6813F4003F04D0164B6C
:103C50004343124C236003E0114B43430F4C23605A
:103C600003E00D4B0D4C236000BF00BF054B5B68AC
:103C7000C3F303130D4CE15C084B1B68CB40074CAE
:103C8000236010BD00100240002002400000FFF839
:103C9000FFFFF6FE08ED00E000127A007000002041
:103CA000001BB70000093D00808D5B007400002000
:103CB00000B585B06846FFF7DBF9019805B000BD97
:103CC00010B5FFF7F5FF04461948006840F0807012
:103CD0004FF0E021C1F8FC0D4FF00000154948609D
:103CE0000846006840F001000860204600F060FAD5
:103CF00010BD1049486870472DE9F0478246FFF72C
:103D0000D7FF4FF0000980460B4A00234046494642
:103D10000AF036FA064602460B46504600210AF0E3
:103D20002FFA04460D4620462946BDE8F0870000DC
:103D3000FCED00E0001000E040420F00704710B5BD
:103D40000446442C04D204F11000C0B200F07CFB05
:103D500010BD10B500F024FB10BD10B50446442C76
:103D600004D204F11000C0B200F01AFC10BD70B50E
:103D700004460D460026442C10D200BF00BF00F0C0
:103D800013FB064600BF00BFBF4840F8245000BFE9
:103D900000BF304600F00CFB00BF00BF70BD70B527
:103DA00004460D460026442C13D200BF00BF00F08D
:103DB000FBFA064600BF00BF294604F11000C0B25E
:103DC00000F0EDFC00BF00BF304600F0F1FA00BF8C
:103DD00000BF70BD704710B5002404E0AB49204619
:103DE000FFF7C5FF641C442CF8D310BD70B5044622
:103DF000002600BF00BF00F0D7FA064600BF00BF94
:103E000002F0F0FB00BF00BF304600F0D1FA00BF67
:103E100000BF442C04D29C4850F8245005B1A84758
:103E200002F0F1FB70BD10B50020FFF7DFFF10BD01
:103E300010B50120FFF7DAFF10BD10B50220FFF723
:103E4000D5FF10BD10B50320FFF7D0FF10BD10B592
:103E50000420FFF7CBFF10BD10B50520FFF7C6FF0C
:103E600010BD10B50620FFF7C1FF10BD10B507202B
:103E7000FFF7BCFF10BD10B50820FFF7B7FF10BD5E
:103E800010B50920FFF7B2FF10BD10B50A20FFF7EB
:103E9000ADFF10BD10B50B20FFF7A8FF10BD10B58A
:103EA0000C20FFF7A3FF10BD10B50D20FFF79EFFFC
:103EB00010BD10B50E20FFF799FF10BD10B50F20F3
:103EC000FFF794FF10BD10B51020FFF78FFF10BD56
:103ED00010B51120FFF78AFF10BD10B51220FFF7B3
:103EE00085FF10BD10B51320FFF780FF10BD10B582
:103EF0001420FFF77BFF10BD10B51520FFF776FFEC
:103F000010BD10B51620FFF771FF10BD10B51720BA
:103F1000FFF76CFF10BD10B51820FFF767FF10BD4D
:103F200010B51920FFF762FF10BD10B51A20FFF77A
:103F30005DFF10BD10B51B20FFF758FF10BD10B579
:103F40001C20FFF753FF10BD10B51D20FFF74EFFDB
:103F500010BD10B51E20FFF749FF10BD10B51F2082
:103F6000FFF744FF10BD10B52020FFF73FFF10BD45
:103F700010B52120FFF73AFF10BD10B52220FFF742
:103F800035FF10BD10B52320FFF730FF10BD10B571
:103F90002420FFF72BFF10BD10B52520FFF726FFCB
:103FA00010BD10B52620FFF721FF10BD10B527204A
:103FB000FFF71CFF10BD10B52820FFF717FF10BD3D
:103FC00010B52920FFF712FF10BD10B52A20FFF70A
:103FD0000DFF10BD10B53220FFF708FF10BD10B562
:103FE0003320FFF703FF10BD10B53420FFF7FEFEAE
:103FF00010BD10B53520FFF7F9FE10BD10B5362005
:10400000FFF7F4FE10BD10B53720FFF7EFFE10BD2F
:1040100010B53820FFF7EAFE10BD10B53920FFF7C4
:10402000E5FE10BD10B53A20FFF7E0FE10BD10B55B
:104030003B20FFF7DBFE10BD10B53C20FFF7D6FE9E
:1040400010BD10B53D20FFF7D1FE10BD10B53E20CC
:10405000FFF7CCFE10BD10B53F20FFF7C7FE10BD27
:1040600010B54020FFF7C2FE10BD10B54120FFF78C
:10407000BDFE10BD10B54220FFF7B8FE10BD10B553
:104080004320FFF7B3FE10BDFC020020D53D000821
:1040900010B5002400BF00BF00F086F9044600BF41
:1040A00000BF1021BB4800F0EEFE00BF00BF20465D
:1040B00000F07EF900BF00BF10BD10B5FFF7E8FFAC
:1040C00010BD10B50020B4490860FFF7F9FD10BD20
:1040D00010B5FFF7F6FFFFF7F0FF10BD00BFFEE7DA
:1040E00070B505460C46002614B900BFFFF7F6FF71
:1040F00015B90A20208070BD00BF00BF00F054F940
:10410000064600BF00BF1022A249284601F072FBFC
:1041100000BF00BF304600F04BF900BF00BF0020D9
:10412000208000BFE7E72DE9F04105460C46002757
:1041300014B900BFFFF7D2FF1DB90A202080BDE8E7
:10414000F0811021284601F03DFB0646102E15D2C5
:1041500000BF00BF00F028F9074600BF00BF1022D3
:1041600029468C4801F046FB00BF00BF384600F0EE
:104170001FF900BF00BF0020208002E04FF47A70DA
:10418000208000BFDBE710B5FFF7B3FD04462046F3
:1041900010BD7047014611B900BFFFF79FFF7E4A6F
:1041A000106808B1002201E04FF4FA620A807047FB
:1041B00079490860704770B50546284600F0FFF859
:1041C0000446183C204670BD70B50546284600F0F0
:1041D000F6F80446103C204670BD70B505462846EA
:1041E00000F0EDF8044600BF204670BD2DE9F04F09
:1041F0008BB004460D464FF0FF314FF00000091B15
:10420000A84143D24FF0FF31080C091BA8411DD231
:104210004FF0FF31080A091BA8410AD23822A046F4
:10422000A9462046294609F0DEFF06465B498F5D18
:1042300069E03022A246AB462046294609F0D3FF6A
:1042400006465649885D00F108075CE04FF0FF31F3
:10425000FF20091BA8410CD2282220462946CDE97F
:10426000015409F0C0FF06464C49885D00F1100773
:1042700049E0202220462946CDE9035409F0B3FF46
:1042800006464649885D00F118073CE04FF6FF718D
:104290000020091BA8411FD26FF07F410020091B9D
:1042A000A8410CD2182220462946CDE9055409F030
:1042B0009AFF06463949885D00F1200723E0102265
:1042C00020462946CDE9075409F08DFF06463349BB
:1042D000885D00F1280716E0FF210020091BA84196
:1042E0000CD2082220462946CDE9095409F07BFF6B
:1042F00006462A49885D00F1300704E02646274833
:10430000805D00F1380738460BB0BDE8F08F70B51E
:1043100004460CB9082070BD204600F053F805464D
:104320002846F8E770B504460CB9102070BD204649
:1043300000F048F805462846F8E770B504460CB981
:10434000202070BD204600F03DF805462846F8E7DD
:104350002DE9F04704460D464FF0000184EA0100C4
:1043600085EA0101084302D14020BDE8F087E2431D
:10437000E843521C40F1000102EA040601EA050785
:1043800030463946FFF732FF8046C8F13F094846BC
:10439000EBE700000C04002084000020240001084A
:1043A00072B6704762B67047EFF3108072B670470E
:1043B00080F31088704730BF704720BF7047B0FA55
:1043C00080F0704790FAA0F0B0FA80F0704790FA51
:1043D000A0F0704710B5B0F1005F0AD3F74CA042CF
:1043E00007D8440104EB810303F108520024146050
:1043F0000CE0B0F1804F09D3F14CA04206D8440143
:1044000004EB810303F184420024146010BD10B555
:10441000B0F1005F0AD3E94CA04207D8440104EB95
:10442000810303F10852012414600CE0B0F1804FC5
:1044300009D3E34CA04206D8440104EB810303F105
:1044400084420124146010BD2DE9F04104464FF070
:104450000008102C72D2DFE804F0080E0F10142BA5
:1044600042090A0B0C11120D135900BF00BF00BF07
:1044700000BF00BF91E000BF00BF00BF00BF00BF92
:104480008BE000BF00BFFFF78FFF804600BF00BF7B
:10449000CC48006820F480304FF0E021C1F8240DB2
:1044A00000BF00BF4046FFF783FF00BF00BF74E0BE
:1044B00000BF00BFFFF778FF804600BF00BFC148C4
:1044C000006820F400304FF0E021C1F8240D00BF57
:1044D00000BF4046FFF76CFF00BF00BF5DE000BFBC
:1044E00000BFFFF761FF804600BF00BFB54800680E
:1044F00020F480204FF0E021C1F8240D00BF00BF60
:104500004046FFF755FF00BF00BF46E000BF00BFB9
:10451000FFF74AFF804600BF00BF4FF0E020006970
:1045200020F001004FF0E021086100BF00BF4046CD
:10453000FFF73EFF00BF00BF2FE0FFE74FF0E02096
:104540004068401C102101EB4010C6B2B44223DA8F
:10455000A4F11000C11700EBD161C1F34715C117D9
:1045600000EBD1614911A0EB4111CFB200BF00BFF8
:10457000FFF71AFF804600BF00BF0120B8404FF090
:10458000E02101EB8501C1F8800100BF00BF40467A
:10459000FFF70EFF00BF00BF00BF00BFBDE8F08106
:1045A0002DE9F04104464FF00008102C72D2DFE8EC
:1045B00004F0080E0F10142B42090A0B0C11120DF7
:1045C000135900BF00BF00BF00BF00BF91E000BF94
:1045D00000BF00BF00BF00BF8BE000BF00BFFFF700
:1045E000E3FE804600BF00BF7648006840F480309C
:1045F0004FF0E021C1F8240D00BF00BF4046FFF797
:10460000D7FE00BF00BF74E000BF00BFFFF7CCFEC5
:10461000804600BF00BF6B48006840F400304FF098
:10462000E021C1F8240D00BF00BF4046FFF7C0FEE7
:1046300000BF00BF5DE000BF00BFFFF7B5FE8046D2
:1046400000BF00BF5F48006840F480204FF0E021C9
:10465000C1F8240D00BF00BF4046FFF7A9FE00BF10
:1046600000BF46E000BF00BFFFF79EFE804600BFD0
:1046700000BF4FF0E020006940F001004FF0E02162
:10468000086100BF00BF4046FFF792FE00BF00BFB9
:104690002FE0FFE74FF0E0204068401C102101EBC5
:1046A0004010C7B2BC4223DAA4F11000C11700EBDE
:1046B000D161C1F34715C11700EBD1614911A0EBDE
:1046C0004111CEB200BF00BFFFF76EFE804600BFB3
:1046D00000BF0120B0404FF0E02101EB8501C1F89F
:1046E000000100BF00BF4046FFF762FE00BF00BFF1
:1046F00000BF00BFBDE8F0812DE9F04104464FF056
:104700000008102C19D2DFE804F0080E0F10111564
:1047100016090A0B0C12130D141700BF00BF00BFBF
:1047200000BF00BF38E000BF00BF00BF00BF00BF38
:1047300000BF00BF00BF00BF2EE04FF0E020406888
:10474000401C102101EB4010C7B2BC4223DAA4F197
:104750001000C11700EBD161C1F34715C11700EB81
:10476000D1614911A0EB4111CEB200BF00BFFFF7EC
:104770001BFE804600BF00BF0120B0404FF0E0218B
:1047800001EB8501C1F8800200BF00BF4046FFF782
:104790000FFE00BF00BF00BF00BFBDE8F0812DE9E4
:1047A000F05F06460D464FF0000B2846FFF70FFE60
:1047B00082464FEA1A65102E7DD205E0FFFF0F20DA
:1047C000FFFF0F4024ED00E0DFE806F0080E0F10B9
:1047D000112A43090A0B0C5C760D8FA800BF00BF9D
:1047E00000BF00BF00BFF1E000BF00BFEEE000BFB0
:1047F00000BFFFF7D9FD834600BF00BFE54804684E
:1048000024F0FF0444EA05044FF0E020C0F8184DFE
:1048100000BF00BF5846FFF7CBFD00BF00BFD5E08B
:1048200000BF00BFFFF7C0FD834600BF00BFD948EF
:10483000046824F47F4444EA05244FF0E020C0F8E3
:10484000184D00BF00BF5846FFF7B2FD00BF00BFC4
:10485000BCE000BF00BFFFF7A7FD834600BF00BF5D
:10486000CC48046824F47F0444EA05444FF0E02077
:10487000C0F8184D00BF00BF5846FFF799FD00BFB4
:1048800000BFA3E000BF00BFFFF78EFD834600BF5F
:1048900000BFC148046824F07F4444EA05644FF037
:1048A000E020C0F81C4D00BF00BF5846FFF780FD58
:1048B00000BF00BF8AE04AE000BF00BFFFF774FD01
:1048C000834600BF00BFB548046824F0FF0444EAF3
:1048D00005044FF0E020C0F8204D00BF00BF58464F
:1048E000FFF766FD00BF00BF70E000BF00BFFFF72D
:1048F0005BFD834600BF00BFA848046824F47F0422
:1049000044EA05444FF0E020C0F8204D00BF00BF4E
:104910005846FFF74DFD00BF00BF57E000BF00BF86
:10492000FFF742FD834600BF00BF9C48046824F0A7
:104930007F4444EA05644FF0E020C0F8204D00BFFA
:1049400000BF5846FFF734FD00BF00BF3EE04FF008
:10495000E0204068401C102101EB401000F0FF09EE
:104960004E4532DAA6F11000C11700EB9171C1F388
:104970008707C11700EB91718910A0EB810101F04D
:10498000FF0800BF00BFFFF70FFD834600BF00BF59
:104990004FF0E02000EB8700D0F800444FEAC80158
:1049A000FF20884084434FEAC80105FA01F0044320
:1049B0004FF0E02000EB8700C0F8004400BF00BFCC
:1049C0005846FFF7F5FC00BF00BF00BF00BFBDE8C1
:1049D000F09F2DE9F05F06464FF0000B102E6FD2CE
:1049E000DFE806F0080F1215182A3D090A0B0C49DA
:1049F0005C0D6F8200BF00BF00BF00BF00BF684CEE
:104A0000BBE06FF00204B8E06FF00104B5E04FF0D6
:104A1000FF34B2E000BF00BFFFF7C6FC834600BF13
:104A200000BF5C480568ECB200BF00BF5846FFF706
:104A3000BFFC00BF00BFA0E000BF00BFFFF7B4FC99
:104A4000834600BF00BF53480568C5F3072400BF75
:104A500000BF5846FFF7ACFC00BF00BF8DE000BFB1
:104A600000BFFFF7A1FC834600BF00BF49480568AF
:104A7000C5F3074481E000BF00BFFFF795FC834604
:104A800000BF00BF444805684FEA156400BF00BF7F
:104A90005846FFF78DFC00BF00BF6EE000BF00BFAF
:104AA000FFF782FC834600BF00BF3C480568ECB2BC
:104AB00000BF00BF5846FFF77BFC00BF00BF5CE0B3
:104AC00025E000BF00BFFFF76FFC834600BF00BFBB
:104AD00032480568C5F3074400BF00BF5846FFF7DA
:104AE00067FC00BF00BF48E000BF00BFFFF75CFCF1
:104AF000834600BF00BF294805684FEA156400BF20
:104B000000BF5846FFF754FC00BF00BF35E04FF030
:104B1000E0204068401C102101EB401000F0FF0A2B
:104B2000564528DAA6F11000C11700EB9171C1F3C8
:104B30008707C11700EB91718910A0EB810101F08B
:104B4000FF0900BF00BFFFF72FFC834600BF00BF77
:104B50004FF0E02000EB8700D0F8005400BF00BF0A
:104B60005846FFF725FC00BF00BF4FEAC90025FAF1
:104B700000F0C4B200E00A4C00BF00BF002C05DB0F
:104B80002046FFF724FC80464FEA18642046BDE823
:104B9000F09F000018ED00E01CED00E020ED00E0CB
:104BA0000080FFFF0146412903DB5A2901DC012275
:104BB00000E00022012A08D0612903DB7A2901DC08
:104BC000012200E00022012A01D1012200E000229E
:104BD000D0B270470146412903DB5A2901DC01228A
:104BE00000E00022012A08D0612903DB7A2901DCD8
:104BF000012200E00022012A01D1012200E000226E
:104C0000012A08D0302903DB392901DC012200E028
:104C10000022012A01D1012200E00022D0B2704717
:104C20000146612903DB7A2901DC012200E0002230
:104C3000D0B270470146412903DB5A2901DC012229
:104C400000E00022D0B270470146302903DB392949
:104C500001DC012200E00022D0B270470146302979
:104C600003DB372901DC012200E00022D0B27047CB
:104C70000146302901DB392907DD412901DB4629BD
:104C800003DD612903DB662901DC012200E000224B
:104C9000D0B270470146202901D0092901D1012253
:104CA00000E00022D0B270470146202909D00D292A
:104CB00007D00A2905D00C2903D0092901D00B29D6
:104CC00001D1012200E00022D0B270470146202924
:104CD00003DB7E2901DC012200E00022D0B2704714
:104CE0000146212903DB7E2901DC012200E00022AC
:104CF000D0B270470146202903DB7E2901DC012266
:104D000000E00022012A35D1202909D00D2907D041
:104D10000A2905D00C2903D0092901D00B2901D17A
:104D2000012200E000222ABB412903DB5A2901DCD1
:104D3000012200E00022012A08D0612903DB7A2940
:104D400001DC012200E00022012A01D1012200E061
:104D50000022012A08D0302903DB392901DC012295
:104D600000E00022012A01D1012200E000220AB95C
:104D7000012200E00022D0B2704701464AB2002A68
:104D800001DB1F2901DD7F2901D1012200E0002282
:104D9000D0B270470146412903DB5A2901DC0122C8
:104DA00000E00022012A02D101F1200200E00A46BF
:104DB000D0B270470146612903DB7A2901DC012268
:104DC00000E00022012A02D1A1F1200200E00A46FF
:104DD000D0B27047F0B505460B462846FFF7EAFF0C
:104DE00006461846FFF7E6FF0746BE4201D10120FE
:104DF00000E00020C4B22046F0BD0000FC48FD49A0
:104E000001600146416000218160C1600161416132
:104E10008161C16101620163C1624162F6498163DE
:104E2000C1634FF48061016441640146F34A11603B
:104E300070472DE9F04106460B46944600270025B1
:104E400002E03F021F436D1C042DFAD3604606F0BA
:104E50000304314644B1254603E001F8013B401EFE
:104E60006D1C08B1042DF8D30A4601E080C2001F72
:104E70000428FBD2114602E001F8013B401E002845
:104E8000FAD1BDE8F08130B505460C462246002136
:104E90002846FFF7CEFF30BD2DE9F04F85B08046A4
:104EA000894692464E464546AE4207D95246494645
:104EB000404601F023F905B0BDE8F08F544608EBF9
:104EC0000A00451E09EB0A00461EA81B0490049820
:104ED000042834D305F0030706F00300019001987D
:104EE000874201D1012000E00020C0B2009000986C
:104EF000012824D1032F0FD078B2029008E016F8D1
:104F0000010905F80109641E0298401E40B2029092
:104F100014B102980028F2DAA5F1030BF01E0390F9
:104F200007E0039800684BF804090398001F0390FA
:104F3000241F042CF5D20BF103050398C61C04E0D2
:104F400016F8010905F80109641E002CF8D100BF0C
:104F5000B1E72DE9F84F80468946154615B901207D
:104F6000BDE8F88FB8F1000F01D10020F8E7B9F1E2
:104F7000000F01D10020F3E70124294608EB0502C8
:104F800009EB050302F0030603F0030B5E4501D1B4
:104F9000012000E00020C0B200900098012828D134
:104FA00096B1B2460AE0521E5B1E107893F800E0FC
:104FB000704500D00024491EAAF1010A012C03D13A
:104FC00011B1BAF1000FEED1012C12D117469C4657
:104FD00009E03F1FACF1040C3868DCF800E07045D4
:104FE00000D00024091F012C01D10429F1D23A4636
:104FF000634608E0521E5B1E107893F800E070458F
:1050000000D00024491E012C01D10029F2D12046F4
:10501000A6E7F0B503460E461546D96BB1FBF5F091
:1050200005FB101CBCF1000F02D0A5EB0C0200E048
:1050300000229419586CA04201D20020F0BD0F1933
:105040001144DF63586C001B58640846F6E72DE9ED
:10505000F04106460F46B6FBF3FC03FB1C6109B1A9
:105060005C1A00E00024B2FBF3FC03FB1C2109B135
:105070005D1A00E0002502EB0508A7F1010C08FB12
:105080000C4C0CEB0200BDE8F0812DE9FE4F804690
:10509000894614461E46002000900CB901AC00BFA2
:1050A00000202060524F00BF00BFFFF77DF9009045
:1050B00000BF00BFF86B0290D7F844B04B464246A1
:1050C00001210298FFF7C3FF05465D450FD900BFD8
:1050D00000BF0098FFF76CF900BF00BFA5EB0B0005
:1050E000206042F2E27030800020BDE8FE8F4A4628
:1050F00041463846FFF78DFF8246BAF1000F0CD1CA
:1051000000BF00BF0098FFF753F900BF00BF256044
:1051100042F2E27030800020E7E700BF00BF009855
:10512000FFF746F900BF00BF42F2107030805046D2
:10513000DBE72DE9FC5F07460C4690460020009017
:1051400000BF00BFFFF730F9009000BF00BFD7F8E5
:105150000490D9F8380008B1484600E02448824657
:10516000DAF84450DAF83CB000BF00BF0098FFF70F
:105170001FF900BF00BF012C0AD9BBFBF4F004FBF0
:1051800010B60EB1A01B00E00020019001982D1A6E
:1051900042F21070A8F800002846BDE8FC9F70B5E8
:1051A00004460D462A4621461148FFF7C2FF06462F
:1051B000304670BD18B942F211720A807047104A29
:1051C0000260002242608260C260026142618261CC
:1051D000C2610262826242630263C26242628263AD
:1051E000C2630264426442F210720A8000BFE5E7C3
:1051F0001C04002048454150640400208800002021
:105200004E4F4E452DE9FF4F91B00446DDE9208910
:1052100000200090B8F1000F02D10DF1180800BF76
:105220000020C8F8000049462046FFF7C3FFB9F840
:105230000000A0F51C51103902D015B0BDE8F08F68
:10524000FF48006820B942F2E770A9F80000F4E7CF
:10525000DFF8F0A30020059000BF00BFFFF7A4F81F
:10526000009000BF00BF129880BB5546D3465646FB
:10527000DAF83C000D9004231A4614990D98FFF7B4
:10528000E6FE049004990D9808440C90DDE91E2375
:1052900014990C98FFF7DBFE0390DDE90301084445
:1052A0000590DAF844700598B8427ED900BF00BF77
:1052B0000098FFF77DF800BF00BF0598C01BC8F835
:1052C000000042F2E270A9F80000B6E7FFE712988A
:1052D0000B90DDE912010844401E0A900025AB4600
:1052E000D74806683BE0B16B1298814205D1316C1A
:1052F0001398814201D1354633E0B06B0990316C8F
:10530000B06B0844401E0890DDE90901814200D2DB
:1053100027E009990B98884203D8DDE909108842F3
:105320000FD209990B98884203D308990A988842AA
:1053300007D908990B9888420FD808990A9888428B
:105340000BD300BF00BF0098FFF732F800BF00BFCB
:1053500042F27F70A9F800006FE7B346F668002EAE
:10536000C1D100BF45B925461298A0631298E063E9
:105370001398206413986064DAF83C000D900423BD
:105380001A4614990D98FFF762FE0490DAF84470FB
:105390000498B84211D900BF00BF0098FFF708F881
:1053A00000BF00BF0498C01B00E023E0C8F8000065
:1053B00042F2E270A9F800003FE7E86B0C90DDE9EB
:1053C0001E2314990C98FFF742FE03906F6C03980C
:1053D000B8420FD900BF00BF0098FEF7E9FF00BF39
:1053E00000BF0398C01BC8F8000042F2D870A9F8AB
:1053F000000022E71498800002900422504602998F
:10540000FFF707FE0F900F9830BBDAF8447000BF2B
:1054100000BF0098FEF7CCFF00BF00BF129858B93C
:105420000598B84204D90598C01BC8F800000EE0E2
:105430000598C8F800000AE00298B84204D902981A
:10544000C01BC8F8000002E00298C8F8000042F251
:10545000E270A9F80000F0E60020019034E0284650
:10546000DDE91E12FFF7D5FD0E900E9820BBE86B0C
:105470000C906F6C00BF00BF0098FEF799FF00BF53
:1054800000BF01991498401A0790DDE91E2307997F
:105490000C98FFF7DCFD05900598B84204D90598F3
:1054A000C01BC8F8000002E00598C8F8000042F2EE
:1054B000D870A9F80000C0E6019ADDE90E0141F8B4
:1054C00022000198401C0190149901988842C6D38B
:1054D000A5420DD1C4F808B0E660BBF1000F02D0C0
:1054E000CBF80C4001E0564804605EB1B46009E0BE
:1054F000686910902561109860616C61109808B11E
:10550000109804615048206065600C98A061039970
:105510000C980844401EE0610F9820620398A06236
:105520001F9860631E9820631498E062149860626C
:1055300000BF00BF0098FEF73BFF00BF00BF42F274
:105540001070A9F8000000BF77E62DE9F04104468D
:105550000D46002700BF00BFFEF726FF074600BF2D
:1055600000BF666A00BF00BF3846FEF721FF00BFDC
:1055700000BF42F2107028803046BDE8F0812DE96E
:10558000F041044688461546002700BF00BFFEF7DD
:105590000BFF074600BF00BF606A60B900BF00BFD5
:1055A0003846FEF705FF00BF00BF42F2DE702880DC
:1055B0000020BDE8F081E16A606A88420BD900BF33
:1055C00000BF3846FEF7F4FE00BF00BF42F2957000
:1055D00028800020EDE7606A401E6062D4E908017F
:1055E00050F8216000BF00BF3846FEF7E1FE00BF63
:1055F00000BF42F2107028803046DAE72DE9F0470C
:1056000004460F4615464FF0000900BF00BFFEF7E5
:10561000CBFE814600BF00BFE06AC01B461EE06AA9
:10562000B04213D800BF00BF4846FEF7C1FE00BF1E
:1056300000BF42F2957028800020BDE8F08700008E
:10564000880000201C040020504F4F4C606AB0427C
:105650000BD900BF00BF4846FEF7AAFE00BF00BF3F
:1056600042F2957028800020E7E7206A50F82680F3
:1056700000BF00BF4846FEF79BFE00BF00BF42F2DE
:10568000107028804046D8E72DE9F04704460E46C2
:1056900017464FF0000A00BF00BFFEF785FE8246A6
:1056A00000BF00BFE16A606A88420BD300BF00BF41
:1056B0005046FEF77DFE00BF00BF42F2DD7038802D
:1056C000BDE8F0874FF00008656A08E0206A50F8EE
:1056D0002590B14502D14FF0010803E06D1CE06A4E
:1056E000A842F3D800BFB8F1010F06D1D4E90801F0
:1056F00050F82100216A41F82500D4E9080140F85A
:105700002160606A401C606200BF00BF5046FEF727
:105710004FFE00BF00BF42F21070388000BFCFE7DD
:105720002DE9F84F04460F461646002000904FF032
:10573000FF3B00BF00BFFEF737FE009000BF00BF79
:10574000E16A606A88420CD300BF00BF0098FEF790
:105750002FFE00BF00BF42F2DD7030805846BDE82A
:10576000F88F4FF00009656A08E0206A50F825803C
:10577000B84502D14FF0010903E06D1CE06AA84270
:10578000F3D800BFB9F1010F0FD1E06A401EA0EBC2
:10579000050A00BF00BF0098FEF70AFE00BF00BF69
:1057A00042F2107030805046D9E700BF00BF009829
:1057B000FEF7FEFD00BF00BF42F288703080584601
:1057C000CDE7000010B502460B461146002001E06F
:1057D000491C401C19B10C780CB19842F8D310BD8B
:1057E00030B504464FF0FF312046FFF7EBFF05468A
:1057F000284630BD70B504460D4616460CB900204B
:1058000070BD0DB90020FBE721462A46002304E0C5
:1058100010780870491C521C5B1C21B11AB1107819
:1058200008B1B342F4D301B10AB90020E8E7B342AA
:1058300001D2002008702046E2E770B504460D460C
:105840004FF0FF3229462046FFF7D4FF0646304688
:1058500070BD70B503460C4615460BB9002070BDEF
:105860000CB90020FBE70DB91846F8E7194600E02F
:10587000491C11B108780028FAD109B90020EEE7D7
:105880002246002604E010780870491C521C761C41
:1058900021B11AB1107808B1AE42F4D301B10AB9FE
:1058A0000020DCE7002008701846D8E770B50446F1
:1058B0000D464FF0FF3229462046FFF7CAFF064645
:1058C000304670BD2DE9F04305460B469446BCF1C9
:1058D000000F02D10020BDE8F08335B90BB90020DC
:1058E000F9E7187841420846F5E713B929780846E0
:1058F000F1E72A461C461746234626467F1C761C9F
:105900004FF0000805E0521C641C7F1C761C08F157
:105910000108107894F80090484505D1107818B126
:1059200017B10EB1E045EED3E04501D10020D2E73A
:10593000107894F80090484505D0107894F80090BD
:10594000A0EB09010BE0107808B9002107E02FB99E
:105950000EB9002103E03078414200E03978084672
:10596000B9E770B504460D464FF0FF322946204690
:10597000FFF7A8FF0646304670BD2DE9F74F82B00D
:1059800080460E46049818B9002005B0BDE8F08F97
:10599000B8F1000F09D10EB90020F6E73078FFF713
:1059A000F9F907467C422046EFE73EB998F8000037
:1059B000FFF7F0F905462C462046E6E7C146B24619
:1059C000C846CB465646CDF804A0D8460BF1010B8D
:1059D000019E701C0190C84699F80000FFF7DAF9A3
:1059E000054656469AF80000FFF7D4F9074600200E
:1059F000009015E009F101090AF1010A0BF1010B10
:105A00000198401C01900098401C009099F80000FB
:105A1000FFF7C0F905469AF80000FFF7BBF9074603
:105A2000BD420BD199F8000040B1BBF1000F05D089
:105A3000019818B1049900988842DBD30499009822
:105A4000884201D10020A0E7BD4201D0EC1B16E046
:105A50000DB9002413E0BBF1000F0AD1019808B979
:105A600000240CE001990878FFF794F907467C427E
:105A700005E09BF80000FFF78DF905462C4620460F
:105A800083E770B504460D464FF0FF3229462046A5
:105A9000FFF773FF0646304670BD30B504460B462F
:105AA00015460CB9002030BD0BB90020FBE721469C
:105AB000002201E0491C521C31B1087820B108785D
:105AC000A84201D09A42F5D309B90020EBE79A42E7
:105AD00001D30020E7E70878A84201D00020E2E7E0
