:020000040800F2
:1000000000EC0020613D0008693D00086B3D0008E0
:100010006D3D00086F3D0008713D000800000000C4
:10002000000000000000000000000000733D000818
:10003000753D0008000000000F4701083509010860
:10004000BF2200087B3D00087B3D00087B3D000887
:100050007B3D00087B3D00087B3D00087B3D0008A0
:100060007B3D00087B3D00087B3D00087B3D000890
:100070007B3D00087B3D00087B3D00087B3D000880
:100080007B3D00087B3D00087B3D00087B3D000870
:10009000F92700087B3D00087B3D00087B3D0008F8
:1000A0007B3D00087B3D00087B3D00087B3D000850
:1000B0007B3D00087B3D00087B3D00087B3D000840
:1000C0007B3D00087B3D00087B3D00087B3D000830
:1000D0007B3D00087B3D00087B3D0008293300087C
:1000E0007B3D00087B3D00087B3D00087B3D000810
:1000F0007B3D00087B3D00087B3D00087B3D000800
:100100007B3D00087B3D00087B3D00087B3D0008EF
:100110007B3D00087B3D00087B3D00087B3D0008DF
:100120007B3D00087B3D00087B3D00087B3D0008CF
:10013000DFF80CD013F0B8FF0048004759630008FF
:1001400000EC00204FF0010080F3138801480249C1
:100150000160FEE70CED00E00400FA05014600BF77
:10016000704700BFA34A128812F0400FFAD0C2B203
:10017000A04B1B1D1A80704710B506F0D9F94FF43B
:10018000004005F01CFC0121084605F0B1FC0121EE
:10019000084605F0A0FC0121480205F0A9FC012158
:1001A000102005F0A5FC10BD9348806940F00100C7
:1001B000914988619148406820F0E0608F4948602B
:1001C0000846406840F080604860704700B591B0D4
:1001D0000220ADF82C0000208DF82F000BA98848D4
:1001E00005F0B4F90121084605F075FC012148022B
:1001F00005F07EFC834804F047FD83480090834867
:1002000001900020029001200390002004908020A3
:100210000590400006908000079020200890000282
:10022000099000200A906946764804F0CFFD01212C
:10023000744804F0F6FD4FF4004005F0C0FB0020C8
:100240000C9001208DF834008DF835004FF46020BB
:100250000E9000200F9001208DF840000CA96A48F4
:100260004C3803F024FE052301220B2166484C384C
:1002700003F0B5FE012164484C3803F04FFE012124
:1002800061484C3803F03FFE5F484C3803F05DFE98
:1002900000BF5D484C3803F05DFE0028F9D15A4894
:1002A0004C3803F061FE00BF57484C3803F061FE44
:1002B0000028F9D1012154484C3803F064FE11B0F4
:1002C00000BD08B54FF4806003F05CFD27208DF879
:1002D000000000208DF801008DF8020001208DF84B
:1002E0000300684603F053FD25208DF80000002030
:1002F0008DF801008DF8020001208DF8030068469A
:1003000003F045FD34208DF8000000208DF8010039
:100310008DF8020001208DF80300684603F037FDD8
:1003200026208DF8000000208DF801008DF80200D5
:1003300001208DF80300684603F029FD08BD10B5C3
:1003400086B004460121052005F0D2FB01214804B6
:1003500005F0DBFB0420ADF8140018208DF8170021
:1003600003208DF8160005A9294805F0EFF80820AC
:10037000ADF8140004208DF8170003208DF8160046
:1003800005A9234805F0E2F801940020ADF8080023
:10039000ADF80A00ADF80C00ADF810000C20ADF877
:1003A0000E0001A9134805F0D8FDFFF78AFF0122CE
:1003B00040F225510F4805F068FE01210D4805F077
:1003C00058FE06B010BD704710B5FFF7D5FEFFF719
:1003D000FAFF4FF4E130FFF7B2FFFFF772FF01F0D1
:1003E0000DFE03F0E9FAFFF7F1FE10BD07480088A3
:1003F000704700000044004000100240000001402F
:1004000000100140080002404C240140040000207C
:100410000008014010B502F025FA10BD10B51122F8
:100420008021D24801F033FD10BD2DE9F04704468C
:1004300001F003FB8146FFF7F1FFCC4801F0E6FA3B
:1004400006463246CAA1484601F0D8F900200146C6
:1004500001F0CAFA06463246C8A1484601F0CEF974
:10046000204613F0D4FB074601F0BEFA064632469A
:10047000C5A1484601F0C2F9484601F05EF982463E
:10048000504613F05FFA85B22946504603F009FA48
:10049000484600F005FA504614F020FFBDE8F0870A
:1004A0002DE9F05F0546144601F0C7FA8246FFF7D2
:1004B000B5FFAE4801F0AAFA07463A46ACA150464D
:1004C00001F09CF90020B44901F08EFA07463A4643
:1004D000AAA1504601F092F9284613F098FB07466E
:1004E00001F082FA81464A46ACA1504601F086F9F5
:1004F0000020014601F078FA07463A46A9A1504685
:1005000001F07CF9204601F081FA07463A46A7A19E
:10051000504601F073F9504601F00FF983465846F2
:1005200013F010FA86B23146584603F0BAF9504635
:1005300000F0B6F9584614F0D1FEBDE8F09F2DE961
:10054000F04F85B00446884601F077FA0490002702
:10055000B946FFF763FF854801F058FA83465A46CB
:1005600083A1049801F04AF90020934901F03CFA74
:1005700083465A4681A1049801F040F9002000907A
:1005800001900290039000250DE0611C4A5D0DEB87
:1005900007008AA114F010F900F0FF0907EB090029
:1005A000C7B2681CC5B2607AA842EEDC684601F0AA
:1005B0002DFA83465A464146049801F01FF90498E3
:1005C00001F0BBF88246504613F0BCF986B23146C2
:1005D000504603F066F9049800F062F9504614F0B2
:1005E0007DFE05B0BDE8F08F2DE9FC4701F025FA4E
:1005F0008146FFF713FF694601A803F046F9019809
:1006000008B1009808B9BDE8FC87584801F0FEF928
:1006100005462A4656A1484601F0F0F800206949EF
:1006200001F0E2F905462A4654A1484601F0E6F8F1
:10063000019813F0ECFA064601F0D6F905462A4671
:1006400061A1484601F0DAF8009813F0E0FA054697
:1006500001F0CAF907463A465CA1484601F0CEF8D7
:10066000484601F06AF88046404613F06BF984B2C0
:100670002146404603F015F9484600F011F940467E
:1006800014F02CFE00BFBEE770B50446504804705D
:10069000022201464F4803F008FBC5B270BD10B5F9
:1006A00002224B494B4803F0C8FA4948007810BD74
:1006B00070B5054631A1284601F061F804460CB139
:1006C000207D70BD0020FCE770B505462EA12846B0
:1006D00001F055F804460CB1207D70BD0020FCE708
:1006E0002DE9F04101F0A9F90546FFF797FE1F48F3
:1006F00001F08CF907463A461DA1284601F07EF824
:100700000020354901F070F907463A461BA12846FA
:1007100001F074F8284601F010F80646304613F050
:1007200011F984B22146304603F0BBF8284600F0A8
:10073000B7F8304614F0D2FDBDE8F0813EB504466E
:1007400002A800210B462246CDE9001008460FF012
:100750003CF83EBD3EB5044602A8002123460A46A9
:10076000CDE9001008460FF030F83EBDF81E00201D
:100770006465766963656964000000006D73675F96
:10078000747970650000000068656172746265616B
:10079000745F636F756E740000000840636D645F82
:1007A000696400007374617475730000636D645F45
:1007B0007479706500000000000010402530327828
:1007C0000000000000001C406C6E67006C6174004B
:1007D00007000020E0F7FFFF00002040F748006816
:1007E000704770B504460D462CB9AC4201D00120CB
:1007F00070BD0020FCE70DB90120F9E705E0207885
:1008000008B90020F4E7641C6D1C207813F051F83F
:100810000646287813F04DF88642F0D0207813F081
:1008200048F80646287813F044F8301AE0E770B527
:100830000446204613F086F8451C2846E04909681E
:100840008847060000D170BD2A462146304613F085
:1008500036F83046F7E730B9DA49D94A1160DA4953
:10086000DA4A11607047016809B1016800E0D549B2
:10087000D34A1160416809B1416800E0D249D34AC6
:10088000116000BFEEE710B52820CD490968884700
:1008900004461CB12821204613F02AF8204610BD3A
:1008A00070B504461EE02568A08910F4807F04D14D
:1008B000A06810B1A068FFF7F3FFA08910F4807F53
:1008C00005D1206918B1C149206909688847206AA3
:1008D00018B1BE49206A096888472046BB490968A3
:1008E00088472C46002CDED170BD2DE9F04F8BB02F
:1008F00083468A460020044605460026B44F002160
:10090000884689460990012008909AF800002D2811
:1009100002D1B04F0AF1010A9AF80000302801D143
:100920000AF1010A9AF80000312822DB9AF8000047
:1009300039281EDC00BF1AF8011BA1F1300013F0AA
:1009400055F90022A44BCDE906012046294613F0B3
:10095000DBF8CDE90401DDE9062313F02EF80446A7
:100960000D469AF80000302803DB9AF80000392879
:10097000E1DD9AF800002E2830D19AF801003028E5
:100980002CDB9AF80100392828DC0AF1010A00BFA3
:100990001AF8011BA1F1300013F028F900228E4B48
:1009A000CDE906012046294613F0AEF8CDE9040151
:1009B000DDE9062313F001F804460D460022844BBE
:1009C0004046494613F09AF8804689469AF8000056
:1009D000302803DB9AF800003928D9DD9AF80000A6
:1009E000652803D09AF80000452823D10AF1010AAE
:1009F0009AF800002B2802D10AF1010A08E09AF8BF
:100A000000002D2804D14FF0FF3008900AF1010AB0
:100A100008E01AF8010B3038099901EB810100EB6D
:100A2000410009909AF80000302803DB9AF8000092
:100A30003928EEDDDDE9082101FB02F013F0D6F8DC
:100A400042464B46CDE9000112F0B7FF02460B4685
:100A5000CDE902010020604914F09EFC22462B469D
:100A6000CDE906013046394613F04EF8CDE90401D0
:100A7000DDE9062313F048F804460D46CBE90645A8
:100A80002046294613F0D0F8CBF814000320CBF809
:100A90000C0050460BB0BDE8F08F2DE9F05F8146A9
:100AA000D9E90645D9F8140013F0A0F80746224604
:100AB0002B4613F023F821F0004182460022474BD9
:100AC00013F0FEF81BD8464A464B2046294613F041
:100AD000F7F814D80022444B2046294613F004F9B5
:100AE0000DD815203649096888470646002E4CD097
:100AF0003EA13046D9F8142013F05EFE45E04020B8
:100B00002F49096888470646002E3ED020462946D0
:100B100014F076FB074622462B4612F0EFFF21F039
:100B20000041824600222D4B13F0CAF80FD825F061
:100B3000004127462E4A2F4B384613F0C1F806D203
:100B400022462B462CA1304613F036FE1DE025F040
:100B5000004127462A4A2B4B384613F0B1F807D3F9
:100B600025F000410022284B384613F0BDF806D28C
:100B700022462B4625A1304613F01EFE05E02246F4
:100B80002B4623A1304613F017FE3046BDE8F09FF8
:100B9000014600220878302806DB0878392803DC73
:100BA00008783038024441E00878412832DB087880
:100BB00046282FDC08783738024437E0140000203C
:100BC0000C0000202D530108DD5201081000002008
:100BD0000000F03F0000F0BF000024400000B03CE7
:100BE0000000C0FFFFFFDF410000E0C125640000FE
:100BF00044F3C2E4E4E9634C252E306600000000B3
:100C00008DEDB5A0F7C6B03E65CDCD4125650000A0
:100C1000256600000878612806DB0878662803DC72
:100C200008785738024401E0002070471201491C3F
:100C30000878302806DB0878392803DC0878303853
:100C4000024415E00878412806DB0878462803DCD2
:100C50000878373802440BE00878612806DB08780A
:100C6000662803DC08785738024401E00020DCE7FE
:100C70001201491C0878302806DB0878392803DC83
:100C800008783038024415E00878412806DB0878F7
:100C9000462803DC0878373802440BE008786128DE
:100CA00006DB0878662803DC08785738024401E040
:100CB0000020BAE71201491C0878302806DB0878C2
:100CC000392803DC08783038024415E008784128D8
:100CD00006DB0878462803DC0878373802440BE046
:100CE0000878612806DB0878662803DC087857381E
:100CF000024401E0002098E7104696E72DE9F05FF6
:100D00008346884608F10104002798F8000022284D
:100D100005D0F748C0F800800020BDE8F09F04E04F
:100D200014F8011B5C2900D1641C2078222804D00F
:100D3000207810B1781C0700F2D1781CED490968C1
:100D400088478146B9F1000F01D10020E5E708F19D
:100D500001044D469EE020785C2804D014F8010B75
:100D600005F8010B96E0641C2078722818D006DC88
:100D7000622809D066280BD06E287DD10CE074283B
:100D800012D07528F9D113E0082005F8010B7FE097
:100D90000C2005F8010B7BE00A2005F8010B77E039
:100DA0000D2005F8010B73E0092005F8010B6FE039
:100DB000601CFFF7EDFE0646241DB6F55C4F02D31E
:100DC000B6F5604F00D306B962E0B6F5584F1CD3B4
:100DD000B6F55C4F19D260785C2802D1A0787528EE
:100DE00000D055E0E01CFFF7D3FE8246A41DBAF503
:100DF0005C4F02D3BAF5604F00D349E0C6F3090156
:100E0000504661F39F2000F580360427802E01D2E2
:100E1000012708E0B6F5006F01D2022703E0B6F51E
:100E2000803F00D203273D44012F20D0022F15D050
:100E3000032F0AD0042F24D106F0BF0040F0800118
:100E4000681E05460170B60900BF06F0BF0040F0FD
:100E50008001681E05460170B60900BF06F0BF009C
:100E600040F08001681E05460170B60900BFA24827
:100E7000C05D3043C1B200E006E0681E0546017067
:100E800000BF00BF3D4403E0207805F8010B00BF20
:100E900000BF641C2078222803D0207800287FF42B
:100EA0005AAF002028702078222800D1641CCBF88B
:100EB00010900420CBF80C0020462EE72DE9F047D7
:100EC00007464FF000082FB9AFF2D020FFF7AFFC74
:100ED000BDE8F0873D460DE0494688A012F029FDA7
:100EE00010B108F1010804E0B9F1200F01DA08F1AE
:100EF00005086D1C95F80090B9F1000F04D008F1B9
:100F000001005FEA0008E7D108F1030079490968A8
:100F1000884706460EB90020DAE734463D462220CF
:100F200004F8010B47E028781F280ADD28782228DA
:100F300007D028785C2804D015F8010B04F8010BC1
:100F400039E05C2004F8010B15F8011B89460C29D7
:100F500019D006DC082912D0092920D00A2922D16B
:100F600015E00D2917D0222905D05C291BD15C2062
:100F700004F8010B1EE0222004F8010B1AE06220A5
:100F800004F8010B16E0662004F8010B12E06E2055
:100F900004F8010B0EE0722004F8010B0AE0742043
:100FA00004F8010B06E04A4656A1204613F004FC63
:100FB000641D00BF00BF28780028B4D1222004F8A7
:100FC000010B002004F8010B304681E710B5044600
:100FD0002069FFF773FF10BD00E0401C20B10178CD
:100FE00011B101782029F8DD70472DE9F047064658
:100FF0000C4620787B2804D03D4804600020BDE8E2
:10100000F0870620F060601CFFF7E6FF04462078BA
:101010007D2801D1601CF2E7FFF735FC0546B06082
:10102000B06808B90020EAE72046FFF7D5FF804600
:1010300041462846FFF762FE0746FFF7CDFF04460C
:101040000CB90020DBE7286928620020286120789D
:101050003A2803D0264804600020D0E7601CFFF740
:10106000BBFF80464146284600F0A7F80746FFF739
:10107000B3FF04460CB90020C1E731E0FFF703FCE1
:10108000070000D1BBE72F607D603D46601CFFF785
:10109000A3FF814649462846FFF730FE8046FFF70A
:1010A0009BFF04460CB90020A9E7286928620020AC
:1010B000286120783A2803D00D48046000209EE77C
:1010C000601CFFF789FF81464946284600F075F805
:1010D0008046FFF781FF04460CB900208FE700BF70
:1010E00020782C28CAD020787D280FD1601C86E774
:1010F000140000200C000020C65D0108225C080CD2
:101100000A0D09007525303478000000FE4804609F
:10111000002074E72DE9F04705460C4620785B284F
:1011200004D0F94804600020BDE8F0870520E8609D
:10113000601CFFF751FF044620785D2801D1601C38
:10114000F2E7FFF7A0FB0646A860A86808B90020F0
:10115000EAE72046FFF740FF80464146304600F070
:101160002CF80746FFF738FF04460CB90020DBE7F0
:1011700017E0FFF788FB070000D1D5E737607E60F6
:101180003E46601CFFF728FF81464946304600F086
:1011900014F88046FFF720FF04460CB90020C3E78F
:1011A00000BF20782C28E4D020785D2801D1601C75
:1011B000BAE7D54804600020B6E770B505460C468E
:1011C0000CB9002070BD0422D0A1204612F0D9FB3A
:1011D00018B90220E860201DF4E70522CDA12046C1
:1011E00012F0CFFB18B90020E860601DEAE7042286
:1011F000CAA1204612F0C5FB20B90120E860686151
:10120000201DDFE72078222804D121462846FFF759
:1012100075FDD7E720782D2805D02078302807DB0A
:101220002078392804DC21462846FFF75EFBC9E711
:1012300020785B2804D121462846FFF76BFFC1E7E1
:1012400020787B2804D121462846FFF7CEFEB9E757
:10125000AD4804600020B5E72DE9F04780460D4613
:1012600016460024FFF70FFB07460020A64908603A
:101270000FB9BDE8F0874046FFF7AEFE814649460C
:101280003846FFF79AFF044624B93846FFF708FBB3
:101290000020EEE766B12046FFF79EFE0446207868
:1012A00030B13846FFF7FCFA974804600020E0E7C9
:1012B00005B12C603846DCE710B504460022114623
:1012C0002046FFF7C9FF10BD2DE9F74F88B08846CB
:1012D00016464FF00009CA460020079007200490E8
:1012E000002508988068029000270020019003E004
:1012F0007F1C02980068029002980028F8D14FBB2A
:1013000016B108F1040100E0032108468549096887
:1013100088470790079818B900200BB0BDE8F08FF8
:10132000079C7B2004F8010B66B10A2004F8010B2E
:10133000002503E0092004F8010B6D1CA8F1010051
:10134000A842F7DC7D2004F8010B002004F8010B13
:101350000798E2E7B8007349096888478146B9F100
:10136000000F01D10020D8E7B8006E49096888470E
:101370008246BAF1000F05D148466B490968884793
:101380000020CAE7B900484612F0B2FAB900504648
:1013900012F0AEFA08988068029008F1010816B1C0
:1013A0000498404404902DE00299086AFFF786FDF6
:1013B00005904AF8250032464146029800F07DF932
:1013C00029466D1C069049F821000598A8B1069899
:1013D00098B1069812F0B6FA8346059812F0B2FA60
:1013E0000BEB0001891C16B108F1020000E000209F
:1013F000014404980844049001E0012001900298FF
:101400000068029002980028CED1019820B9454981
:101410000498096888470790079808B90120019047
:101420000198F0B1002510E05AF8250020B15AF8D3
:1014300025003D490968884759F8250020B159F829
:1014400025003949096888476D1CBD42ECDB5046D0
:101450003549096888474846334909688847002064
:101460005BE77B21079801700798441C16B10A209E
:1014700004F8010B0020207000253EE05EB1002042
:10148000039005E0092004F8010B0398401C039029
:1014900003984045F6DB5AF82510204612F068FA0A
:1014A0005AF8250012F04EFA04443A2004F8010BD1
:1014B00016B1092004F8010B59F82510204612F046
:1014C00057FA59F8250012F03DFA0444781EA84254
:1014D00002D02C2004F8010B16B10A2004F8010BED
:1014E000002020705AF825000F490968884759F8EC
:1014F00025000D49096888476D1CBD42BEDB50467A
:1015000009490968884711E0140000206E756C6C69
:101510000000000066616C73650000007472756500
:10152000000000000C000020100000204846F84990
:10153000096888474EB1002503E0092004F8010B33
:101540006D1CA8F10100A842F7DC7D2004F8010B16
:10155000002004F8010B0798DFE62DE9F74F82B071
:1015600083464FF0000805200190DBF80890002723
:1015700000250020009002E07F1CD9F80090B9F10E
:10158000000FF9D17FB90320E249096888478046F6
:10159000B8F1000F03D0E0A1404612F0E9F940464F
:1015A00005B0BDE8F08FB800DA49096888470646FB
:1015B0000EB90020F4E7B900304612F099F9DBF8D3
:1015C00008901FE0DDE90312491C484600F075F859
:1015D000824629466D1C46F821A0BAF1000F0DD0B5
:1015E000504612F0AFF9801C049909B1012100E0C6
:1015F0000021014401980844019001E0012000907D
:10160000D9F80090B9F1000F02D000980028D9D085
:10161000009820B9BF490198096888478046B8F109
:10162000000F01D101200090009890B1002508E042
:1016300056F8250020B156F82500B54909688847B5
:101640006D1CBD42F4DB3046B14909688847002073
:10165000A6E75B2088F8000008F101040020207054
:1016600000251CE056F82510204612F081F956F8A6
:10167000250012F067F90444781EA84209D02C20F6
:1016800004F8010B049810B1202004F8010B00208D
:10169000207056F825009E49096888476D1CBD4298
:1016A000E0DB30469A49096888475D2004F8010B61
:1016B000002004F8010B404672E72DE9F041044692
:1016C0000D461646002714B90020BDE8F081207BA6
:1016D00007282FD2DFE800F00A1004161B2027008D
:1016E000AFF2D810FFF7A3F8074623E0AFF2DC1003
:1016F000FFF79DF807461DE0AFF2E010FFF797F8FF
:10170000074617E02046FFF7C8F9074612E02046D3
:10171000FFF75CFC07460DE0324629462046FFF7FE
:101720001CFF074606E0324629462046FFF7CCFD5F
:10173000074600BF00BF3846C7E710B50446012280
:1017400000212046FFF7B9FF10BD10B50446002266
:1017500011462046FFF7B1FF10BD01468A68002000
:1017600001E0401C1268002AFBD1704702469068D5
:1017700001E0491E006808B10029FADC704770B525
:1017800005460E46AC6800E024682CB13146206A5C
:10179000FFF727F80028F7D1204670BD01604860A8
:1017A000704770B50546FFF76EF804460CB9002087
:1017B00070BD28222946204612F081F800202062C0
:1017C000E06840F48070E0600020606020602046A7
:1017D000EEE770B505460E46AC6806B970BD0CB9AB
:1017E000AE6009E000E0246814B120680028FAD156
:1017F00031462046FFF7D2FF00BFEFE770B506463F
:101800000D46144604B970BD206A18B14049206ADB
:10181000096888472846FFF70AF8206221463046C3
:10182000FFF7D7FF00BFEEE770B505460C46204630
:10183000FFF7B7FF064631462846FFF7CAFF70BDDF
:101840002DE9F04105460E4614462046FFF7A9FF54
:1018500007463A4631462846FFF7D0FFBDE8F081FB
:1018600010B502460B46916801E009685B1E09B19C
:10187000002BFADC09B9002010BD486810B1D1E98D
:1018800000042060086810B1D1E9004060609068F1
:10189000884201D1086890600020086048600846CE
:1018A000EAE770B504460D4629462046FFF7D8FF03
:1018B0000646FEF7F5FF70BD2DE9F04105460F46DF
:1018C0000026AC6801E0761C24682CB13946206AF9
:1018D000FEF787FF0028F6D12CB131462846FFF7E6
:1018E000BFFFBDE8F0810020FBE770B504460D4660
:1018F00029462046FFF7E0FF0646FEF7D1FF70BD00
:101900002DE9F04106460F461446B56808E0000090
:10191000100000200C0000205B5D00002D687F1E81
:101920000DB1002FFADC0DB9BDE8F0812868206008
:1019300068686060206808B120684460B068A842A8
:1019400001D1B46001E06068046000206860286034
:101950002846FEF7A5FF00BFE6E72DE9F041054662
:101960000E4617464FF00008AC6802E008F1010887
:1019700024682CB13146206AFEF733FF0028F5D1E8
:1019800044B13046FEF753FF38623A464146284696
:10199000FFF7B6FFBDE8F08110B5FEF774FF04460F
:1019A0000CB10220E060204610BD10B5FEF76BFFC1
:1019B00004460CB10120E060204610BD10B5FEF7D2
:1019C00062FF04460CB10020E060204610BD70B5F7
:1019D0000546FEF758FF044624B10DB1012000E092
:1019E0000020E060204670BD70B505460E46FEF74B
:1019F0004AFF044644B10320E060C4E90656284685
:101A0000314612F011F96061204670BD70B505468F
:101A1000FEF739FF04462CB10420E0602846FEF7AB
:101A200006FF2061204670BD10B5FEF72CFF04466E
:101A30000CB10520E060204610BD10B5FEF723FF75
:101A400004460CB10620E060204610BD2DE9F05F91
:101A500081468A460025AB46FFF7E6FF064600248E
:101A600010E059F8240012F0C1F80746FFF7BCFF58
:101A700005460CB9B56003E029465846FFF78EFECF
:101A8000AB46641C0EB15445EBDB3046BDE8F09F1D
:101A90002DE9F05F81468A460025AB46FFF7C4FF7B
:101AA0000646002410E059F8240012F0F5F8074625
:101AB000FFF79AFF05460CB9B56003E02946584682
:101AC000FFF76CFEAB46641C0EB15445EBDB3046B1
:101AD000BDE8F09F2DE9F047074688460025A94656
:101AE000FFF7A2FF0646002410E007EBC400D0E990
:101AF00000211046FFF778FF05460CB9B56003E0FA
:101B000029464846FFF74AFEA946641C0EB14445E3
:101B1000EBDB3046BDE8F0872DE9F0470746884605
:101B20000025A946FFF780FF064600240DE057F880
:101B30002400FFF76BFF05460CB9B56003E02946AA
:101B40004846FFF72BFEA946641C0EB14445EEDB68
:101B50003046BDE8F0872DE9F047054689464FF04D
:101B6000000815B90020BDE8F087FEF78CFE04469A
:101B70000CB90020F7E7E86820F48070E06068693D
:101B80006061D5E90601C4E90601286950B12869F8
:101B9000FEF74DFE2061206920B92046FEF780FE49
:101BA0000020E0E7286A50B1286AFEF740FE206274
:101BB000206A20B92046FEF773FE0020D3E7B9F172
:101BC000000F01D12046CEE7AF6816E0012138466C
:101BD000FFF7C1FF064626B92046FEF761FE00204A
:101BE000C1E7B8F1000F05D0C8F80060C6F804805E
:101BF000B04601E0A660B0463F68002FE6D120461F
:101C0000B1E7014655E00278202A01D1401C50E09E
:101C10000278092A01D1401C4BE002780D2A01D13B
:101C2000401C46E002780A2A01D1401C41E00278BB
:101C30002F2A0BD142782F2A08D100E0401C0278CD
:101C4000002A36D002780A2A33D0F7E702782F2A02
:101C50000ED142782A2A0BD100E0401C02782AB12A
:101C600002782A2AF9D142782F2AF6D1801C20E066
:101C70000278222A19D110F8012B01F8012B0AE071
:101C800002785C2A03D110F8012B01F8012B10F81F
:101C9000012B01F8012B027812B10278222AEFD130
:101CA00010F8012B01F8012B03E010F8012B01F8CB
:101CB000012B0278002AA6D10A70704700B587B0C0
:101CC00001210C2003F014FF0121880303F01DFF04
:101CD0004FF46040ADF8040003208DF80600182092
:101CE0008DF8070001A9D94803F030FC4FF480506B
:101CF000ADF8040003208DF8060010208DF80700D1
:101D000001A9D24803F022FC4FF48051CF4803F0E0
:101D1000C8FC0020ADF808004FF48270ADF80A004E
:101D20000020ADF80C000220ADF80E000120ADF847
:101D300010004002ADF812000820ADF81400002099
:101D4000ADF816000720ADF8180002A9C04803F04E
:101D500061FF0121BE4804F002F807B000BD10B5D4
:101D600004462146BA4804F02BF800BF0221B848C7
:101D700004F079F80028F9D000BF0121B44804F03C
:101D800072F80028F9D0B24804F01CF8C0B210BDB7
:101D900010B5A520FFF7E3FF10BD70B504460D4652
:101DA00045EA0421AA4804F00BF800BF0221A84824
:101DB00004F059F80028F9D000BF0121A44804F02C
:101DC00052F80028F9D0A24803F0FCFFC0B270BD61
:101DD00010B5044644F08000002242EA00219C48ED
:101DE00003F0EEFF00BF0221994804F03CF8002800
:101DF000F9D000BF0121964804F035F80028F9D049
:101E0000934803F0DFFFC0B210BD10B500244FF4BB
:101E100080518E4803F047FC0520FFF7A0FF00BF6C
:101E2000A520FFF79CFF044614F0010FF8D14FF4F2
:101E30008051864803F035FC10BD10B50446FFF70D
:101E4000E4FF4FF48051814803F02DFC0620FFF79A
:101E500086FF4FF480517D4803F023FCFFF7D5FF48
:101E60004FF48051794803F01EFCD820FFF777FF2C
:101E70000020FFF774FF200AFFF771FFE0B2FFF7C1
:101E80006EFF4FF48051714803F00BFC10BD2DE93B
:101E9000F04106460C461746FFF7B7FF4FF4805156
:101EA0006A4803F000FC0320FFF759FFC4F3074022
:101EB000FFF755FFC4F30720FFF751FFE0B2FFF72C
:101EC0004EFF002503E0FFF763FF70556D1CBD4218
:101ED000F9D34FF480515D4803F0E3FBBDE8F08196
:101EE0002DE9F04106460C461746FFF78EFF4FF4EA
:101EF0008051564803F0D7FB0620FFF730FF4FF420
:101F00008051524803F0CDFBFFF77FFF4FF4805123
:101F10004E4803F0C8FB0220FFF721FFC4F307403F
:101F2000FFF71DFFC4F30720FFF719FFE0B2FFF72B
:101F300016FF002503E0705DFFF711FF6D1CBD4229
:101F4000F9D34FF48051414803F0ABFBBDE8F08179
:101F500070B586B0002005904FF480513B4803F0E7
:101F6000A2FB9F20FFF7FBFEFFF712FF8DF8140086
:101F7000FFF70EFF8DF81500FFF70AFF8DF816002A
:101F80004FF48051314803F08CFB00BF04A80DF0E2
:101F9000F5FD04462F48007810F0020F1CD041F2E6
:101FA0008830B4FBF0F100FB11400521B0FBF1F5E6
:101FB00041F28830B4FBF0F69DF817009DF816103A
:101FC0009DF81520CDE9002102909DF814302A4695
:101FD000314621A012F0CCFB00BF9DF81400202850
:101FE0000AD19DF81500202806D19DF81600152865
:101FF00002D1002006B070BDFF20FBE7F8B5FFF767
:102000005DFE0A200EF0FBFCFFF7A2FFE0B100BF6F
:1020100068460DF0B3FD04460E48007810F0010F3D
:1020200011D041F28830B4FBF0F100FB11400521E2
:10203000B0FBF1F541F28830B4FBF0F62A463146A8
:1020400013A012F095FB00BFF8BD0000000C01408A
:1020500000380040060000205B253035642E253016
:1020600033642F495D3A206964203D203078253063
:1020700032782C203078253032782C20307825307A
:1020800032782C203078253032780D0A0D0A000085
:102090005B253035642E253033642F455D3A20664C
:1020A0006C61736820696420636865636B20666196
:1020B000696C65640D0A0D0A000000000023C380EE
:1020C00003810160828070470146C8880A89904276
:1020D00001D1012070470020FCE70146CA880B8926
:1020E0009A4204DDCA880B89D21A90B205E08A8828
:1020F0000B89D21ACB881A4490B270472DE9F0416F
:1021000004460F461646E0882189884204DDE088AF
:102110002189401A85B205E0A0882189401AE1880A
:10212000084485B2B54202DA0020BDE8F081E088BB
:10213000218988420ADD2289216888183246394679
:1021400011F0BDFB2089304420811EE0A088218948
:10215000401A85B2B5420ADD2289216888183246C4
:10216000394611F0ACFB2089304420810DE02289F2
:10217000216888182A46394611F0A1FB721B79198B
:10218000206811F09CFB701B20810120CDE72DE918
:10219000F04104460F461646E0882189884206DD54
:1021A000A088E188401A2189084485B203E020898B
:1021B000E188401A85B2B54202DA0020BDE8F0811C
:1021C000E088218988421FDDA088E188401A85B215
:1021D000B5420ADDE288206881183246384611F09F
:1021E0006EFBE0883044E08018E0E28820688118C7
:1021F0002A46384611F063FB721B7819216811F0EA
:102200005EFB701BE08009E0E2882068811832469E
:10221000384611F054FBE0883044E0800120CDE7DF
:1022200000BF00BF7047000070B505460C4645F280
:10223000555003F0D7FA204603F0DAFA284603F0A7
:10224000D4FA03F0D8FA03F0DBFA70BD10B503F04E
:10225000D2FA10BD10B50446204604F068F810BD4F
:1022600008B500208DF8000002208DF80100032041
:102270008DF8020001208DF80300684601F087FD0B
:1022800008BD70B506460C4615460121C80203F08C
:102290003CFC0F48007830400E490870284604F096
:1022A00028F8204604F02EF80A48007804F03FF899
:1022B00004F048F8FFF7D4FF04F02FF870BD10B514
:1022C0000448007804F02DF804F03CF810BD00003C
:1022D0001800002019000020FB490880704708B54D
:1022E0004FF4806001F04EFD14208DF800000120B5
:1022F0008DF8010000208DF8020001208DF8030008
:10230000684601F044FD08BD1CB5F04A0021F048C4
:1023100002F04BFAED480068EE490988884207D17F
:1023200001A800231422E9490090EB480AF0C2F901
:102330001CBD08B50121052003F0DAFB0121480688
:1023400003F0E3FB4FF40060ADF8000004208DF8CB
:10235000030003208DF802006946E04803F0F6F818
:102360004FF48050ADF8000018208DF803000320D2
:102370008DF802006946D94803F0E8F808BD08B5B1
:102380000121042003F0B4FB0121102003F0B0FB75
:102390004FF48070ADF8000010208DF8030003208A
:1023A0008DF802006946CD4803F0D0F84FF4007074
:1023B000ADF8000010208DF8030003208DF8020016
:1023C0006946C74803F0C2F84FF48071C34803F070
:1023D0006AF94FF40071C24803F065F908BD1FB5F2
:1023E0000446FFF7CCFFFFF77AFFFFF7A2FFB848DC
:1023F00001F054FF684602F075F800208DF80600E1
:102400008DF807008DF808008DF809008DF80A0096
:102410008DF80B008DF802008DF803000A208DF86E
:10242000040005208DF80500ADF800406946A84875
:1024300001F04DFF0020AB490870AB49087003AABA
:10244000AAA1AE4808F0A9FF03AB2822ACA1A2487C
:1024500009F04BFDAFF24F11142004F048F90121AF
:10246000142004F05CF9142004F037F91FBD2DE9A5
:10247000FF4107460C4615461E4601208DF80A000E
:1024800000208DF80B008DF80C004FF6FF7000EA6D
:102490004710ADF800004FF6FF7000EA4410ADF8A9
:1024A00002004FF6FF7000EA4510ADF804004FF649
:1024B000FF7000EA4610ADF806000020ADF80800F5
:1024C00001208DF80D00684601F08BFF01220221EA
:1024D0007F4802F085FABDE8FF8170B5044600250B
:1024E0000020207221467A4802F06AF8064604E08D
:1024F0006D1C8748854200D905E03146744802F0DA
:10250000F7F80128F4D100BF70BD08B56A46002174
:102510007A4809F067FB08BD1CB501A800231A46DC
:1025200019460090754809F05FF91CBD2DE9F04F80
:1025300087B0064688461446994600200490002736
:102540008246039016F0010F0AD044F0FF0344F0D6
:10255000FF0221462046FFF78AFF5E48048008E01C
:10256000FF231A4600210846FFF781FF0020594942
:10257000088016F0020F02D04046FFF7AEFF16F0BB
:10258000010F7DD000200490DFE005A8002106ABFC
:102590000A46CDE9001042F210714F4809F04AFE98
:1025A0000546BDF81400A0F5E441D9396FD0FFF716
:1025B000B3FF2868A04204D10498401CC0B2049024
:1025C0002DE000BF02A80DF0D9FA834651480078EB
:1025D00010F0010F13D041F28830BBFBF0F100FB8B
:1025E00011B00521B0FBF1F0019041F28830BBFB46
:1025F000F0F00090014648A0019A12F0B9F800BF2F
:102600000398401CC0B203900398052804DD4FF0E6
:10261000FF3AFFF77AFF9CE0FFF777FF95E031493B
:10262000097801EB8101434A286842F82100A87A21
:102630002C49097801EB810102EB810188720027A6
:102640000DE005F10B00C15D2648007800EB80002D
:10265000384A02EB80000B30C155781CC7B2A87A0B
:10266000B842EEDC1F480078401C1E49087008463E
:102670000078282801D1002008700AF1010001E04B
:1026800068E004E04FFA80FAFFF73FFF5CE000BF2C
:1026900002A80DF073FA83461E48007810F0010F6F
:1026A00050D041F28830BBFBF0F100FB11B00521A6
:1026B000B0FBF1F0019041F28830BBFBF0F01E4B13
:1026C000009001463AE000001E0000202C2200206D
:1026D000006400401A0000206C2200200008014025
:1026E000001001401C0000201D000020464C4558F1
:1026F00043414E5F4D555445580000004022002094
:10270000464C455843414E5F5155455545000000E4
:1027100040420F00060000205B253035642E253036
:1027200033642F455D3A20657863657074696F6E18
:10273000210D0A000C1F0020CD5D01083BA0019A6D
:1027400012F016F800BF04E000BF04984845FFF6F9
:102750001CAF00BFFF231A4600210846FFF787FE83
:1027600000203A490880504607B0BDE8F08F38484D
:10277000007838490978884206DB354800783549C1
:102780000978401AC0B2704732480078C0F128007A
:102790002F4909780844C0B2F5E710B50024FFF7C7
:1027A000BBFE2C4800782A490978884203D1FFF7FC
:1027B000ACFE002010BD274801780078401C254A57
:1027C000107001EB8100244901EB80041046007871
:1027D000282802D1002011460870FFF796FE2046F7
:1027E000E8E710B5FFF798FE00201949087019496D
:1027F0000870FFF78AFE10BD10B51848007800B9C0
:1028000010BD06F04FFB04F032F806F05CFB00BF91
:10281000F6E710B5044612480088844204D10EF051
:10282000FEFB08B901F0F5F910BD00005B2530355D
:10283000642E253033642F455D3A2025733A207489
:10284000696D656F75740D0A000000001A000020A4
:102850001C0000201D0000200C1F0020C5000020CF
:102860001E000020FE4800787047FD490870704740
:102870003EB5044602A800210B462246CDE90010D1
:1028800008460CF0A2FF3EBD3EB5044602A800215A
:1028900023460A46CDE9001008460CF096FF3EBDDF
:1028A0007CB500BF68460DF069F90446ED48007834
:1028B00010F0020F12D041F28830B4FBF0F100FBAF
:1028C00011400521B0FBF1F541F28830B4FBF0F680
:1028D000E54B2A463146E5A011F04AFF00BF012131
:1028E000102003F005F94FF40040ADF8040010206B
:1028F0008DF8070003208DF8060001A9E04802F0DA
:1029000025FE4FF40041DE4802F0CBFE0220FFF727
:10291000AFFF4FF40041DA4802F0C5FE0120FFF797
:10292000A7FF4FF40041D64802F0BBFE0220FFF79C
:102930009FFF7CBD7CB500BF68460DF01FF90446C3
:10294000C848007810F0020F12D041F28830B4FB72
:10295000F0F100FB11400521B0FBF1F541F28830A8
:10296000B4FBF0F6C74B2A463146C0A011F000FF79
:1029700000BF0121082003F0BBF80120ADF80400DE
:1029800010208DF8070003208DF8060001A9BE482D
:1029900002F0DCFD0121BC4802F085FE0420FFF7B7
:1029A00067FF0121B84802F07CFE0420FFF760FFBA
:1029B0000121B54802F077FE7CBD10B5FFF7BAFFE4
:1029C00010BD08B56A460021B04809F00BF908BDF2
:1029D0002DE9FC41044601AA0021AD480AF0A3FA02
:1029E00001A8009041F2883004FB00F100231A4650
:1029F000A7480AF013F8BDF80400A0F5E441D9395E
:102A000020D100BF68460DF0B9F80546954800781A
:102A100010F0020F12D041F28830B5FBF0F100FB4C
:102A200011500521B0FBF1F641F28830B5FBF0F70B
:102A3000984B3246394698A011F09AFE00BF00200C
:102A4000BDE8FC810120FBE770B505460E46002479
:102A50000CE0295D984803F079FB00BF802196487F
:102A600003F0E2FB0028F9D0601C84B2B442F0DB32
:102A700070BD1CB501A800231A4619460090834872
:102A800008F0B2FE1CBD2DE9F04786B006460D46A3
:102A90004FF00009284610F055FF87B2FFF7E9FF15
:102AA0008648FFF7BDFB304610F04CFF1FFA80FA56
:102AB00051463046FFF7C8FF0420FFF789FF8046E4
:102AC000B8F1010F27D10CE0012205A97B48FFF7DF
:102AD0005EFB9DF814204846411C01F0FF090DF8EB
:102AE00000207648FFF7F0FA0028EDD000240CE033
:102AF000285D1DF80410884205D0FFF762FF002012
:102B000006B0BDE8F087601CC4B2BC42F0DBFFF742
:102B100058FF0120F4E7FFF754FF0020F0E72DE90C
:102B2000F047B4B005460E464FF00008802114A8C7
:102B300010F0DEFE402103A810F0DAFE2B4660A262
:102B4000802114A8009611F023FE00BF02A80DF00A
:102B500015F807464348007810F0020F14D041F2F0
:102B60008830B7FBF0F100FB11700521B0FBF1F9E3
:102B700041F28830B7FBF0FA14A8574B4A46514649
:102B8000009056A011F0F4FD00BFFFF772FF4B4814
:102B9000FFF746FB57A114A8FFF775FF04464CB397
:102BA0000A20FFF715FF0446012C1FD10CE001227B
:102BB00013A94248FFF7EBFA9DF84C204046411C10
:102BC00001F0FF0803A90A543C48FFF77DFA0028EA
:102BD000EDD0FFF7F6FE49A103A810F094FE18B15E
:102BE000012034B0BDE8F0870020FAE7FFF7E9FEE6
:102BF0000020F6E7FFF7E5FE0020F2E72DE9F043BD
:102C000087B04FF00009FFF734FF142101A810F03E
:102C10006FFE03203C4908702848FFF701FB08219C
:102C20003AA0FFF711FF0420FFF7D2FE8046B8F16B
:102C3000010F71D10FE0012206A92048FFF7A7FA82
:102C40009DF818204846411C01F0FF0901A90A54CB
:102C50000120FFF719FE1948FFF736FA00285CE05B
:102C60002000002006000020DB5D01085B253035D8
:102C7000642E253033642F495D3A2025730D0A00F8
:102C800000100140E65D0108000C0140D023002047
:102C9000A8230020325E01085B253035642E2530E4
:102CA00033642F495D3A2025733A2074696D656F4E
:102CB00075740D0A00000000004800409C230020AD
:102CC00041542B5A49504F50454E3D322C302C2503
:102CD000732C25640D0A0000FE5D01085B2530356C
:102CE000642E253033642F495D3A2025733A202520
:102CF000730D0A000D0A4F4B00000000434F4E4E6B
:102D0000454354204F4B00006900002041542B43A1
:102D100053510D0A0000000025E08CD0F8A101A855
:102D200010F0F1FD04001FD0F7A1204610F0EBFDDC
:102D30000446641CF5A1204610F0E5FD07466CB181
:102D4000002606E014F8012B3046711CCEB20DF8B7
:102D50000020BC42F6D300200DF80600684610F0B3
:102D60001FFEC5B200E00025FFF72BFE0620E84954
:102D70000870284607B0BDE8F0832DE9FF5F0746DD
:102D80004FF0000800267FB903AB0022E1A1E44820
:102D900009F015FD03AAE3A1E54808F0FEFA03AA2D
:102DA000E4A1E84808F0F9FA0020E74908708DE24C
:102DB000D748007830B1022876D0042872D0052890
:102DC00071D154E100BF02A80CF0D8FE8146DF4863
:102DD000007810F0020F12D041F28830B9FBF0F108
:102DE00000FB11900521B0FBF1FA41F28830B9FBEC
:102DF000F0FBD74B52465946D6A011F0B9FC00BFA4
:102E0000FFF74EFDFFF796FD0A20FFF731FD012089
:102E1000BF490870D8A1D9A0FFF735FE01281FD1FE
:102E20000220BB49087000BF02A80CF0A7FE814633
:102E3000C648007810F0020F11D041F28830B9FB7B
:102E4000F0F100FB11900521B0FBF1FA41F288305E
:102E5000B9FBF0FB52465946CAA011F089FC1FE0AD
:102E60000020AB49087000BF02A80CF087FE814625
:102E7000B648007810F0010F11D041F28830B9FB4C
:102E8000F0F100FB11900521B0FBF1FA41F288301E
:102E9000B9FBF0FB52465946C2A011F069FC00BFD5
:102EA0000DE101E053E009E100BF02A80CF066FE6D
:102EB0008146A648007810F0020F12D041F2883007
:102EC000B9FBF0F100FB11900521B0FBF1FA41F2E2
:102ED0008830B9FBF0FB9E4B52465946B9A011F021
:102EE00047FC00BF002429E0BF4951F8340010F02E
:102EF00029FD1FFA80F9BC4951F834004946FFF713
:102F0000A3FDB94800EBC4008088B0F57A7F0DDBE3
:102F1000B54800EBC40080884FF47A7190FBF1F063
:102F200000F0FF094846FFF7A3FC05E0AE4901EBBE
:102F3000C4018888FFF7A8FC601CC4B2072CD3DB4F
:102F4000AA48FFF76DF9042071490870B7E000BF87
:102F500002A80CF013FE81467C48007810F0020FA6
:102F600017D0FFF74BFE824641F28830B9FBF0F1F3
:102F700000FB11900521B0FBF1FB41F28830B9FB59
:102F8000F0F0734B5A460146CDE900A098A011F02D
:102F9000EFFB00BF04205E49087000BF02A80CF0E0
:102FA000EDFD81466948007810F0020F12D041F221
:102FB0008830B9FBF0F100FB11900521B0FBF1FA6C
:102FC00041F28830B9FBF0FB614B5246594691A063
:102FD00011F0CEFB00BF42F2B02198A0FFF79FFD99
:102FE0000546012D20D100BF02A80CF0C7FD814687
:102FF0005648007810F0010F11D041F28830B9FB2B
:10300000F0F100FB11900521B0FBF1FA41F288309C
:10301000B9FBF0FB524659468CA011F0A9FB00BF4A
:1030200005203B49087021E000BF02A80CF0A6FD76
:1030300081464648007810F0010F11D041F28830E7
:10304000B9FBF0F100FB11900521B0FBF1FA41F260
:103050008830B9FBF0FB5246594685A011F088FB39
:1030600000BF00202A490870701C86B227E000BF0C
:1030700002A80CF083FD81463448007810F0020F5E
:1030800012D041F28830B9FBF0F100FB119005211C
:10309000B0FBF1FA41F28830B9FBF0FB2C4B524601
:1030A00059467DA011F064FB00BF4FF001080620D7
:1030B0001749087001202449087000BF00BF00BFF5
:1030C000042E1ADD00BF02A80CF058FD81461F48EF
:1030D000007810F0010F11D041F28830B9FBF0F107
:1030E00000FB11900521B0FBF1FA41F28830B9FBE9
:1030F000F0FB174B52465946E2E0E7E0E4E00000FF
:103100002B4353513A000000200000002C00000027
:10311000690000204C3230365F57414954000000AE
:10312000A82300204C3230365F4D555445580000DE
:10313000D02300204C3230365F53454E445F4D550E
:1031400054455800FC2300202000002006000020E9
:10315000F35D01085B253035642E253033642F493B
:103160005D3A2025733A2053544154455F554E49EA
:103170004E495445440D0A004154000041540D0A83
:10318000000000005B253035642E253033642F4964
:103190005D3A20706F776572757020646F6E650D93
:1031A0000A0000005B253035642E253033642F453E
:1031B0005D3A20706F7765727570206661696C6525
:1031C000640D0A005B253035642E253033642F49A9
:1031D0005D3A2025733A2053544154455F494E4986
:1031E0005445440D0A000000240000209C230020C8
:1031F0005B253035642E253033642F495D3A202518
:10320000733A207369676E616C203D2025640D0A56
:10321000000000005B253035642E253033642F49D3
:103220005D3A2025733A2053544154455F434F4E35
:103230004E454354494E470D0A0000003133392EA4
:103240003232342E31372E31363300005B253035A3
:10325000642E253033642F455D3A20636F6E6E65B2
:1032600063742073756363657373210D0A00000036
:103270005B253035642E253033642F455D3A20635D
:103280006F6E6E656374206661696C65642C207274
:1032900065747279210D0A005B253035642E253066
:1032A00033642F495D3A2025733A205354415445E5
:1032B0005F434F4E4E45435445440D0A0000000005
:1032C000FEA0009611F054FA00BF03E0B8F1000F21
:1032D0003FF46EAD00BFB8F1000F23D100BF02A8CC
:1032E0000CF04CFC8146FD48007810F0010F14D022
:1032F00041F28830B9FBF0F100FB11900521B0FBE1
:10330000F1FA41F28830B9FBF0FB0420F44B52464D
:1033100059460090F3A011F02BFA00BF002004B032
:10332000BDE8F09F0120FAE710B5FE48007800B92B
:1033300010BD05F0B7FD03F0F9FA05F0C4FD00BFBC
:10334000F6E708B56A464FF40071F74809F0A3FDA7
:1033500008BD1CB540F22551F44802F07BFF00285F
:1033600078D0F24802F0F6FEC0B20190F048407802
:10337000EF4908700846807848700846C078887021
:103380009DF80400C870EB4800780A286ED2DFE888
:1033900000F0051C06081D6D3A6D1E0767E066E02B
:1033A00065E0FFF766FB012201A9E348FEF7A6FEF0
:1033B000DF4880780D2805D1DD48C0780A2801D182
:1033C000FFF7BFFFFFF7FDFA51E000BF00BFFFF7B7
:1033D00050FB012201A9D848FEF790FED44800789E
:1033E0004F280DD1D24840784B2809D1D048807859
:1033F0000D2805D1CE48C0780A2801D1FFF7A1FFDA
:10340000FFF7DFFA33E0FFF734FB9DF804007B2879
:103410000ED1CA48007858B90120C8490870C6487A
:10342000FEF7FEFE012201A9C348FEF767FE1AE07F
:103430009DF804007D280ED1012201A9BE48FEF7A7
:103440005DFE0020BD4908706A460021BC480BF0B3
:10345000C8FC08E00CE0B948007820B1012201A9BD
:10346000B548FEF74BFEFFF7ACFA00E000BF00BF27
:103470001CBDF8B500BF68460CF080FB04469748B9
:10348000007810F0020F12D041F28830B4FBF0F156
:1034900000FB11400521B0FBF1F541F28830B4FB8F
:1034A000F0F6A84B2A463146A7A011F061F900BFFB
:1034B0000920A04908700C21AAA0FFF7C5FA012035
:1034C000FFF7D6F906209B49087000BF68460CF04C
:1034D00055FB04468148007810F0020F12D041F2EB
:1034E0008830B4FBF0F100FB11400521B0FBF1F591
:1034F00041F28830B4FBF0F6924B2A4631469DA04B
:1035000011F036F900BFF8BD2DE9F04FA7B04FF02C
:10351000000AFFF7AEFA28211BA810F0E9F92821CC
:1035200010A810F0E5F90320824908708248FEF7E0
:1035300077FE0C2196A0FFF787FA0220FFF748FAE2
:103540001A900CE0012225A97B48FEF720FE9DF889
:1035500094205046411C01F0FF0A1BA90A547648EA
:10356000FEF7B2FD0028EDD08DA11BA810F0CBF91D
:103570005FEA00093CD0AFF27041484610F0C3F951
:10358000814609F1010976A1484610F0BCF983464D
:10359000B9F1000F0DD0002406E019F8012B2046E8
:1035A000611CCCB210A90A54D945F6D3002010A949
:1035B000085500BF03A80CF0E1FA07464748007819
:1035C00010F0020F13D041F28830B7FBF0F100FB8E
:1035D00011700521B0FBF1F841F28830B7FBF0F033
:1035E00010AB4246014602906FA011F0C1F82DE0E9
:1035F00000BF03A80CF0C2FA07463848007810F064
:10360000010F13D041F28830B7FBF0F100FB1170CD
:103610000521B0FBF1F841F28830B7FBF0F01BABAD
:1036200042460146029067A011F0A2F800BF0620B2
:1036300040490870FFF7C5F900206E4908606E49DF
:103640000860FFF716FF27B0BDE8F08F142109A826
:1036500010F04EF9142104A810F04AF94FF0000AB6
:1036600000240AE02046611CCCB210A90A5C504636
:10367000411C01F0FF0A09A90A5410A8005D2C287A
:10368000F0D1002009A901F80A00601CC4B24FF073
:10369000000A0AE02046611CCCB210A90A5C504620
:1036A000411C01F0FF0A04A90A5410A8005D00287B
:1036B000F0D104A901F80A0000BF9FE05B25303576
:1036C000642E253033642F455D3A2025733A2072ED
:1036D00065747279203D2025640D0A0006000020E3
:1036E000F35D01085B253035642E253033642F45AA
:1036F0005D3A2025733A2057652063616E6E6F74C2
:1037000020636F6E6E656374207365727665722CCC
:1037100020726574726965642025642074696D6522
:10372000730D0A00C5000020A823002000480040B7
:1037300065000020690000209C2300206400002018
:10374000986E00200B5E01085B253035642E253015
:1037500033642F495D3A2025733A20737461727483
:103760000D0A000041542B4754504F533D310D0A70
:10377000000000005B253035642E253033642F496E
:103780005D3A2025733A20646F6E650D0A000000D3
:1037900041542B4754504F533D320D0A0000000056
:1037A0002B4754504F533A005B253035642E25305B
:1037B00033642F495D3A206275663A2025730D0AFD
:1037C000000000005B253035642E253033642F4522
:1037D0005D3A2063616E6E6F742067657420706F50
:1037E000736974696F6E20696E666F2C205B257338
:1037F0005D0D0A005C0000206000002003A80CF0B2
:10380000BDF907469D48007810F0020F15D041F22F
:103810008830B7FBF0F100FB11700521B0FBF1F827
:1038200041F28830B7FBF0F0029004A809AB4246A1
:10383000009093A0029910F09BFF00BF06209949C9
:103840000870FFF7BEF809A811F0C5FC05460E4642
:1038500004A811F0C0FCCDE90E010022924B2846CD
:10386000314610F051F9074610F0FDF98F49086014
:1038700000228D4BDDE90E0110F046F9074610F0ED
:10388000F2F98B49086000BFDDE670B505460C46CD
:10389000FFF73AFE85480068286085480068206088
:1038A00070BD2DE9FE4F06460C464FF0000800BFE4
:1038B00001A80CF063F981467048007810F0020FFF
:1038C00014D041F28830B9FBF0F100FB11900521D2
:1038D000B0FBF1FA41F28830B9FBF0FB754B524670
:1038E0005946AFF60840009610F042FF00BF02A80C
:1038F00000231A46194600906F4807F075FFFFF73E
:10390000B8F8082067490870610001F10D0011F056
:103910000DFD074669A24FF48061384610F038FF6C
:103920001FFA80F800250CE0735D07EB080067A222
:103930004FF4806110F02CFF40441FFA80F8681C9F
:1039400085B2A542F0D360000D3081B23846FFF752
:103950007BF860A1AFF2F810FFF795F801281CD0B2
:1039600000BF01A80CF00AF981464448007810F025
:10397000020F11D041F28830B9FBF0F100FB119039
:103980000521B0FBF1FA41F28830B9FBF0FB524659
:10399000594653A010F0ECFE00BF062041490870C4
:1039A000384611F09BFCFFF70CF802AA00214248B0
:1039B00008F018F9BDE8FE8F10B586B00121092086
:1039C00002F096F80121880402F09FF84FF480601D
:1039D000ADF8140018208DF8170003208DF816009C
:1039E00005A9474801F0B2FD4FF40060ADF814009E
:1039F00004208DF8170003208DF8160005A9404813
:103A000001F0A4FD4FF4E13001900020ADF8080072
:103A1000ADF80A00ADF80C00ADF810000C20ADF8C0
:103A20000E0001A9374802F098FA00BF3548001D82
:103A30000088C4B233480088C4B2012240F2255144
:103A4000304802F022FB01212E4802F012FB4FF415
:103A500080722D492D48FEF731FB00201149087076
:103A6000AFF21171272002F042FE0121272002F05F
:103A700056FE272002F031FE06B010BD06000020E1
:103A80005B253035642E253033642F495D3A206C38
:103A90006E67203D2025732C206C6174203D20250D
:103AA000730D0A0069000020006AF8405C000020E5
:103AB00060000020285E0108FC23002041542B5A9E
:103AC000495053454E443D322C0000002530327899
:103AD000000000000D0A53454E44204F4B000000EB
:103AE0005B253035642E253033642F495D3A2073D1
:103AF000656E64206661696C65640D0A00000000F3
:103B0000000C0140004800409C2200209C23002023
:103B100008B50121102001F0EBFF4FF4C040ADF8D3
:103B2000000010208DF8030003208DF80200694684
:103B30003E4801F00BFD4FF400513C4801F0B1FD4F
:103B40004FF48041394801F0AEFD08BD08B54FF48F
:103B50008041364801F0A5FD6A46002114200BF093
:103B6000AFFD4FF48041314801F09DFD6A460021D0
:103B700004200BF0A5FD08BD08B54FF480412B488B
:103B800001F08FFD6A46002104200BF099FD4FF4EF
:103B90008041264801F087FD6A46002114200BF081
:103BA0008FFD08BD08B54FF48041204801F079FD34
:103BB0006A46002102200BF083FD4FF480411B4830
:103BC00001F071FD6A4600213E200BF079FD08BD31
:103BD00070B505462E4607240BE046FA04F010F0B7
:103BE000010F02D0FFF7B2FF01E0FFF7C5FF601E33
:103BF00044B2002CF1DA70BD10B5002406E0FFF7E6
:103C0000D1FF4420FFF7E4FF601CC4B2142CF6DBA4
:103C100010BD10B5002406E0FFF7C4FF8820FFF7B1
:103C2000D7FF601CC4B2142CF6DB10BD001001409D
:103C300001460020C80AC002704710B50346981814
:103C4000B0F1016F01D9012010BD0AB90120FBE7D5
:103C5000002404E013F8010B01F8010B641C9442EA
:103C6000F8D30020F0E770B503469818B0F1016F63
:103C700001D9032070BD0AB90020FBE7012600240A
:103C80000BE01D780878A84204D0FF2D01D0022057
:103C9000F0E700265B1C491C641C9442F1D3012E02
:103CA00001D10020E6E70120E4E72DE9F05F0746B7
:103CB000884614464FF004093819B0F1016F02D953
:103CC0000120BDE8F09F0CB90020FAE714F0010FC5
:103CD00001D00120F5E7224641463846FFF7C3FFF1
:103CE00006460EB90020ECE7012080F3108800BFE3
:103CF00001F011F9352001F0A6FB022E0BD1384658
:103D0000FFF796FF834601F04BF98146B9F1040FA6
:103D100001D00220D5E7002512E018F815A06800B0
:103D2000401C18F800004AEA002A5146384601F0C3
:103D300037FA8146B9F1040F00D004E0BF1C6D1CB6
:103D4000B5EB540FE9D300BF01F0F1F8002080F388
:103D5000108800BFB9F1040F00D1B2E70220B0E72C
:103D60000648804706480047FEE7FEE7FEE7FEE715
:103D7000FEE7FEE7FEE7FEE7FEE7FEE73165000847
:103D80003101000831490143314A1160704770B573
:103D9000002100230F22C4780CB32D4C246804F4B6
:103DA000E064C4F5E064210AC1F10403CA40447828
:103DB00004FA03F18478144021430901254C067864
:103DC000A155047804F01F050124AC4005786D115D
:103DD0004FF0E02606EB8505C5F8004109E00478C0
:103DE00004F01F050124AC401B4D0678761145F800
:103DF000264070BD194A0A400243154B1B1F1A602A
:103E0000704739B1124A121D12680243104B1B1D34
:103E10001A6006E00E4A121D126882430C4B1B1DED
:103E20001A607047042808D14FF0E021096941F079
:103E300004014FF0E022116107E04FF0E021096931
:103E400021F004014FF0E022116170470000FA05F3
:103E50000CED00E000E400E080E100E080FFFF1FE7
:103E600010B50446F948844208D10121401501F0FB
:103E700059FE0021601501F055FE17E0F448844218
:103E800008D10121001501F04DFE0021201501F09F
:103E900049FE0BE0EF48844208D10121C80301F03C
:103EA00041FE00214FF4004001F03CFE10BD30B552
:103EB0000246002000235068E74C20400D790C6832
:103EC00044EA0524204350609068E44C2040D1E946
:103ED00002542C434D7944EA450420439060D06A53
:103EE00020F470000C7C641EE4B2234340EA0350CB
:103EF000D06230BD00210160017141718160C160FB
:103F000001210174704721B1826842F00102826090
:103F100003E0826822F001028260704721B182686A
:103F200042F48072826003E0826822F480728260D0
:103F3000704710B50023CBB21AB144681C434460EB
:103F400002E044689C43446010BD816841F0080170
:103F500081607047014600208A6812F0080F01D086
:103F6000012000E000207047816841F00401816079
:103F70007047014600208A6812F0040F01D001202A
:103F800000E00020704721B1826842F4A002826004
:103F900003E0826822F4A00282607047014600209C
:103FA0008A6812F4800F01D0012000E000207047E1
:103FB00010B50A4600210023416821F46041531ED8
:103FC00041EA4331416010BD21B1426842F40062D0
:103FD000426003E0426822F4006242607047F0B53C
:103FE00004460D4600200021092D11DDE068A5F1F1
:103FF0000A0606EB4607072606FA07F18843A5F1ED
:104000000A0606EB460603FA06F10843E0600CE0F8
:10401000206905EB4507072606FA07F1884305EBFB
:10402000450603FA06F108432061072A0FDA606BA0
:10403000561E06EB86071F2606FA07F18843561E12
:1040400006EB860605FA06F10843606322E00D2AB6
:104050000FDA206BD61F06EB86071F2606FA07F13C
:104060008843D61F06EB860605FA06F1084320634F
:1040700010E0E06AA2F10D0606EB86071F2606FA9D
:1040800007F18843A2F10D0606EB860605FA06F154
:104090000843E062F0BD21B1826842F48012826080
:1040A00003E0826822F48012826070470146C86C87
:1040B00080B2704765484C300068704721B1426853
:1040C00042F48062426003E0426822F4806242600F
:1040D000704721B1426842F48052426003E0426876
:1040E00022F48052426070470A460021816821F420
:1040F000E04111438160704721B1826842F400427F
:10410000826003E0826822F400428260704721B13D
:10411000826842F40212826003E0826822F4021292
:1041200082607047014600208A6812F4001F01D0A7
:10413000012000E000207047F0B50446154600203D
:1041400000220026092911DDE068A1F10A0707EB2A
:10415000470C072707FA0CF29043A1F10A0707EB77
:10416000470703FA07F21043E0600CE0206901EB17
:10417000410C072707FA0CF2904301EB410703FAC1
:1041800007F210432061A06BC0F30156EF1C06F14B
:10419000010CA7EB0C0707EB870C1F2707FA0CF2A3
:1041A0009043EF1C06F1010CA7EB0C0707EB870708
:1041B00001FA07F21043A063F0BD10B50A460021D2
:1041C0000023816B21F44011531E41EA03518163A6
:1041D00010BD10B5002303460B441A6010BD024603
:1041E0000023134601F128000344186880B2704789
:1041F0000A46002141681A4B19401143416070473B
:104200004162826270470A460021416821F01F0125
:1042100011434160704740B10C490831096841F4CD
:1042200000010A4A0832116007E0084908310968AC
:1042300021F40001054A083211607047024600204F
:1042400013680B420ED001200DE000000024014055
:1042500000280140003C0140FFFEF0FFFDF7F1FFA8
:10426000FFFD3FFF00207047CA430260704770B5F2
:1042700002460020002300240B125568CEB205EA46
:10428000060415681D4202D00CB1012000E0002098
:1042900070BD00220A12D3430360704710B5044674
:1042A000FE48844209D10121480601F048FC002162
:1042B0004FF0007001F043FC08E00121880601F096
:1042C0003EFC00214FF0806001F039FC10BD30B59C
:1042D000024600200023146824F0020414601468CD
:1042E00044F00104146000E05B1C546814F0010FFA
:1042F00003D1A3F57F44FF3CF6D1546814F0010FBD
:1043000001D100206CE08C79012C04D1146844F0B8
:104310008004146003E0146824F080041460CC79F5
:10432000012C04D1146844F04004146003E01468C4
:1043300024F0400414600C7A012C04D1146844F079
:104340002004146003E0146824F0200414604C7A04
:10435000012C04D1146844F01004146003E01468C4
:1043600024F0100414608C7A012C04D1146844F0F9
:104370000804146003E0146824F008041460CC7A84
:10438000012C04D1146844F00404146003E01468A0
:1043900024F0040414608C78A407CD7844EA056402
:1043A0000D7944EA05444D7944EA05540D886D1EA3
:1043B0002C43D461146824F001041460002300E04D
:1043C0005B1C546814F0010F03D0A3F57F44FF3C3D
:1043D000F6D1546814F0010F01D0002000E0012054
:1043E00030BD10B50021837A012202FA03F1AC4AF4
:1043F000126842F00102AA4B1A60A94A1C321268E4
:104400008A43A74B1C331A60027BCAB9A44A0C32F8
:1044100012688A43A24B0C331A604288C38842EA6E
:1044200003439F4A4032847A42F8343002888388BA
:1044300042EA03439A4A4032847A02EBC402536050
:10444000027B012A19D1964A0C3212680A43944B16
:104450000C331A604288038842EA0343904A403290
:10446000847A42F83430C288838842EA03438C4A13
:104470004032847A02EBC4025360C27A3AB9884A65
:10448000121D12688A43864B1B1D1A6006E0844A7F
:10449000121D12680A43824B1B1D1A60028932B931
:1044A0007F4A143212688A437D4B14331A600289A2
:1044B000012A06D17A4A143212680A43784B14331F
:1044C0001A60427B012A06D1754A1C3212680A43DF
:1044D000734B1C331A60724A126822F00102704B4F
:1044E0001A6010BD00218171C17101724172817227
:1044F000C1728170C17003210171022141710121DA
:10450000018070476649096841F00101644A116001
:104510001146096843F60E729143614A11601146D3
:10452000096841EA002111601146096821F0010182
:104530001160704721B1026842F48032026003E0EA
:10454000026822F4803202607047E1B1026842F0F2
:10455000800202604FF4C272125842F480734FF42A
:10456000C27213504FF4CA72125842F480734FF45F
:10457000CA7213504FF4D272125842F480734FF43F
:10458000D27213501BE0026822F0800202604FF4E6
:10459000C272125822F480734FF4C27213504FF457
:1045A000CA72125822F480734FF4CA7213504FF437
:1045B000D272125822F480734FF4D27213507047A3
:1045C00010B502460020936803F08063B3F1806F5A
:1045D00000D110E0936803F00063B3F1006F01D1E4
:1045E000012008E0936803F08053B3F1805F01D1AC
:1045F000022000E00420042879D002F5C07303EB08
:1046000000131B6803F0010402F5C07303EB0013F1
:104610001C600B7A7BB94B7A0C8843EA445302F551
:10462000C07404EB00142468234302F5C07404EB47
:104630000014236010E00B7A4C6843EAC4034C7A00
:10464000234302F5C07404EB00142468234302F5ED
:10465000C07404EB001423608B7A03F00F038B7299
:1046600002F5C07303EB00135B6823F00F0402F53F
:10467000C07303EB00135C6002F5C07303EB00131F
:104680005B688C7A234302F5C07404EB001463600A
:104690008B7B1C064B7B44EA034403E00064004030
:1046A000006600400B7B44EA0323CC7A234302F5E7
:1046B000C07404EB0014A3608B7C1C064B7C44EAA2
:1046C00003440B7C44EA0323CC7B234302F5C074F0
:1046D00004EB0014E36002F5C07303EB00131B68E6
:1046E00043F0010402F5C07303EB00131C6010BD1E
:1046F00010B50246002321B1012907D002290FD1AC
:1047000009E09068F84C00EA04030BE09068F74C6D
:1047100000EA040306E09068F54C00EA040301E0B7
:10472000002300BF00BFF34C181BA34216D007DCC8
:1047300083B16FF0806018180ED0022818D111E0F4
:10474000B0F5007F10D0EC4C001909D0B0F5003F57
:104750000ED10BE002230DE000230BE0002309E063
:10476000002307E0012305E0012303E0012301E02A
:10477000002300BF00BFD8B210BD21B1012907D06E
:1047800002290FD109E0826842F0800282600AE0CB
:10479000826842F40042826005E0826842F40002CE
:1047A000826000E000BF00BF704710B500F5D8730D
:1047B00003EB01131B6803F004031372137A53B95C
:1047C00000F5D87303EB01131B6840F2FF7404EA91
:1047D0005353136009E000F5D87303EB01131B6812
:1047E0006FF0604404EAD303536000F5D87303EB21
:1047F00001131B6803F00203537200F5D87303EB37
:1048000001135B6803F00F03937200F5D87303EB99
:1048100001135B681B0AD37400F5D87303EB011313
:104820009B68D37200F5D87303EB01139B681C0AD5
:10483000147300F5D87303EB01139B681C0C5473BD
:1048400000F5D87303EB01139B681B0E937300F5FF
:10485000D87303EB0113DB68D37300F5D87303EB54
:104860000113DB681C0A147400F5D87303EB011301
:10487000DB681C0C547400F5D87303EB0113DB6880
:104880001B0E937421B9C36843F02003C36003E097
:10489000036943F02003036110BD21B9C26842F0EF
:1048A0002002C26003E0026942F020020261704708
:1048B0000246002019B9D36803F0030006E001297D
:1048C00003D1136903F0030000E00020704710B526
:1048D00002460B4600204FF6FF71BBB9146824F066
:1048E000020444F00104146000E0491E546804F01E
:1048F0000304012C01D00029F7D1546804F003040B
:10490000012C01D0002032E0012030E0012B13D136
:10491000146824F00304146000E0491E546814F085
:10492000030F01D00029F8D1546814F0030F01D00F
:1049300000201CE001201AE0022B17D1146824F09B
:10494000010444F00204146000E0491E546804F0BD
:104950000304022C01D00029F7D1546804F00304A9
:10496000022C01D0002002E0012000E0002010BD58
:10497000014600200A6822F0010242F002020A60A9
:104980004A6802F00302022A00D101207047014662
:104990004FF6FF7200200B6823F002030B6000E06B
:1049A000521E4B6803F00203022B01D1002AF7D1FB
:1049B0004B6803F00203022B00D001207047014630
:1049C00000208A6902F070007047014600208A6961
:1049D000100E7047014600208A69C2F307407047F5
:1049E0001AB143690B43436102E043698B4343615E
:1049F000704710B50246002011F4700F08D093697B
:104A0000C1F31304234201D001202DE000202BE04C
:104A100011F0807F08D05368C1F31304234201D002
:104A2000012021E000201FE011F0006F08D0936802
:104A3000C1F31304234201D0012015E0002013E04C
:104A400011F0007F08D0D368C1F31304234201D0D2
:104A5000012009E0002007E01369C1F31304234299
:104A600001D0012000E0002010BD0022234B99421C
:104A700002D10023836111E0C1F3130211F0007F22
:104A800001D0C2600AE011F0806F01D0026105E040
:104A900011F0006F01D0826000E042607047024672
:104AA00000200A4201D0012000E00020704770B5CC
:104AB00004460D4600266069284272D0B5F5807F15
:104AC00069D01DDC082D42D006DC012D2DD0022D31
:104AD00031D0042D7FD134E0102D3ED0202D42D096
:104AE000402D78D145E000000300000400030008D9
:104AF00000000310000100080001FFF77000F03013
:104B0000B5F5004F61D009DCB5F5007F4AD0B5F5A9
:104B1000806F4DD0B5F5006F5DD150E0B5F5803FA9
:104B20002DD0B5F5003F56D12FE0A0685549FFF7CD
:104B3000B6FF064651E0E0680321FFF7B0FF0646E6
:104B40004BE0E0680821FFF7AAFF064645E0E06871
:104B50001021FFF7A4FF06463FE020690321FFF77D
:104B60009EFF064639E020690821FFF798FF0646B8
:104B700033E020691021FFF792FF06462DE06068C0
:104B80000821FFF78CFF064627E060681021FFF739
:104B900086FF064621E0A0690121FFF780FF064657
:104BA0001BE01BE0A0690221FFF779FF064614E035
:104BB000A0690421FFF773FF06460EE00BE0A06931
:104BC0007021FFF76CFF064607E060680421FFF7DD
:104BD00066FF064601E0002600BF00E000263046E2
:104BE00070BDB1F5007F3AD00FDC202928D006DC5B
:104BF00001291CD004291DD0082940D11DE04029DD
:104C000021D0B1F5807F3AD126E0B1F5004F31D007
:104C100006DCB1F5806F25D0B1F5006F2FD124E00F
:104C2000B1F5803F12D0B1F5003F28D111E0154A0F
:104C3000826025E00822C26022E01022C2601FE0EC
:104C4000082202611CE01022026119E00822426081
:104C500016E01022426013E00422426010E00422B9
:104C600042600DE0042242600AE0002282610422D8
:104C7000426005E0002282610422426000E000BF41
:104C800000BF70470101010001684FF6FE7211403C
:104C900001600021016041608160C1608C498842EF
:104CA00008D18B490839496841F00F01884A083A10
:104CB00051608AE086491431884208D18449083914
:104CC000496841F0F001824A083A51607DE080492C
:104CD0002831884208D17E490839496841F4706119
:104CE0007B4A083A516070E079493C31884208D1EA
:104CF00077490839496841F47041754A083A51606A
:104D000063E073495031884208D1714908394968D4
:104D100041F470216E4A083A516056E06C496431A2
:104D2000884208D16A490839496841F47001684AE3
:104D3000083A516049E066497831884208D16449AF
:104D40000839496841F07061614A083A51603CE0B5
:104D50006049884206D1011F096841F00F01021F16
:104D6000116032E05B491431884208D15949091F6A
:104D7000096841F0F001574A121F116025E05549BA
:104D80002831884208D15349091F096841F47061EC
:104D9000504A121F116018E04E493C31884208D138
:104DA0004C49091F096841F470414A4A121F1160B9
:104DB0000BE048495031884207D14649091F09682C
:104DC00041F47021434A121F1160704710B5002250
:104DD000026847F6F0739A430C6A8B6823430C69A8
:104DE00023434C6923438C692343CC6923434C6A96
:104DF00023438C6A23431A430260CB6843600B68E9
:104E000083604B68C36010BD002101604160816018
:104E1000C160016141618161C16101624162816280
:104E2000704721B1026842F00102026004E00268AA
:104E30004FF6FE731A40026070471AB103680B43C5
:104E4000036002E003688B43036070474160704772
:104E50000146486880B2704701460020002211F0E8
:104E6000805F03D01B4B083B1A6802E0184B083BDD
:104E70001A680A4201D0012000E00020704710F0BB
:104E8000805F03D01349091F086002E01049083908
:104E90004860704701460020002211F0805F03D077
:104EA0000C4B083B1A6802E0094B083B1A680A429F
:104EB00001D0012000E00020704710F0805F03D097
:104EC0000449091F086002E0014908394860704739
:104ED000080002400804024001460020FE4A106813
:104EE00000F03800084310607047FB49096821F062
:104EF0000801F94A116011460968014311607047C1
:104F0000F549096821F01001F34A1160114609685A
:104F1000014311607047F148EF494860F04848602C
:104F20007047EE48EC494860ED4848607047EA48F1
:104F3000006940F08000E84908617047E648006970
:104F400040F08000E449086170470420E249C968E4
:104F500011F0010F01D001200EE0DF49C96811F006
:104F6000040F01D0022007E0DB49C96811F0100FDF
:104F700001D0032000E00420704700B5024604235E
:104F8000FFF7E3FF034603E0FFF7DFFF0346521E90
:104F9000012B01D1002AF7D102B90523184600BD23
:104FA00030B5044604254FF43020FFF7E6FF0546F0
:104FB000042D17D1C848006940F00200C6490861B5
:104FC00008464461006940F0400008614FF4302019
:104FD000FFF7D3FF0546C048006941F6FD71084060
:104FE000BD490861284630BD10B504244FF4302077
:104FF000FFF7C3FF0446042C16D1B748006940F000
:105000000400B54908610846006940F040000861A5
:105010004FF43020FFF7B1FF0446AF48006941F676
:10502000FB710840AC490861204610BD00B502463E
:105030000423FFF78AFF034603E0FFF786FF0346DA
:10504000521E012B01D1002AF7D102B905231846BF
:1050500000BD10B504244FF43020FFF7E7FF0446ED
:10506000042C16D19C48006940F004009A4908615C
:105070000846006940F0400008614FF43020FFF717
:10508000D5FF04469448006941F6FB7108409249F7
:105090000861204610BD00208F49C96911F0020F38
:1050A00001D0012000E00020704730B5A525042480
:1050B000FFF7F1FF00B100254FF43020FFF75DFF4F
:1050C0000446042C3AD18548834988608448886026
:1050D0000846006940F0200008610846006940F079
:1050E000400008614FF43020FFF747FF0446042CCE
:1050F0001BD17948006941F6DF71084076490861A3
:105100000846006940F01000086176480580E0021A
:10511000FFF733FF0446052C10D06F48006941F6B5
:10512000EF7108406C49086108E0052C06D06A4818
:10513000006941F6EF71084067490861204630BDBB
:10514000F0B504460D4604260027F002FFF715FFD0
:105150000646042E22D16048006940F001005E49F5
:1051600008612580F002FFF708FF0646042E0ED1E5
:10517000A71C280C3880F002FFF7FFFE06465648B1
:10518000006941F6FE7108405349086106E0524843
:10519000006941F6FE7108404F4908613046F0BD94
:1051A00070B504460D460426F002FFF7E6FE0646FB
:1051B000042E11D14848006940F0010046490861B9
:1051C0002580F002FFF7D9FE06464348006941F604
:1051D000FE71084040490861304670BD70B5054613
:1051E0000E460424E002FFF7C8FE0446042C17D143
:1051F0003A48394988603A4888600846006940F072
:10520000100008612E80E002FFF7B7FE0446052C6F
:1052100006D03148006941F6EF7108402E49086117
:10522000204670BD2DE9F04304464FF6FF76374621
:10523000B046B1460425E443E6B2C4F30727C4F3FD
:1052400007484FEA1469E802FFF797FE0546042D68
:1052500040D122482049886021488860084600697A
:1052600040F010000861FF2E06D01E48083006806E
:10527000E802FFF782FE0546042D08D1FF2F06D075
:1052800018480A300780E802FFF777FE0546042D2C
:105290000AD1B8F1FF0F07D012480C30A0F80080F7
:1052A000E802FFF76AFE0546042D0AD1B9F1FF0FA7
:1052B00007D00C480E30A0F80090E802FFF75DFE22
:1052C0000546052D06D00448006941F6EF710840F7
:1052D00001490861284607E0002002402301674594
:1052E000AB89EFCD00F8FF1FBDE8F08330B5054670
:1052F00004244FF43020FFF740FE0446042C41D133
:105300005E485F4988605F4888600846006940F0F1
:10531000200008610846006940F0400008614FF431
:105320003020FFF72AFE0446042C22D1544800699D
:1053300041F6DF710840524908610846006940F0B3
:10534000100008611DB100204F49088002E0A5202F
:105350004D4908804FF43020FFF70FFE0446052C1E
:1053600010D04748006941F6EF7108404449086190
:1053700008E0052C06D04248006941F6DF7108407C
:105380003F490861204630BDF0B505460E46174638
:1053900004243A483A4988603A488860E002FFF7B6
:1053A000ECFD0446042C19D13548006940F010008A
:1053B0003349086147F0F800304328433249891CDB
:1053C0000880E002FFF7D9FD0446052C06D02C48E2
:1053D000006941F6EF710840294908612046F0BD97
:1053E0002748C069800870472548006A7047002038
:1053F0002349096811F0200F01D0012000E00020AE
:10540000704729B11E4A126902431D4B1A6104E01C
:105410001B4A126982431A4B1A61704701460020E9
:10542000012908D1164AD26912F0010F01D00120DA
:1054300008E0002006E0124AD2680A4201D00120AA
:1054400000E0002070470E49C860704704200C49F6
:10545000C96811F0010F01D001200EE00849C968A8
:1054600011F0040F01D0022007E00549C96811F0CE
:10547000100F01D0032000E004207047230167458E
:1054800000200240AB89EFCD00F8FF1F10B50446A5
:10549000CA48844208D10121042000F043FB0021C6
:1054A000042000F03FFB46E0C548844208D10121BA
:1054B000082000F037FB0021082000F033FB3AE021
:1054C000C048844208D10121102000F02BFB0021AC
:1054D000102000F027FB2EE0BB48844208D10121B8
:1054E000202000F01FFB0021202000F01BFB22E009
:1054F000B648844208D10121402000F013FB00216E
:10550000402000F00FFB16E0B148844208D1012191
:10551000802000F007FB0021802000F003FB0AE060
:10552000AC48844207D10121801500F0FBFA00212C
:10553000A01500F0F7FA10BD10B50121084600F0E3
:10554000F1FA0021012000F0EDFA10BD2DE9F04143
:10555000024600250026002000230024002791F8A1
:1055600003C00CF00F0591F803C01CF0100F03D01E
:1055700091F802C04CEA050591F800C0BCF1000F9B
:1055800031D0146800202BE04FF0010C0CFA00F32E
:10559000B1F800C00CEA03069E4220D183004FF010
:1055A0000F0C0CFA03F7BC4305FA03FC4CEA0404A5
:1055B00091F803C0BCF1280F06D14FF0010C0CFA92
:1055C00000FCC2F814C00AE091F803C0BCF1480F17
:1055D00005D14FF0010C0CFA00FCC2F810C0401CC1
:1055E0000828D1D31460B1F800C0BCF1FF0F34DD3E
:1055F000546800202EE000F1080C4FF0010808FA72
:105600000CF3B1F800C00CEA03069E4221D18300DE
:105610004FF00F0C0CFA03F7BC4305FA03FC4CEAFD
:10562000040491F803C0BCF1280F05D100F1080C67
:1056300008FA0CF8C2F8148091F803C0BCF1480FC6
:1056400007D100F1080C4FF0010808FA0CF8C2F875
:105650001080401C0828CED35460BDE8F0814FF67E
:10566000FF710180022181700421C17070470246E0
:10567000002093680B4201D0012000E00020704719
:105680000146886880B2704702460020D3680B420A
:1056900001D0012000E0002070470146C86880B2B8
:1056A000704701617047416170470AB1016100E0D4
:1056B00041617047C16070474FF480320A43826194
:1056C0008161826182698269704702460020424B93
:1056D00018684FF68073184040EA021008433E4BAA
:1056E000186070473D49C8617047F0B50A4600230D
:1056F00000240021002500F00046B6F1004F02D141
:10570000354EF16901E0344E7168C0F3034583B250
:1057100000F44016B6F5401F08D121F070612E4EFE
:10572000766826F070662C4F7E6012E000F48016DA
:10573000B6F5801F06D1032606FA05F4A14341F011
:10574000706106E0460D360103FA06F6B14341F0FA
:10575000706122B1460D360103FA06F6314300F0BE
:105760000046B6F1004F02D11B4EF16101E01A4E26
:105770007160F0BD30B500228B071C0F0F2303FAB8
:1057800004F2154B08338C1053F824309343124C19
:1057900008348D1044F8253023468C1053F82430FB
:1057A0008C07240F00FA04F423430B4C08348D10AB
:1057B00044F8253030BD0A490860704700080140B0
:1057C000000C01400010014000140140001801408D
:1057D000001C014000200140000001400000204268
:1057E000DC0020420E49086070470D494860704750
:1057F0000B49886070474AF6AA200949086070473B
:105800004CF6CC4006490860704701460020044A27
:10581000D2680A4201D0012000E000207047000059
:1058200000300040DB48006840F00100D9490860C2
:1058300008464068D8490840D6494860084600688C
:10584000D6490840D34908600846006820F4802003
:1058500008600846406820F4FE0048604FF41F00CE
:1058600088607047CB49096821F48031C94A1160CA
:105870001146096821F480211160B0F5803F03D002
:10588000B0F5802F0ED106E0C249096841F480319D
:10589000C04A116007E0BF49096841F4A021BD4A30
:1058A000116000E000BF00BF704710B50146002244
:1058B000002300204A11012A02D1B64C236806E0D9
:1058C000022A02D1B34C236A01E0B24C636A01F0B0
:1058D0001F02012494401C4201D0012000E000205E
:1058E00010BD70B500240025002600BF3120FFF751
:1058F000DCFF0646641CB4F5A06F01D0002EF5D085
:105900003120FFF7D2FF08B1012500E0002528462D
:1059100070BD014600209F4A106820F0F80040EA60
:10592000C100106070479E49086070470246002021
:10593000984B586820F47C1042EA01031843954BB9
:105940005860704796490866704701460020914AA2
:10595000506820F003000843506070478D4840684D
:1059600000F00C007047014600208A4A506820F081
:10597000F00008435060704701460020854A506897
:1059800020F4E06008435060704701460020814ADF
:10599000506820F4605040EAC1005060704729B15F
:1059A0007C4A527A02437B4B5A7204E0794A527A1B
:1059B0008243784B5A7270477A49086070470146B3
:1059C0000020744A506820F44040084350607047FB
:1059D0000021754A11706F4A82F82010012802D008
:1059E000042808D103E001216F4A117004E0052169
:1059F0006D4A117000E000BF00BF70476B4908603E
:105A000070476449096A0143624A116270476749F5
:105A100044390860704730B500210022002400237B
:105A20005C4D6D6805F00C0121B1042905D00829F1
:105A300023D105E05E4D056022E05E4D05601FE06C
:105A4000544D6D6805F47012524D6D6805F4803444
:105A5000022505EB92421CB9574D554305600BE0FA
:105A60004C4D6D6815F4003F03D0544D554305600F
:105A700002E0504D5543056002E04D4D056000BF0A
:105A800000BF444D6D6805F0F00109094C4D6B5C99
:105A90000568DD4045603F4D6D6805F4E061090A29
:105AA000474D6B5C4568DD4085603A4D6D6805F497
:105AB0006051C90A424D6B5C4568DD40C560354D9B
:105AC0006D6805F44041890B3E4D6B5CC568B5FBC4
:105AD000F3F5056130BD29B12E4A526902432D4BC1
