:020000040800F2
:1000000000EC0020813D0008893D00088B3D000880
:100010008D3D00088F3D0008913D00080000000064
:10002000000000000000000000000000933D0008F8
:10003000953D000800000000E7480108F10A0108AA
:10004000D72200089B3D00089B3D00089B3D00080F
:100050009B3D00089B3D00089B3D00089B3D000820
:100060009B3D00089B3D00089B3D00089B3D000810
:100070009B3D00089B3D00089B3D00089B3D000800
:100080009B3D00089B3D00089B3D00089B3D0008F0
:100090001D2800089B3D00089B3D00089B3D000873
:1000A0009B3D00089B3D00089B3D00089B3D0008D0
:1000B0009B3D00089B3D00089B3D00089B3D0008C0
:1000C0009B3D00089B3D00089B3D00089B3D0008B0
:1000D0009B3D00089B3D00089B3D000849330008FC
:1000E0009B3D00089B3D00089B3D00089B3D000890
:1000F0009B3D00089B3D00089B3D00089B3D000880
:100100009B3D00089B3D00089B3D00089B3D00086F
:100110009B3D00089B3D00089B3D00089B3D00085F
:100120009B3D00089B3D00089B3D00089B3D00084F
:10013000DFF80CD014F096F800480047E963000897
:1001400000EC00204FF0010080F3138801480249C1
:100150000160FEE70CED00E00400FA05014600BF77
:10016000704700BFA24A128812F0400FFAD0C2B204
:10017000A04B1A80704710B506F020FA4FF40040EB
:1001800005F059FC0121084605F0EDFC0121084667
:1001900005F0DCFC0121480205F0E5FC01211020FE
:1001A00005F0E1FC10BD9448806940F001009249DF
:1001B00088619248406820F0E060904948600846B5
:1001C000406840F080604860704700B591B0022000
:1001D000ADF82C0000208DF82F000BA9884805F001
:1001E000EFF90121084605F0B1FC0121480205F0B4
:1001F000BAFC844804F07CFD834800908348019059
:10020000002002900120039000200490802005909F
:10021000400006908000079020200890000209907E
:1002200000200A906946774804F002FE01217548D3
:1002300004F029FE4FF4004005F0FDFB00200C9077
:1002400001208DF834008DF835004FF460200E90B9
:1002500000200F9001208DF840000CA96A484C380E
:1002600003F043FE052301220B2167484C3803F0BD
:10027000D4FE012164484C3803F06EFE012162482F
:100280004C3803F05EFE60484C3803F07CFE00BF43
:100290005D484C3803F07CFE0028F9D15A484C38B0
:1002A00003F080FE00BF58484C3803F080FE002861
:1002B000F9D1012154484C3803F083FE11B000BD40
:1002C00008B54FF4806003F06DFD27208DF8000025
:1002D00000208DF801008DF8020001208DF8030048
:1002E000684603F064FD25208DF8000000208DF89D
:1002F00001008DF8020001208DF80300684603F02C
:1003000056FD34208DF8000000208DF801008DF896
:10031000020001208DF80300684603F048FD262006
:100320008DF8000000208DF801008DF802000120FA
:100330008DF80300684603F03AFD08BD10B586B09D
:1003400004460121052005F00EFC0121480405F0BA
:1003500017FC0420ADF8140018208DF817000320B6
:100360008DF8160005A92A4805F02AF90820ADF8ED
:10037000140004208DF8170003208DF8160005A93D
:10038000234805F01DF901940020ADF80800ADF8F0
:100390000A00ADF80C00ADF810000C20ADF80E000E
:1003A00001A9134805F019FEFFF78AFF012240F268
:1003B00025510F4805F0A9FE01210D4805F099FED1
:1003C00006B010BD704710B5FFF7D5FEFFF7FAFF76
:1003D0004FF4E130FFF7B2FFFFF772FF01F01AFEB2
:1003E00003F0F3FAFFF7F1FE10BD084800887047EC
:1003F000004400400444004000100240000001405E
:1004000000100140080002404C240140040000207C
:100410000008014010B502F027FA10BD10B51122F6
:100420008021D44801F040FD10BD2DE9F04706467B
:1004300001F009FB8146FFF7F1FFCE4801F0ECFA2D
:1004400004460246CCA1484601F0DEF900200146F0
:1004500001F0D0FA04460246CAA1484601F0D4F998
:10046000304613F0C2FC044601F0C4FA804602464E
:10047000C7A1484601F0C8F9484601F064F9824630
:10048000504613F050FB87B23946504603F012FA3B
:10049000484600F009FA504614F0F2FFBDE8F08734
:1004A0002DE9F05F0746164601F0CDFA8246FFF7C8
:1004B000B5FFB04801F0B0FA04460246AEA150467E
:1004C00001F0A2F90020B64901F094FA0446024670
:1004D000ACA1504601F098F9384613F086FC04466A
:1004E00001F088FA81460246AEA1504601F08CF92F
:1004F0000020014601F07EFA04460246ABA15046B8
:1005000001F082F9304601F087FA04460246A9A1BB
:10051000504601F079F9504601F015F983465846E6
:1005200013F001FB1FFA80F84146584603F0C2F968
:10053000504600F0B9F9584614F0A2FFBDE8F09F0C
:100540002DE9F04F85B00446884601F07CFA04900E
:100550000027B946FFF762FF864801F05DFA83463F
:10056000024685A1049801F04FF90020944901F05A
:1005700041FA8346024683A1049801F045F9002020
:10058000009001900290039000250DE0611C4A5DEF
:100590000DEB07008BA114F0FBF900F0FF0907EB4E
:1005A0000900C7B2681CC5B2607AA842EEDC684692
:1005B00001F032FA834602464146049801F024F9DC
:1005C000049801F0C0F88246504613F0ACFA86B2A7
:1005D0003146504603F06EF9049800F065F9504634
:1005E00014F04EFF05B0BDE8F08F2DE9FC4701F097
:1005F0002AFA8146FFF712FF694601A803F04EF977
:10060000019808B1009808B9BDE8FC87594801F085
:1006100003FA0446024658A1484601F0F5F80020C6
:100620006A4901F0E7F90446024656A1484601F03E
:10063000EBF8019813F0D9FB044601F0DBF907460B
:10064000024663A1484601F0DFF8009813F0CDFBA5
:10065000044601F0CFF9074602465EA1484601F084
:10066000D3F8484601F06FF88046404613F05BFA35
:1006700086B23146404603F01DF9484600F014F9B1
:10068000404614F0FDFE00BFBEE770B50446524878
:10069000047002220146514803F015FBC5B270BD3B
:1006A00010B502224C494D4803F0D5FA4A4800786B
:1006B00010BD70B5054633A1284601F066F8044622
:1006C00014B16069C0B270BD0020FCE770B505468A
:1006D0002FA1284601F059F8044614B16069C0B250
:1006E00070BD0020FCE72DE9F04101F0ACF90546B2
:1006F000FFF794FE1F4801F08FF9074602461EA13E
:10070000284601F081F80020354901F073F90746C9
:1007100002461CA1284601F077F8284601F013F89C
:100720000646304613F0FFF984B22146304603F006
:10073000C1F8284600F0B8F8304614F0A1FEBDE834
:10074000F0813EB5044602AB0022CDE900231346FA
:100750002246002108460FF0E6F83EBD3EB50446AD
:1007600002AB0022CDE900232346114610460FF0CC
:10077000DAF83EBDF81E0020646576696365696439
:10078000000000006D73675F747970650000000001
:100790006865617274626561745F636F756E740021
:1007A00000000840636D645F6964000073746174E5
:1007B00075730000636D645F7479706500000000FC
:1007C00000001040253032780000000000001C407E
:1007D0006C6E67006C61740007000020E0F7FFFF9B
:1007E00000002040F8480068704770B504460D4688
:1007F0002CB9AC4201D0012070BD0020FCE70DB93E
:100800000120F9E705E0207808B90020F4E7641C2E
:100810006D1C207813F03DF90646287813F039F95D
:100820008642F0D0207813F034F90646287813F089
:1008300030F9301AE0E770B50446204613F073F93A
:10084000451C2846E14909688847060000D170BD6B
:100850002A462146304613F022F93046F7E730B9F0
:10086000DB49DA4A1160DB49DB4A116070470168F5
:1008700009B1016800E0D649D44A1160416809B164
:10088000416800E0D349D44A116000BFEEE710B5DB
:100890002820CE490968884704461CB128212046F3
:1008A00013F016F9204610BD70B504461EE0256809
:1008B000E06810F4807F04D1A06810B1A068FFF751
:1008C000F3FFE06810F4807F05D1206918B1C249B8
:1008D000206909688847206A18B1BF49206A0968F9
:1008E00088472046BC49096888472C46002CDED141
:1008F00070BD2DE9F04F8BB083468A460020044638
:1009000005460026B54F00218846894609900120FA
:1009100008909AF800002D2802D1B14F0AF1010A7F
:100920009AF80000302801D10AF1010A9AF8000073
:10093000312822DB9AF8000039281EDC00BF1AF8A3
:10094000011BA1F1300013F03FFA0022A54BCDE9C5
:1009500006012046294613F0C6F9CDE90401DDE978
:10096000062313F01BF904460D469AF800003028C0
:1009700003DB9AF800003928E1DD9AF800002E2800
:1009800030D19AF8010030282CDB9AF80100392880
:1009900028DC0AF1010A00BF1AF8011BA1F130009E
:1009A00013F012FA00228F4BCDE9060120462946AA
:1009B00013F099F9CDE90401DDE9062313F0EEF80F
:1009C00004460D460022854B4046494613F085F902
:1009D000804689469AF80000302803DB9AF8000028
:1009E0003928D9DD9AF80000652803D09AF800006C
:1009F000452823D10AF1010A9AF800002B2802D1D8
:100A00000AF1010A08E09AF800002D2804D14FF0FD
:100A1000FF3008900AF1010A08E01AF8010B30389B
:100A2000099901EB810100EB410009909AF800005F
:100A3000302803DB9AF800003928EEDDDDE90821D3
:100A400001FB02F013F0C0F942464B46CDE900012C
:100A500013F0A4F802460B46CDE9020100206149DB
:100A600014F06CFD22462B46CDE90601304639468E
:100A700013F039F9CDE90401DDE9062313F033F968
:100A800004460D46CBE906452046294613F0BAF93F
:100A9000CBF814000320CBF80C0050460BB0BDE897
:100AA000F08F2DE9F05F8146D9E90645D9F81400A9
:100AB00013F08AF9064622462B4613F00EF921F070
:100AC000004182460022484B13F0E8F91CD8474AFF
:100AD000474B2046294613F0E1F915D80022454B33
:100AE0002046294613F0EEF90ED81520374909683B
:100AF00088478046B8F1000F4DD03FA14046D9F855
:100B0000142013F045FF46E040203049096888472B
:100B10008046B8F1000F3ED02046294614F042FC32
:100B2000064622462B4613F0D8F821F000418246B3
:100B300000222D4B13F0B2F90FD825F000412646C4
:100B40002E4A2F4B204613F0A9F906D222462B46F7
:100B50002CA1404613F01CFF1DE025F00041264665
:100B60002A4A2B4B204613F099F907D325F0004170
:100B70000022284B204613F0A5F906D222462B4628
:100B800025A1404613F004FF05E022462B4623A191
:100B9000404613F0FDFE4046BDE8F09F01460022AE
:100BA0000878302806DB0878392803DC08783038E4
:100BB000024441E00878412832DB087846282FDCDF
:100BC00008783738024437E0140000200C00002079
:100BD000D154010881540108100000200000F03FAA
:100BE0000000F0BF000024400000B03C0000C0FF47
:100BF000FFFFDF410000E0C12564000044F3C2E4D0
:100C0000E4E9634C252E3066000000008DEDB5A0B0
:100C1000F7C6B03E65CDCD412565000025660000D4
:100C20000878612806DB0878662803DC08785738DE
:100C3000024401E0002070471201491C0878302866
:100C400006DB0878392803DC08783038024415E0E0
:100C50000878412806DB0878462803DC087837380E
:100C600002440BE00878612806DB0878662803DC7C
:100C700008785738024401E00020DCE71201491CE3
:100C80000878302806DB0878392803DC0878303803
:100C9000024415E00878412806DB0878462803DC82
:100CA0000878373802440BE00878612806DB0878BA
:100CB000662803DC08785738024401E00020BAE7D0
:100CC0001201491C0878302806DB0878392803DC33
:100CD00008783038024415E00878412806DB0878A7
:100CE000462803DC0878373802440BE0087861288E
:100CF00006DB0878662803DC08785738024401E0F0
:100D0000002098E7104696E72DE9F05F8346884675
:100D100008F10104002798F80000222805D0F948BE
:100D2000C0F800800020BDE8F09F04E014F8011B2B
:100D30005C2900D1641C2078222804D0207810B1CE
:100D4000781C0700F2D1781CEF4909688847814672
:100D5000B9F1000F01D10020E5E708F101044D468B
:100D60009EE020785C2804D014F8010B05F8010BF4
:100D700096E0641C2078722818D006DC622809D01E
:100D800066280BD06E287ED10CE0742812D075280E
:100D900079D113E0082005F8010B7FE00C2005F85D
:100DA000010B7BE00A2005F8010B77E00D2005F828
:100DB000010B73E0092005F8010B6FE0601CFFF7E1
:100DC000EDFE0646241DB6F55C4F02D3B6F5604F26
:100DD00000D306B962E0B6F5584F1CD3B6F55C4FA8
:100DE00019D260785C2802D1A078752800D055E02F
:100DF000E01CFFF7D3FE8246A41DBAF55C4F02D378
:100E0000BAF5604F00D349E0C6F30901504661F3DB
:100E10009F2000F580360427802E01D2012708E0AC
:100E2000B6F5006F01D2022703E0B6F5803F00D28D
:100E300003273D44012F20D0022F15D0032F0AD0C5
:100E4000042F24D106F0BF0040F08000691E0D463B
:100E50000870B60900BF06F0BF0040F08000691EB0
:100E60000D460870B60900BF06F0BF0040F08000D4
:100E7000691E0D460870B60900BFA448C05D304326
:100E8000C1B2681E00E005E00546017000BF00BF6A
:100E90003D4403E0207805F8010B00BF00BF641C4F
:100EA0002078222803D0207800287FF45AAF002031
:100EB00028702078222800D1641CCBF810900420E0
:100EC000CBF80C0020462EE72DE9F04707464FF0FF
:100ED00000082FB9AFF2D020FFF7ADFCBDE8F087D6
:100EE0003D460DE049468AA012F014FE10B108F10B
:100EF000010804E0B9F1200F01DA08F105086D1CC2
:100F000095F80090B9F1000F04D008F101005FEAF4
:100F10000008E7D108F103007B49096888470646C5
:100F20000EB90020DAE734463D46222004F8010BD2
:100F300047E028781F280ADD2878222807D028785B
:100F40005C2804D015F8010B04F8010B39E05C2093
:100F500004F8010B15F8011B89460C2919D006DC91
:100F6000082912D0092920D00A2922D115E00D29FB
:100F700017D0222905D05C291BD15C2004F8010B75
:100F80001EE0222004F8010B1AE0622004F8010B95
:100F900016E0662004F8010B12E06E2004F8010B45
:100FA0000EE0722004F8010B0AE0742004F8010B33
:100FB00006E04A4658A1204613F0EAFC641D00BF33
:100FC00000BF28780028B4D1222004F8010B0020AB
:100FD00004F8010B304681E710B504462069FFF79D
:100FE00073FF10BD00E0401C20B1017811B1017801
:100FF0002029F8DD70472DE9F04706460C46207899
:101000007B2804D03F4804600020BDE8F08706201C
:10101000F060601CFFF7E6FF044620787D2801D1D0
:10102000601CF2E7FFF733FC0546B060B06808B912
:101030000020EAE72046FFF7D5FF80460146284614
:10104000FFF762FE0746FFF7CDFF04460CB900200C
:10105000DBE7286928620020286120783A2803D03D
:10106000284804600020D0E7601CFFF7BBFF8046E3
:101070000146284600F0A7F80746FFF7B3FF0446ED
:101080000CB90020C1E731E0FFF701FC070000D1F7
:10109000BBE72F607D603D46601CFFF7A3FF8146E4
:1010A00001462846FFF730FE8046FFF79BFF0446C7
:1010B0000CB90020A9E7286928620020286120785F
:1010C0003A2803D00F48046000209EE7601CFFF719
:1010D00089FF81460146284600F075F88046FFF7F3
:1010E00081FF04460CB900208FE700BF20782C2830
:1010F000CAD020787D2801D1601C86E701480460B1
:10110000002082E7140000200C0000205E5F010830
:10111000225C080C0A0D09007525303478000000A7
:101120002DE9F04705460C4620785B2804D0FC48A2
:1011300004600020BDE8F0870520E860601CFFF730
:1011400051FF044620785D2801D1601CF2E7FFF7CB
:101150009EFB0646A860A86808B90020EAE720467A
:10116000FFF740FF80460146304600F02CF8074666
:10117000FFF738FF04460CB90020DBE717E0FFF764
:1011800086FB070000D1D5E737607E603E46601CD5
:10119000FFF728FF81460146304600F014F88046EC
:1011A000FFF720FF04460CB90020C3E700BF2078FA
:1011B0002C28E4D020785D2801D1601CBAE7D848FB
:1011C00004600020B6E770B505460C460CB9002057
:1011D00070BD0422D3A1204612F0C4FC18B902202D
:1011E000E860201DF4E70522D0A1204612F0BAFCE9
:1011F00018B90020E860601DEAE70422CDA120466E
:1012000012F0B0FC20B90120E8606861201DDFE722
:101210002078222804D121462846FFF775FDD7E71C
:1012200020782D2805D02078302807DB2078392831
:1012300004DC21462846FFF75CFBC9E720785B28E1
:1012400004D121462846FFF76BFFC1E720787B28B1
:1012500004D121462846FFF7CEFEB9E7B048046026
:101260000020B5E72DE9F04780460D4616460024DC
:10127000FFF70DFB07460020A94908600FB9BDE83C
:10128000F0874046FFF7AEFE814601463846FFF73D
:101290009AFF044624B93846FFF706FB0020EEE724
:1012A00066B12046FFF79EFE0446207830B13846EE
:1012B000FFF7FAFA9A4804600020E0E705B12C60D5
:1012C0003846DCE710B50446002211462046FFF7F9
:1012D000C9FF10BD2DE9F74F88B0884616464FF07C
:1012E0000009CA46002007900720049000250898AE
:1012F0008068029000270020019003E07F1C029884
:101300000068029002980028F8D14FBB16B108F18E
:10131000040100E0032108468849096888470790CE
:10132000079818B900200BB0BDE8F08F079C7B2010
:1013300004F8010B66B10A2004F8010B002503E054
:10134000092004F8010B6D1CA8F10100A842F7DC8C
:101350007D2004F8010B002004F8010B0798E2E758
:10136000B8007649096888478146B9F1000F01D174
:101370000020D8E7B8007149096888478246BAF169
:10138000000F05D148466E49096888470020CAE722
:10139000B900484612F09CFBB900504612F098FB89
:1013A00008988068029008F1010816B1049840443A
:1013B00004902DE00299086AFFF786FD05904AF82F
:1013C000250032464146029800F07CF929466D1C02
:1013D000069049F821000598A8B1069898B106989A
:1013E00012F0A1FB8346059812F09DFB0BEB000168
:1013F000891C16B108F1020000E0002001440498A5
:101400000844049001E001200190029800680290D5
:1014100002980028CED1019820B94849049809685B
:1014200088470790079808B9012001900198F0B10A
:10143000002510E05AF8250020B15AF8250040494F
:101440000968884759F8250020B159F825003C491A
:10145000096888476D1CBD42ECDB50463849096875
:101460008847484636490968884700205BE77B2162
:10147000079801700798441C16B10A2004F8010B64
:101480000020207000253EE05EB10020039005E0C2
:10149000092004F8010B0398401C03900398404571
:1014A000F6DB5AF82510204612F053FB5AF82500B7
:1014B00012F039FB04443A2004F8010B16B109205C
:1014C00004F8010B59F82510204612F042FB59F898
:1014D000250012F028FB0444781EA84202D02C20DC
:1014E00004F8010B16B10A2004F8010B002020704B
:1014F0005AF8250012490968884759F8250010490B
:10150000096888476D1CBD42BEDB50460C4909681E
:10151000884748460A4909688847DEB1002515E032
:10152000140000206E756C6C0000000066616C7326
:101530006500000074727565000000000C0000205A
:1015400010000020092004F8010B6D1CA8F1010017
:10155000A842F7DC7D2004F8010B002004F8010B01
:101560000798E0E62DE9F74F82B083464FF0000878
:1015700005200190DBF8089000270025002000904E
:1015800002E07F1CD9F80090B9F1000FF9D17FB9C2
:101590000320FF49096888478046B8F1000F03D04F
:1015A000FCA1404612F0D5FA404605B0BDE8F08FE8
:1015B000B800F7490968884706460EB90020F4E7E5
:1015C000B900304612F084FADBF808901FE0DDE93C
:1015D0000312491C484600F075F8824629466D1CE6
:1015E00046F821A0BAF1000F0DD0504612F09BFA38
:1015F000801C049909B1012100E0002101440198F7
:101600000844019001E001200090D9F80090B9F160
:10161000000F02D000980028D9D0009820B9DC49EA
:101620000198096888478046B8F1000F01D1012070
:101630000090009890B1002508E056F8250020B1F0
:1016400056F82500D449096888476D1CBD42F4DB73
:101650003046D149096888470020A6E75B2088F812
:10166000000008F101040020207000251CE056F85D
:101670002510204612F06DFA56F8250012F053FAA4
:101680000444781EA84209D02C2004F8010B0498C9
:1016900010B1202004F8010B0020207056F825001E
:1016A000BD49096888476D1CBD42E0DB3046BA4938
:1016B000096888475D2004F8010B002004F8010B3D
:1016C000404672E72DE9F04104460D4616460027D4
:1016D00014B90020BDE8F081E068C0B207282FD21D
:1016E000DFE800F00A1004161B202700AFF2CC1030
:1016F000FFF7A1F8074623E0AFF2D010FFF79BF801
:1017000007461DE0AFF2D410FFF795F8074617E043
:101710002046FFF7C6F9074612E02046FFF75CFCBB
:1017200007460DE0324629462046FFF71BFF0746D5
:1017300006E0324629462046FFF7CCFD074600BFAB
:1017400000BF3846C6E710B50446012200212046F6
:10175000FFF7B8FF10BD10B5044600221146204621
:10176000FFF7B0FF10BD01468A68002001E0401C71
:101770001268002AFBD170470246906801E0491EBA
:10178000006808B10029FADC704770B505460E46BE
:10179000AC6800E024682CB13146206AFFF725F8D8
:1017A0000028F7D1204670BD01604860704770B5D1
:1017B0000546FFF76CF804460CB9002070BD2822DE
:1017C0002946204612F06BF900202062E06840F4C0
:1017D0008070E0600020606020602046EEE770B519
:1017E00005460E46AC6806B970BD0CB9AE6009E09E
:1017F00000E0246814B120680028FAD13146204660
:10180000FFF7D2FF00BFEFE770B506460D4614465E
:1018100004B970BD206A18B15F49206A0968884719
:101820002846FFF708F8206221463046FFF7D7FF29
:1018300000BFEEE770B505460C462046FFF7B7FF40
:10184000064601462846FFF7CAFF70BD2DE9F04164
:1018500005460E4614462046FFF7A9FF07460246F6
:1018600031462846FFF7D0FFBDE8F08110B50246AB
:101870000B46916801E009685B1E09B1002BFADC98
:1018800009B9002010BD486810B1D1E900042060FA
:10189000086810B1D1E9004060609068884201D1C9
:1018A000086890600020086048600846EAE770B564
:1018B00004460D4629462046FFF7D8FF0646FEF7A8
:1018C000F3FF70BD2DE9F04105460F460026AC68D8
:1018D00001E0761C24682CB13946206AFEF785FFAA
:1018E0000028F6D12CB131462846FFF7BFFFBDE8EE
:1018F000F0810020FBE770B504460D4629462046DE
:10190000FFF7E0FF0646FEF7CFFF70BD2DE9F0417F
:1019100006460F461446B56801E02D687F1E0DB1DE
:10192000002FFADC0DB9BDE8F081286820606868F6
:101930006060206808B120684460B068A84201D1A6
:10194000B46001E060680460002068602860284698
:10195000FEF7AAFF00BFE6E72DE9F04105460E4677
:1019600017464FF00008AC6802E008F1010824684F
:101970002CB13146206AFEF738FF0028F5D17CB142
:101980003046FEF758FF38623A464146284605E0A1
:101990000C0000205B5D000010000020FFF7B6FF88
:1019A000BDE8F08110B5FEF772FF04460CB10220CD
:1019B000E060204610BD10B5FEF769FF04460CB18B
:1019C0000120E060204610BD10B5FEF760FF044620
:1019D0000CB10020E060204610BD70B50546FEF752
:1019E00056FF044624B10DB1012000E00020E06064
:1019F000204670BD70B504460D46FEF748FF06460A
:101A000046B10320F060C6E906452046294612F09B
:101A1000F9F97061304670BD70B50546FEF737FFC5
:101A200004462CB10420E0602846FEF704FF206144
:101A3000204670BD10B5FEF72AFF04460CB1052004
:101A4000E060204610BD10B5FEF721FF04460CB142
:101A50000620E060204610BD2DE9F05F81468A46F1
:101A60000027BB46FFF7E6FF8046002611E059F845
:101A7000260012F0A9F90446FFF7BCFF074616B985
:101A8000C8F8087003E039465846FFF78DFEBB469C
:101A9000761CB8F1000F01D05645E8DB4046BDE8A2
:101AA000F09F2DE9F05F81468A460027BB46FFF78D
:101AB000C1FF8046002611E059F8260012F0D8F93F
:101AC0000446FFF797FF074616B9C8F8087003E009
:101AD00039465846FFF768FEBB46761CB8F1000F42
:101AE00001D05645E8DB4046BDE8F09F2DE9F047C0
:101AF000074688460025A946FFF79CFF06460024B6
:101B000010E007EBC400D0E900211046FFF772FF98
:101B100005460CB9B56003E029464846FFF744FE88
:101B2000A946641C0EB14445EBDB3046BDE8F087A6
:101B30002DE9F047074688460025A946FFF77AFFBA
:101B4000064600240DE057F82400FFF765FF054620
:101B50000CB9B56003E029464846FFF725FEA946C3
:101B6000641C0EB14445EEDB3046BDE8F0872DE93C
:101B7000F047054689464FF0000815B90020BDE83A
:101B8000F087FEF784FE04460CB90020F7E7E8680A
:101B900020F48070E06068696061D5E90601C4E9FD
:101BA0000601286950B12869FEF745FE20612069C9
:101BB00020B92046FEF778FE0020E0E7286A50B101
:101BC000286AFEF738FE2062206A20B92046FEF718
:101BD0006BFE0020D3E7B9F1000F01D12046CEE71C
:101BE000AF6816E001213846FFF7C1FF064626B967
:101BF0002046FEF759FE0020C1E7B8F1000F05D0DE
:101C0000C8F80060C6F80480B04601E0A660B0469F
:101C10003F68002FE6D12046B1E7014654E0027844
:101C2000202A01D1401C4FE00278092A01D1401C32
:101C30004AE002780D2A01D1401C45E002780A2AC8
:101C400001D1401C40E002782F2A0AD142782F2A85
:101C500007D100E0401C02788AB302780A2A33D008
:101C6000F8E702782F2A0ED142782A2A0BD100E019
:101C7000401C02782AB102782A2AF9D142782F2A08
:101C8000F6D1801C20E00278222A19D110F8012B0D
:101C900001F8012B0AE002785C2A03D110F8012B2D
:101CA00001F8012B10F8012B01F8012B027812B179
:101CB0000278222AEFD110F8012B01F8012B03E062
:101CC00010F8012B01F8012B0278002AA7D10A7025
:101CD0007047000000B587B001210C2003F043FFDE
:101CE0000121880303F04CFF4FF46040ADF804007D
:101CF00003208DF8060018208DF8070001A9D948A7
:101D000003F05EFC4FF48050ADF8040003208DF822
:101D1000060010208DF8070001A9D24803F050FCFE
:101D20004FF48051CF4803F0F6FC0020ADF80800D6
:101D30004FF48270ADF80A000020ADF80C000220CC
:101D4000ADF80E000120ADF810004002ADF8120011
:101D50000820ADF814000020ADF816000720ADF8FB
:101D6000180002A9C04803F093FF0121BE4804F007
:101D700032F807B000BD10B504462146BA4804F059
:101D800060F800BF0221B84804F0AEF80028F9D08E
:101D900000BF0121B44804F0A7F80028F9D0B248E8
:101DA00004F051F8C0B210BD10B5A520FFF7E3FF55
:101DB00010BD70B504460D4645EA0421AA4804F05A
:101DC00040F800BF0221A84804F08EF80028F9D09E
:101DD00000BF0121A44804F087F80028F9D0A248E8
:101DE00004F031F8C0B270BD10B5044644F0800074
:101DF000002242EA00219C4804F023F800BF02219F
:101E0000994804F071F80028F9D000BF01219648E4
:101E100004F06AF80028F9D0934804F014F8C0B22E
:101E200010BD10B500244FF480518E4803F075FCAE
:101E30000520FFF7A0FF00BFA520FFF79CFF044689
:101E400004F001000128F7D04FF48051854803F0D9
:101E500062FC10BD10B50446FFF7E3FF4FF480515C
:101E6000804803F05AFC0620FFF785FF4FF48051AD
:101E70007C4803F050FCFFF7D4FF4FF480517948C1
:101E800003F04BFCD820FFF776FF200CFFF773FF21
:101E9000200AFFF770FFE0B2FFF76DFF4FF48051AB
:101EA000704803F038FC10BD2DE9F04106460C46A1
:101EB0001746FFF7B6FF4FF480516A4803F02DFC38
:101EC0000320FFF758FFC4F30740FFF754FFC4F3A4
:101ED0000720FFF750FFE0B2FFF74DFF002503E0BA
:101EE000FFF762FF70556D1CBD42F9D34FF480516E
:101EF0005C4803F010FCBDE8F0812DE9F041064696
:101F00000C461746FFF78DFF4FF48051554803F0FC
:101F100004FC0620FFF72FFF4FF48051514803F0D7
:101F2000FAFBFFF77EFF4FF480514E4803F0F5FBBC
:101F30000220FFF720FFC4F30740FFF71CFFC4F3A4
:101F40000720FFF718FFE0B2FFF715FF002503E0B9
:101F5000705DFFF710FF6D1CBD42F9D34FF4805147
:101F6000404803F0D8FBBDE8F08170B586B0002092
:101F700005904FF480513B4803F0CFFB9F20FFF7C3
:101F8000FAFEFFF711FF8DF81400FFF70DFF8DF833
:101F90001500FFF709FF8DF816004FF48051314806
:101FA00003F0B9FB00BF04A80DF098FE04462F48CB
:101FB000007810F0020F1BD041F28830B4FBF0F132
:101FC00000FB11400521B0FBF1F541F28830B4FB74
:101FD000F0F69DF817309DF816209DF815108DE845
:101FE0000E009DF814302A46314621A012F0ACFCB8
:101FF00000BF9DF8140020280AD19DF81500202864
:1020000006D19DF81600152802D1002006B070BD3B
:10201000FF20FBE7F8B5FFF75DFE0A200EF0CDFDCF
:10202000FFF7A3FFE0B100BF68460DF057FE04467E
:102030000E48007810F0010F11D041F28830B4FB47
:10204000F0F100FB11400521B0FBF1F541F28830C1
:10205000B4FBF0F62A46314613A012F075FC00BF1F
:10206000F8BD0000000C01400038004006000020D0
:102070005B253035642E253033642F495D3A206965
:1020800064203D203078253032782C20307825307F
:1020900032782C203078253032782C20307825305A
:1020A00032780D0A0D0A00005B253035642E25308C
:1020B00033642F455D3A20666C6173682069642043
:1020C000636865636B206661696C65640D0A0D0A5F
:1020D000000000000023C3800381016082807047FC
:1020E0000146C8880A89904201D10120704700202A
:1020F000FCE70146CA880B899A4204DDCA880B892D
:10210000D21A90B205E08A880B89D21ACB881A4479
:1021100090B270472DE9F04104460F461646E0881C
:102120002189884204DDE0882189401A85B205E0D2
:10213000A0882189401AE188084485B2B54202DAB4
:102140000020BDE8F081E088218988420ADD2289EB
:10215000216888183246394611F0A1FC20893044A4
:1021600020811EE0A0882189401A85B2B5420ADD8F
:102170002289216888183246394611F090FC20895E
:10218000304420810DE02289216888182A4639468A
:1021900011F085FC721B7919206811F080FC701B0E
:1021A00020810120CDE72DE9F04104460F46164677
:1021B000E0882189884206DDA088E188401A2189CB
:1021C000084485B203E02089E188401A85B2B5420F
:1021D00002DA0020BDE8F081E088218988421FDD15
:1021E000A088E188401A85B2B5420ADDE2882068FD
:1021F00081183246384611F052FCE0883044E080C5
:1022000018E0E288206881182A46384611F047FC19
:10221000721B7819216811F042FC701BE08009E004
:10222000E288206881183246384611F038FCE08890
:102230003044E0800120CDE700BF00BF70470000C0
:1022400070B505460C4645F2555003F005FB204697
:1022500003F008FB284603F002FB03F006FB03F043
:1022600009FB70BD10B503F000FB10BD10B50446AE
:10227000204604F0A1F810BD08B500208DF800003C
:1022800002208DF8010003208DF8020001208DF856
:102290000300684601F08BFD08BD70B506460C468C
:1022A00015460121C80203F06BFC0F48007830404E
:1022B0000E490870284604F05EF8204604F066F8DF
:1022C0000A48007804F078F804F07FF8FFF7D4FFAC
:1022D00004F069F870BD10B50448007804F067F8A0
:1022E00004F073F810BD0000180000201900002051
:1022F000F9490880704708B54FF4806001F052FD3D
:1023000014208DF8000001208DF8010000208DF8C8
:10231000020001208DF80300684601F048FD08BD69
:102320001CB5EE4A0021EE4802F074FAEB48006852
:10233000EC490988884207D101AB0093002314229D
:10234000E649E9480AF066FA1CBD08B501210520F6
:1023500003F009FC0121480603F012FC4FF4006071
:10236000ADF8000004208DF8030003208DF8020072
:102370006946DE4803F024F94FF48050ADF80000C0
:1023800018208DF8030003208DF802006946D74815
:1023900003F016F908BD08B50121042003F0E3FBA2
:1023A0000121102003F0DFFB4FF48070ADF8000036
:1023B00010208DF8030003208DF802006946CB48F9
:1023C00003F0FEF84FF40070ADF8000010208DF817
:1023D000030003208DF802006946C54803F0F0F8B9
:1023E0004FF48071C14803F098F94FF40071C04870
:1023F00003F093F908BD1FB50446FFF7CCFFFFF7C4
:102400007AFFFFF7A2FFB64801F068FF684602F0C6
:1024100089F800208DF806008DF807008DF8080077
:102420008DF809008DF80A008DF80B008DF8020078
:102430008DF803000A208DF8040005208DF80500B2
:10244000ADF800406946A64801F061FF0020A949A7
:102450000870A949087003AAA8A1AC4809F04DF872
:1024600003AB2822AAA1A04809F0F1FDAFF24F1159
:10247000142004F086F90121142004F09AF91420A4
:1024800004F075F91FBD2DE9FF4104460D461646BF
:102490001F4601208DF80A0000208DF80B008DF8F2
:1024A0000C006005000CADF800006805000CADF8EC
:1024B00002007005000CADF804007805000CADF8C2
:1024C00006000020ADF8080001208DF80D006846D8
:1024D00001F0ABFF01220221814802F0B6FABDE80B
:1024E000FF8170B5044600250020207221467C48FB
:1024F00002F08DF8064604E06D1C8948854200D93B
:1025000005E03146764802F028F90128F4D100BFF1
:1025100070BD08B56A4600217C4809F013FC08BD6F
:102520001CB501AB009300231A461946774809F001
:102530000BFA1CBD2DE9F04F87B0064688461446BD
:1025400099460020049000278246039016F0010F60
:102550000AD044F0FF0344F0FF0221462046FFF773
:1025600092FF6048048008E0FF231A4600210846D5
:10257000FFF789FF00205B49088016F0020F02D0A8
:102580004046FFF7AEFF16F0010F7ED0002004900A
:10259000EDE005AB0022CDE9002306AB42F210715D
:1025A000514809F0F9FE0546BDF81400A0F5E441D4
:1025B000D9396FD0FFF7B4FF2868A04204D104983E
:1025C000401CC0B204902DE000BF02A80DF086FBB5
:1025D00083465448007810F0010F13D041F2883040
:1025E000BBFBF0F100FB11B00521B0FBF1F0019055
:1025F00041F28830BBFBF0F0009001464AA0019AFE
:1026000012F0A2F900BF0398401CC0B203900398D7
:10261000052804DD4FF0FF3AFFF77BFFABE0FFF743
:1026200078FFA4E03349097801EB8101454A286825
:1026300042F82100A87A2F49097801EB810102EBC9
:102640008101887200270DE005F10B00C15D29486A
:10265000007800EB80003B4A02EB80000B30C15554
:10266000781CC7B2A87AB842EEDC22480078401C39
:102670002049087008460078282801D100200870F9
:102680000AF101004FFA80FA01E075E002E0FFF77D
:1026900040FF6BE000BF02A80DF020FB83462148FD
:1026A000007810F0010F14D041F28830BBFBF0F13C
:1026B00000FB11B00521B0FBF1F0019041F2883030
:1026C000BBFBF0F0204B0090014620A0019A12F0D5
:1026D0003BF900BF4FE000001E0000202C2200202C
:1026E000006400401A0000206C2200200008014015
:1026F000001001401C0000201D000020464C4558E1
:1027000043414E5F4D555445580000004022002083
:10271000464C455843414E5F5155455545000000D4
:1027200040420F00060000205B253035642E253026
:1027300033642F455D3A20657863657074696F6E08
:10274000210D0A000C1F0020655F01085B25303554
:10275000642E253033642F455D3A2025733A20746A
:10276000696D656F75740D0A0000000000BF049864
:102770004845FFF60EAF00BFFF231A46002108466A
:10278000FFF781FE002032490880504607B0BDE8BF
:10279000F08F3048007830490978884206DB2D48B0
:1027A00000782D490978401AC0B270472A4800784D
:1027B000C0F12800274909780844C0B2F5E710B5F0
:1027C0000024FFF7ADFE24480078224909788842AA
:1027D00003D1FFF79EFE002010BD1F48017800784E
:1027E000401C1D4A107001EB81001C4901EB800464
:1027F00010460078282802D1002011460870FFF703
:1028000088FE2046E8E710B5FFF78AFE0020114950
:10281000087011490870FFF77CFE10BD10B5104814
:10282000007800B910BD06F0E7FB04F06AF806F086
:10283000F4FB00BFF6E710B504460A48008884425E
:1028400004D10EF0C8FC08B901F0F1F910BD000088
:102850001A0000201C0000201D0000200C1F00207A
:10286000C50000201E000020FF4800787047FE4988
:10287000087070473EB5044602AB0022CDE9002344
:1028800013462246002108460DF04DF83EBD3EB5E8
:10289000044602AB0022CDE9002323461146104630
:1028A0000DF041F83EBD7CB500BF68460DF016FA4C
:1028B0000446EE48007810F0020F12D041F2883042
:1028C000B4FBF0F100FB11400521B0FBF1F541F242
:1028D0008830B4FBF0F6E64B2A463146E5A012F00C
:1028E00033F800BF0121102003F03DF94FF4004000
:1028F000ADF8040010208DF8070003208DF80600C5
:1029000001A9E14802F05CFE4FF40041DE4802F00C
:1029100002FF0220FFF7AEFF4FF40041DA4802F059
:10292000FCFE0120FFF7A6FF4FF40041D64802F05D
:10293000F2FE0220FFF79EFF7CBD7CB500BF68461B
:102940000DF0CCF90446C948007810F0020F12D0FF
:1029500041F28830B4FBF0F100FB11400521B0FBDF
:10296000F1F541F28830B4FBF0F6C84B2A46314607
:10297000C0A011F0E9FF00BF0121082003F0F3F827
:102980000120ADF8040010208DF8070003208DF819
:10299000060001A9BE4802F013FE0121BC4802F066
:1029A000BCFE0420FFF766FF0121B94802F0B3FE28
:1029B0000420FFF75FFF0121B54802F0AEFE7CBDA9
:1029C00010B5FFF7BAFF10BD08B56A460021B1483F
:1029D00009F0B8F908BD2DE9FC41044601AA00211F
:1029E000AD480AF04DFB01AB41F2883004FB00F129
:1029F000009300231A46A8480AF0BEF8BDF8040068
:102A0000A0F5E441D93920D100BF68460DF066F940
:102A100005469648007810F0020F12D041F2883037
:102A2000B5FBF0F100FB11500521B0FBF1F641F2CE
:102A30008830B5FBF0F7994B3246394698A011F033
:102A400083FF00BF0020BDE8FC810120FBE770B5DB
:102A500005460E4600240CE0295D994803F0B9FBB9
:102A600000BF8021964803F022FC0028F9D0601CAA
:102A700084B2B442F0DB70BD1CB501AB00930023FF
:102A80001A461946834808F05FFF1CBD2DE9F04740
:102A900086B006460D464FF00009284611F043F86F
:102AA00087B2FFF7E9FF8748FFF7C6FB304611F012
:102AB0003AF81FFA80FA51463046FFF7C8FF042063
:102AC000FFF789FF8046B8F1010F27D10CE0012202
:102AD00005A97C48FFF767FB9DF814204846411C78
:102AE00001F0FF090DF800207648FFF7F9FA0028F9
:102AF000EDD000240CE0285D1DF80410884205D0BC
:102B0000FFF762FF002006B0BDE8F087601CC4B28A
:102B1000BC42F0DBFFF758FF0120F4E7FFF754FF5A
:102B20000020F0E72DE9F047B4B005460E464FF01F
:102B30000008802114A810F0CBFF402103A810F05A
:102B4000C7FF2B4660A2802114A8009611F00CFF4D
:102B500000BF02A80DF0C2F807464448007810F004
:102B6000020F14D041F28830B7FBF0F100FB117076
:102B70000521B0FBF1F941F28830B7FBF0FA14AB54
:102B80000093574B4A46514656A011F0DDFE00BF58
:102B9000FFF772FF4B48FFF74FFB58A114A8FFF750
:102BA00075FF04464CB30A20FFF715FF0446012CBD
:102BB0001FD10CE0012213A94248FFF7F4FA9DF857
:102BC0004C204046411C01F0FF0803A90A543D482F
:102BD000FFF786FA0028EDD0FFF7F6FE49A103A81B
:102BE00010F082FF18B1012034B0BDE8F08700205A
:102BF000FAE7FFF7E9FE0020F6E7FFF7E5FE002021
:102C0000F2E72DE9F04387B04FF00009FFF734FFFA
:102C1000142101A810F05CFF03203D4908702948E9
:102C2000FFF70AFB08213BA0FFF711FF0420FFF785
:102C3000D2FE8046B8F1010F72D10FE0012206A941
:102C40002048FFF7B0FA9DF818204846411C01F0D3
:102C5000FF0901A90A540120FFF719FE1948FFF7DF
:102C60003FFA0028EAD05CE02000002006000020A7
:102C7000735F01085B253035642E253033642F499E
:102C80005D3A2025730D0A00001001407E5F0108A7
:102C9000000C0140D0230020A8230020CA5F0108B7
:102CA0005B253035642E253033642F495D3A20256D
:102CB000733A2074696D656F75740D0A0000000029
:102CC000004800409C23002041542B5A49504F504B
:102CD000454E3D322C302C25732C25640D0A000006
:102CE000965F01085B253035642E253033642F490B
:102CF0005D3A2025733A2025730D0A000D0A4F4BCB
:102D000000000000434F4E4E454354204F4B0000FF
:102D10006900002041542B4353510D0A000000006C
:102D200024E0FAA101A810F0DFFE04001FD0F9A1F1
:102D3000204610F0D9FE0446641CF7A1204610F08E
:102D4000D3FE07466CB1002606E014F8012B30468E
:102D5000711CCEB20DF80020BC42F6D300200DF855
:102D60000600684610F00DFFC5B200E00025FFF731
:102D70002BFE0620E9490870284607B0BDE8F0831D
:102D80002DE9FF5F07464FF0000800267FB903AB2F
:102D90000022E3A1E54809F0C0FD03AAE4A1E74849
:102DA00008F0ABFB03AAE6A1E94808F0A6FB002067
:102DB000E84908709AE2D948007830B1022876D004
:102DC000042872D0052871D154E100BF02A80CF08C
:102DD00085FF8146E048007810F0020F12D041F2E2
:102DE0008830B9FBF0F100FB11900521B0FBF1FA3E
:102DF00041F28830B9FBF0FBD84B52465946D8A077
:102E000011F0A2FD00BFFFF74EFDFFF796FD0A206F
:102E1000FFF730FD0120C1490870DAA1DAA0FFF701
:102E200035FE01281FD10220BC49087000BF02A84E
:102E30000CF054FF8146C848007810F0020F11D002
:102E400041F28830B9FBF0F100FB11900521B0FB95
:102E5000F1FA41F28830B9FBF0FB52465946CCA05A
:102E600011F072FD1FE00020AC49087000BF02A8FD
:102E70000CF034FF8146B848007810F0010F11D0F3
:102E800041F28830B9FBF0F100FB11900521B0FB55
:102E9000F1FA41F28830B9FBF0FB52465946C4A022
:102EA00011F052FD00BF0DE101E053E009E100BF68
:102EB00002A80CF013FF8146A748007810F0020F1B
:102EC00012D041F28830B9FBF0F100FB11900521DE
:102ED000B0FBF1FA41F28830B9FBF0FB9F4B524650
:102EE0005946BBA011F030FD00BF002429E0C149C4
:102EF00051F8340010F017FE1FFA80F9BD4951F85F
:102F000034004946FFF7A3FDBA4800EBC4008088AF
:102F1000B0F57A7F0DDBB74800EBC40080884FF432
:102F20007A7190FBF1F000F0FF094846FFF7A2FC30
:102F300005E0B04901EBC4018888FFF7A8FC601CDC
:102F4000C4B2072CD3DBAC48FFF776F904207349F1
:102F50000870B7E000BF02A80CF0C0FE81467E48B2
:102F6000007810F0020F17D0FFF74BFE019041F2EE
:102F70008830B9FBF0F100FB11900521B0FBF1FAAC
:102F800041F28830B9FBF0FB019B0093734B524632
:102F900059469AA011F0D8FC00BF04205F49087080
:102FA00000BF02A80CF09AFE81466B48007810F032
:102FB000020F12D041F28830B9FBF0F100FB119002
:102FC0000521B0FBF1FA41F28830B9FBF0FB634B0D
:102FD0005246594692A011F0B7FC00BF42F2B02110
:102FE00099A0FFF79FFD0546012D20D100BF02A843
:102FF0000CF074FE81465848007810F0010F11D093
:1030000041F28830B9FBF0F100FB11900521B0FBD3
:10301000F1FA41F28830B9FBF0FB524659468EA0D6
:1030200011F092FC00BF05203C49087021E000BF70
:1030300002A80CF053FE81464748007810F0010FBB
:1030400011D041F28830B9FBF0F100FB119005215D
:10305000B0FBF1FA41F28830B9FBF0FB5246594619
:1030600086A011F071FC00BF00202C490870701C74
:1030700086B227E000BF02A80CF030FE8146364839
:10308000007810F0020F12D041F28830B9FBF0F155
:1030900000FB11900521B0FBF1FA41F28830B9FB39
:1030A000F0FB2E4B524659467EA011F04DFC00BF5E
:1030B0004FF00108062019490870012025490870C1
:1030C00000BF00BF00BF042E1FDD00BF02A80CF030
:1030D00005FE81462048007810F0010F13D041F220
:1030E0008830B9FBF0F100FB11900521B0FBF1FA3B
:1030F00041F28830B9FBF0FB184B5246594673A099
:10310000009611F021FC00BFF4E0EFE02B43535197
:103110003A000000200000002C00000069000020A0
:103120004C3230365F57414954000000A82300203C
:103130004C3230365F4D555445580000D0230020A6
:103140004C3230365F53454E445F4D555445580020
:10315000FC23002020000020060000208B5F0108D7
:103160005B253035642E253033642F495D3A2025A8
:10317000733A2053544154455F554E494E49544586
:10318000440D0A004154000041540D0A00000000A3
:103190005B253035642E253033642F495D3A20702D
:1031A0006F776572757020646F6E650D0A000000A0
:1031B0005B253035642E253033642F455D3A207011
:1031C0006F7765727570206661696C65640D0A00C1
:1031D0005B253035642E253033642F495D3A202538
:1031E000733A2053544154455F494E495445440D68
:1031F0000A000000240000209C2300205B253035BD
:10320000642E253033642F495D3A2025733A2073AC
:1032100069676E616C203D2025640D0A0000000086
:103220005B253035642E253033642F495D3A2025E7
:10323000733A2053544154455F434F4E4E454354D7
:10324000494E470D0A0000003133392E3232342EF8
:1032500031372E31363300005B253035642E253072
:1032600033642F455D3A20636F6E6E65637420731F
:10327000756363657373210D0A0000005B253035AB
:10328000642E253033642F455D3A20636F6E6E6582
:103290006374206661696C65642C20726574727950
:1032A000210D0A005B253035642E253033642F490B
:1032B0005D3A2025733A2053544154455F434F4EA5
:1032C0004E45435445440D0A000000005B2530354F
:1032D000642E253033642F455D3A2025733A2072E1
:1032E00065747279203D2025640D0A00B8F1000F45
:1032F0003FF461AD00BFB8F1000F23D100BF02A8B9
:103300000CF0ECFC8146FE48007810F0010F14D060
:1033100041F28830B9FBF0F100FB11900521B0FBC0
:10332000F1FA41F28830B9FBF0FB04230093F54B2E
:1033300052465946F4A011F007FB00BF002004B02C
:10334000BDE8F09F0120FAE710B5FF48007800B90A
:1033500010BD05F051FE03F033FB05F05EFE00BF2B
:10336000F6E708B56A464FF40071F84809F041FEE7
:1033700008BD1CB540F22551F54802F0AEFF98B3E8
:10338000F34802F02AFFC0B20190F2484078F149B8
:1033900008700846807848700846C07888709DF8A4
:1033A0000400C870EC4800780A286ED2DFE800F00C
:1033B000051D06081E6D3B6D1F0767E066E065E0B2
:1033C000FFF75AFB012201A9E448FEF7A3FEE148FA
:1033D00080780D2805D1DF48C0780A2801D1FFF791
:1033E000C0FFFFF7F1FA51E051E000BF00BFFFF767
:1033F00043FB012201A9D948FEF78CFED54800788D
:103400004F280DD1D34840784B2809D1D148807836
:103410000D2805D1CF48C0780A2801D1FFF7A1FFB8
:10342000FFF7D2FA32E0FFF727FB9DF804007B2874
:103430000ED1CB48007858B90120C9490870C74857
:10344000FEF7FAFE012201A9C448FEF763FE19E067
:103450009DF804007D280DD1012201A9BF48FEF787
:1034600059FE0020BE4908706A460021BD480BF095
:1034700066FD07E0BA48007820B1012201A9B748EB
:10348000FEF748FEFFF7A0FA00E000BF00BF1CBD3A
:10349000F8B500BF68460CF021FC04469848007857
:1034A00010F0020F12D041F28830B4FBF0F100FBB3
:1034B00011400521B0FBF1F541F28830B4FBF0F684
:1034C000A94B2A463146A9A011F03EFA00BF0920B7
:1034D000A14908700C21ACA0FFF7B9FA0120FFF751
:1034E000C9F906209C49087000BF68460CF0F6FB3D
:1034F00004468348007810F0020F12D041F2883061
:10350000B4FBF0F100FB11400521B0FBF1F541F2F5
:103510008830B4FBF0F6944B2A4631469EA011F059
:1035200013FA00BFF8BD2DE9F04FA7B04FF0000A25
:10353000FFF7A2FA28211BA810F0CAFA282110A828
:1035400010F0C6FA0320844908708448FEF774FE20
:103550000C2198A0FFF77BFA0220FFF73CFA1A90A3
:103560000CE0012225A97D48FEF71DFE9DF8942060
:103570005046411C01F0FF0A1BA90A547748FEF788
:10358000AFFD0028EDD08FA11BA810F0ADFA5FEAC7
:1035900000093FD0AFF28441484610F0A5FA8146B9
:1035A00009F1010977A1484610F09EFA8346B9F166
:1035B000000F10D04FF0000807E019F8012B40462B
:1035C000411C01F0FF0810A90A54D945F5D3002089
:1035D00010A901F8080000BF03A80CF07FFB064605
:1035E0004748007810F0020F13D041F28830B6FB44
:1035F000F0F100FB11600521B0FBF1F741F28830DA
:10360000B6FBF0F010AB3A46014602906FA011F005
:103610009BF92DE000BF03A80CF060FB064638487C
:10362000007810F0010F13D041F28830B6FBF0F1B2
:1036300000FB11600521B0FBF1F741F28830B6FBC9
:10364000F0F01BAB3A460146029067A011F07CF9FE
:1036500000BF062040490870FFF7B6F900206E4908
:1036600008606E490860FFF713FF27B0BDE8F08FD0
:10367000142109A810F02CFA142104A810F028FA3B
:103680004FF0000AD0460BE04046411C01F0FF0815
:1036900010A90A5C5046411C01F0FF0A09A90A540E
:1036A00010A810F808002C28EED1002009A901F874
:1036B0000A0008F1010000F0FF084FF0000A0BE0DB
:1036C0004046411C01F0FF0810A90A5C5046411C0D
:1036D00001F0FF0A04A90A5410A810F808000028F5
:1036E000EED104A901F80A0000BF03A80CF0F6FA15
:1036F00006460348007810F0020F00D090E0A5E0E5
:10370000060000208B5F01085B253035642E2530D4
:1037100033642F455D3A2025733A20576520636155
:103720006E6E6F7420636F6E6E6563742073657266
:103730007665722C20726574726965642025642038
:1037400074696D65730D0A00C5000020A823002070
:103750000048004065000020690000209C230020F4
:1037600064000020986E0020A35F01085B253035BF
:10377000642E253033642F495D3A2025733A207337
:10378000746172740D0A000041542B4754504F531A
:103790003D310D0A000000005B253035642E2530D8
:1037A00033642F495D3A2025733A20646F6E650DAE
:1037B0000A00000041542B4754504F533D320D0A2C
:1037C000000000002B4754504F533A005B25303522
:1037D000642E253033642F495D3A206275663A20A5
:1037E00025730D0A000000005B253035642E25305E
:1037F00033642F455D3A2063616E6E6F7420676598
:103800007420706F736974696F6E20696E666F2CB7
:10381000205B25735D0D0A005C0000206000002025
:1038200041F28830B6FBF0F100FB11600521B0FBDE
:10383000F1F741F28830B6FBF0F004AB0093029050
:1038400009AB3A46014693A011F07EF800BF06206E
:1038500099490870FFF7B8F809A811F08DFD0446E2
:103860000D4604A811F088FDCDE90E010022934B0E
:103870002046294610F037FA064610F0E2FA904941
:10388000086000228D4BDDE90E0110F02CFA06468F
:1038900010F0D7FA8B49086000BFE6E670B5054620
:1038A0000C46FFF740FE864800682860854800689F
:1038B000206070BD2DE9FE4F06460C464FF0000813
:1038C00000BF01A80CF00AFA81467F48007810F08A
:1038D000020F14D041F28830B9FBF0F100FB1190D7
:1038E0000521B0FBF1FA41F28830B9FBF0FB774BD0
:1038F00052465946AFF61440009611F025F800BF25
:1039000002AB009300231A461946714808F01CF8D0
:10391000FFF7B2F8082068490870610001F10D0056
:1039200011F0D6FD07466BA24FF48061384611F0C6
:103930001BF81FFA80F800250CE0735D07EB080008
:1039400068A24FF4806111F00FF840441FFA80F82C
:10395000681C85B2A542F0D360000D3081B23846B4
:10396000FFF775F861A1AFF2E410FFF78FF80128B7
:103970001CD000BF01A80CF0B1F981465248007874
:1039800010F0020F11D041F28830B9FBF0F100FBCA
:1039900011900521B0FBF1FA41F28830B9FBF0FB40
:1039A0005246594654A010F0CFFF00BF06204249AE
:1039B0000870384611F064FDFFF706F802AA0021EE
:1039C000434808F0BFF9BDE8FE8F10B586B001216D
:1039D000092002F0C8F80121880402F0D1F84FF460
:1039E0008060ADF8140018208DF8170003208DF8C2
:1039F000160005A9484801F0E3FD4FF40060ADF85A
:103A0000140004208DF8170003208DF8160005A976
:103A1000414801F0D5FD4FF4E13001900020ADF8B0
:103A20000800ADF80A00ADF80C00ADF810000C204D
:103A3000ADF80E0001A9394802F0CFFA00BF3848AE
:103A40000088C4B24FF04020B0F80008C4B24FF074
:103A5000010240F22551314802F057FB01212F4865
:103A600002F047FB4FF480722E492F48FEF732FBDD
:103A7000002011490870AFF20571272002F081FE85
:103A80000121272002F095FE272002F070FE06B0EB
:103A900010BD00005B253035642E253033642F497E
:103AA0005D3A206C6E67203D2025732C206C61747C
:103AB000203D2025730D0A0069000020006AF840AF
:103AC0005C0000206000002006000020C05F0108AC
:103AD000FC23002041542B5A495053454E443D325B
:103AE0002C00000025303278000000000D0A5345FC
:103AF0004E44204F4B0000005B253035642E2530AE
:103B000033642F495D3A2073656E64206661696C89
:103B100065640D0A00000000000C014000480040F0
:103B2000044800409C2200209C23002008B501216D
:103B3000102002F018F84FF4C040ADF8000010203B
:103B40008DF8030003208DF8020069463E4801F01D
:103B500037FD4FF400513C4801F0DDFD4FF480414A
:103B6000394801F0DAFD08BD08B54FF48041364808
:103B700001F0D1FD6A46002114200BF04FFE4FF4F6
:103B80008041314801F0C9FD6A46002104200BF054
:103B900045FE08BD08B54FF480412B4801F0BBFD40
:103BA0006A46002104200BF039FE4FF4804126487C
:103BB00001F0B3FD6A46002114200BF02FFE08BD72
:103BC00008B54FF48041204801F0A5FD6A46002168
:103BD00002200BF023FE4FF480411B4801F09DFDB5
:103BE0006A4600213E200BF019FE08BD70B505465F
:103BF0002E4607240BE046FA04F010F0010F02D025
:103C0000FFF7B2FF01E0FFF7C5FF601E44B2002CD2
:103C1000F1DA70BD10B5002406E0FFF7D1FF4420B3
:103C2000FFF7E4FF601CC4B2142CF6DB10BD10B526
:103C3000002406E0FFF7C4FF8820FFF7D7FF601CD1
:103C4000C4B2142CF6DB10BD001001400146002068
:103C5000C80AC002704710B503469818B0F1016F4A
:103C600001D9012010BD0AB90120FBE7002404E0BE
:103C700013F8010B01F8010B641C9442F8D30020E7
:103C8000F0E770B503469818B0F1016F01D9032031
:103C900070BD0AB90020FBE7012600240BE01D7867
:103CA0000878A84204D0FF2D01D00220F0E70026BA
:103CB0005B1C491C641C9442F1D3012E01D10020ED
:103CC000E6E70120E4E72DE9F05F07468846144661
:103CD0004FF004093819B0F1016F02D90120BDE895
:103CE000F09F0CB90020FAE714F0010F01D0012079
:103CF000F5E7224641463846FFF7C3FF06460EB9B0
:103D00000020ECE700BF012080F3108800BF01F025
:103D100032F9352001F0CDFB022E0BD13846FFF7EA
:103D200095FF834601F06DF98146B9F1040F01D08A
:103D30000220D4E7002512E018F815A06800401C06
:103D400018F800004AEA002A5146384601F05AFAAB
:103D50008146B9F1040F00D004E0BF1C6D1CB5EB27
:103D6000540FE9D300BF01F012F900BF002080F327
:103D7000108800BFB9F1040F00D1B0E70220AEE710
:103D80000648804706480047FEE7FEE7FEE7FEE7F5
:103D9000FEE7FEE7FEE7FEE7FEE7FEE7BD6500089B
:103DA0003101000836490143364A1160704770B549
:103DB000002100230F22C4784CB3324C246804F451
:103DC000E064C4F5E0644FEA1421C1F1040322FA6F
:103DD00001F2447804FA03F1847804EA020444EA24
:103DE00001014FEA0111284C0678A155047804F02E
:103DF0001F054FF0010404FA05F405784FEA651534
:103E00004FF0E02606EB8505C5F8004109E004788F
:103E100004F01F050124AC401C4D0678761145F8CE
:103E2000264070BD1A4A0A4002431A4B1A60704776
:103E300041B1194A126842EA00024FF0E023C3F888
:103E4000102D07E0144A126822EA00024FF0E02326
:103E5000C3F8102D7047042808D14FF0E0210969FC
:103E600041F004014FF0E022116107E04FF0E02142
:103E7000096921F004014FF0E02211617047000050
:103E80000000FA050CED00E000E400E080E100E055
:103E900080FFFF1F08ED00E010ED00E010B50446C4
:103EA000F848844208D10121401501F076FE002136
:103EB000601501F072FE17E0F348844208D1012139
:103EC000001501F06AFE0021201501F066FE0BE0EE
:103ED000EE48844208D10121C80301F05EFE0021B2
:103EE0004FF4004001F059FE10BD30B502460020ED
:103EF00000235068E64C20400D790C6844EA052404
:103F0000204350609068E34C2040D1E902542C4398
:103F10004D7944EA450420439060D06A20F4700053
:103F20000C7C641EE4B2234340EA0350D06230BDEF
:103F300000210160017141718160C1600121017442
:103F4000704721B1826842F00102826003E082681A
:103F500022F001028260704721B1826842F48072CF
:103F6000826003E0826822F480728260704710B53C
:103F70000023CBB21AB144681C43446002E0446899
:103F80009C43446010BD816841F008018160704726
:103F9000014600208A6812F0080F01D0012000E0DD
:103FA00000207047816841F004018160704701463C
:103FB00000208A6812F0040F01D0012000E00020E8
:103FC000704721B1826842F4A002826003E08268F7
:103FD00022F4A00282607047014600208A6812F431
:103FE000800F01D0012000E00020704710B50A4684
:103FF00000210023416821F46041531E41EA43310E
:10400000416010BD21B1426842F40062426003E0A9
:10401000426822F4006242607047F0B504460D46E3
:1040200000200021092D11DDE068A5F10A0606EB4C
:104030004607072606FA07F18843A5F10A0606EBAC
:10404000460603FA06F10843E0600CE0206905EB40
:104050004507072606FA07F1884305EB450603FAEC
:1040600006F108432061072A0FDA606B561E06EB43
:1040700086071F2606FA07F18843561E06EB8606BA
:1040800005FA06F10843606322E00D2A0FDA206B7F
:10409000D61F06EB86071F2606FA07F18843D61FB0
:1040A00006EB860605FA06F10843206310E0E06A95
:1040B000A2F10D0606EB86071F2606FA07F18843D4
:1040C000A2F10D0606EB860605FA06F10843E0624A
:1040D000F0BD21B1826842F48012826003E0826800
:1040E00022F48012826070470146C86C80B270472B
:1040F00069480068704721B1426842F480624260BA
:1041000003E0426822F480624260704721B1426855
:1041100042F48052426003E0426822F480524260DE
:1041200070470A460021816821F4E0411143816013
:10413000704721B1826842F40042826003E08268E5
:1041400022F400428260704721B1826842F4021278
:10415000826003E0826822F40212826070470146A6
:1041600000208A6812F4001F01D0012000E0002026
:104170007047F0B5044615460020002200260929A4
:1041800011DDE068A1F10A0707EB470C072707FAE2
:104190000CF29043A1F10A0707EB470703FA07F275
:1041A0001043E0600CE0206901EB410C072707FA9F
:1041B0000CF2904301EB410703FA07F21043206130
:1041C000A06BC0F30156EF1C06F1010CA7EB0C0726
:1041D00007EB870C1F2707FA0CF29043EF1C06F140
:1041E000010CA7EB0C0707EB870701FA07F2104356
:1041F000A063F0BD10B50A4600210023816B21F4B5
:104200004011531E41EA0351816310BD10B50023D4
:1042100003460B441A6010BD02460023134601F109
:1042200028000344186880B270470A46002141689C
:104230001A4B1940114341607047416282627047D6
:104240000A460021416821F01F0111434160704777
:1042500038B11349096841F40001124AC2F8081440
:1042600006E00F49096821F400010E4AC2F808145B
:1042700070470246002013680B4201D0012000E085
:10428000002070470024014000280140003C01400C
:10429000FFFEF0FFFDF7F1FF4C240140FFFD3FFF63
:1042A0000824014000200140CA430260704770B5F5
:1042B00002460020002300240B125568CEB205EA06
:1042C000060415681D4202D00CB1012000E0002058
:1042D00070BD00220A12D3430360704710B5044634
:1042E000FF48844209D10121480601F063FC002106
:1042F0004FF0007001F05EFC08E00121880601F03B
:1043000059FC00214FF0806001F054FC10BD30B525
:10431000024600200023146824F00204146014688C
:1043200044F00104146000E05B1C546804F00104D4
:10433000012C03D0A3F57F44FF3CF5D1546804F071
:104340000104012C01D000206EE08C79012C04D1F5
:10435000146844F08004146003E0146824F08004BE
:104360001460CC79012C04D1146844F0400414602A
:1043700003E0146824F0400414600C7A012C04D18A
:10438000146844F02004146003E0146824F020044E
:1043900014604C7A012C04D1146844F010041460A9
:1043A00003E0146824F0100414608C7A012C04D10A
:1043B000146844F00804146003E0146824F008044E
:1043C0001460CC7A012C04D1146844F00404146005
:1043D00003E0146824F0040414608C78A407CD78FA
:1043E00044EA05640D7944EA05444D7944EA0554EC
:1043F0000D886D1E2C43D461146824F001041460F0
:10440000002300E05B1C546804F00104012C03D17C
:10441000A3F57F44FF3CF5D1546804F00104012C5E
:1044200001D1002000E0012030BD10B50021837AC9
:10443000012202FA03F1AB4A126842F00102AA4BD0
:10444000C3F800261A46D2F81C2622EA0102A74B1E
:104450001A60027BB2B9A64A126822EA0102A44B92
:104460001A604288C38842EA0343A24A847A42F827
:1044700034300288838842EA03439E4A847A02EBFE
:10448000C4025360027B012A16D1994A126842EA9B
:104490000102974B1A604288038842EA0343954A17
:1044A000847A42F83430C288838842EA0343914ACE
:1044B000847A02EBC4025360C27A3AB98E4A126817
:1044C00022EA0102884BC3F8042606E08A4A1268F1
:1044D00042EA0102844BC3F80426028932B9874AB2
:1044E000126822EA0102804BC3F814260289012ACD
:1044F00006D1824A126842EA01027B4BC3F81426B5
:10450000427B012A06D1794A126842EA0102764BBF
:10451000C3F81C26734A126822F00102724BC3F8DA
:10452000002610BD00218171C1710172417281723A
:10453000C1728170C1700321017102214171012199
:10454000018070476749096841F00101664AC2F875
:1045500000166449096843F60E7221EA0201624AB4
:10456000C2F800161146D1F8001641EA0021C2F83F
:1045700000161146D1F8001621F00101C2F800160C
:10458000704721B1026842F48032026003E00268A1
:1045900022F4803202607047E1B1026842F080028A
:1045A00002604FF4C272125842F480734FF4C27228
:1045B00013504FF4CA72125842F480734FF4CA7207
:1045C00013504FF4D272125842F480734FF4D272E7
:1045D00013501BE0026822F0800202604FF4C272A6
:1045E000125822F480734FF4C27213504FF4CA72FF
:1045F000125822F480734FF4CA7213504FF4D272DF
:10460000125822F480734FF4D2721350704710B5D1
:1046100002460020936803F08063B3F1806F00D1FD
:1046200010E0936803F00063B3F1006F01D1012043
:1046300008E0936803F08053B3F1805F01D102205A
:1046400000E0042004287ED002F5C07303EB0013C1
:104650001B6803F0010402F5C07303EB00131C6038
:104660000B7A7BB94B7A0C6843EA445302F5C07469
:1046700004EB00142468234302F5C07404EB001417
:10468000236010E00B7A4C6843EAC4034C7A23435E
:1046900002F5C07404EB00142468234302F5C074CF
:1046A00004EB001423608B7A03F00F038B7202F586
:1046B000C07303EB00135B6823F00F0402F5C073B3
:1046C00003EB00135C6002F5C07303EB00135B683F
:1046D0008C7A234302F5C07404EB001463600FE08E
:1046E0000064004000660040006000401C6600401E
:1046F0000C660040406600400466004014660040BE
:104700008B7B1C064B7B44EA03440B7B44EA03236C
:10471000CC7A234302F5C07404EB0014A3608B7CB5
:104720001C064B7C44EA03440B7C44EA0323CC7B09
:10473000234302F5C07404EB0014E36002F5C07378
:1047400003EB001300E007E01B6843F0010402F5EF
:10475000C07303EB00131C6010BD10B502460023AC
:1047600021B1012907D002290FD109E09068F84C46
:1047700000EA04030BE09068F64C00EA040306E04C
:104780009068F54C00EA040301E0002300BF00BF7D
:10479000F24C181BA34216D007DC83B16FF0806087
:1047A00018180ED0022818D111E0B0F5007F10D0F3
:1047B000EB4C001909D0B0F5003F0ED10BE00223FD
:1047C0000DE000230BE0002309E0002307E00123B4
:1047D00005E0012303E0012301E0002300BF00BF47
:1047E000D8B210BD21B1012907D002290FD109E0AB
:1047F000826842F0800282600AE0826842F40042ED
:10480000826005E0826842F40002826000E000BF3E
:1048100000BF704710B500F5D87303EB01131B6898
:1048200003F004031372137A53B900F5D87303EB42
:1048300001131B6840F2FF7404EA5353136009E04C
:1048400000F5D87303EB01131B686FF0604404EAB2
:10485000D303536000F5D87303EB01131B6803F017
:104860000203537200F5D87303EB01135B6803F086
:104870000F03937200F5D87303EB01135B681B0AF7
:10488000D37400F5D87303EB01139B68D37200F562
:10489000D87303EB01139B681B0A137300F5D873DD
:1048A00003EB01139B681B0C537300F5D87303EBE8
:1048B00001139B681B0E937300F5D87303EB011370
:1048C000DB68D37300F5D87303EB0113DB681B0AB5
:1048D000137400F5D87303EB0113DB681B0C5374DE
:1048E00000F5D87303EB0113DB681B0E937421B939
:1048F000C36843F02003C36003E0036943F020036F
:10490000036110BD21B9C26842F02002C26003E019
:10491000026942F02002026170470246002019B984
:10492000D36803F0030006E0012903D1136903F003
:10493000030000E00020704710B502460B4600203F
:104940004FF6FF71BBB9146824F0020444F001046F
:10495000146000E0491E546804F00304012C01D0E7
:104960000029F7D1546804F00304012C01D0002081
:1049700032E0012030E0012B13D1146824F003044D
:10498000146000E0491E546814F0030F01D00029A0
:10499000F8D1546814F0030F01D000201CE001206E
:1049A0001AE0022B17D1146824F0010444F0020429
:1049B000146000E0491E546804F00304022C01D086
:1049C0000029F7D1546804F00304022C01D0002020
:1049D00002E0012000E0002010BD014600200A682E
:1049E00022F0010242F002020A604A6802F0030269
:1049F000022A00D10120704701464FF6FF720020C5
:104A00000B6823F002030B6000E0521E4B6803F0BA
:104A10000203022B01D1002AF7D14B6803F00203F5
:104A2000022B00D001207047014600208A6902F065
:104A300070007047014600208A69100E70470146D9
:104A400000208A69C2F3074070471AB143690B43DB
:104A5000436102E043698B434361704710B50246EE
:104A6000002011F4700F08D09369C1F3130423429E
:104A700001D001202DE000202BE011F0807F08D034
:104A80005368C1F31304234201D0012021E0002028
:104A90001FE011F0006F08D09368C1F313042342A4
:104AA00001D0012015E0002013E011F0007F08D0B4
:104AB000D368C1F31304234201D0012009E0002090
:104AC00007E01369C1F31304234201D0012000E081
:104AD000002010BD0022234B994202D100238361A4
:104AE00011E0C1F3130211F0007F01D0C2600AE0AF
:104AF00011F0806F01D0026105E011F0006F01D06C
:104B0000826000E042607047024600200A4201D005
:104B1000012000E00020704770B504460D460026D5
:104B20006069284271D0B5F5807F68D01CDC082D03
:104B300041D006DC012D2CD0022D30D0042D7ED1A9
:104B400033E0102D3DD0202D41D0402D77D144E0D1
:104B50000300000400030008000003100001000827
:104B60000001FFF77000F030B5F5004F61D009DCAF
:104B7000B5F5007F4AD0B5F5806F4DD0B5F5006F23
:104B80005DD150E0B5F5803F2DD0B5F5003F56D151
:104B90002FE0A0685549FFF7B7FF064651E0E068EF
:104BA0000321FFF7B1FF06464BE0E0680821FFF75D
:104BB000ABFF064645E0E0681021FFF7A5FF06467B
:104BC0003FE020690321FFF79FFF064639E0206997
:104BD0000821FFF799FF064633E020691021FFF70F
:104BE00093FF06462DE060680821FFF78DFF06461B
:104BF00027E060681021FFF787FF064621E0A069E3
:104C00000121FFF781FF06461BE01BE0A06902219E
:104C1000FFF77AFF064614E0A0690421FFF774FF4E
:104C200006460EE00BE0A0697021FFF76DFF064617
:104C300007E060680421FFF767FF064601E00026F1
:104C400000BF00E00026304670BDB1F5007F3AD0CD
:104C50000FDC202928D006DC01291CD004291DD016
:104C6000082940D11DE0402921D0B1F5807F3AD1FB
:104C700026E0B1F5004F31D006DCB1F5806F25D0CC
:104C8000B1F5006F2FD124E0B1F5803F12D0B1F51E
:104C9000003F28D111E0154A826025E00822C26059
:104CA00022E01022C2601FE0082202611CE01022F4
:104CB000026119E00822426016E01022426013E00F
:104CC0000422426010E0042242600DE004224260AF
:104CD0000AE0002282610422426005E00022826133
:104CE0000422426000E000BF00BF704701010100E4
:104CF00001684FF6FE7211400160002101604160C1
:104D00008160C1608749884208D18649083949686D
:104D100041F00F01834A083A516088E0814914311B
:104D2000884208D17F490839496841F0F0017D4A3D
:104D3000083A51607BE07B492831884208D17949A3
:104D40000839496841F47061764A083A51606EE06A
:104D500074493C31884208D172490839496841F4A4
:104D60007041704A083A516061E06E4950318842A2
:104D700008D16C490839496841F47021694A083AF8
:104D8000516054E067496431884208D16549083967
:104D9000496841F47001634A083A516047E061494B
:104DA0007831884208D15F490839496841F070611B
:104DB0005C4A083A51603AE05B49884208D1A0F168
:104DC0000401096841F00F01584AC2F804142EE0AA
:104DD00055491431884207D15549096841F0F0011D
:104DE000524AC2F8041422E04F492831884207D1C0
:104DF0004F49096841F470614C4AC2F8041416E046
:104E000049493C31884207D14949096841F4704118
:104E1000464AC2F804140AE043495031884206D198
:104E20004349096841F47021404AC2F804147047AC
:104E300010B50022026847F6F0739A430C6A8B683B
:104E400023430C6923434C6923438C692343CC6976
:104E500023434C6A23438C6A23431A430260CB6882
:104E600043600B6883604B68C36010BD0021016024
:104E700041608160C160016141618161C161016224
:104E800041628162704721B1026842F00102026012
:104E900004E002684FF6FE731A40026070471AB1D0
:104EA00003680B43036002E003688B4303607047B1
:104EB000416070470146486880B270470146002053
:104EC000002211F0805F02D01A4B1A6801E0174BE4
:104ED0001A680A4201D0012000E00020704710F05B
:104EE000805F02D01249086001E0104948607047B5
:104EF00001460020002211F0805F02D00D4B1A689D
:104F000001E00A4B1A680A4201D0012000E00020AB
:104F1000704710F0805F02D00549086001E0034946
:104F20004860704708000240080402400000024048
:104F3000040402400004024001460020FF4A1068B9
:104F400000F03800084310607047FC49096821F000
:104F50000801FA4A1160114609680143116070475F
:104F6000F649096821F01001F44A116011460968F8
:104F7000014311607047F248F0494860F1484860C9
:104F80007047EF48ED494860EE4848607047EB488D
:104F9000006940F08000E94908617047E74800690E
:104FA00040F08000E549086170470420E349C96882
:104FB00001F00101012901D101200EE0DF49C9689A
:104FC00011F0040F01D0022007E0DC49C96811F09C
:104FD000100F01D0032000E00420704700B5024606
:104FE0000423FFF7E2FF034603E0FFF7DEFF03467B
:104FF000521E012B01D1002AF7D102B90523184610
:1050000000BD30B5044604254FF43020FFF7E6FF1D
:105010000546042D17D1C948006940F00200C74970
:10502000086108464461006940F0400008614FF49F
:105030003020FFF7D3FF0546C048006941F6FD71F7
:105040000840BE490861284630BD10B504244FF41D
:105050003020FFF7C3FF0446042C16D1B74800697F
:1050600040F00400B54908610846006940F040007E
:1050700008614FF43020FFF7B1FF0446AF480069E4
:1050800041F6FB710840AD490861204610BD00B5EE
:1050900002460423FFF789FF034603E0FFF785FF7D
:1050A0000346521E012B01D1002AF7D102B9052374
:1050B000184600BD10B504244FF43020FFF7E7FF79
:1050C0000446042C16D19D48006940F004009B4919
:1050D00008610846006940F0400008614FF4302044
:1050E000FFF7D5FF04469548006941F6FB7108407B
:1050F00092490861204610BD00209049C96911F00D
:10510000020F01D0012000E00020704730B5A52536
:105110000424FFF7F1FF00B100254FF43020FFF722
:105120005DFF0446042C3BD185488449886085484E
:1051300088600846006940F0200008610846006960
:1051400040F0400008614FF43020FFF747FF04466D
:10515000042C1CD17948006941F6DF710840774979
:1051600008610846006940F0100008617648058033
:105170004FF40050FFF732FF0446052C10D06F4863
:10518000006941F6EF7108406C49086108E0052CA0
:1051900006D06A48006941F6EF7108406749086126
:1051A000204630BDF0B504460D4604260027F00227
:1051B000FFF714FF0646042E22D16048006940F034
:1051C00001005E4908612580F002FFF707FF0646EF
:1051D000042E0ED1A71C280C3880F002FFF7FEFE2B
:1051E00006465648006941F6FE7108405349086179
:1051F00006E05248006941F6FE7108404F490861D7
:105200003046F0BD70B504460D460426F002FFF7A7
:10521000E5FE0646042E11D14848006940F0010021
:10522000464908612580F002FFF7D8FE064643484C
:10523000006941F6FE71084040490861304670BD82
:1052400070B505460E460424E002FFF7C7FE04468B
:10525000042C17D13A48394988603A488860084692
:10526000006940F0100008612E80E002FFF7B6FEF2
:105270000446052C06D03148006941F6EF7108401C
:105280002E490861204670BD2DE9F04304464FF6D3
:10529000FF763746B046B1460425E443E6B2C4F390
:1052A0000727C4F307484FEA1469E802FFF796FEA0
:1052B0000546042D3ED12248204988602148886057
:1052C0000846006940F010000861FF2E06D01F4814
:1052D00006804FF40050FFF781FE0546042D08D1EB
:1052E000FF2F06D01A4807804FF40050FFF776FED4
:1052F0000546042D09D1B8F1FF0F06D01548A0F8D6
:105300000C88E802FFF76AFE0546042D09D1B9F1C1
:10531000FF0F06D00F48A0F80E98E802FFF75EFED8
:105320000546052D06D00548006941F6EF71084095
:10533000024908612846BDE8F083000000200240D1
:1053400023016745AB89EFCD00F8FF1F08F8FF1F69
:105350000AF8FF1F00F0FF1F30B5054604244FF484
:105360003020FFF73BFE0446042C41D15F486049E2
:105370008860604888600846006940F02000086145
:105380000846006940F0400008614FF43020FFF704
:1053900025FE0446042C22D15548006941F6DF71F0
:1053A0000840534908610846006940F01000086150
:1053B0001DB100205049088002E0A5204E49088018
:1053C0004FF43020FFF70AFE0446052C10D0484861
:1053D000006941F6EF7108404549086108E0052C75
:1053E00006D04348006941F6DF7108404049086132
:1053F000204630BDF0B505460E46174604243B480E
:105400003B4988603B488860E002FFF7E7FD0446BF
:10541000042C19D13648006940F010003449086165
:1054200047F0F80030432843344908804FF40050D7
:10543000FFF7D4FD0446052C06D02D48006941F63F
:10544000EF7108402A4908612046F0BD2848C0692C
:10545000800870472648006A704700202449096880
:1054600011F0200F01D0012000E00020704729B189
:105470001F4A126902431E4B1A6104E01C4A12695A
:1054800082431B4B1A61704701460020012908D155
:10549000174AD26912F0010F01D0012008E0002064
:1054A00006E0134AD2680A4201D0012000E0002041
:1054B00070470F49C860704704200D49C96801F062
:1054C0000101012901D101200EE00949C96811F04B
:1054D000040F01D0022007E00549C96811F0100F40
:1054E00001D0032000E0042070470000230167453D
:1054F00000200240AB89EFCD00F8FF1F02F8FF1F2C
:1055000010B50446CA48844208D10121042000F0A5
:1055100044FB0021042000F040FB46E0C5488442E3
:1055200008D10121082000F038FB0021082000F0FC
:1055300034FB3AE0C048844208D10121102000F039
:105540002CFB0021102000F028FB2EE0BB488442F9
:1055500008D10121202000F020FB0021202000F0B4
:105560001CFB22E0B648844208D10121402000F013
:1055700014FB0021402000F010FB16E0B1488442EB
:1055800008D10121802000F008FB0021802000F0DC
:1055900004FB0AE0AC48844207D10121801500F0E9
:1055A000FCFA0021A01500F0F8FA10BD10B5012199
:1055B000084600F0F2FA0021012000F0EEFA10BDDA
:1055C0002DE9F0410246002500260020002300249A
:1055D000002791F803C00CF00F0591F803C01CF0F0
:1055E000100F03D091F802C04CEA0505B1F800C0D5
:1055F0001CF0FF0F31D0146800202BE04FF0010C9D
:105600000CFA00F3B1F800C00CEA03069E4220D168
:1056100083004FF00F0C0CFA03F7BC4305FA03FCB0
:105620004CEA040491F803C0BCF1280F06D14FF0F6
:10563000010C0CFA00FCC2F814C00AE091F803C097
:10564000BCF1480F05D14FF0010C0CFA00FCC2F878
:1056500010C0401C0828D1D31460B1F800C0BCF1C0
:10566000FF0F34DD546800202EE000F1080C4FF0ED
:10567000010808FA0CF3B1F800C00CEA03069E42D8
:1056800021D183004FF00F0C0CFA03F7BC4305FA4D
:1056900003FC4CEA040491F803C0BCF1280F05D1C7
:1056A00000F1080C08FA0CF8C2F8148091F803C055
:1056B000BCF1480F07D100F1080C4FF0010808FABF
:1056C0000CF8C2F81080401C0828CED35460BDE806
:1056D000F0814FF6FF710180022181700421C170B9
:1056E00070470246002093680B4201D0012000E081
:1056F000002070470146886880B27047024600204B
:10570000D3680B4201D0012000E000207047014621
:10571000C86880B2704701617047416170470AB143
:10572000016100E041617047C16070474FF4803211
:105730000A4382618161826182698269704702469F
:105740000020424B18684FF68073184040EA021060
:1057500008433E4B186070473D49C8617047F0B53B
:105760000A46002300240021002500F00046B6F17F
:10577000004F02D1354EF16901E0344E7168C0F33B
:10578000034583B200F44016B6F5401F08D121F05E
:1057900070612E4E766826F070662C4F7E6012E0A7
:1057A00000F48016B6F5801F06D1032606FA05F42C
:1057B000A14341F0706106E0460D360103FA06F69A
:1057C000B14341F0706122B1460D360103FA06F68D
:1057D000314300F00046B6F1004F02D11B4EF1619B
:1057E00001E01A4E7160F0BD30B500228B071C0F2E
:1057F0000F2303FA04F2154B08338C1053F82430AE
:105800009343124C08348D1044F8253023468C10F5
:1058100053F824308C07240F00FA04F423430B4C74
:1058200008348D1044F8253030BD0A4908607047AF
:1058300000080140000C014000100140001401402C
:1058400000180140001C0140002001400000014000
:1058500000002042DC0020420E49086070470D49DC
:10586000486070470B49886070474AF6AA2009498A
:10587000086070474CF6CC40064908607047014606
:105880000020044AD2680A4201D0012000E0002032
:105890007047000000300040DB48006840F0010025
:1058A000D949086008464068D8490840D649486048
:1058B00008460068D6490840D34908600846006891
:1058C00020F4802008600846406820F4FE0048600C
:1058D0004FF41F0088607047CB49096821F480317C
:1058E000C94A11601146096821F480211160B0F5A0
:1058F000803F03D0B0F5802F0ED106E0C249096881
:1059000041F48031C04A116007E0BF49096841F4A1
:10591000A021BD4A116000E000BF00BF704710B574
:1059200001460022002300204A11012A02D1B64C70
:10593000236806E0022A02D1B34C236A01E0B24C8C
:10594000636A01F01F02012494401C4201D001202F
:1059500000E0002010BD70B500240025002600BF27
:105960003120FFF7DCFF0646641CB4F5A06F01D0C0
:10597000002EF5D03120FFF7D2FF08B1012500E05D
:105980000025284670BD014600209F4A106820F07F
:10599000F80040EAC100106070479E4908607047F7
:1059A00002460020984B586820F47C1042EA01031C
:1059B0001843954B586070479649086670470146F2
:1059C0000020914A506820F003000843506070475F
:1059D0008D48406800F00C007047014600208A4A5C
:1059E000506820F0F00008435060704701460020E6
:1059F000854A506820F4E0600843506070470146D3
:105A00000020814A506820F4605040EAC100506094
:105A1000704729B17C4A527A02437B4B5A7206E0A6
:105A2000794A527AC343DBB21A40774B5A727047B5
:105A300079490860704701460020734A506820F495
:105A400040400843506070470021744A11706E4A0C
:105A500082F82010012802D0042808D103E0012197
:105A60006E4A117004E005216C4A117000E000BF1D
:105A700000BF70476A49086070476349096A01437B
:105A8000614A1162704767490860704730B500216C
:105A90000022002400235C4D6D6805F00C0121B14B
:105AA000042905D0082923D105E05F4D056022E0D7
:105AB0005E4D05601FE0544D6D6805F47012524D47
:105AC0006D6805F48034022505EB92421CB9584DEF
:105AD000554305600BE04C4D6D6815F4003F03D055
