:020000040800F2
:10000000A8FD00205D0100086501000867010008E7
:10001000690100086B0100086D0100080000000084
:100020000000000000000000000000006F01000858
:1000300071010008000000004F100008B5580008CA
:10004000555B000877010008770100087701000878
:1000500077010008770100087701000877010008A0
:100060007701000877010008770100087701000890
:100070007701000877010008770100087701000880
:100080007701000877010008770100087701000870
:10009000295B000877010008770100087701000854
:1000A0007701000877010008770100087701000850
:1000B0007701000877010008770100087701000840
:1000C0007701000877010008770100087701000830
:1000D000770100087701000877010008255900081A
:1000E0007701000877010008770100087701000810
:1000F0007701000877010008770100087701000800
:1001000077010008770100087701000877010008EF
:1001100077010008770100087701000877010008DF
:1001200077010008770100087701000877010008CF
:10013000DFF80CD000F056FC004800477596000828
:10014000A8FD00204FF0010080F313880148024908
:100150000160FEE70CED00E00400FA050648804768
:1001600006480047FEE7FEE7FEE7FEE7FEE7FEE79C
:10017000FEE7FEE7FEE7FEE7D5580008310100087C
:1001800072B6704762B67047EFF3108072B6704770
:1001900080F31088704730BF704720BF7047B0FAB7
:1001A00080F0704790FAA0F0B0FA80F0704790FAB3
:1001B000A0F070472DE9F05F0546002092469B466F
:1001C00088460646814640241BE02846414647466D
:1001D000224600F060FA53465A46C01A914110D3A5
:1001E00011461846224600F047FA2D1A67EB01081F
:1001F0004F4622460120002100F03EFA17EB00098D
:100200004E41201EA4F10104DFDC484631462A4657
:100210004346BDE8F09FA0F14101192900D82030E4
:10022000704740EA01039B0703D009E008C9121F89
:1002300008C0042AFAD203E011F8013B00F8013BA0
:10024000521EF9D27047D2B201E000F8012B491ECC
:10025000FBD270470022F6E710B513460A46044663
:100260001946FFF7F0FF204610BD30B50EE00346FB
:100270000A4601E05B1C521C1C781578AC4201D187
:10028000002CF7D115F0FF0F04D0401C0278002A93
:10029000EDD1002030BDCAB20178914203D009B13E
:1002A000401CF9E7002070470146002000E0401C98
:1002B0000A5C002AFBD1704710B5002200E0521CF6
:1002C000835C8C5CA34201D1002BF8D1D8B2E1B29F
:1002D000401A10BD034611F8012B00F8012B002A2B
:1002E000F9D11846704730B505460020034600E0B6
:1002F0005B1C934205D2EC5CC85C201A01D1002C37
:10030000F6D130BD70B5064605F084FC046805469C
:100310000A220021304600F02FFA2C6070BD2DE932
:10032000FE4F804681EA0300C00F0C46009021F08A
:10033000004123F00045B8EB0200A94105D2404638
:10034000214690461C460B46024623F000401043CF
:1003500004D14046214603B0BDE8F08F270DC7F316
:100360000A00C3F30A510290401A0190402866DA4D
:10037000C3F3130040F4801B0098924620B1002381
:10038000D2EB030A63EB0B0B01985946C0F1400214
:10039000504600F071F906460D4650465946019AFE
:1003A00000F089F910EB08006141002487EA11523E
:1003B00084EAE7731A433BD0009A3AB3019A012AC0
:1003C0004FEA075210DC001B61EB02014FF00042C4
:1003D00002EA0752CDE90042001C41F58011324685
:1003E0002B4600F00EFAB6E7001B61EB0201001C81
:1003F00041F5801300185B412018A2F5001747EB68
:10040000030140EAD570B6196D4111E06D084FEA5D
:10041000360645EAC0754FEA0752001B61EB020140
:10042000001C41F5801149084FEA30000019514184
:1004300032462B4603B0BDE8F04F00F0D5B9009826
:10044000012240000023D0EB020263EBE07300982E
:1004500021464FEAE074B8EB000061EB0401E9E7E4
:1004600083F000435BE781F0004158E72DE9FE4F40
:1004700081EA030404F0004421F0004100944FF0AD
:10048000000B23F0004350EA010402D052EA0304B7
:1004900004D10020014603B0BDE8F08FC3F30A5435
:1004A000C1F30A552C44A4F2F3340194A0FB025486
:1004B000C1F3130141F48011C3F3130343F4801318
:1004C00001FB024400FB034E840A970A44EA81546C
:1004D00047EA8357A4FB076802958D0A05FB078549
:1004E0004FEA932C04FB0C542705029D4FEA065853
:1004F00047EA1637B5EB08056EEB070C870E920E30
:1005000047EA811742EA8312A7FB0201B6EB0B010F
:1005100064EB00042B0D43EA0C335E1844EB1C50D3
:10052000DA465146E7FB0201C5F313044FEA0B33E9
:1005300043EA14534FEA0432019C43EA0603A4F150
:100540000C040294009CCDE900B400F05AF9A2E733
:100550000EB5C10F80EAE0700844CA07002140F2DE
:1005600033438DE80E000A460B4600F04AF903B00B
:1005700000BD0EB540F2334102910021CDE90011DA
:100580000A460B4600F03DF903B000BD70B5C1F35B
:100590000A5201F000450024C1F3130140F2FF3379
:1005A00041F480119A4201DA002070BD40F23343D9
:1005B0009A42A2F2334203DC524200F06CF800E0AF
:1005C00090402C43F1D0404270BDC1F30A5210B5A7
:1005D000C1F3130140F2FF3341F480119A4201DA72
:1005E000002010BD40F233439A42A2F2334203DCB2
:1005F000524200F050F810BD904010BD30B50029B7
:1006000004DB4FF00044404264EB0101002B04DBAB
:100610004FF00044524264EB03038B4208BF824216
:1006200030BD000030B5002904DB4FF000444042EB
:1006300064EB0101002B04DB4FF00044524264EBF9
:100640000303994208BF904230BD000030B50B460D
:10065000014600202022012409E021FA02F59D42F2
:1006600005D303FA02F5491B04FA02F52844151EC6
:10067000A2F10102F1DC30BD202A04DB203A00FAAD
:1006800002F1002070479140C2F1200320FA03F3E9
:10069000194390407047202A04DB203A21FA02F0E7
:1006A0000021704721FA02F3D040C2F120029140AC
:1006B000084319467047202A06DBCB17203A41FA37
:1006C00002F043EAE07306E041FA02F3D040C2F1DF
:1006D0002002914008431946704700000FB40023E0
:1006E00000B589B00CA900910B996FF00042CB6066
:1006F0001E4B06931E4B07930423CDE901321D4A7E
:10070000089202466B46002000F00CFA09B05DF832
:1007100014FB70B586B006464FF0FF300091CDE96E
:100720000101002015460C4604903246694604A893
:10073000FFF7D4FF03460498211825B108B10A46F3
:1007400000E022462A6000280DD0002B02DD009830
:10075000884208D0081B0094CDE90104324669465E
:1007600004A8FFF7BBFF06B070BD0000610D0008D4
:100770007F0D0008110A00082DE9F04791460F4649
:1007800080460446002614F8015B2DB100F03CF9C8
:100790000068405DC007F6D12B2D02D02D2D18D05A
:1007A000641E4A463946204600F0FAFA27B13968F5
:1007B000A14201D1C7F8008071054FF002040BD5AA
:1007C0004042002803DD05F025FA0460A007BDE8DB
:1007D000F08746F48066E4E70028F8DA05F01AFAB4
:1007E00004606FF00040F2E710B5002B08DA401CFF
:1007F00041F1000192185B411A4301D120F0010040
:1008000010BD2DE9F04D92469B4611B1B1FA81F22F
:1008100002E0B0FA80F220329046FFF72DFF044646
:100820000F4640EA0A0041EA0B0153465A46084384
:1008300003D120463946BDE8F08D114653EA010048
:1008400015D0C8F140025046FFF725FF05460E4679
:10085000504659464246FFF70FFF084301D001209A
:1008600000E00020054346EAE0762C4337430A982F
:100870004FEA4453A0EB08004FEAD4240A304FF06B
:10088000000244EA47544FEAD72502D5002001462A
:10089000D1E7010510196941DDE9084500196941F1
:1008A000BDE8F04DA0E72DE9F04D81EA030404F026
:1008B000004B21F0004514464FF0000A23F00041A0
:1008C00050EA050220D054EA01021DD0C5F30A57B0
:1008D0000246C5F31303C1F31300C1F30A5640F4F3
:1008E000801543F48013A7EB0608101BD64608F2C8
:1008F000FD3873EB050002D308F1010801E09218FE
:100900005B41B8F1000F03DA00200146BDE8F08D2D
:1009100000204FF48011064684460EE0171B73EB4F
:10092000050705D3121B63EB050306434CEA010CD4
:1009300049084FEA300092185B4150EA0107EDD1B7
:1009400052EA030012D082EA040083EA0501084358
:1009500003D100224FF0004308E0101BAB4102D24C
:100960000122002302E06FF0010253101AEB06008F
:100970004CEB085110EB0A0041EB0B01BDE8F04DC8
:10098000FFF732BF70B521F0004303430CD0C1F331
:100990000A550024D5EB040564EB0403D617AD1A01
:1009A000B34102DB0020014670BD201841EB02512B
:1009B00070BDC1F30A52C1F3130140F2FF3341F499
:1009C00080119A4202DA00200146704740F2334318
:1009D0009A42A2F2334202DC5242FFF75CBEFFF7BA
:1009E0004BBE0000064C074D06E0E06840F00103F6
:1009F00094E8070098471034AC42F6D3FFF79CFB0D
:100A000068D5000888D50008004870470CD5000854
:100A100010B50446FFF7F8FF0068005D00F0010024
:100A200010BD00002DE9FF4F087881B09946FF28DE
:100A300005D0491C2D2804D00024002308E0002301
:100A40000BE00124F9E703EB830300EB4303491CAC
:100A50000878FF28F7D104B15B4200200090147899
:100A600001462D2C01D02B2C04D1521C2D2C12D040
:100A70000024009400251678FF2E0ED00A24A0FB37
:100A800004C801FB0481002700FB0711521C16EB70
:100A90000C006941EFE70124EBE7994450EA0102B9
:100AA00006D101980021C0E9001105B0BDE8F08F22
:100AB0000024A84D2646DFF8A08200F01FFA8246E7
:100AC0008B46B9F1000002DAC9F1000714E00746CD
:100AD00012E0F80707D022462B4630464146FFF782
:100AE000C5FC0646884622462B4610461946FFF7A7
:100AF000BDFC04460D467F10002FEAD1B9F1000F6E
:100B0000324643465046594602DAFFF7CCFE01E032
:100B1000FFF7ACFC009A0AB181F00041019AC2E9EA
:100B20000001C2E72DE9FF4F1F468DB0D7E901460E
:100B30004FF0FF382E2045464FF000090B90B96961
:100B40006D1C0E988847396A824688470028F6D17E
:100B50001AF101000AD024F4D064002E12DDBAF19B
:100B60002B0F08D0BAF12D0F0CD102E0404611B086
:100B70009CE744F48064B9696D1C0E9888478246EE
:100B8000A6F101066946600501D52D2000E02B2065
:100B90008DF8000001F1010B0DF1200809E0B969A1
:100BA0006D1C0E98884782460F98761E44F4007498
:100BB0000560002E02DDBAF1300FF0D00B998A45A6
:100BC0003ED144F0800406E00F99681CA9F10109A8
:100BD00044F400740860761EB9696D1C0E9888474D
:100BE00082463028F0D02BE00B998A4505D12006AB
:100BF00003D444F08004761E18E0504605F036F920
:100C000008B3761E0DF1130144F400748B4508D22D
:100C1000AAF130000BF8010B200607D5A9F101005D
:100C200003E0200602D409F101008146A00502D5A7
:100C30000F99681C0860B9696D1C0E988847824638
:100C4000002ED1DC54E0002E52DDBAF1650F02D047
:100C5000BAF1450F4CD1A0054AD5761EB96924F4E6
:100C600040746D1C0E9888478246002E0DDD2B289F
:100C700004D0BAF12D0F08D144F48074B9696D1C09
:100C80000E9888478246A6F10106E00501D52D2180
:100C900000E02B2108F8011BCDF82C8021E0761E06
:100CA0000DF1290144F4007488450CD2AAF13000FA
:100CB00010F0FF0088F8000002D10B99884509D98F
:100CC00008F1010806E0E00501D5244801E042F200
:100CD0000F708146B9696D1C0E98884782460F983F
:100CE0000560002E04DD504605F0C0F80028D6D17E
:100CF000F9690E988847FF208BF8000088F80000FB
:100D00000020069007904B466A4608A906A8FFF700
:100D100089FEA00502D46FF0010028E714F0240F2B
:100D20000AD0E00714D1DDE906123868031D3B60E4
:100D30000068C0E900120BE0DDE9060100F0EAF806
:100D40000146E00704D13868021D3A60006801607E
:100D500028460CE7000024400000F03FF1D8FFFFD8
:100D6000426842B1016811F8013B23B1521EC0E94B
:100D70000012184670470121C160881E7047426802
:100D80005AB1C368016843B983688B4205D0491ED4
:100D9000521CC0E90012002070474FF0FF3070472E
:100DA0002DE9F05F82460078002715468B460AF150
:100DB0000104B946302801D09DB113E014F8010BAD
:100DC0000127782803D0582801D045B10AE00DB199
:100DD000102D07D10027102514F8010B02E008257B
:100DE00000E00A250026B0460EE005FB080005FBE2
:100DF00006F1012701EB10461FFA80F8B6F5803F97
:100E000000D3B94614F8010B294600F069F8002810
:100E1000EBDABBF1000F05D00FB1641E00E05446C1
:100E2000CBF80040B9F1000F06D004F0F3FE022128
:100E30000160C81EBDE8F09F48EA0640FAE72DE9C8
:100E4000F04D00231A461B1A8A4103DB002001469D
:100E5000BDE8F08DC1F30A52C1F3130141F48015CE
:100E60004FF0000BD10702D100186D41521E002730
:100E7000044640F2FF11384601EB620A3E468046C6
:100E8000024600204FF48011FFF705FCC2197141A2
:100E9000BB1846EB0100B4EB030C75EB000C04D35C
:100EA000E41A65EB000517460E46241908F1010007
:100EB0006D4180463428E3DDF91946EB0600091B35
:100EC000A84103D24FF0FF32134601E0002213463F
:100ED0001BEB070046EB0A51BDE8F04DFFF784BC61
:100EE0003A2800D2303820F02002412A01D3A2F162
:100EF0003700884201D34FF0FF3070470EB540F203
:100F0000334202920022CDE900221346FFF779FC1A
:100F100003B000BD01F0004330B421F0004150EABD
:100F2000010206D00A0DA2F56072C1F31301002A76
:100F300002DC30BC00207047440F44EAC104C10009
:100F4000E01830BC00EBC250AFF300800029A8BF0E
:100F50007047401C490008BF20F00100704710B4E2
:100F6000B0FA80FC00FA0CF050EA010404BF10BC97
:100F7000704749B1CCF1200421FA04F411FA0CF1C4
:100F800018BF012121430843A3EB0C01CB1D01062F
:100F9000000A002BBEBF002010BC704700EBC350FE
:100FA00010440029A4BF10BC7047401C490008BF72
:100FB00020F0010010BC704770B58D1810F8014B7F
:100FC00014F0030201D110F8012B231106D110F8FF
:100FD000013B03E010F8016B01F8016B521EF9D1DF
:100FE000B3B110F8012B04F00C048A1A0C2C04D0B5
:100FF000A2EB841203F1020308E010F8014BA2EB0C
:101000000422F7E712F8014B01F8014B5B1EF9D5FA
:10101000A942D3D3002070BD1D484FF6FF71017067
:10102000002080F309881B48016881F308881A486A
:101030004FF08051016062B6FEE717484FF08051D3
:101040000160704714484FF080510160704772B6DC
:10105000EFF3098028B1203880E8F00F0F490968C4
:10106000086000B50E4880475DF804EB0D480E4956
:101070000A78027009480D490A680260106890E811
:10108000F00F203080F309884EF0040E62B67047EE
:1010900022ED00E06001002004ED00E05801002096
:1010A00061360008EA000020EB0000205C0100200F
:1010B0000029816802D041F0010101E021F0010125
:1010C000816070470029816802D041F4807101E09D
:1010D00021F48071816070470146002089684907CA
:1010E00000D501207047014600208968090700D516
:1010F0000120704710B542680E4B0C791A400B68FE
:1011000042EA04221343436083680B4A1340D1E947
:10111000024222434C7943EA44031A438260C26A82
:10112000097C22F47002491EC9B242EA0151C1622F
:1011300010BD0000FFFEF0FFFDF7F1FF70B50725C1
:1011400009290AD9C468A1F10A0606EB4606B5408A
:10115000AC43B3401C43C46007E0046901EB4106A3
:10116000B540AC43B3401C4304611F23072A09D296
:10117000446B521E02EB820293409C4391400C430D
:10118000446370BD0D2A09D2046BD21F02EB8202A8
:1011900093409C4391400C43046370BDC46A0D3A74
:1011A00002EB820293409C4391400C43C46270BDA9
:1011B000816841F00801816070470029816802D090
:1011C00041F4A00101E021F4A00181607047816831
:1011D00041F004018160704700B585B0684604F0B5
:1011E0008DFA019805B000BD10B504F06DFA4FF40A
:1011F000E13004F0B1FB00F0D1FC05F01BFE07F07C
:101200000FFDBDE8104005F0EDB9442803D21030C1
:10121000C0B200F019BA704770B50446FEF7B4FFCB
:10122000054600F0A9FF2846FEF7B2FF442C04D281
:10123000044850F8240000B18047BDE8704000F039
:10124000ABBF0000E02F00201420FFF7E5BF2720F0
:10125000FFF7E2BF70B50E46044644280CD2FEF7F5
:1012600093FF05461034E0B2314600F037FA2846C5
:10127000BDE87040FEF78CBF70BD000070B50D4634
:101280000446442808D2FEF77FFF044941F8245061
:10129000BDE87040FEF77CBF70BD0000E02F00206D
:1012A000094910B588424FF0010101D14C0601E017
:1012B0004FF08064204604F0EFF92046BDE810406E
:1012C000002104F0E9B9000000640040F0B5827A22
:1012D000012191402D4A136843F0010313602B4B09
:1012E0001C331C688C431C60284C284D077B0C3435
:1012F00040352E1DA7B927688F4327604788B0F86F
:1013000006C047EA0C4790F80AC045F83C700788C9
:10131000B0F804C047EA0C4790F80AC046F83C70A1
:10132000077B012F0ED127680F4327600468877A57
:101330004FEA344445F837404468857A4FEA3444EC
:1013400046F83540114CC57A241D002D256806D07D
:101350000D4325600D4C0589143415B104E08D430F
:10136000F7E725688D4325600589012D02D12568A1
:101370000D432560407B012802D11868084318609E
:10138000106820F001001060F0BD00000066004011
:10139000002A426901D00A4300E08A434261704753
:1013A00010B50368002223F002030360036843F0D2
:1013B000010303604FF6FF7300E0521C4468E4072A
:1013C00001D19A42F9D14268D2073ED08A79012AE6
:1013D00002683CD022F080020260CA79012A0268C9
:1013E00038D022F0400202600A7A012A026834D022
:1013F00022F0200202604A7A012A026830D022F0EC
:10140000100202608A7A012A02682CD022F00802B7
:101410000260CA7A012A026828D022F0040202601F
:101420008A78CC78920742EA04620C7942EA044254
:101430004C79098842EA0452491E0A43C261016894
:1014400021F001010160002114E0002010BD42F0F4
:101450008002C1E742F04002C5E742F02002C9E73E
:1014600042F01002CDE742F00802D1E742F0040258
:10147000D5E7491C4268D20701D09942F9D14068AA
:10148000C007E2D1012010BD10B500EB0113D3F865
:10149000B04114F004041472D3F8B0412BD0E40826
:1014A000C2F8044003F5D8731C6804F002045472B7
:1014B0005C6804F00F0494725C68240AD4749C681D
:1014C000D4729C68240A14739C68240C54739C681E
:1014D000240E9473DC68D473DC68240A1474DC680A
:1014E000240C5474DB681B0E937439B1016941F00C
:1014F0002001016110BD640D1460D3E7C16841F0A3
:101500002001C16010BD00218171C1710172417261
:101510008172C1728170C170032101710221417118
:1015200001210180704730B50246002093685B01BD
:1015300008D49068000101D5012003E09068C00044
:1015400031D5022002EB0012D2F8803103F0010302
:10155000C2F880310B7A43B3D2F880414D681C4306
:101560004B7A43EAC5031C43C2F880418B7A02F5EB
:10157000C07203F00F038B72536823F00F035360A4
:1015800053688C7A23435360CB7ACC6843EA0423B4
:101590009360CB7B096943EA0121D160116841F076
:1015A0000101116030BD042030BDD2F880314C7A89
:1015B00023430C8843EA4453C2F88031D6E7000045
:1015C000002221B1012905D0022906D112E082684A
:1015D000124801E08268124802401249501A8A42B9
:1015E00014D00ADCA2B16FF08060101813D002286A
:1015F0000CD10FE082680C48EEE7B0F5007F09D00F
:101600000A49401807D0B0F5003F03D0002002E09F
:10161000022000E00120C0B2704700000300000477
:101620000003000800010008000003100001FFF79C
:10163000044910B50020086000F0E0F8BDE8104053
:1016400000F0C6B89000002070B5234C4FF0E025A4
:10165000102823D2DFE800F03E3E3E3E080E153E45
:101660003E3E3E3E3E3E3E1BFEF78EFD216841F46F
:10167000803104E0FEF788FD216841F400312160EB
:1016800024E0FEF781FD216841F48021F7E7FEF7B1
:101690007BFD296941F00101296117E06968302269
:1016A00002EB4111C9B2884214D21038C11700EBC5
:1016B000D161C1F3471421F01F01461AFEF764FD02
:1016C000012105EB8402B140C2F80011BDE8704071
:1016D000FEF75EBD70BD000024ED00E02DE9F04195
:1016E00005460846FEF763FD374F040E364E0837B1
:1016F000102D44D2DFE805F066666666080F1866AE
:10170000666666202B66323BFEF73EFD316821F0AF
:10171000FF01214306E0FEF737FD316821F47F41E8
:1017200041EA0421316049E0FEF72EFD316821F4E1
:101730007F0141EA0441F5E7FEF726FD2249091D34
:101740000A6822F07F4242EA04620A6036E0FEF74D
:101750001BFD396821F0FF01214306E0FEF714FD6F
:10176000396821F47F0141EA0441396026E0FEF73F
:101770000BFD396821F07F4141EA0461F5E74FF044
:10178000E0204068302101EB4010C0B2854219D200
:10179000103DE81705EB9070C0F3870620F00300BA
:1017A0002D1AFEF7F1FC094901EB86021168EB00E6
:1017B000FF259D40A9439C400C431460BDE8F041C7
:1017C000FEF7E6BCBDE8F08118ED00E000E400E0C3
:1017D00010B5FEF7D9FC04461021044800F0B8F912
:1017E0002046BDE81040FEF7D3BC0000F0300020DA
:1017F00001490860704700009000002010B5FFF715
:10180000EBFC08490A6842F080720A60064900222F
:101810004A600A6842F001020A60BDE81040FFF722
:10182000E7BF0000FCED00E0001000E00148406868
:1018300070470000001000E00029016802D041F06C
:10184000010102E04FF6FE72114001607047000096
:1018500001684FF6FE721140016000210160416095
:101860008160C1603149314A0839904203D14868EA
:1018700040F00F0006E02D4A1432904204D148682F
:1018800040F0F00048607047284A2832904203D167
:10189000486840F47060F5E7244A3C32904203D136
:1018A000486840F47040EDE7204A5032904203D13E
:1018B000486840F47020E5E71C4A6432904203D146
:1018C000486840F47000DDE7184A7832904203D14E
:1018D000486840F07060D5E7154A111F904203D167
:1018E000086840F00F0006E0114A1432904204D11B
:1018F000086840F0F000086070470D4A28329042B6
:1019000003D1086840F47060F5E7094A3C32904220
:1019100003D1086840F47040EDE7054A5032904228
:10192000EAD1086840F47020E5E7000008000240B2
:101930000804024030B5036847F6F07293430C6A1E
:101940008A682243D1E904452C4322438C6922430F
:10195000CC6922434C6A22438C6A22431A430260B8
:10196000CA6842600A6882604968C16030BD000090
:101970000149C860704700000020024070B505466C
:101980004FF43026304600F059F8042811D1094CA4
:10199000206940F0020020616561206940F040004C
:1019A0002061304600F04AF8216941F6FD7211408D
:1019B000216170BD0020024008490420CA68D20796
:1019C00001D001207047CA68520701D50220704734
:1019D000C968C906FBD503207047000000200240FB
:1019E0000248016941F08001016170470020024016
:1019F000F0B506464FF400570D46384600F01EF885
:101A000004280CD1064C206940F00100206135808B
:101A1000384600F013F82169BA1E11402161F0BD6B
:101A20000020024003480249416003494160704779
:101A30002301674500200240AB89EFCD00B5034686
:101A4000FFF7BAFF03E000BFFFF7B6FF5B1E0128F8
:101A500003D0002B00D1052000BD002BF4D1FAE704
:101A6000F0B5CA78002502F00F03D20601D58A78B6
:101A700013430A784FF00F0E12F0FF0F4FF00102E0
:101A80001CD004680F8802FA05F63740B74211D11E
:101A90004FEA850C0EFA0CF724EA070703FA0CF458
:101AA0003C43CF78282F02D0482F02D002E0466175
:101AB00000E006616D1C082DE4D304600C88FF2C47
:101AC0001ED944685FF0000606F1080702FA07F520
:101AD0000F882F40AF420FD14FEA860C0EFA0CF759
:101AE000BC4303FA0CF73C43CF78282F00D1456163
:101AF000CF78482F00D10561761C082EE4D34460CE
:101B0000F0BD4161704701617047000002494CF629
:101B1000CC400860704700000030004002494AF69F
:101B2000AA2008607047000000300040014948606A
:101B30007047000000300040014988607047000095
:101B4000003000400149086070470000003000404C
:101B50000A460021AFF3008010B500234FEA0304CA
:101B6000641C41EA0323042CFAD310F0030405D1CA
:101B70000AE000BF521E00F8011B641C5AB1042C7D
:101B8000F8D301E008C0121F042AFBD203E000BF13
:101B900000F8011B521E002AFAD110BD38B54FF4CF
:101BA000806000F065F827208DF8000000248DF893
:101BB00001408DF8024001258DF80350684600F081
:101BC00025F825208DF800008DF801408DF80240A1
:101BD0008DF80350684600F019F834208DF80000A5
:101BE0008DF801408DF802408DF80350684600F0F2
:101BF0000DF826208DF800008DF801408DF8024088
:101C00008DF80350684600F001F838BDF0B50F219B
:101C1000C478027801234FF0E026DCB1124C24682E
:101C2000457804F4E064C4F5E064240AC4F10407D0
:101C3000E1408478BD400C402C4321010B4C1155F0
:101C4000007800F01F018B40400906EB8000C0F8CF
:101C50000031F0BD02F01F008340500906EB800008
:101C6000C0F88031F0BD00000CED00E000E400E0C1
:101C70000249084302490860704700000000FA0565
:101C80000CED00E0704700002DE9F04104461848D3
:101C900090460F4600781D4610B142F6E16025E0FF
:101CA00014B3FEF771FA134E3178491C3170FEF708
:101CB0006FFA1148C4E900070027C4E9088704F156
:101CC000080002F07AFA204601F032FE0B4908883B
:101CD000401C0880FEF758FA3178491E3170FEF733
:101CE00057FA2F80BDE8F08145F6C3501880F9E718
:101CF000BC00002004010020464C4147D8000020D1
:101D00002DE9FF4F05468BB08648DDE91864007861
:101D10001F46894610B146F2AE10E9E0ADB148F277
:101D20000101781A8F4229D019DC40F20111A7F283
:101D300001108F4222D00BDC012F1FD0022F1DD0AB
:101D4000042F1BD0082F16D118E045F6C350CFE062
:101D5000012813D0032811D007280CD10EE0B0F5CC
:101D6000807F0BD0F4DDA0F58070013806D002280A
:101D700004D0062802D045F62560B9E06A492868F3
:101D8000884202D045F6C450B2E0F80501D50120E2
:101D900000E0002080464FF0000B0EB1C6F800B006
:101DA00007F00F020992FEF7EFF9099A5F494FF029
:101DB000010E012A32D0022A36D0042A02D0082A83
:101DC0006CD120E02A6A02EA090ACA451FD00EE057
:101DD000574A1268C2F884A00EB1696A3160FEF7F2
:101DE000D7F9A4F800B050460FB0BDE8F08F3A0420
:101DF00025D5FEF7CDF946F2B01079E0FEF7C8F927
:101E000046F6635074E02A6A12EA090AEFD0B8F184
:101E1000010FDDD122EA0A022A62D9E72B6A29EAF8
:101E2000030ACA4504D0E2E72B6A39EA030ADED086
:101E3000B8F1010FCCD143EA0A032B62C8E70A7854
:101E4000002ADBD18A4681F800E0FEF7A1F90D985F
:101E500000903B464A46294601A801F059FDFEF78D
:101E600093F99AF80010491E8AF80010FEF790F9CD
:101E700000F014FDFEF788F92D490246086890F835
:101E8000353073B1012B19D0022B29D0032B1ED072
:101E90001046FEF77DF946F62E6029E0FEF778F948
:101EA00069E70EB1006C3060A4F800B008685F46C6
:101EB000B8F1010FD0F884601DD02DE00EB1006C98
:101EC00030601046FEF764F946F2A91010E00EB13A
:101ED000C6F800B01046FEF75BF947F2D92007E0DC
:101EE0000EB1006C30601046FEF752F945F6C25054
:101EF0002080002078E7099801280AD0022808D01D
:101F0000042803D0082801D01046C7E7286AB04348
:101F100001E0286A304328621046FEF739F927802D
:101F2000304661E7BC000020464C414704010020D8
:101F3000580100202DE9FF411646884605001C4641
:101F40000DD07EB1012E0DD0B6F5004F0AD06FF442
:101F50000040301806D045F62560188019E045F697
:101F6000C350FAE7104F2868B84202D045F6C45073
:101F7000F3E7FFF75BFC03460C48007868B1CDE956
:101F80000234CDE9008600231A462946384601F07E
:101F9000EDFD002004B0BDE8F08132464146284600
:101FA000009401F0E3FCF5E7464C4147BC000020FB
:101FB00002480068002800D000477047A8000020B1
:101FC00010B5044600F0BEF8464800210A22017010
:101FD0004548017045480170454801604548016029
:101FE0004548017045480170454801704548016009
:101FF0004548016045480160454801704548006812
:10200000B0FBF2F0444A1060444A106830B14448D2
:10201000006818B1126802C0521EFCD1414801602C
:102020004148016041480160414801604148016008
:1020300041480160414801604148017002F090F957
:1020400002F03AFA204601F085FC2088002847D1AA
:10205000204601F035FF2088002841D1204601F0BC
:1020600053FF208800283BD1204602F013F8208837
:10207000002835D1204602F0B1F9208800282FD160
:10208000204602F051FB2088002829D1204602F08A
:102090006BFD2088002823D1204601F08BFE20888C
:1020A00000281DD1204601F02DFD2088002817D1E1
:1020B000204603F021F92088002811D1204602F0A3
:1020C000B1FC208800280BD1204603F069F9208854
:1020D000002805D101F01AFCBDE81040FFF7D2BD81
:1020E00010BD0000BC000020BD0000200401002045
:1020F000580100205C010020EA000020EB000020D5
:10210000EC000020F8000020FC000020000100206E
:102110000C01002040D100080801002018D100085F
:1021200014D100089C000020A0000020A400002082
:10213000A8000020AC000020B0000020B400002067
:102140003A01002030B5094B0020094A04461968BD
:1021500001E010C1401C1568A842FAD3186805496F
:1021600000EB8500001F086030BD000014D100089E
:1021700018D100086001002005480078012805D129
:1021800004490878FA2801D2401C08707047000002
:10219000BD000020BC0000201A4810B500780128BE
:1021A0002FD1FDF7F1FF184A0446117829B1491ED5
:1021B00011F0FF00107022D103E0BDE81040FDF7E0
:1021C000E7BF12480078D0B902F0B8F8104908709B
:1021D000104900EB400051F820100F4801600F48F3
:1021E000006881420BD051F8900F401C08600C48E9
:1021F0000168491C01600B494FF08050086020467F
:10220000DBE710BDBD000020BC0000200401002061
:10221000EB000020244700205C0100205801002032
:102220003001002004ED00E02DE9F04104461A4899
:102230000F461546007810B142F6E1602AE03CB343
:10224000FDF7A2FF154E3178491C3170FDF7A0FF54
:102250001348C4E900070027276284F8257040204E
:10226000A76284F8240004F1080001F0A6FF2046CC
:1022700001F0FEFE0B490888401C0880FDF784FF32
:102280003178491E3170FDF783FF2F80BDE8F08162
:1022900045F6C3501080F9E7BC000020040100207F
:1022A0004D555458E80000202DE9F04F064670487F
:1022B00089B017460078129D1C468B4610B146F235
:1022C000AE10B8E036B147B1B7F5004F05D045F6CE
:1022D0002560B0E045F6C350ADE0664930688842FD
:1022E00002D045F6C450A6E04FF000080CB1C4F887
:1022F0000080FDF749FF014696F825005E4B01225C
:1023000088B19A46D6F820C01B689C451ED1401C57
:1023100086F825000CB1B06A20600846FDF738FF4A
:1023200045F2827087E01868306290F8370086F8CE
:10233000240086F825200CB1B06A20600846FDF71D
:1023400027FFA5F8008009B0BDE8F08F380405D557
:102350000846FDF71DFF46F2B0106CE047480378D1
:102360002BB10846FDF714FF46F6635063E0814643
:1023700002700846FDF70CFF376ADAF8000097F89C
:10238000372090F837108A421ED997F8360008286F
:102390003BD2DFE800F00413161613131616384666
:1023A00002F004F9DAF8000090F8370087F83700F7
:1023B00001F0E2FF384602F0A9F805E087F837108F
:1023C00002E0384601F0E0FE5B46042231466846F2
:1023D00001F06CFEFDF7D8FE99F80020521E89F836
:1023E0000020FDF7D5FE00F059FAFDF7CDFEDAF832
:1023F000001091F8352002B3012A24D0022A31D0EE
:10240000032A26D046F62E6128E0FDF7BDFE99F896
:102410000020521E12F0FF0289F8002007D118494F
:10242000098821B1FDF7B4FE02F0EAF801E0FDF7FA
:10243000AFFE46F62D60288085E70CB1096C21605F
:10244000A5F800800BE00CB1096C216046F2A911DF
:1024500004E00CB1C4F8008047F2D9212980FDF7CF
:1024600097FE70E70CB1096C216045F6C251F5E7A3
:10247000BC0000204D555458580100200401002094
:10248000C80000202DE9F84F04465B488A461546EF
:10249000007810B146F20E2010E034B141B1B1F530
:1024A000004F05D045F6256008E045F6C35005E02D
:1024B00052492068884204D045F6C4501080BDE8D7
:1024C000F88FFDF761FEDFF838910146226AD9F8EE
:1024D0000000824205D00846FDF75AFE45F28170A1
:1024E0006EE0DFF82081084698F80020521C88F83A
:1024F0000020FDF74DFEFFF799F90646A06294F81B
:102500002500DFF804B1401E10F0FF0084F825001C
:1025100016D0FDF739FE98F80020521E12F0FF0287
:1025200088F8002007D1BBF8001021B1FDF730FE7C
:1025300002F066F801E0FDF72BFE45F283703FE004
:10254000208A04F10807E8B3D9F8001094F8243081
:1025500091F837209A4214D0084602F027F8D9F8AB
:10256000001094F8240081F8370001F005FFD9F835
:10257000000001F0E7FFD9F80000244990F8370087
:102580000870386800231A468168216291F8370084
:1025900084F82400012084F825002046009601F0EC
:1025A0006CFEFDF7F1FD98F80020521E88F800201F
:1025B000FDF7EEFD5FEA0A4001D400F06FF900205C
:1025C00028807CE7FFE700262662FDF7DDFD98F80E
:1025D0000020521E12F0FF0288F8002007D1BBF83D
:1025E000001021B1FDF7D4FD02F00AF801E0FDF77B
:1025F000CFFD2E8063E70000BC0000204D555458ED
:102600005801002004010020C8000020EA0000203A
:102610002DE9F04104461C481746884600781D46BF
:1026200010B142F6E1602CE034B347B3FDF7ACFDE6
:10263000164E3178491C3170FDF7AAFD1448C4E9E3
:102640000008394604F1200001F0C8FC04F108003C
:1026500001F0B3FD204601F0AFFE0E490888401C92
:102660000880FDF791FD3178491E3170FDF790FD2E
:1026700000202880BDE8F08145F6C35001E046F215
:1026800094501880F6E70000BC00002004010020F0
:1026900051554555F40000202DE9F04F074689B00B
:1026A0005348DDE91254007891461E468B4610B11E
:1026B00046F2AE103FE03FB14EB15AB1B2F5004F15
:1026C00008D045F6256036E045F6C35033E046F2C3
:1026D000D52030E047493868884202D045F6C450DA
:1026E00029E04FF000080DB1C5F80080FDF74CFD62
:1026F000009023462A46314607F1200001F042FCB3
:102700008246208840B15FEA09400CD50098FDF769
:102710003FFD46F2B0100EE00098FDF739FD50463F
:1027200009B0BDE8F08F3448017839B10098FDF761
:102730002FFD46F6635020800020F1E781460120FE
:1027400089F800000098FDF723FD5B460522394615
:1027500001A801F0ABFCFDF717FD99F80010491E28
:1027600089F80010FDF714FD00F098F8FDF70CFD56
:1027700002462248016891F8353063B1012B15D02B
:10278000022B2AD0032B4FF0000719D0A6F80080A7
:1027900046F62E601BE0CF6DB1F86010318015B1A8
:1027A0000068006C2860A4F8008011E00027A6F8FB
:1027B000008015B10068006C286046F2A91006E0A0
:1027C0004046A6F8008005B1286047F2D920208055
:1027D0001046FDF7DDFC3846A2E70027A6F800808A
:1027E00015B10068006C286045F6C250EFE70000A4
:1027F000BC0000205155455504010020580100201F
:102800002DE9FF4790460C9C1D46894606000ED0D8
:102810004FF40071B5F5004F18D00BDCB5B1102D99
:1028200014D08D4212D0B5F5047F0CD10EE045F6E0
:10283000C35011E0A5F50040103807D0B0F5F87F7F
:1028400004D0884202D045F6256005E0114F30687B
:10285000B84204D045F6C4502080BDE8FF87FEF79B
:10286000E5FF0D49097859B10021CDE90015CDE901
:10287000020443464A463146384601F077F9ECE710
:10288000CDE900042B4642464946304601F0B2FDF0
:10289000E3E7000051554555BC000020164810B52F
:1028A0000078002826D115480078002822D1FDF7AD
:1028B0006BFC044601F042FD11490870114900EB20
:1028C000400051F82000104908601049096888420A
:1028D0000BD050F8901F491C01600D480168491C3D
:1028E00001600C494FF0805008602046BDE8104060
:1028F000FDF74EBC10BD0000BC000020040100200C
:10290000EB000020244700205C010020580100203B
:102910003001002004ED00E070B504461048007856
:1029200010B146F6625019E00E480078012802D036
:1029300045F6896012E00C4D2878FA2802D345F25A
:1029400009200BE0FDF720FC06462878401C287083
:1029500001F07AFE3046FDF71BFC0020208070BDA0
:10296000BC000020BD000020040100202DE9F04142
:1029700015460C460746FDF707FC0B490026012FBC
:1029800001D00E7001E001220A7008490CB10C6000
:1029900005E0074A0A231268B2FBF3F20A60FDF76A
:1029A000F7FB2E80BDE8F0810C010020080100201B
:1029B00040D1000870B504461548007810B146F6BD
:1029C000655023E013480078012802D045F689605D
:1029D0001CE0114D287870B1FDF7D6FB064628782B
:1029E000401E10F0FF00287008D03046FDF7D0FBE5
:1029F00046F663500AE046F6645007E001F032FE06
:102A00003046FDF7C5FBFFF749FF0020208070BD71
:102A1000BC000020BD000020040100202DE9F04191
:102A2000044618481746884600781D4610B142F6FD
:102A3000E16025E014B3FDF7A7FB134E3178491C84
:102A40003170FDF7A5FB2762002710486762C4E9D3
:102A5000000804F1080001F0B0FB204601F052FE2E
:102A60000B490888401C0880FDF78EFB3178491E11
:102A70003170FDF78DFB2F80BDE8F08145F6C35026
:102A80001880F9E7BC0000200401002053454D41A7
:102A9000140100202DE9F0470646484888B09146C9
:102AA0000078109D1C468A4610B146F2AE1009E02F
:102AB00036B14AB1B2F5004F06D045F6256001E0C7
:102AC00045F6C35028805BE03D483168814202D022
:102AD00045F6C450F6E7002704B12760FDF754FB24
:102AE000D6F82080B8F1000F0BD0A8F10108C6F885
:102AF00020800CB1716A2160346AFDF749FB2F8098
:102B000054E05FEA094108D5FDF742FB46F2B010F8
:102B10002880404608B0BDE8F0872A490A7822B1EB
:102B2000FDF736FB46F66350CCE78846012188F86E
:102B30000010FDF72DFB534606223146684601F092
:102B4000B5FAFDF721FB98F80010491E88F800102F
:102B5000FDF71EFBFFF7A2FEFDF716FB01461A4824
:102B6000006890F835206AB1012A10D0022A1FD0DF
:102B7000032A12D046F62E6028800846FDF708FB8F
:102B80000020C7E70CB1006C20602F800AE00CB178
:102B9000006C206046F2A91003E004B1276047F200
:102BA000D92028800846346AFDF7F2FA2046B1E7BA
:102BB0000CB1006C206045F6C250F2E7BC0000206A
:102BC00053454D4104010020580100202DE9FF41EB
:102BD0000E46050014460DD07EB1B6F5007F0CD030
:102BE000B6F5004F09D0B6F5024F06D045F6256080
:102BF00010801AE045F6C350FAE7124F2868B84231
:102C000002D045F6C450F3E7FEF710FE02460E4828
:102C1000007870B10020CDE90224CDE9000603461A
:102C200002462946384600F0A1FF04B00020BDE866
:102C3000F08104B0234631462846BDE8F04101F05A
:102C40007FBD000053454D41BC00002070B50446D7
:102C500013480E461546007810B146F6C65006E0F9
:102C60003CB110492068884206D045F6C450108017
:102C700070BD45F6C350FAE700202880FDF784FABE
:102C80000146206A48B9208A38B147F25F1028808F
:102C9000BDE870400846FDF77BBA2662F8E7000001
:102CA000BC00002053454D4170B50F4D04462878B7
:102CB00018B145F68A60208070BD01F03FFB0B49DA
:102CC00008700B4908700B4900EB400051F82000D8
:102CD000094908600949086001202870FEF79CF93D
:102CE00043F69920E7E70000BD000020EB0000203C
:102CF000EA000020244700205C0100205801002049
:102D00002DE9F0410646FDF73FFA234900240C6007
:102D100022490C8022490C8022490C6022490C6017
:102D200022490C6022490C6022490C81FDF730FADF
:102D3000FDF72AFA20490D6815E000BFFDF724FAD7
:102D400078350746EC632C602C63AC61AC82EC8276
:102D50006C62AC62FEF76AFD28627020783D4453D5
:102D6000D5F8BC503846FDF713FA002DE6D1FDF733
:102D70000BFA12490D6803E0FDF706FAAC85AD6960
:102D8000FDF706FA002DF7D102F0E2F902F0D6FBCA
:102D90003480BDE8F0810000D0000020CA0000208F
:102DA0001A0100202C0100204001002048010020D1
:102DB000FC0000201847002034010020F000002013
:102DC000F8B5044669461E4800F020FCBDF8000036
:102DD00028BB6A460021022000F06CFCBDF8000010
:102DE000E8B9FDF7D1F9174E00253560FDF7D0F9A8
:102DF000154916480A6803689A4202D9B2FBF3F0F3
:102E000010B90A21B2FBF1F06A46002100F052FC31
:102E100069460B4800F080FABDF8000008B1208038
:102E2000F8BDFDF7B1F90A490A4A0D603168116031
:102E3000094A01211170FDF7ABF92580F8BD0000AA
:102E4000AC4B00201C01002040D1000828D1000814
:102E50002C010020200100202801002002480068E9
:102E6000002800D000477047AC0000202DE9FF4F3C
:102E700083B004466248DDE91795DDE910860078E5
:102E8000DDF854A0139F10B147F24A102AE04CB16C
:102E9000059850B166B15B48006887420BD246F690
:102EA00030601FE047F2AD101CE047F24F1019E010
:102EB00046F62F6016E01298B84202D346F631600B
:102EC00010E046F27320B8F1400F0BD2B8F1000FBA
:102ED00003D0B8F13F0F02D008E04B4900E04B4966
:102EE0008C4203D0288007B0BDE8F08F204601F067
:102EF0004BFE4FF0000BA5F800B05FEAC9700AD096
:102F00005FEA897007D5304600215A4601E004C0C7
:102F1000491CB942FBD31298CDE9007906EB800534
:102F2000DDE905012B46324600F03EFB0599A16222
:102F30000699E1620499216284F83780C4F854A0AC
:102F4000A5602060BAF1000F3CD05046A0651698ED
:102F5000A76366626060A4F83C9000204FEA0B0112
:102F600004EB8002401CD16710F0FF00F8D004F1A0
:102F70006400149901F032F8204600F053F8FDF790
:102F800003F9234D2978491C2970FDF701F994F8BC
:102F9000370001F0F1F9204601F0D4FA204601F0A3
:102FA000B5FD1C490888401C08801B480078012892
:102FB0001AD0FDF7E9F82978491E11F0FF012970B0
:102FC00003D00CE015480068C0E71549098831B105
:102FD000FDF7DEF807B0BDE8F04F01F011BB07B018
:102FE000BDE8F04FFDF7D4B8FDF7CEF82978491EBB
:102FF0002970FDF7CDF807B0BDE8F04FFFF74EBCE4
:10300000BC0000203CD10008544600209045002020
:103010000401002038010020BD000020080100202C
:10302000C800002002490968002900D008477047FD
:103030009C00002070B504463D480D46007810B154
:1030400047F24E100AE03B48844202D147F24C104E
:1030500004E03948844203D147F24D10088070BD26
:103060002CB9FDF791F835490C68FDF791F8FDF79B
:103070008BF8334E3178491C3170FDF789F894F89C
:10308000360008283ED2DFE800F004080C0C1C08CB
:103090000C0C204601F08AFA13E0204602F03CF8BE
:1030A0000FE0204602F038F894F83400072808D2E0
:1030B000DFE800F00704070404040400204601F0E0
:1030C000AEF804F1640000F043FF204600F03EF843
:1030D000204601F02DFD1B490888401E088020462F
:1030E00001F052FDFF2084F83600FDF74DF83178ED
:1030F000491E3170FDF74CF800202880BDE8704073
:10310000FFF7CCBBFDF740F83178491E11F0FF0105
:10311000317007D10C49098821B1FDF739F801F068
:103120006FFA01E0FDF734F846F62D60288070BD97
:10313000BC0000209045002054460020580100208B
:103140000401002038010020C8000020024909685D
:10315000002900D008477047A00000202DE9F84F53
:10316000834650480A9D0F4600781C46164610B10B
:1031700046F2AE1009E036B149B1B1F5004F06D0C4
:1031800045F6256001E046F2D52028801CE04FF08E
:1031900000090CB1C4F80090FCF7F6FFDFF80881D5
:1031A00000902B46D8F8000022466430314600F0EB
:1031B000E9FE8246288850B1380419D546F2B0108D
:1031C00028800098FCF7E4FF0020BDE8F88F54B198
:1031D000FEF72CFB2168401AD8F8001048678A6F68
:1031E000824200D288670098FCF7D2FF5046ECE795
:1031F0002E48017829B10098FCF7CAFF46F66350C3
:10320000C3E70746012038700098FCF7C1FF002192
:103210005B460222084600F049FFFCF7B5FF39780B
:10322000491E3970FCF7B4FFFFF738FBFCF7ACFF21
:103230008246D8F8000090F8351091B101294FF07E
:10324000000726D0A6F800901CB1D8F80000006C4A
:10325000206047F2D92028805046FCF799FF384675
:10326000B3E7C76DB0F8600030807CB1D8F80000DB
:10327000006C2060FEF7DAFA0146D8F80000026C14
:10328000891A4167826F8A4200D28167A5F800904F
:10329000E2E74846A6F8009004B1206046F2A91083
:1032A000D9E70000BC0000205801002004010020E4
:1032B0002DE9FF4116460A9D1C000F4680460DD0A1
:1032C000102C0BD0B4F5004F08D0A4F500401038F6
:1032D00004D045F625602880BDE8FF81FEF7A6FAF8
:1032E0000B49097859B10021CDE90014CDE9020557
:1032F00033463A464146074800F038FCECE7CDE952
:103300000005234632463946404601F095FCE3E786
:10331000BC000020544D53477FB50D460446FCF7D2
:1033200033FF1CB1104909688C4205D1FCF730FF0E
:1033300047F2571028807FBDFCF72AFF0B48007822
:1033400058B10020CDE902050090034602460190E5
:103350002146074800F00AFC7FBD04B029462046FC
:10336000BDE8704001F0ECBC58010020BC0000201A
:103370005452455302490968002900D00847704754
:10338000A40000202DE9F0478246494814468846AB
:1033900000781E4610B146F2AE1005E031B1B1F52D
:1033A000004F03D045F62560188035E0002704B1B2
:1033B0002760FCF7E9FE3F4D81462968486CC8B19B
:1033C000401E804648640CB1086C2060FEF72EFA5F
:1033D00029680A6C801AC1F8A400D1F8A82082429A
:1033E00001D2C1F8A8004846FCF7D2FE378040461B
:1033F000BDE8F0875FEA084005D54846FCF7C8FEFF
:1034000046F2B01007E02C48017839B14846FCF785
:10341000BFFE46F6635030800020E9E78046012079
:1034200088F800004846FCF7B3FE00215346072207
:10343000084600F03BFEFCF7A7FE98F80010491E76
:1034400088F80010FCF7A4FEFFF728FAFCF79CFEB2
:103450008046286890F8351031B1012916D003292B
:103460001AD046F62E601BE074B1006C2060FEF7A7
:10347000DDF929680A6C801AC1F8A400D1F8A820E7
:10348000824201D2C1F8A80037800AE00CB1006C7A
:10349000206046F2A91003E004B1276047F2D9206A
:1034A00030802868446C4046FCF772FE20469FE757
:1034B000BC00002058010020040100207FB50D0051
:1034C0000646144606D0B5F5004F03D045F62560F4
:1034D00010800FE0FEF7AAF902460C48007860B1B0
:1034E000002001A9009015C1034602463146084854
:1034F00000F03CFB04B0002070BD04B02346294618
:103500003046BDE8704001F085BC0000BC000020E2
:10351000545349472DE9F0410546214816460F46C8
:1035200000781C4610B147F2591007E046F2D5204A
:1035300027B11EB1FCF728FE1DB104E01880BDE8DC
:10354000F08118490D684FF00008296841B195F8DD
:103550003C10C9070DD0FCF71BFE0020696A14E07F
:10356000FCF716FEC7F8008047F25210C6F800803C
:1035700007E0FCF70DFEC7F8008047F25410C6F8CC
:1035800000802080DBE7091D401C0A68002AFAD071
:103590003860A96B081A3060A4F80080CFE70000FB
:1035A000BC0000205801002010B5029C02EB8402F0
:1035B000103A4FF08074C2E90204134850604FF093
:1035C000123042F80409A2F128004FF00232C0E99B
:1035D00007134FF011318161D10041614FF0093182
:1035E00001619100C1604FF007314FF003348160F9
:1035F000610041604FF005310160C0E909245100CC
:1036000040F8041D10BD0000FD4D00081FB5104A14
:10361000904202D147F25B1004E00E4A904203D17F
:1036200047F25C1008801FBD0B4A127852B100228D
:10363000CDE902210146009213460192074800F0AD
:1036400095FA1FBD04B0BDE8104001F08FBC00002A
:103650009045002054460020BC0000205453555390
:10366000104810B5006800B18047FEF7DFF80E493A
:103670000E4A09681268914207D094314B68C31A08
:103680000B608C6823448B609439C2F89800084A18
:10369000D1F8B4301068834201D2C1F8B4000020E0
:1036A000106010BDB0000020580100205C01002017
:1036B000000100202DE9F0410646254888461546C0
:1036C000007810B147F275202FE0224C207810B11D
:1036D00046F6635029E0080008D0022806D00428E6
:1036E00005D0082902D045F625601EE0DEB1FCF7C2
:1036F0004BFD2178491C2170FCF74AFD164F012132
:103700002B463868424680F83610314601F098FC66
:10371000288868B1FCF738FD2178491E2170BDE882
:10372000F041FCF735BD47F27E201080BDE8F08106
:10373000386800F03BFFFCF727FD2178491E217017
:10374000FCF726FDFFF7AAF800202880EEE700002E
:10375000BC00002004010020580100202DE9F047A2
:103760004B4EDDE90854367816B147F2752088E0F3
:10377000DFF820A19AF8006016B146F6635080E0A9
:1037800015F00E0647F27E2945F6256705D0022E74
:1037900003D0042E05D0082E06D113B90AB901B9F9
:1037A000F0B335F01E0C02D02780BDE8F087C5F3DA
:1037B000001547F2792C47F278284FF47A7735B123
:1037C00042F20F75A94211D9A4F800C0EDE7BB423F
:1037D00002D347F27B2054E03B2A02D947F27A20F9
:1037E0004FE03B29F0D8632802D804E0B84202D366
:1037F000A4F80080D9E7284D4FF4FA7CC1EB011101
:103800002D68BCFBF5FC63446B43B3FBF7F34FF44B
:103810006167784300EB8100104400FB053700E04E
:1038200031E087B3FCF7B0FC9AF800105546491C0C
:103830008AF80010FCF7ACFCDFF860800121234619
:10384000D8F80000324680F83610394601F0F8FB0F
:10385000208840B1FCF798FC2978491E2970BDE802
:10386000F047FCF795BCD8F8000000F09FFEFCF78D
:103870008BFC2978491E2970FCF78AFCFFF70EF8AB
:103880000020208091E7FFE7A4F800908DE700007A
:10389000BC0000200401002040D100085801002095
:1038A00070B50546FCF770FC03490C68FCF770FC2A
:1038B00000202880204670BD3C01002000B585B066
:1038C00000F01CF8FDF7B2FF04AA0021039200915A
:1038D000CDE9011006480749002300781A4600EB9D
:1038E000400001EB8001044800F040F905B000BD44
:1038F000EA000020244700205449434B0248006856
:10390000002800D000477047B40000207047000036
:1039100030B4064C029D246844F8802F0022238195
:1039200062602B4630BC012200F0C0BB5801002071
:103930000022074B05A14261C161196819B181617B
:103940004861186070478261FBE7000020000000BA
:10395000D4000020034A00211160034A1180018035
:1039600070470000D4000020D80000202DE9F04767
:1039700090469A460D460446089FFCF705FC014612
:103980005FEA08000FD0012810D0B0F5004F0AD030
:103990006FF4004218EB020008D00846FCF7F8FB71
:1039A00045F6256072E0206A284301E0206AA843BA
:1039B000C4E9080A208A04F108064FF0000940B162
:1039C000344D2878401C28700846FCF7E1FB366827
:1039D00038E00846FCF7DCFBA7F80090206ABDE859
:1039E000F08790F88810766801F00F01012918D04F
:1039F00002291ED004290AD008290DD0FCF7C4FBE7
:103A00002978491E11F0FF01297033D03AE0216A6C
:103A1000D0F88020114009E0216AD0F880201140C0
:103A20000BE0D0F88010236A0A4699438A4205D0F9
:103A300007E0D0F88010226A914311B1524600F09D
:103A40002DF816B1B0680028CBD1FCF79DFB297882
:103A5000491E2970FCF79CFB5FEA084001D4FEF781
:103A60001DFFFCF791FB246AFCF792FBA7F800907E
:103A70002046B4E70849098821B1FCF789FB00F02A
:103A8000BFFD01E0FCF784FB43F6FF2038800020F7
:103A9000A5E7000004010020C800002070B500F177
:103AA000340400252165657025700264A078343CDB
:103AB00008280ED2DFE800F00D0D04040D0D0A0AEF
:103AC000204601F02FF984F8365002E0042084F8F3
:103AD00036002046BDE8704000F0A1BB074C084D01
:103AE000FCF752FB2168491C21602968491C2960A8
:103AF000FCF74EFBFEF75CFAF2E70000B80000208E
:103B00001C01002000B50E4A89B0002111600B2273
:103B100005910691CDE907200A480B4A0B4B006836
:103B200012681B680292CDE903013F20CDE9000332
:103B30000023074A07A10C48FFF798F909B000BD18
:103B4000B8000020F4D00008F0D00008ECD0000845
:103B5000DD3A000875432F4F532D494949204964E8
:103B60006C65205461736B00904500202DE9F05F77
:103B70001E46DDE90AAB90460F4681460D9CFCF7D8
:103B800003FB05461C481D4A0188128891422BD22E
:103B9000491C89B201801A4802888A4200D20180F9
:103BA00018490868C0F80090C0E902780682C0F899
:103BB00014A0A0F818B00C9AC261406808601248BE
:103BC00001210181114901604160002000F0D4FB16
:103BD0000F48007808B10F4908700020208028465F
:103BE000BDE8F05FFCF7D4BA0B490888401C088098
:103BF00044F25360F2E70000C8000020E4D000085F
:103C0000CA000020C00000202447002054460020A5
:103C1000EA000020EC000020CC0000203EB5374C2C
:103C2000374B02A920680268D51A9A4245D015DCA4
:103C3000344BD2182DD0344BD21822D0334BD2185B
:103C400032D0334BD21808D1C269CDE90021038BA1
:103C5000028A083003C800F0EFFF3EBD2D4AAA18C3
:103C60001ED02D4BD21824D02C4BD218F5D1C269BE
:103C7000CDE90021038B028A083003C800F0BAFBAB
:103C80003EBD0091028BC36941698068FFF76EFEFB
:103C90003EBD018BC269806802AB00F051FD3EBDA4
:103CA000806801F04DF83EBD018BC269806802ABAF
:103CB00021E0806801F05AF93EBD194819490078A1
:103CC00000EB400001EB800000F0EAFC206802AB52
:103CD0000021C269144801F09DF814480168491E8A
:103CE0000160E9D1124909680160FDF79FFD0246B4
:103CF00002AB00210F4801F08DF83EBDC40000204A
:103D00005449434BADBAB2BE0DF90BFAF2F8F7FFC6
:103D10000006F6FF00F7FDF700FFEFFF03FE0FFEC2
:103D2000EC00002024470020E84A00205401002035
:103D300050010020AC4B00201A4D1B4CDFF86C806A
:103D4000002700BFFCF720FA06462088E8B130467D
:103D5000FCF71EFAFDF76AFD0646FFF75FFFFDF769
:103D600065FD2968801B814200D22860FCF70CFAAF
:103D7000D8F800205268C8F800202188491E218008
:103D8000FCF706FA002FDDD0D8E7094900200881AA
:103D90000860486000F000FB3046FCF7F9F9FEF7D8
:103DA0007DFDCBE7D0000020C8000020C40000202B
:103DB00024470020F0B52C492C4D89B000220A8000
:103DC000296831B12A4E3188022905D244F2546162
:103DD0002FE044F252612CE026490023264F0A606E
:103DE000296801F120040AE08A600F60CA600A8233
:103DF0004A610A834C60203120345B1C9BB2B6F8C8
:103E000000C06345F0D32B6841F81C3C1B490B6094
:103E10001B490B601B490A801B490A801B490B6820
:103E200053B11B4B1B4D1C682D68AC4207D244F2AA
:103E30005661018009B0F0BD44F25561F9E70324F1
:103E400005920692CDE907401868134B09681B6874
:103E5000CDE903020092CDE9011300230F4A10A11E
:103E60001648FFF703F8E5E7CC000020FCD0000877
:103E7000E4D00008D00000204E4F4E45C000002086
:103E8000C4000020C8000020CA00002004D100089F
:103E90000CD100083CD1000808D10008393D0008C9
:103EA00075432F4F532D494949204953522051758D
:103EB000657565205461736B000000005446002056
:103EC000034A00211160034A1180018070470000FD
:103ED000DC000020E000002010B5491E8CB2002359
:103EE00000F11002194607E0C0E900210181C1601C
:103EF000103010325B1C9BB2A342F5D301604160CD
:103F00000181C16010BD000070B50E4E04463068DE
:103F100080B10D4D288880B181B23068FFF7DCFF99
:103F20000A4831680160298881800021C1800181AF
:103F3000218070BD45F21E7001E045F21D702080A9
:103F400070BD000024D10008E6D00008184700200A
:103F500010B5428992B10A4903680C681C60436835
:103F60000B60CB8844891B1BCB808B8844892344FE
:103F70008B8000214181818101604160104610BD2C
:103F800018470020F0B544890025CCB14468278942
:103F900066680F800AB1E168116021684160B9B1BB
:103FA0004189491E41810C48016821600460818873
:103FB000491C8180C188491EC1801D803046F0BDEA
:103FC0000D8002B1156046F2925018800020F0BDBD
:103FD00005604581E7E700001847002001810021C6
:103FE000418181810160416070470000F0B54489E2
:103FF000DDE905E70589AC4202D346F293501EE0A5
:104000001A4DAE88CEB12C68761ED4F800C0C5F823
:1040100000C0AE80EE88761CB6B2EE80B5F808C05F
:10402000B44500D22E814689002556B1DB060CD45A
:1040300003681C60256004600AE045F21D7038804A
:10404000F0BD04600123446004E0436823604460E1
:1040500043895B1C438186899BB29E4200D2838147
:1040600061602281C4F80CE03D80F0BD184700205B
:104070000022074B05A14261C161196819B1816134
:104080004861186070478261FBE700002000000073
:10409000E4000020034A00211160034A11800180DE
:1040A00070470000E4000020E80000202DE9F04106
:1040B000114D07460C4628680026194680F8342022
:1040C00080F8356000F00CFD64B1FC6004F1080676
:1040D00001223946286800F011F83946304600F0D0
:1040E00071F802E02868C687066320462968BDE8A3
:1040F000F04100F017B800005801002010B5C28749
:1041000000242346016309E04B600B600B614B61A7
:104110000B83CB6188602031641CA4B29442F3D33A
:1041200010BD000038B14268C1F8C02081688968BC
:10413000096AC161704791F83400022803D007284A
:1041400003D004A002E004A000E005A0C1F8C00074
:1041500070470000200000005461736B2051000084
:104160005461736B2053656D00000000054AC1F86F
:10417000C020816819B18968096AC1617047C2614C
:104180007047000074D1000870B580F83710C68FF2
:10419000056B0FE0EC6808342089012807D929460F
:1041A000204600F04FF82946204600F00BF8203555
:1041B000761EB6B2002EEDD170BD002101604160C7
:1041C0000181704730B58A68002392F83740028930
:1041D0001AB1521C028102680BE0012202814B607D
:1041E0000B60016014E0956895F83750A54203D83C
:1041F0005268002AF7D107E032B1146854B1C1E91E
:1042000000426160116030BD4B6042680A605160DD
:10421000416030BD1160C1E90032016030BD70B550
:104220000646C48F056B07E0E8682946083000F0B1
:1042300009F82035641EA4B2002CF5D10020F087C7
:10424000306370BD10B502890023012A0BD00A68C3
:1042500062B14C6874B1546022600289521E0281BE
:104260004B600B6010BD03604360F6E74A68136063
:104270000260F2E753604260EFE7F8B50C4606468D
:1042800091F83610002506981F4608293AD2DFE833
:1042900001F0393904043939212194F83410032903
:1042A00011D0E265A4F86070206436B12046FFF7B3
:1042B000B6FF21463046FFF759FF204600F032FD99
:1042C0003434A5701CE000903B462146304600F097
:1042D00021F8EAE794F83410032914D0E265A4F831
:1042E00060702064204600F017FF36B12046FFF7CB
:1042F00096FF21463046FFF739FF04203434A07082
:1043000065702570F8BD00903B462146304600F0B0
:1043100001F8E7E770B50C6B049DC98F0AE0E66809
:10432000864204D1C4E904022383E56170BD2034D0
:10433000491E89B20029F2D170BD000010B50024D9
:10434000064802E02034E4B2001D01680029F9D0DB
:104350000846FBF724FF2044C0B210BD94000020A3
:1043600000200449024600BF41F82020401C0228DA
:10437000FAD370479400002000F01F024109012089
:10438000C2F11F029040034A52F82130034342F821
:10439000213070479400002000F01F0241090120E5
:1043A000C2F11F029040034A52F82130834342F881
:1043B00021307047940000200022074B05A1426184
:1043C000C161196819B181614861186070478261E3
:1043D000FBE7000020000000F0000020034A00215D
:1043E0001160034A1180018070470000F000002036
:1043F000F40000202DE9FF4F83B09346DDE910A9BA
:104400001F460646FBF7C0FE294C2178491C217047
:10441000FBF7BEFE358A06F108001DB1B90525D5AA
:10442000006832E0F80601D4002300E01023CDE953
:1044300000A95A4606F120000499FFF7D7FDFBF7C3
:10444000A3FE2178491E11F0FF01217009D11949FD
:10445000098831B1FBF79CFE07B0BDE8F04F00F0D2
:10446000CFB807B0BDE8F04FFBF792BE006801255A
:10447000001D5B4603C88046CDF800A03046049A74
:10448000FFF7FBFE6D1E4046ADB2002DF0D1FBF7ED
:104490007BFE2178491E2170FBF77AFE380401D497
:1044A000FEF7FCF90021A9F8001007B0BDE8F08F75
:1044B00004010020C80000200020074B014600BF77
:1044C00000EB400203EB8202401C11811160C0B27C
:1044D00051604028F4D370472447002010B50446AB
:1044E00090F83700FFF748FF074994F8370009783C
:1044F0008842204603D1BDE8104000F023B8BDE853
:10450000104000F003B80000EA00002090F83710D7
:104510000B4A01EB410102EB810100220B8943B1FF
:104520005B1C0B810B68C0E903320A6810610860EC
:10453000704701230B81C2600261086048607047C8
:104540002447002090F837100A4A01EB410102EBA2
:10455000810100220B893BB15B1C0B81C2604A6860
:104560000261D0604860704701230B81C260026124
:104570000860F7E72447002010B50289002A14D00C
:10458000012A12D00021022A07D0D0E90024D368E2
:104590001961C2E90314E26005E0D0E90023C2E931
:1045A0000313C3E90321C0E9003210BD70B505460D
:1045B00090F83700114900EB400001EB8001D5E98C
:1045C0000302002442B10B895B1E0B81D06090B1C5
:1045D00002612C61EC6070BD28B10A89521E0A810B
:1045E00004610860F5E70C810C604C6095F83700B9
:1045F000FFF7D2FEEDE74A60EBE70000244700201A
:1046000010B5FBF7C1FD0B4A002111700B4A0A4996
:10461000116051F8902F521C0A6009490A68521C17
:104620000A60084A4FF080511160BDE81040FBF766
:10463000AFBD0000EB000020544600205C010020CC
:104640003001002004ED00E0044810B50078012896
:1046500003D1FDF7EBF80249086010BD040100200A
:10466000F80000200A4810B5007800280ED1FDF7A8
:10467000DDF808490968401A07490A68824200D2F1
:10468000086006490A68824200D2086010BD000036
:1046900004010020F8000020FC00002000010020A0
:1046A00070B5044613480078012822D1FBF76CFD51
:1046B0002168054641B11048814218D08A6D3AB14F
:1046C000521E8A6513D103E0BDE87040FBF760BD60
:1046D000208902280BD30948007840B92046FFF70B
:1046E0004BFF2068416D09B9054909688165284675
:1046F000EAE770BD0C010020904500200401002075
:10470000080100200022074B05A14261C161196820
:1047100019B181614861186070478261FBE7000050
:104720002000000010010020034A00211160034A0C
:10473000118001807047000010010020140100204A
:104740002DE9F84F88461E4691460446FBF71CFDAE
:104750000146208A04F108074FF0000B78B1DFF81A
:1047600090A008469AF80020521C8AF80020FBF717
:104770000FFD5FEA885018D53D893F6822E0256A21
:10478000681C0AD06D1CC4E908590846FBF700FDF7
:10479000A6F800B02846BDE8F88F0846FBF7F8FCFD
:1047A00046F6C55030800020F5E73F68012500231C
:1047B000B9687F681A462046CDF80090FFF75DFD86
:1047C0006D1EADB2002DF2D1246AFBF7DDFC9AF824
:1047D0000020521E8AF80020FBF7DAFC5FEA08404E
:1047E00001D4FEF75BF8A6F800B02046D3E700003E
:1047F000040100201CB57A4C7A4E2068450004E084
:104800006A4600212846FEF755FF30780128F7D187
:104810006846FEF775FA7448216802688A4204D92E
:10482000B2FBF1F9B9F1000F02D10A21B2FBF1F9A3
:10483000DFF8B8B1DFF8B88142F2107A5FF0000615
:10484000FCF7F4FF0190FBF79FFC6A496A4C0A6889
:1048500022600E60FBF79CFC6848236802689A425D
:104860002BD96748824202D25046012115E06548A3
:10487000824203D24FF47A700A210EE062488242EB
:1048800002D26420014608E06048824203D20A2036
:104890004FF47A7101E001205146B2FBF1F1584327
:1048A000B0FBF1F1AAEB0100594980B2ABF800006E
:1048B0000A88824203D2088001E0ABF800A0FEF72C
:1048C000CDFA0024FBF760FCD8F8005024E000BFCC
:1048D000FBF75AFC4F4F3978491C3970FBF758FCED
:1048E00055F89C0F65E82760FBF74EFC3978491EA8
:1048F00011F0FF01397007D14749098821B1FBF751
:1049000047FCFFF77DFE01E0FBF742FC55F8A00FE6
:104910000444FBF739FCED69FBF73AFC002DD7D1D5
:10492000F4B13748844202D25546012015E035489B
:10493000844203D24FF47A750A200EE03248844252
:1049400002D26425284608E03048844203D20A2572
:104950004FF47A7001E001255046B4FBF0F701E016
:1049600000250127FBF710FCD8F800401CE000BF31
:10497000D4F8A0006843B0FBF7F080B2504500D9EE
:104980005046A4F88C00B4F88E10814201D2A4F8ED
:104990008E0004F1AC026B46111D2046FEF7BAFDF5
:1049A000FBF7F2FBD4F8BC40FBF7F2FB002CDFD1A5
:1049B0001A480178012903D106706846FEF7A0F96C
:1049C000FCF734FF0199401A15490A68824200D267
:1049D00008606A4600214846FEF76CFE30E700009A
:1049E00028D100082801002040D10008180100202B
:1049F000340100201C01002024010020200100209F
:104A0000801A060000093D00005A62020084D71790
:104A10001A01002004010020C80000201601002017
:104A20002C01002030B51D4A89B0002111601C4ABC
:104A300011601C4A11601C4A11701C4A11701C4AFA
:104A4000136843B11B4B1C4D1C682D68AC4205D24A
:104A500046F62C6108E046F62B6105E0174C2578F8
:104A60003F2D04D346F62A61018009B030BD0325ED
:104A700005910691CDE9075011481B68126800683E
:104A8000CDE90120CDE903312078009000230D4AC3
:104A90000DA11248FEF7EAF9E7E700001C0100202B
:104AA0002401002020010020280100201601002000
:104AB0002CD1000834D100083CD10008E0D0000817
:104AC00030D10008F547000875432F4F532D494951
:104AD000492053746174205461736B00244A002090
:104AE00038B50446022531B16B46022200F0A8FA1F
:104AF000BDF8000028B184F836502046FFF756FD77
:104B000038BD032084F83600F7E70000074B002289
:104B1000C0F8B820196829B1C0F8BC10C1F8B800B5
:104B200018607047C0F8BC20FAE70000340100208C
:104B3000D0E92E21002342B179B1C2F8BC10B830BF
:104B4000C1F8B820436003607047064A116009B19C
:104B5000C1F8B830C0F8BC307047C2F8BC30C0F8FB
:104B6000B830704734010020044A00211160044A23
:104B70001180044A11600180704700003401002058
:104B8000380100203001002070B5002505608560E7
:104B90004560C560056145610446856123A0C4E99F
:104BA00007506562A562E5622564E565A4F860507A
:104BB000294604F16400FFF711FA44F8745F656058
:104BC000E560A5822561743C5FF0000004EB800184
:104BD000401CCD6710F0FF00F8D034344FF0004097
:104BE000256125676567656084F85650E567A567A8
:104BF0002581C4E90505E56125626562A4F8585080
:104C0000A4F85A50E5652566FCF710FEC4E91905BD
:104C1000C4F8805025706570A5704020E070C4F81D
:104C20008450883403A0C4E9005070BD3F546173C0
:104C30006B000000200000002DE9FC5F9246DDE9DA
:104C40000C7699468B460546FBF79EFA324C217846
:104C5000491C2170FBF79CFA0DB93048056800200B
:104C6000308095F83600DFF8B88008283CD2DFE8BD
:104C700000F004041E1E04041E1ECDE900764B46FF
:104C80005246594605F16400FFF7B0F9FBF77CFA8C
:104C90002178491E11F0FF01217021D1B8F80010D0
:104CA000F1B1FBF775FABDE8FC5FFFF7A9BC95F819
:104CB00034000228E1D153465A4629460020009785
:104CC000FFF7DBFAFBF760FA2178491E2170FBF74A
:104CD0005FFA5FEA09401CD4BDE8FC5FFDF7DEBD6A
:104CE000BDE8FC5FFBF754BAFBF74EFA2178491E8A
:104CF00011F0FF01217007D1B8F8001021B1FBF7C6
:104D000047FAFFF77DFC01E0FBF742FA46F62D601B
:104D10003080BDE8FC9F0000040100205801002005
:104D2000C800002010B5044600F0F6F994F83600EB
:104D3000400704D42046BDE81040FFF7CFBB10BDAC
:104D400070B50D460446FBF71FFA00262E8094F836
:104D5000361008294AD2DFE801F0040404040A23CB
:104D6000333DFBF715FA47F25310288024E0224D1B
:104D70002978491C2970FBF70BFA94F88A00401E29
:104D800010F0FF0084F88A0004D184F836602046D1
:104D9000FFF7C8FFFBF7F8F92978491E297009E0E9
:104DA00094F88A10491E11F0FF0184F88A1001D18D
:104DB000012118E0FBF7ECF9BDE87040FDF76EBD8E
:104DC00094F88A10491E11F0FF0184F88A10F1D17D
:104DD000022108E094F88A10491E11F0FF0184F8BE
:104DE0008A10E7D1032184F83610E3E7FBF7D0F906
:104DF00046F62D60288070BD04010020044808B5E7
:104E00000068FEF7B7FA69460020FEF713F908BDFF
:104E1000580100202DE9F84F1E4690468A46054667
:104E2000FBF7B2F94E4C01462078401C2070084632
:104E3000FBF7AEF90DB94B48056800204A4FC5F89D
:104E40004080308095F8360046F6C55908286FD264
:104E5000DFE800F004042E2E04042E2ED5F8448042
:104E600018F1010051D08046C5F84480FBF78CF959
:104E70002178491E11F0FF0121700ED015E000BF0E
:104E8000FBF786F9FFF7BCFB02E000BFFBF780F9F8
:104E9000A6F800900020BDE8F88F398829B100BF3E
:104EA000FBF776F9FFF7ACFB58E0FBF771F955E03B
:104EB00095F83400072811D0D5F8448018F1010086
:104EC00023D08046C5F84480FBF75EF90146207880
:104ED000401E10F0FF00207023D026E000231A4669
:104EE00029461846CDF80080FFF7C7F9D5F8448069
:104EF000FBF74AF92178491E2170FBF749F95FEA6F
:104F00000A402BD4FDF7CAFC28E0FBF73DF92178D5
:104F1000491E11F0FF012170B8D139880029B5D0A0
:104F2000AEE7388808B10846BAE70846BDE7FFE7AC
:104F3000FBF72AF92178491E11F0FF01217006D1F3
:104F4000398821B1FBF724F9FFF75AFB01E0FBF7A1
:104F50001FF946F62D6030804FF0000840469AE772
:104F60000401002058010020C80000202DE9F04174
:104F70000F460446FBF708F9244904B90C68096890
:104F8000234D8C4206D1297821B1FBF701F946F671
:104F9000635038E00021398094F836100126082942
:104FA0002DD2DFE801F004171F21272727272978B2
:104FB000491C2970FBF7ECF8042084F8360084F8CB
:104FC0008A602046FFF7F2FAFBF7DEF82978491EDF
:104FD000297001E0052108E0FBF7DAF8BDE8F041AF
:104FE000FDF75CBC062100E0072184F8361084F848
:104FF0008A60F1E714F88A1F491C2170ECE7FBF77F
:10500000C7F846F62D603880BDE8F08158010020D1
:105010000401002010B500200146074C074B06E0B4
:1050200004EBC002401C11609180D18080B21A88CC
:105030009042F5D310BD000080420020E8D0000867
:10504000F0B5324C47F27E2625680024042A08D0A9
:10505000B1B32E4E082A36680E440BD0C0E9136156
:1050600015E04A1B521E12F5803F2AD8521CC0E997
:1050700013120CE0826C0A44571B7F1E8F4201D230
:10508000C26400E0C664C16C4A1B02658164204AA8
:10509000C16C1288B1FBF2F602FB16111D4A89B2EF
:1050A00002EBC102918889B11168F1B1CE6C761B17
:1050B0000E65076DB74212D94E6966B13146F5E704
:1050C000FFE7C4640465C4611E80F0BD446184616F
:1050D000012110600BE0C0E90541486105E08D69E0
:1050E00075B1C0E90515686188619188491C918096
:1050F000D58889B28D4200D2D180C2611C80F0BDBA
:10510000C0E9051488611060EFE700003C01002051
:10511000E8D000088042002010B5C269002A15D0EE
:10512000002101651368834204D14369136033B1E0
:10513000996104E0D0E90534636103B19C61416188
:105140008161C161C1649088401E908010BD0000E3
:1051500010B500200446064B064A04E003EBC001EC
:10516000401CCC8080B211888842F7D310BD00006B
:1051700080420020E8D000082DE9F05FFBF704F83A
:105180004D4F3978491C3970FBF702F8FCF74EFB9C
:10519000DFF8288106464A49D8F800004FF0000998
:1051A000401CC8F800000988CA46B0FBF1F201FBB8
:1051B0001200444980B24FF0030B51F8304074B3F1
:1051C00094F836006569082855D2DFE800F05404E9
:1051D000541154295437E06CD8F80010421A226553
:1051E00088424CD184F836A02046FFF79BFD40E072
:1051F000E06CD8F80010421A226588423FD1C4F80A
:105200005CA0A4F860A0FCF711FB20642046FFF727
:1052100006F82046FFF786FD84F836A025E02EE04C
:10522000E16CD8F800000A1A2265814227D10420D7
:1052300084F836002046FFF76FFF1AE0E16CD8F8DB
:1052400000000A1A2265814219D1C4F85CA0A4F8B2
:1052500060A0FCF7EBFA20642046FEF7E0FF204652
:10526000FFF75AFF042084F8360084F835B084F83C
:1052700034A02C46A3E72C46B9F1000F9FD0FCF7D1
:10528000D5FA1149801B0A68824200D20860FAF7F9
:105290007BFF3978491E11F0FF01397008D10B49A5
:1052A000098829B1FAF774FFBDE8F05FFFF7A8B9E4
:1052B000BDE8F05FFAF76CBF040100203C0100205C
:1052C000E8D000088042002040010020C8000020F3
:1052D0001CB5084C00216B4601AA0846FEF752F89F
:1052E000BDF800000028F5D120780128F2D1FFF7A1
:1052F00043FFEFE7BD00002030B504461A4889B0EF
:105300000025056019480560FFF784FE184801680C
:1053100041B11849184B0A681B689A4205D247F2F6
:10532000132008E047F2122005E0144A13783F2BBF
:1053300004D347F21120208009B030BD0B2305951E
:105340000695CDE907340E4B096800681B68CDE966
:105350000103CDE90315107800900023094A0AA142
:105360000E48FDF783FDE7E73C01002040010020E7
:1053700044D100084CD100083CD10008E1D000081D
:1053800048D10008D152000875432F4F532D494989
:1053900049205469636B205461736B00E84A002014
:1053A00030B52A4A89B00021294B1160294C2A4A7C
:1053B0001D681DB12468B4FBF5F303E023680A24DB
:1053C000B3FBF4F313601A46244B274D274C1A60A5
:1053D000234A1160234A1160002206E005EBC20354
:1053E000521C9980D98092B2196023889A42F5D3D1
:1053F0001F4B1A6842B11F4A1F4D14682D68AC42FA
:1054000005D247F2483108E047F2473105E01B4C2E
:1054100025783F2D04D347F24631018009B030BDD5
:105420000B2505910691CDE907501068144A1B68B9
:105430001268CDE90301CDE9013220780090002304
:10544000104A11A11648FDF711FDE7E744010020BD
:1054500058D1000840D1000850010020540100201C
:105460004C0100204801002008450020EAD0000837
:105470005CD1000864D100083CD10008E2D00008EB
:1054800060D100086555000875432F4F532D4949D9
:10549000492054696D6572205461736B00000000EF
:1054A000AC4B002070B5022280F82A20204A012946
:1054B00014681ED0016AE1B11E4A2144816112883C
:1054C000B1FBF2F302FB13121B4B92B203EBC202CD
:1054D000002315687DB1091BC1611168D1B18D69C7
:1054E0002D1BCD61C669AE420ED90D6945B1294665
:1054F000F5E7416AE0E703614361106001200BE0DA
:10550000C0E90431086105E04C6964B1C0E90414E4
:10551000206148619088401C9080D18880B281428F
:1055200000D2D08070BDC0E9041348611060F1E77B
:105530004C010020EAD000080845002010B50020EA
:105540000446064B064A04E003EBC001401CCC8035
:1055500080B211888842F7D310BD000008450020B2
:10556000EAD000081CB5DFF89090DFF890A0244D39
:10557000DFF890B000216B4601AA0846FDF702FF54
:105580006846FDF7C9F9FCF751F9064628684FF05F
:105590000308401C2860B9F80010B0FBF1F201FBD1
:1055A000120080B25AF83040C4B1A1692868276956
:1055B000814213D1204600F027F8208D022808D020
:1055C00084F82A80A26812B12046E16890473C46E0
:1055D000EAE701212046FFF765FFF3E7FCF726F92C
:1055E000841B6846FDF7E6F9DBF80010A142C1D242
:1055F000CBF80040BEE70000EAD0000808450020D4
:105600004C0100204801002010B5104A8169128821
:10561000B1FBF2F302FB13110D4A89B202EBC10296
:10562000002314680169844203D1116029B14B61E0
:1056300003E04469216101B14C61012180F82A1025
:10564000036143619088401E908010BDEAD000083D
:1056500008450020034A516821F44041014351604C
:105660007047000000100240044A0029516901D02F
:10567000014300E081435161704700000010024087
:10568000044A0029D16901D0014300E08143D1617E
:105690007047000000100240044A0029116901D03F
:1056A000014300E081431161704700000010024097
:1056B000044A0029916901D0014300E081439161CE
:1056C000704700000010024010B500F003F94FF4DD
:1056D0000040FFF7BFFF01210846FFF7E9FF012166
:1056E0000846FFF7C1FF01214802FFF7E1FF012152
:1056F000BDE810401020FFF7DBBF0000234A10B5C3
:105700005168234B11F00C0103D0042903D0082960
:1057100003D0036016E01F4913E05168536801F499
:1057200070114FF0020413F4803F04EB914104D058
:1057300053689B0303D5184B02E0184B00E0154B50
:10574000594301605168164B01F0F00109095C5C96
:105750000168E1404160546804F4E064240A1C5D7F
:1057600021FA04F48460546804F46054E40A1B5D74
:10577000D940C16052680A4B02F44042920B1B1F91
:105780009A5CB1FBF2F1016110BD00000010024013
:1057900000127A00001BB700808D5B0000093D00FD
:1057A0006C0000200029018802D041F0400101E096
:1057B00021F04001018070470246002012890A4210
:1057C00000D001207047808970478181704730B5D3
:1057D00002884C8802F441530A88CD8822438C8881
:1057E0002C4322430C8922434C8922438C89224337
:1057F000CC8922431A430280828B22F40062828386
:10580000098A018230BD000022480021026842F46A
:10581000803202604FF4A063026801F1010112F4CA
:10582000003F01D19942F7D10168890330D51A4967
:105830000A6842F010020A600A6822F003020A6055
:105840000A6842F002020A604168416041684160B2
:10585000416841F480614160416821F47C114160FC
:10586000416841F488114160016841F08071016034
:1058700001688901FCD5416821F00301416041685C
:1058800041F0020141604168C1F381010229FAD16E
:105890007047000000100240002002404FF0E0215D
:1058A0000428086903D020F004000861704740F024
:1058B0000400FAE7064810B50078012807D1FCF784
:1058C0005BFCFDF7FBFFBDE81040FCF765BC10BDBD
:1058D000BD0000200F4810B5016841F001010160D2
:1058E00041680D4A1140416001680C4A1140016055
:1058F000016821F480210160416821F4FE014160CA
:105900004FF41F018160FFF77FFF05494FF00060F2
:10591000086010BD001002400000FFF8FFFFF6FE17
:1059200008ED00E0064810B50078002807D0FCF725
:1059300023FCFBF78CFCBDE81040FCF72DBC10BD30
:10594000BD0000200029818902D041F4005101E00E
:1059500021F4005181817047F0B5064685B00121E0
:105960000520FFF7A5FE01214804FFF789FE042466
:10597000ADF8104018208DF81300194F03258DF84D
:10598000125004A93846FCF76BF80820ADF8100057
:105990008DF813408DF8125004A93846FCF760F8D2
:1059A0000020ADF80400ADF80600ADF80800ADF831
:1059B0000C000C200B4CADF80A00009669462046FE
:1059C00000F050F8FCF7EAF8012240F22551204699
:1059D00000F030F801212046FFF7B4FF05B0F0BD1C
:1059E00000080140004400400246002012880A429C
:1059F00000D00120704730B501F01F0201240025BE
:105A0000C1F3421304FA02F2012B0FD0022B0FD084
:105A1000838A4FEA11210088134204FA01F400EA54
:105A2000040001D000B10125284630BD8389F0E78C
:105A3000038AEEE710B5C1F3421301F01F04012100
:105A4000A140012B07D0022B07D01430002A026896
:105A500005D00A4304E00C30F8E71030F6E78A433B
:105A6000026010BD30B50446008A85B00D464CF684
:105A7000FF710840E98801432182A1894EF6F310A5
:105A80000140A8882A8910436A890A431043A081EB
:105A9000A08A4FF6FF410840A9890143A1826846C8
:105AA000FFF72CFE1B48844201D1039800E00298C6
:105AB000A1890904002900EBC00101EB001029684D
:105AC00002DA4FEA410101E04FEA8101B0FBF1F057
:105AD0006422B0FBF2F14FEA01114FEA11136FF0AB
