:020000040800F2
:100000003073002009250008112500081325000879
:100010001525000817250008192500080000000014
:100020000000000000000000000000001B25000888
:100030001D250008000000006BE3000825DA000819
:10004000EF240008232500082325000823250008A5
:100050002325000823250008232500082325000860
:100060002325000823250008232500082325000850
:100070002325000823250008232500082325000840
:100080002325000823250008232500082325000830
:100090002325000823250008232500082325000820
:1000A0002325000823250008232500082325000810
:1000B0002325000823250008232500082325000800
:1000C00023250008232500082325000823250008F0
:1000D000232500082325000823250008A720000861
:1000E00023250008232500082325000823250008D0
:1000F00023250008232500082325000823250008C0
:1001000023250008232500082325000823250008AF
:10011000232500082325000823250008232500089F
:10012000232500082325000823250008232500088F
:10013000DFF80CD00EF06CF800480047D53400080A
:1001400030730020014600BF704700BF5B4A128831
:1001500012F0400FFAD0C2B2584B1B1D1A807047E4
:1001600010B503F0A7FA10BD5548806940F00100B2
:10017000534988615348406820F0E0605149486025
:100180000846406840F080604860704708B54FF40A
:10019000806002F0CBF927208DF8000000208DF858
:1001A00001008DF8020001208DF80300684602F07E
:1001B000C2F925208DF8000000208DF801008DF88F
:1001C000020001208DF80300684602F0B4F93420E3
:1001D0008DF8000000208DF801008DF8020001204C
:1001E0008DF80300684602F0A6F926208DF800007D
:1001F00000208DF801008DF8020001208DF8030029
:10020000684602F098F908BD10B586B00446012191
:10021000052002F02BFD0121480402F034FD0420EA
:10022000ADF8140018208DF8170003208DF8160083
:1002300005A9254802F048FA0820ADF8140004206A
:100240008DF8170003208DF8160005A91E4802F04E
:100250003BFA01940020ADF80800ADF80A00ADF8B3
:100260000C00ADF810000C20ADF80E0001A91348E9
:1002700002F031FFFFF78AFF012240F225510F48BB
:1002800002F0C1FF01210D4802F0B1FF06B010BD20
:10029000704710B5FFF764FFFFF7FAFF4FF4E13046
:1002A000FFF7B2FFFFF772FF01F01CFC40F6FF7191
:1002B000062002F0D1F802F04DF810BD00440040D5
:1002C000001002400000014000080140F7480068AB
:1002D000704770B504460D462CB9AC4201D00120E0
:1002E00070BD0020FCE70DB90120F9E705E020789A
:1002F00008B90020F4E7641C6D1C20780DF057FC51
:10030000064628780DF053FC8642F0D020780DF098
:100310004EFC064628780DF04AFC301AE0E770B52E
:10032000044620460DF08CFC451C2846E04909682F
:100330008847060000D170BD2A46214630460DF0A0
:100340003CFC3046F7E730B9DA49D94A1160DA495E
:10035000DA4A11607047016809B1016800E0D549C7
:10036000D34A1160416809B1416800E0D249D34ADB
:10037000116000BFEEE710B52820CD490968884715
:1003800004461CB1282120460DF030FC204610BD4B
:1003900070B504461EE02568A08910F4807F04D162
:1003A000A06810B1A068FFF7F3FFA08910F4807F68
:1003B00005D1206918B1C149206909688847206AB8
:1003C00018B1BE49206A096888472046BB490968B8
:1003D00088472C46002CDED170BD2DE9F04F8BB044
:1003E00083468A460020044605460026B44F002175
:1003F000884689460990012008909AF800002D2827
:1004000002D1B04F0AF1010A9AF80000302801D158
:100410000AF1010A9AF80000312822DB9AF800005C
:1004200039281EDC00BF1AF8011BA1F130000DF0C5
:1004300040FD0022A44BCDE90601204629460DF0DF
:10044000C6FCCDE90401DDE906230DF019FC0446E4
:100450000D469AF80000302803DB9AF8000039288E
:10046000E1DD9AF800002E2830D19AF801003028FA
:100470002CDB9AF80100392828DC0AF1010A00BFB8
:100480001AF8011BA1F130000DF013FD00228E4B74
:10049000CDE90601204629460DF099FCCDE904017D
:1004A000DDE906230DF0ECFB04460D460022844BEB
:1004B000404649460DF085FC804689469AF8000082
:1004C000302803DB9AF800003928D9DD9AF80000BB
:1004D000652803D09AF80000452823D10AF1010AC3
:1004E0009AF800002B2802D10AF1010A08E09AF8D4
:1004F00000002D2804D14FF0FF3008900AF1010AC6
:1005000008E01AF8010B3038099901EB810100EB82
:10051000410009909AF80000302803DB9AF80000A7
:100520003928EEDDDDE9082101FB02F00DF0C1FC08
:1005300042464B46CDE900010DF0A2FB02460B46B8
:10054000CDE90201002060490EF02EFD22462B4627
:10055000CDE90601304639460DF039FCCDE90401FC
:10056000DDE906230DF033FC04460D46CBE90645D4
:10057000204629460DF0AEFCCBF814000320CBF842
:100580000C0050460BB0BDE8F08F2DE9F05F8146BE
:10059000D9E90645D9F814000DF08BFC0746224630
:1005A0002B460DF00EFC21F0004182460022474B05
:1005B0000DF0C2FC1BD8464A464B204629460DF09A
:1005C000BBFC14D80022444B204629460DF0C8FC41
:1005D0000DD815203649096888470646002E4CD0AC
:1005E0003EA13046D9F814200DF014FF45E040201C
:1005F0002F49096888470646002E3ED020462946E6
:100600000EF006FC074622462B460DF0DAFB21F0E1
:100610000041824600222D4B0DF08EFC0FD825F0B4
:10062000004127462E4A2F4B38460DF085FC06D256
:1006300022462B462CA130460DF0ECFE1DE025F0A5
:10064000004127462A4A2B4B38460DF075FC07D34C
:1006500025F000410022284B38460DF081FC06D2DF
:1006600022462B4625A130460DF0D4FE05E0224659
:100670002B4623A130460DF0CDFE3046BDE8F09F5D
:10068000014600220878302806DB0878392803DC88
:1006900008783038024441E00878412832DB087895
:1006A00046282FDC08783738024437E01000002055
:1006B000080000203DEF0008EDEE00080C000020CF
:1006C0000000F03F0000F0BF000024400000B03CFC
:1006D0000000C0FFFFFFDF410000E0C12564000013
:1006E00044F3C2E4E4E9634C252E306600000000C8
:1006F0008DEDB5A0F7C6B03E65CDCD4125650000B6
:10070000256600000878612806DB0878662803DC87
:1007100008785738024401E0002070471201491C54
:100720000878302806DB0878392803DC0878303868
:10073000024415E00878412806DB0878462803DCE7
:100740000878373802440BE00878612806DB08781F
:10075000662803DC08785738024401E00020DCE713
:100760001201491C0878302806DB0878392803DC98
:1007700008783038024415E00878412806DB08780C
:10078000462803DC0878373802440BE008786128F3
:1007900006DB0878662803DC08785738024401E055
:1007A0000020BAE71201491C0878302806DB0878D7
:1007B000392803DC08783038024415E008784128ED
:1007C00006DB0878462803DC0878373802440BE05B
:1007D0000878612806DB0878662803DC0878573833
:1007E000024401E0002098E7104696E72DE9F05F0B
:1007F0008346884608F10104002798F80000222863
:1008000005D0F748C0F800800020BDE8F09F04E064
:1008100014F8011B5C2900D1641C2078222804D024
:10082000207810B1781C0700F2D1781CED490968D6
:1008300088478146B9F1000F01D10020E5E708F1B2
:1008400001044D469EE020785C2804D014F8010B8A
:1008500005F8010B96E0641C2078722818D006DC9D
:10086000622809D066280BD06E287DD10CE0742850
:1008700012D07528F9D113E0082005F8010B7FE0AC
:100880000C2005F8010B7BE00A2005F8010B77E04E
:100890000D2005F8010B73E0092005F8010B6FE04E
:1008A000601CFFF7EDFE0646241DB6F55C4F02D333
:1008B000B6F5604F00D306B962E0B6F5584F1CD3C9
:1008C000B6F55C4F19D260785C2802D1A078752803
:1008D00000D055E0E01CFFF7D3FE8246A41DBAF518
:1008E0005C4F02D3BAF5604F00D349E0C6F309016B
:1008F000504661F39F2000F580360427802E01D2F8
:10090000012708E0B6F5006F01D2022703E0B6F533
:10091000803F00D203273D44012F20D0022F15D065
:10092000032F0AD0042F24D106F0BF0040F080012D
:10093000681E05460170B60900BF06F0BF0040F012
:100940008001681E05460170B60900BF06F0BF00B1
:1009500040F08001681E05460170B60900BFA2483C
:10096000C05D3043C1B200E006E0681E054601707C
:1009700000BF00BF3D4403E0207805F8010B00BF35
:1009800000BF641C2078222803D0207800287FF440
:100990005AAF002028702078222800D1641CCBF8A0
:1009A00010900420CBF80C0020462EE72DE9F047EC
:1009B00007464FF000082FB9AFF2D020FFF7AFFC89
:1009C000BDE8F0873D460DE0494688A00DF02FF9BF
:1009D00010B108F1010804E0B9F1200F01DA08F1C3
:1009E00005086D1C95F80090B9F1000F04D008F1CE
:1009F00001005FEA0008E7D108F1030079490968BE
:100A0000884706460EB90020DAE734463D462220E4
:100A100004F8010B47E028781F280ADD28782228EF
:100A200007D028785C2804D015F8010B04F8010BD6
:100A300039E05C2004F8010B15F8011B89460C29EC
:100A400019D006DC082912D0092920D00A2922D180
:100A500015E00D2917D0222905D05C291BD15C2077
:100A600004F8010B1EE0222004F8010B1AE06220BA
:100A700004F8010B16E0662004F8010B12E06E206A
:100A800004F8010B0EE0722004F8010B0AE0742058
:100A900004F8010B06E04A4656A120460DF0BAFCC8
:100AA000641D00BF00BF28780028B4D1222004F8BC
:100AB000010B002004F8010B304681E710B5044615
:100AC0002069FFF773FF10BD00E0401C20B10178E2
:100AD00011B101782029F8DD70472DE9F04706466D
:100AE0000C4620787B2804D03D4804600020BDE8F7
:100AF000F0870620F060601CFFF7E6FF04462078D0
:100B00007D2801D1601CF2E7FFF735FC0546B06097
:100B1000B06808B90020EAE72046FFF7D5FF804615
:100B200041462846FFF762FE0746FFF7CDFF044621
:100B30000CB90020DBE728692862002028612078B2
:100B40003A2803D0264804600020D0E7601CFFF755
:100B5000BBFF80464146284600F0A7F80746FFF74E
:100B6000B3FF04460CB90020C1E731E0FFF703FCF6
:100B7000070000D1BBE72F607D603D46601CFFF79A
:100B8000A3FF814649462846FFF730FE8046FFF71F
:100B90009BFF04460CB90020A9E7286928620020C1
:100BA000286120783A2803D00D48046000209EE791
:100BB000601CFFF789FF81464946284600F075F81A
:100BC0008046FFF781FF04460CB900208FE700BF85
:100BD00020782C28CAD020787D280FD1601C86E789
:100BE0001000002008000020D6F90008225C080C44
:100BF0000A0D09007525303478000000FE480460B5
:100C0000002074E72DE9F04705460C4620785B2864
:100C100004D0F94804600020BDE8F0870520E860B2
:100C2000601CFFF751FF044620785D2801D1601C4D
:100C3000F2E7FFF7A0FB0646A860A86808B9002005
:100C4000EAE72046FFF740FF80464146304600F085
:100C50002CF80746FFF738FF04460CB90020DBE705
:100C600017E0FFF788FB070000D1D5E737607E600B
:100C70003E46601CFFF728FF81464946304600F09B
:100C800014F88046FFF720FF04460CB90020C3E7A4
:100C900000BF20782C28E4D020785D2801D1601C8A
:100CA000BAE7D54804600020B6E770B505460C46A3
:100CB0000CB9002070BD0422D0A120460CF0D1FF59
:100CC00018B90220E860201DF4E70522CDA12046D6
:100CD0000CF0C7FF18B90020E860601DEAE70422A5
:100CE000CAA120460CF0BDFF20B90120E860686170
:100CF000201DDFE72078222804D121462846FFF76F
:100D000075FDD7E720782D2805D02078302807DB1F
:100D10002078392804DC21462846FFF75EFBC9E726
:100D200020785B2804D121462846FFF76BFFC1E7F6
:100D300020787B2804D121462846FFF7CEFEB9E76C
:100D4000AD4804600020B5E72DE9F04780460D4628
:100D500016460024FFF70FFB07460020A64908604F
:100D60000FB9BDE8F0874046FFF7AEFE8146494621
:100D70003846FFF79AFF044624B93846FFF708FBC8
:100D80000020EEE766B12046FFF79EFE044620787D
:100D900030B13846FFF7FCFA974804600020E0E7DE
:100DA00005B12C603846DCE710B504460022114638
:100DB0002046FFF7C9FF10BD2DE9F74F88B08846E0
:100DC00016464FF00009CA460020079007200490FD
:100DD000002508988068029000270020019003E019
:100DE0007F1C02980068029002980028F8D14FBB3F
:100DF00016B108F1040100E003210846854909689D
:100E000088470790079818B900200BB0BDE8F08F0D
:100E1000079C7B2004F8010B66B10A2004F8010B43
:100E2000002503E0092004F8010B6D1CA8F1010066
:100E3000A842F7DC7D2004F8010B002004F8010B28
:100E40000798E2E7B8007349096888478146B9F115
:100E5000000F01D10020D8E7B8006E490968884723
:100E60008246BAF1000F05D148466B4909688847A8
:100E70000020CAE7B90048460CF0B8FEB900504659
:100E80000CF0B4FE08988068029008F1010816B1D1
:100E90000498404404902DE00299086AFFF786FD0B
:100EA00005904AF8250032464146029800F07DF947
:100EB00029466D1C069049F821000598A8B10698AE
:100EC00098B106980CF0BCFE834605980CF0B8FE6D
:100ED0000BEB0001891C16B108F1020000E00020B4
:100EE000014404980844049001E001200190029814
:100EF0000068029002980028CED1019820B9454997
:100F00000498096888470790079808B9012001905C
:100F10000198F0B1002510E05AF8250020B15AF8E8
:100F200025003D490968884759F8250020B159F83E
:100F300025003949096888476D1CBD42ECDB5046E5
:100F40003549096888474846334909688847002079
:100F50005BE77B21079801700798441C16B10A20B3
:100F600004F8010B0020207000253EE05EB1002057
:100F7000039005E0092004F8010B0398401C03903E
:100F800003984045F6DB5AF8251020460CF060FE29
:100F90005AF825000CF054FE04443A2004F8010BE2
:100FA00016B1092004F8010B59F8251020460CF061
:100FB0004FFE59F825000CF043FE0444781EA84269
:100FC00002D02C2004F8010B16B10A2004F8010B02
:100FD000002020705AF825000F490968884759F801
:100FE00025000D49096888476D1CBD42BEDB50468F
:100FF00009490968884711E0100000206E756C6C83
:101000000000000066616C73650000007472756515
:1010100000000000080000200C0000204846F849AD
:10102000096888474EB1002503E0092004F8010B48
:101030006D1CA8F10100A842F7DC7D2004F8010B2B
:10104000002004F8010B0798DFE62DE9F74F82B086
:1010500083464FF0000805200190DBF80890002738
:1010600000250020009002E07F1CD9F80090B9F123
:10107000000FF9D17FB90320E2490968884780460B
:10108000B8F1000F03D0E0A140460CF0E1FD40466E
:1010900005B0BDE8F08FB800DA4909688847064610
:1010A0000EB90020F4E7B90030460CF09FFDDBF8E4
:1010B00008901FE0DDE90312491C484600F075F86E
:1010C000824629466D1C46F821A0BAF1000F0DD0CA
:1010D00050460CF0B5FD801C049909B1012100E0D7
:1010E0000021014401980844019001E00120009092
:1010F000D9F80090B9F1000F02D000980028D9D09B
:10110000009820B9BF490198096888478046B8F11E
:10111000000F01D101200090009890B1002508E057
:1011200056F8250020B156F82500B54909688847CA
:101130006D1CBD42F4DB3046B14909688847002088
:10114000A6E75B2088F8000008F101040020207069
:1011500000251CE056F8251020460CF079FD56F8C5
:1011600025000CF06DFD0444781EA84209D02C2007
:1011700004F8010B049810B1202004F8010B0020A2
:10118000207056F825009E49096888476D1CBD42AD
:10119000E0DB30469A49096888475D2004F8010B76
:1011A000002004F8010B404672E72DE9F0410446A7
:1011B0000D461646002714B90020BDE8F081207BBB
:1011C00007282FD2DFE800F00A1004161B202700A2
:1011D000AFF2D810FFF7A3F8074623E0AFF2DC1018
:1011E000FFF79DF807461DE0AFF2E010FFF797F814
:1011F000074617E02046FFF7C8F9074612E02046E9
:10120000FFF75CFC07460DE0324629462046FFF713
:101210001CFF074606E0324629462046FFF7CCFD74
:10122000074600BF00BF3846C7E710B50446012295
:1012300000212046FFF7B9FF10BD10B5044600227B
:1012400011462046FFF7B1FF10BD01468A68002015
:1012500001E0401C1268002AFBD1704702469068EA
:1012600001E0491E006808B10029FADC704770B53A
:1012700005460E46AC6800E024682CB13146206A71
:10128000FFF727F80028F7D1204670BD01604860BD
:10129000704770B50546FFF76EF804460CB900209C
:1012A00070BD2822294620460CF087FC00202062D1
:1012B000E06840F48070E0600020606020602046BC
:1012C000EEE770B505460E46AC6806B970BD0CB9C0
:1012D000AE6009E000E0246814B120680028FAD16B
:1012E00031462046FFF7D2FF00BFEFE770B5064654
:1012F0000D46144604B970BD206A18B14049206AF1
:10130000096888472846FFF70AF8206221463046D8
:10131000FFF7D7FF00BFEEE770B505460C46204645
:10132000FFF7B7FF064631462846FFF7CAFF70BDF4
:101330002DE9F04105460E4614462046FFF7A9FF69
:1013400007463A4631462846FFF7D0FFBDE8F08110
:1013500010B502460B46916801E009685B1E09B1B1
:10136000002BFADC09B9002010BD486810B1D1E9A2
:1013700000042060086810B1D1E900406060906806
:10138000884201D1086890600020086048600846E3
:10139000EAE770B504460D4629462046FFF7D8FF18
:1013A0000646FEF7F5FF70BD2DE9F04105460F46F4
:1013B0000026AC6801E0761C24682CB13946206A0E
:1013C000FEF787FF0028F6D12CB131462846FFF7FB
:1013D000BFFFBDE8F0810020FBE770B504460D4675
:1013E00029462046FFF7E0FF0646FEF7D1FF70BD15
:1013F0002DE9F04106460F461446B56808E00000A6
:101400000C000020080000205B5D00002D687F1E9E
:101410000DB1002FFADC0DB9BDE8F081286820601D
:1014200068686060206808B120684460B068A842BD
:1014300001D1B46001E06068046000206860286049
:101440002846FEF7A5FF00BFE6E72DE9F041054677
:101450000E4617464FF00008AC6802E008F101089C
:1014600024682CB13146206AFEF733FF0028F5D1FD
:1014700044B13046FEF753FF38623A4641462846AB
:10148000FFF7B6FFBDE8F08110B5FEF774FF044624
:101490000CB10220E060204610BD10B5FEF76BFFD6
:1014A00004460CB10120E060204610BD10B5FEF7E7
:1014B00062FF04460CB10020E060204610BD70B50C
:1014C0000546FEF758FF044624B10DB1012000E0A7
:1014D0000020E060204670BD70B505460E46FEF760
:1014E0004AFF044644B10320E060C4E9065628469A
:1014F00031460CF0EFFC6061204670BD70B50546CA
:10150000FEF739FF04462CB10420E0602846FEF7C0
:1015100006FF2061204670BD10B5FEF72CFF044683
:101520000CB10520E060204610BD10B5FEF723FF8A
:1015300004460CB10620E060204610BD2DE9F05FA6
:1015400081468A460025AB46FFF7E6FF06460024A3
:1015500010E059F824000CF0ACFC0746FFF7BCFF84
:1015600005460CB9B56003E029465846FFF78EFEE4
:10157000AB46641C0EB15445EBDB3046BDE8F09F32
:101580002DE9F05F81468A460025AB46FFF7C4FF90
:101590000646002410E059F824000CF0BAFC074677
:1015A000FFF79AFF05460CB9B56003E02946584697
:1015B000FFF76CFEAB46641C0EB15445EBDB3046C6
:1015C000BDE8F09F2DE9F047074688460025A9466B
:1015D000FFF7A2FF0646002410E007EBC400D0E9A5
:1015E00000211046FFF778FF05460CB9B56003E00F
:1015F00029464846FFF74AFEA946641C0EB14445F9
:10160000EBDB3046BDE8F0872DE9F047074688461A
:101610000025A946FFF780FF064600240DE057F895
:101620002400FFF76BFF05460CB9B56003E02946BF
:101630004846FFF72BFEA946641C0EB14445EEDB7D
:101640003046BDE8F0872DE9F047054689464FF062
:10165000000815B90020BDE8F087FEF78CFE0446AF
:101660000CB90020F7E7E86820F48070E060686952
:101670006061D5E90601C4E90601286950B128690D
:10168000FEF74DFE2061206920B92046FEF780FE5E
:101690000020E0E7286A50B1286AFEF740FE206289
:1016A000206A20B92046FEF773FE0020D3E7B9F187
:1016B000000F01D12046CEE7AF6816E00121384681
:1016C000FFF7C1FF064626B92046FEF761FE00205F
:1016D000C1E7B8F1000F05D0C8F80060C6F8048073
:1016E000B04601E0A660B0463F68002FE6D1204634
:1016F000B1E7014655E00278202A01D1401C50E0B4
:101700000278092A01D1401C4BE002780D2A01D150
:10171000401C46E002780A2A01D1401C41E00278D0
:101720002F2A0BD142782F2A08D100E0401C0278E2
:10173000002A36D002780A2A33D0F7E702782F2A17
:101740000ED142782A2A0BD100E0401C02782AB13F
:1017500002782A2AF9D142782F2AF6D1801C20E07B
:101760000278222A19D110F8012B01F8012B0AE086
:1017700002785C2A03D110F8012B01F8012B10F834
:10178000012B01F8012B027812B10278222AEFD145
:1017900010F8012B01F8012B03E010F8012B01F8E0
:1017A000012B0278002AA6D10A70704700B587B0D5
:1017B00001210C2001F05AFA0121880301F063FA9B
:1017C0004FF46040ADF8040003208DF806001820A7
:1017D0008DF8070001A9E14800F076FF4FF4805032
:1017E000ADF8040003208DF8060010208DF80700E6
:1017F00001A9DA4800F068FF4FF48051D74801F0A2
:101800000EF80020ADF808004FF48270ADF80A0021
:101810000020ADF80C000220ADF80E000120ADF85C
:1018200010004002ADF812000820ADF814000020AE
:10183000ADF816000720ADF8180002A9C84801F05D
:10184000A7FA0121C64801F048FB07B000BD10B55A
:1018500004462146C24801F071FB00BF0221C04886
:1018600001F0BFFB0028F9D000BF0121BC4801F006
:10187000B8FB0028F9D0BA4801F062FBC0B210BD35
:1018800010B5A520FFF7E3FF10BD70B504460D4667
:1018900045EA0421B24801F051FB00BF0221B048E3
:1018A00001F09FFB0028F9D000BF0121AC4801F0F6
:1018B00098FB0028F9D0AA4801F042FBC0B270BDE5
:1018C00010B5044644F08000002242EA0021A448FA
:1018D00001F034FB00BF0221A14801F082FB002887
:1018E000F9D000BF01219E4801F07BFB0028F9D010
:1018F0009B4801F025FBC0B210BD10B500244FF489
:101900008051964800F08DFF0520FFF7A0FF00BF33
:10191000A520FFF79CFF044614F0010FF8D14FF407
:1019200080518E4800F07BFF10BD10B50446FFF7D4
:10193000E4FF4FF48051894800F073FF0620FFF761
:1019400086FF4FF48051854800F069FFFFF7D5FF0F
:101950004FF48051814800F064FFD820FFF777FFF3
:101960000020FFF774FF200AFFF771FFE0B2FFF7D6
:101970006EFF4FF48051794800F051FF10BD2DE902
:10198000F04106460C461746FFF7B7FF4FF480516B
:10199000724800F046FF0320FFF759FFC4F30740E9
:1019A000FFF755FFC4F30720FFF751FFE0B2FFF741
:1019B0004EFF002503E0FFF763FF70556D1CBD422D
:1019C000F9D34FF48051654800F029FFBDE8F0815C
:1019D0002DE9F04106460C461746FFF78EFF4FF4FF
:1019E00080515E4800F01DFF0620FFF730FF4FF4E6
:1019F00080515A4800F013FFFFF77FFF4FF48051EA
:101A0000564800F00EFF0220FFF721FFC4F3074005
:101A1000FFF71DFFC4F30720FFF719FFE0B2FFF740
:101A200016FF002503E0705DFFF711FF6D1CBD423E
:101A3000F9D34FF48051494800F0F1FEBDE8F08140
:101A400070B586B0002005904FF48051434800F0F7
:101A5000E8FE9F20FFF7FBFEFFF712FF8DF8140052
:101A6000FFF70EFF8DF81500FFF70AFF8DF816003F
:101A70004FF48051394800F0D2FE00BF04A80BF0AB
:101A80003FF904463748007810F0020F18D060087C
:101A90006421B0FBF1F201FB1205C820B4FBF0F6A3
:101AA0009DF817009DF816109DF81520CDE900212E
:101AB00002909DF814302A4631462BA00CF086FC8B
:101AC00000BF9DF8140020280AD19DF81500202899
:101AD00006D19DF81600152802D1002006B070BD71
:101AE000FF20FBE7F8B5FFF761FE0A200BF0FFFFD0
:101AF000FFF7A6FFC0B900BF68460BF001F9044626
:101B00001848007810F0020F0DD060086421B0FB77
:101B1000F1F201FB1205C820B4FBF0F62A4631466B
:101B20001FA00CF053FC18E000BF68460BF0E8F86B
:101B300004460C48007810F0010F0DD060086421B5
:101B4000B0FBF1F201FB1205C820B4FBF0F62A4607
:101B500031461FA00CF03AFC00BFF8BD000C01405C
:101B600000380040040000205B253034642E25300E
:101B700032642F495D3A206964203D203078253059
:101B800032782C203078253032782C20307825306F
:101B900032782C203078253032780D0A0D0A00007A
:101BA0005B253034642E253032642F495D3A20663F
:101BB0006C61736820696420636865636B2073756A
:101BC000636365737366756C6C79210D0A0D0A0089
:101BD0005B253034642E253032642F455D3A206613
:101BE0006C61736820696420636865636B2066615B
:101BF000696C65640D0A0D0A000000000023C380B3
:101C000003810160828070470146C8880A8990423A
:101C100001D1012070470020FCE70146CA880B89EA
:101C20009A4204DDCA880B89D21A90B205E08A88EC
:101C30000B89D21ACB881A4490B270472DE9F04133
:101C400004460F461646E0882189884204DDE08874
:101C50002189401A85B205E0A0882189401AE188CF
:101C6000084485B2B54202DA0020BDE8F081E08880
:101C7000218988420ADD228921688818324639463E
:101C80000BF09BFF2089304420811EE0A088218931
:101C9000401A85B2B5420ADD228921688818324689
:101CA00039460BF08AFF2089304420810DE02289DB
:101CB000216888182A4639460BF07FFF721B791974
:101CC00020680BF07AFF701B20810120CDE72DE901
:101CD000F04104460F461646E0882189884206DD19
:101CE000A088E188401A2189084485B203E0208950
:101CF000E188401A85B2B54202DA0020BDE8F081E1
:101D0000E088218988421FDDA088E188401A85B2D9
:101D1000B5420ADDE28820688118324638460BF069
:101D20004CFFE0883044E08018E0E28820688118A9
:101D30002A4638460BF041FF721B781921680BF0D8
:101D40003CFF701BE08009E0E28820688118324681
:101D500038460BF032FFE0883044E0800120CDE7C8
:101D600000BF00BF704700003EB5044602A8002136
:101D70000B462246CDE9001008460AF0E8FD3EBDBC
:101D80003EB5044602A8002123460A46CDE90010CC
:101D900008460AF0DCFD3EBD08B50121082000F030
:101DA00065FF0120ADF8000010208DF8030003202E
:101DB0008DF802006946FE4800F086FC0121FC48CF
:101DC00000F02FFD0420FFF7CFFF0121F84800F0BD
:101DD00026FD0420FFF7C8FF0121F54800F021FD92
:101DE00008BD10B5FFF7D8FF10BD70B505460E460B
:101DF00000240CE0295DEF4801F066FA00BF802165
:101E0000EC4801F0CFFA0028F9D0601C84B2B4424B
:101E1000F0DB70BD08B56A460021E74806F0A4FF74
:101E200008BD1CB5044601A80090C82004FB00F1C1
:101E300000231A46E14807F0B3FEBDF80400A0F500
:101E4000E441D93901D100201CBD0120FCE71CB5BB
:101E500001A800231A4619460090D74806F086FDCF
:101E60001CBD2DE9F04786B006460D464FF000092F
:101E700028460BF0E5FE87B2FFF7E9FFD048FFF7F1
:101E80006FFF30460BF0DCFE1FFA80FA51463046F9
:101E9000FFF7ABFF0420FFF7C4FF8046B8F1010F46
:101EA00027D10CE0012205A9C548FFF710FF9DF8D6
:101EB00014204846411C01F0FF090DF80020C048DD
:101EC000FFF7A2FE0028EDD000240CE0285D1DF8ED
:101ED0000410884205D0FFF79DFF002006B0BDE842
:101EE000F087601CC4B2BC42F0DBFFF793FF012017
:101EF000F4E7FFF78FFF0020F0E72DE9FC4700260D
:101F0000002701AB0022AFA1AC4807F01AFD01AADF
:101F1000AFA1A94806F003FBC0E0B148007820B1AA
:101F2000022863D0042878D19BE000BF68460AF0FD
:101F3000E7FE0546AB48007810F0020F0ED06808A7
:101F40006421B0FBF1F201FB1208C820B5FBF0F9E7
:101F5000A54B42464946A5A00CF038FA00BFFFF752
:101F60001BFF0A20FFF700FF01209D490870A8A170
:101F7000A8A0FFF776FF01281BD10220984908701E
:101F800000BF68460AF0BCFE05469648007810F08F
:101F9000020F0DD068086421B0FBF1F201FB1208BA
:101FA000C820B5FBF0F9424649469CA00CF00EFA59
:101FB0001BE000208A49087000BF68460AF0A0FEB6
:101FC00005468848007810F0010F0DD0680864219C
:101FD000B0FBF1F201FB1208C820B5FBF0F9424654
:101FE000494696A00CF0F2F900BF56E000BF6846E3
:101FF0000AF086FE05467B48007810F0020F10D0EC
:1020000068086421B0FBF1F201FB1208C820B5FB9F
:10201000F0F9754B4246494600E03DE08FA00CF0D8
:10202000D5F900BF002413E0954951F834000BF0B6
:1020300007FE85B2924951F834002946FFF7D5FED4
:102040008F4901EBC4018888FFF79AFE601CC4B277
:10205000082CE9DB5A48FFF783FE0420604908702A
:102060001BE000BF68460AF04BFE05465D4800785D
:1020700010F0020F0ED068086421B0FBF1F201FBF2
:102080001208C820B5FBF0F9574B424649467DA0DF
:102090000CF09CF900BF00E000BF00BF002E3FF431
:1020A0003CAFBDE8FC8710B58048007800B910BD92
:1020B00003F0BAFF01F0FCFC03F0C7FF00BFF6E736
:1020C00008B56A464FF400713C4807F0A6FF08BD0A
:1020D00008B540F22551374801F07AF900283BD085
:1020E000344801F0F5F8C0B200909DF8001070A0DF
:1020F0000CF06CF96F4840786E490870084680789B
:1021000048700846C07888709DF80000C870344850
:10211000007810B101281DD100E01CE0FFF797FE08
:10212000012269462648FFF789FD624800784F285A
:102130000DD1604840784B2809D15E4880780D2841
:1021400005D15C48C0780A2801D1FFF7B9FFFFF735
:1021500061FE00BF00BF00BF08BD70472DE9F0471A
:10216000A8B005460E464FF00008802108A80BF0E5
:102170003DFD2B4650A2802108A800960CF036F9B0
:1021800000BF01A80AF0BCFD07461648007810F011
:10219000020F0BD078086421B0FBF1F201FB1209A9
:1021A000C820B7FBF0FA08A84B4B97E09CE0000072
:1021B000000C014000480040A40200207C020020E6
:1021C0007002002053494D3830305F574149540068
:1021D00053494D3830305F4D55544558000000008C
:1021E0005800002004000020DDF900085B25303491
:1021F000642E253032642F495D3A2025733A2053EE
:10220000544154455F554E494E495445440D0A00CA
:102210004154000041540D0A000000005B25303499
:10222000642E253032642F495D3A20706F776572D5
:10223000757020646F776E0D0A0000005B253034E6
:10224000642E253032642F455D3A20706F776572B9
:102250007570206661696C65640D0A005B25303419
:10226000642E253032642F495D3A2025733A20537D
:10227000544154455F494E495445440D0A000000FD
:10228000140000205B253034642E253032642F4941
:102290005D3A2025733A2053544154455F434F4ED5
:1022A0004E454354494E470D0A000000B50000203A
:1022B000256300005400002041542B4349505354DF
:1022C0004152543D22544350222C222573222C2269
:1022D0002564220D0A000000EAF900084A4651462A
:1022E00000904DA00CF072F800BF51A108A8FFF7B4
:1022F000B8FD04464CB30820FFF793FD0446012CBB
:102300001FD10CE0012207A94B48FFF7E0FC9DF824
:102310001C204046411C01F0FF0802A90A5446480F
:10232000FFF772FC0028EDD0FFF774FD43A102A86F
:102330000BF067FC18B1012028B0BDE8F087002041
:10234000FAE7FFF767FD0020F6E70020F4E700203A
:102350007047704710B586B00121092000F086FC57
:102360000121880400F08FFC4FF48060ADF8140068
:1023700018208DF8170003208DF8160005A93248A3
:1023800000F0A2F94FF40060ADF8140004208DF8BD
:10239000170003208DF8160005A92B4800F094F9CA
:1023A0004FF4E13001900020ADF80800ADF80A00CC
:1023B000ADF80C00ADF810000C20ADF80E0001A92E
:1023C000224800F088FE00BF2048001D0088C4B2EB
:1023D0001E480088C4B2012240F225511B4800F07B
:1023E00012FF0121194800F002FF4FF480721849D2
:1023F0001148FFF703FC002016490870AFF22F3197
:10240000272001F036FA0121272001F04AFA27207F
:1024100001F025FA06B010BD5B253034642E25305E
:1024200032642F495D3A2025733A2025730D0A0046
:102430000D0A4F4B0000000070020020434F4E4E2B
:10244000454354204F4B0000000C01400048004021
:10245000700100205800002070B505460C4645F27A
:10246000555000F07DFA204600F080FA284600F032
:102470007AFA00F07EFA00F081FA70BD10B500F033
:1024800078FA10BD10B50446204601F00EF810BDD4
:1024900008B500208DF8000002208DF8010003200F
:1024A0008DF8020001208DF80300684600F043F823
:1024B00008BD70B506460C4615460121C80200F05D
:1024C000E2FB0F48007830400E490870284600F0C3
:1024D000CEFF204600F0D4FF0A48007800F0E5FF68
:1024E00000F0EEFFFFF7D4FF00F0D5FF70BD10B590
:1024F0000448007800F0D3FF00F0E2FF10BD0000B8
:10250000590000205A00002006488047064800472E
:10251000FEE7FEE7FEE7FEE7FEE7FEE7FEE7FEE793
:10252000FEE7FEE7B53600083101000831490143F6
:10253000314A1160704770B5002100230F22C47822
:102540000CB32D4C246804F4E064C4F5E064210A63
:10255000C1F10403CA40447804FA03F184781440BA
:1025600021430901254C0678A155047804F01F0584
:102570000124AC4005786D114FF0E02606EB85058F
:10258000C5F8004109E0047804F01F050124AC40BF
:102590001B4D0678761145F8264070BD194A0A4051
:1025A0000243154B1B1F1A60704739B1124A121DA6
:1025B00012680243104B1B1D1A6006E00E4A121DE2
:1025C000126882430C4B1B1D1A607047042808D107
:1025D0004FF0E021096941F004014FF0E022116160
:1025E00007E04FF0E021096921F004014FF0E022FB
:1025F000116170470000FA050CED00E000E400E016
:1026000080E100E080FFFF1F10B50446CA48844205
:1026100008D10121042000F043FB0021042000F038
:102620003FFB46E0C548844208D10121082000F064
:1026300037FB0021082000F033FB3AE0C048844219
:1026400008D10121102000F02BFB0021102000F008
:1026500027FB2EE0BB48844208D10121202000F056
:102660001FFB0021202000F01BFB22E0B648844223
:1026700008D10121402000F013FB0021402000F090
:102680000FFB16E0B148844208D10121802000F000
:1026900007FB0021802000F003FB0AE0AC488442E5
:1026A00007D10121801500F0FBFA0021A01500F0F0
:1026B000F7FA10BD10B50121084600F0F1FA00212B
:1026C000012000F0EDFA10BD2DE9F0410246002591
:1026D0000026002000230024002791F803C00CF0FE
:1026E0000F0591F803C01CF0100F03D091F802C041
:1026F0004CEA050591F800C0BCF1000F31D0146818
:1027000000202BE04FF0010C0CFA00F3B1F800C0F0
:102710000CEA03069E4220D183004FF00F0C0CFA06
:1027200003F7BC4305FA03FC4CEA040491F803C028
:10273000BCF1280F06D14FF0010C0CFA00FCC2F8D6
:1027400014C00AE091F803C0BCF1480F05D14FF066
:10275000010C0CFA00FCC2F810C0401C0828D1D3B0
:102760001460B1F800C0BCF1FF0F34DD54680020E4
:102770002EE000F1080C4FF0010808FA0CF3B1F854
:1027800000C00CEA03069E4221D183004FF00F0CDB
:102790000CFA03F7BC4305FA03FC4CEA040491F875
:1027A00003C0BCF1280F05D100F1080C08FA0CF8A1
:1027B000C2F8148091F803C0BCF1480F07D100F1B2
:1027C000080C4FF0010808FA0CF8C2F81080401C01
:1027D0000828CED35460BDE8F0814FF6FF71018028
:1027E000022181700421C170704702460020936865
:1027F0000B4201D0012000E00020704701468868AC
:1028000080B2704702460020D3680B4201D00120FD
:1028100000E0002070470146C86880B2704701613F
:102820007047416170470AB1016100E04161704742
:10283000C16070474FF480320A43826181618261D6
:1028400082698269704702460020424B18684FF641
:102850008073184040EA021008433E4B18607047EE
:102860003D49C8617047F0B50A46002300240021A5
:10287000002500F00046B6F1004F02D1354EF16957
:1028800001E0344E7168C0F3034583B200F4401692
:10289000B6F5401F08D121F070612E4E766826F003
:1028A00070662C4F7E6012E000F48016B6F5801F33
:1028B00006D1032606FA05F4A14341F0706106E053
:1028C000460D360103FA06F6B14341F0706122B1BC
:1028D000460D360103FA06F6314300F00046B6F124
:1028E000004F02D11B4EF16101E01A4E7160F0BD44
:1028F00030B500228B071C0F0F2303FA04F2154B8F
:1029000008338C1053F824309343124C08348D1044
:1029100044F8253023468C1053F824308C07240FBC
:1029200000FA04F423430B4C08348D1044F825308E
:1029300030BD0A490860704700080140000C0140A2
:10294000001001400014014000180140001C01402B
:10295000002001400000014000002042DC00204235
:102960000E49086070470D49486070470B49886000
:1029700070474AF6AA200949086070474CF6CC40D7
:1029800006490860704701460020044AD2680A429E
:1029900001D0012000E0002070470000003000401E
:1029A000DB48006840F00100D949086008464068EB
:1029B000D8490840D649486008460068D6490840CA
:1029C000D34908600846006820F480200860084663
:1029D000406820F4FE0048604FF41F008860704794
:1029E000CB49096821F48031C94A11601146096850
:1029F00021F480211160B0F5803F03D0B0F5802F25
:102A00000ED106E0C249096841F48031C04A116024
:102A100007E0BF49096841F4A021BD4A116000E008
:102A200000BF00BF704710B5014600220023002000
:102A30004A11012A02D1B64C236806E0022A02D1CB
:102A4000B34C236A01E0B24C636A01F01F02012417
:102A500094401C4201D0012000E0002010BD70B560
:102A600000240025002600BF3120FFF7DCFF0646CA
:102A7000641CB4F5A06F01D0002EF5D03120FFF713
:102A8000D2FF08B1012500E00025284670BD0146AF
:102A900000209F4A106820F0F80040EAC100106052
:102AA00070479E490860704702460020984B58685E
:102AB00020F47C1042EA01031843954B586070479C
:102AC00096490866704701460020914A506820F0F8
:102AD00003000843506070478D48406800F00C00C8
:102AE0007047014600208A4A506820F0F0000843F1
:102AF0005060704701460020854A506820F4E0602D
:102B000008435060704701460020814A506820F415
:102B1000605040EAC1005060704729B17C4A527A47
:102B200002437B4B5A7204E0794A527A8243784BD3
:102B30005A7270477A490860704701460020744A0B
:102B4000506820F440400843506070470021754AA7
:102B500011706F4A82F82010012802D0042808D191
:102B600003E001216F4A117004E005216D4A1170E4
:102B700000E000BF00BF70476B49086070476449C0
:102B8000096A0143624A1162704767494439086023
:102B9000704730B500210022002400235C4D6D6891
:102BA00005F00C0121B1042905D0082923D105E045
:102BB0005E4D056022E05E4D05601FE0544D6D687E
:102BC00005F47012524D6D6805F48034022505EB52
:102BD00092421CB9574D554305600BE04C4D6D6852
:102BE00015F4003F03D0544D5543056002E0504DAD
:102BF0005543056002E04D4D056000BF00BF444DE8
:102C00006D6805F0F00109094C4D6B5C0568DD400D
:102C100045603F4D6D6805F4E061090A474D6B5C06
:102C20004568DD4085603A4D6D6805F46051C90A1C
:102C3000424D6B5C4568DD40C560354D6D6805F4FF
:102C40004041890B3E4D6B5CC568B5FBF3F50561F2
:102C500030BD29B12E4A526902432D4B5A6104E01E
:102C60002B4A526982432A4B5A61704729B1284A3C
:102C700092690243264B9A6104E0254A9269824395
:102C8000234B9A61704729B1214AD2690243204BF4
:102C9000DA6104E01E4AD26982431D4BDA61704753
:102CA00029B11B4AD2680243194BDA6004E0184A82
:102CB000D2688243164BDA60704729B1144A126910
:102CC0000243134B1A6104E0114A12698243104B0C
:102CD0001A61704714494039086070470F49C86449
:102CE00070470B49C87170470948406A40F08070CE
:102CF00007494862704701460020054A92680A4227
:102D000001D0012000E0002070470149887270471F
:102D1000001002400000FFF8FFFFF6FE00004242F4
:102D2000D8004242201002408004424200127A0041
:102D3000001BB70000093D00808D5B005B00002098
:102D40006B00002010B50446BE48844208D1012122
:102D50008014FFF7A5FF0021A014FFF7A1FF16E0E4
:102D6000B948844208D101210014FFF7A6FF0021D1
:102D70002014FFF7A2FF0AE0B448844207D10121E2
:102D8000C013FFF79AFF0021E013FFF796FF10BD75
:102D900010B50022028802F441520B884C8823436C
:102DA0008C882343CC8823430C8923434C892343B9
:102DB0008C892343CC8923431A430280838B4FF2AF
:102DC000FF74234083830B8A038210BD2DE9F04FEB
:102DD00085B005460C464FF0000902274FF0000869
:102DE0004FF0010B0026B246A88B4FF2400108407D
:102DF000A88302202884B5F81C90A068022801D17D
:102E000000BF38E0A08810B94FF0010B01E04FF08F
:102E1000020B8D48854200D100E000BF6846FFF7F5
:102E2000B8FEDDF800A0E088B0F5007F0AD14FEAD7
:102E30001A2000EB80004000A168B0FBF1F0401DBB
:102E400086B20BE04FEA4B10BAFBF0F000EB8000CB
:102E50004000A168B0FBF1F0401D86B20A20B6FB2D
:102E6000F0F606F00108A6EB0800C0F34F074FF696
:102E7000FF7000EA0828022F01DBFF2F02DD022786
:102E80004FF00008E08840EA080038432884A08812
:102E9000A1890843618808432188084340F4006001
:102EA00040EA0909A5F81C9005B0BDE8F08F0021A3
:102EB000018041808180C180018141818181C18106
:102EC0000721018270470021018041808180C180FB
:102ED0000221816000218181704721B1028842F086
:102EE0004002028004E002884FF6BF731A4002805D
:102EF000704721B1828B42F48062828304E0828B2E
:102F00004FF6FF331A408283704730B50024002308
:102F10000C110125A540ABB21AB185881D438580EF
:102F200002E085889D43858030BD1AB183880B43BC
:102F3000838002E083888B43838070478181704760
:102F4000014688897047A1F57E42FF3A04D0028885
:102F500042F48072028004E002884FF6FF631A4058
:102F60000280704721B1828842F00402828004E02E
:102F700082884FF6FB731A408280704702884FF2B6
:102F8000FF731A40028002880A430280704701885A
:102F900041F480510180704721B1028842F400520F
:102FA000028004E002884DF6FF731A4002807047E9
:102FB00002460020012901D0108B00E0908A704762
:102FC0000146088A7047B1F5804F04D1028842F467
:102FD0008042028004E002884BF6FF731A400280B0
:102FE00070470246002013890B4201D0012000E007
:102FF00000207047CA4302817047F0B502460020A6
:1030000000240023002501F00F070126BE40B4B2C2
:103010000B1101269E40B3B2968806EA0305168975
:10302000264202D00DB1012000E00020F0BD10B515
:10303000002201F00F040123A3409AB2D34303817D
:1030400010BD00000030014000380040003C00404E
:1030500010B50446FB48844209D101218803FFF7DB
:103060001FFE00214FF48040FFF71AFE32E0F648C1
:10307000844209D101214804FFF71FFE00214FF4CB
:103080000030FFF71AFE25E0F048844209D1012103
:103090008804FFF712FE00214FF48020FFF70DFE99
:1030A00018E0EB48844209D10121C804FFF705FE6E
:1030B00000214FF40020FFF700FE0BE0E5488442BA
:1030C00008D101210805FFF7F8FD00214FF4801019
:1030D000FFF7F3FD10BD2DE9F04786B005460E461B
:1030E0000024A24600BFA1460027B08900B100BF5E
:1030F0002F462C8A4CF6FF700440F08804432C8243
:10310000AC894EF6F3100440B088318908437189C8
:1031100008430443AC81AC8A4FF6FF400440B089B9
:103120000443AC8201A8FFF734FDC648874202D1B0
:10313000DDF810A001E0DDF80CA0A88910F4004F24
:1031400008D00AEBCA0000EB0A1031684900B0FB56
:10315000F1F807E00AEBCA0000EB0A1031688900B9
:10316000B0FBF1F86420B8FBF0F004012009642101
:1031700001FB1089A88910F4004F08D0322000EB21
:10318000C900B0FBF1F000F00700044308E0322072
:1031900000EB09106421B0FBF1F000F00F000443D4
:1031A0002C8106B0BDE8F0874FF416510160002174
:1031B0008180C18001810C21418100218181704782
:1031C00010B502460020108A4FF2FF0318400B880A
:1031D0004C8823438C882343CC8823431843108294
:1031E00010BD0021018041808180C180704721B1E4
:1031F000828942F40052828104E082894DF6FF7395
:103200001A4082817047F0B503460024002600254D
:103210000020A1F510676A3F00D100BF1846C1F336
:10322000421401F01F06012707FA06F5012C01D10F
:103230000C3004E0022C01D1103000E014301AB13F
:1032400007682F43076002E00768AF430760F0BDDF
:103250001AB1838A0B43838202E0838A8B43838281
:103260007047028A4FF6F0731A400282028A0A43BC
:103270000282704782894FF2FF731A4082818289ED
:103280000A438281704721B1828942F00202828121
:1032900004E082894FF6FD731A4082817047028AEA
:1032A0004FF6DF731A400282028A0A430282704795
:1032B00021B1028A42F48042028204E0028A4BF683
:1032C000FF731A4002827047C1F308028280704780
:1032D00001468888C0F308007047818941F00101E8
:1032E00081817047028BD2B20283028B42EA0122B3
:1032F00002837047028B02F47F420283028B0A43EF
:103300000283704721B1828A42F02002828204E067
:10331000828A4FF6DF731A408282704721B1828A17
:1033200042F01002828204E0828A4FF6EF731A4064
:103330008282704721B1828A42F00802828204E0D0
:10334000828A4FF6F7731A408282704721B18289D0
:1033500042F40042828103E08289C2F30E0282813C
:10336000704721B1828A42F40062828204E0828A3C
:103370004FF2FF731A4082827047828A4FF6FB73C6
:103380001A408282828A0A438282704721B1828AED
:1033900042F00202828204E0828A4FF6FD731A40F4
:1033A0008282704702460020B1F5007F00D100BF45
:1033B00013880B4201D0012000E00020704701F487
:1033C0000072B2F5007F00D100BFCA43028070478F
:1033D00070B502460024002300250020A1F51066E8
:1033E0006A3E00D100BFC1F3421501F01F03012660
:1033F00006FA03F3012D02D19689334006E0022D2F
:1034000002D1168A334001E0968A33400C1201261D
:1034100006FA04F41688344013B10CB1012000E020
:10342000002070BD10B500220023A1F510646A3C95
:1034300000D100BF0A1201249440A3B2DC430480EF
:1034400010BD00000038014000440040004800402A
:10345000004C00400050004010B50121C802FFF7A9
:103460002CFC00214FF40060FFF727FC10BD002169
:10347000164A126822F4C0710143144A1160704761
:103480000021124A126822F07F0100F07F021143EE
:103490000E4A1160704701200D490860704700F026
:1034A0007F010A4A121F1160704740F08001074AED
:1034B000121F116070470548001D0068C0B27047B8
:1034C00000200249091D086070470000042C0040DC
:1034D000A48005428AB000244FF4A060FFF726F8CC
:1034E0000AF0ACFAFCF7D5FE09A802F007FD31A0FE
:1034F0000AF06CFF00BF00BF00BF00F0A7FC04464D
:1035000000BF00BF31480078401C3049087000BF40
:1035100000BF204600F09EFC00BF00BF00BF09A80E
:10352000032100220592CDE90621089010464FF4B0
:1035300000713322264BCDE90132CDE9031003207F
:103540000023244A24A10090264807F065FA00BF12
:1035500000BF00BF00F07AFC044600BF00BF1B485C
:103560000078401E1949087008460078A0B91E4826
:103570000088002809DD00BF00BF204600F06AFC7B
:1035800000BF00BF03F0E0FA0DE000BF00BF20461F
:1035900000F060FC00BF06E000BF00BF204600F066
:1035A00059FC00BF00BF00BF09A802F076FF00BFB2
:1035B000FEE700000D0A0D0A2B2B4E6F7720537487
:1035C0006172742B2B0D0A0D0A000000FC00002014
:1035D0006C2400202DD8000853746172742054614B
:1035E000736B0000A8230020C000002000210020F1
:1035F000674A126842F48032654B1A6000BF644A21
:10360000126802F40030491C10B9B1F5A06FF6D170
:103610005F4A126812F4003F01D0012000E0002050
:10362000012842D15B4A126842F01002594B1A60DD
:103630001A46126822F003021A601A46126842F013
:1036400002021A60524A5268514B5A601A46526836
:103650005A601A46526842F480625A601A465268AA
:1036600022F47C125A601A46526842F488125A6058
:103670001A46126842F080721A6000BF444A12680B
:1036800012F0007FFAD0424A526822F00302404B07
:103690005A601A46526842F002025A6000BF3C4A21
:1036A000526802F00C02082AF9D1704710B5FFF7F2
:1036B0009DFF10BD10B53648006840F00100344948
:1036C0000860084640683449084031494860084667
:1036D0000068324908402E4908600846006820F416
:1036E000802008600846406820F4FE0048604FF4DF
:1036F0001F008860FFF7DAFF4FF00060284908607C
:1037000010BD10B5002100200022214B5B6803F0A2
:103710000C0121B1042906D0082928D107E0214B4A
:10372000214C236027E0214B1F4C236023E0184BE2
:103730005B6803F47010164B5B6803F4803202235D
:1037400003EB904022B91A4B4343174C23600DE022
:103750000F4B5B6813F4003F04D0164B4343124CED
:10376000236003E0114B43430F4C236003E00D4BF8
:103770000D4C236000BF00BF054B5B68C3F3031310
:103780000D4CE15C084B1B68CB40074C236010BD1F
:1037900000100240002002400000FFF8FFFFF6FE8C
:1037A00008ED00E000127A0070000020001BB70056
:1037B00000093D00808D5B007400002000B585B0DD
:1037C0006846FFF7E6F9019805B000BD10B5FFF7B0
:1037D000F5FF04461748006840F0807015490860FE
:1037E0000020154948600846006840F00100086064
:1037F000204600F05FFA10BD0F49486870472DE978
:10380000F0478246FFF7DAFF4FF0000980460B4A87
:103810000023404649460AF099F9064632460B46CF
:10382000504600210AF092F904460D4620462946EA
:10383000BDE8F087FCED00E0001000E040420F0022
:10384000704710B50446442C04D204F11001C8B2EC
:1038500000F04CFB10BD10B500F0F4FA10BD10B52F
:103860000446442C04D204F11001C8B200F0E3FB7A
:1038700010BD70B504460D460026442C10D200BF82
:1038800000BF00F0E3FA064600BF00BFBF4840F8A3
:10389000245000BF00BF304600F0DCFA00BF00BF7C
:1038A00070BD70B504460D460026442C13D200BFEF
:1038B00000BF00F0CBFA064600BF00BF04F11001C4
:1038C000C8B2294600F0AFFC00BF00BF304600F090
:1038D000C1FA00BF00BF70BD704710B5002404E0FE
:1038E000AB492046FFF7C5FF641C442CF8D310BD3C
:1038F00070B50446002600BF00BF00F0A7FA0646D8
:1039000000BF00BF02F090FB00BF00BF304600F0D8
:10391000A1FA00BF00BF442C04D29C4850F82450A8
:1039200005B1A84702F091FB70BD10B50020FFF76C
:10393000DFFF10BD10B50120FFF7DAFF10BD10B595
:103940000220FFF7D5FF10BD10B50320FFF7D0FF11
:1039500010BD10B50420FFF7CBFF10BD10B505203A
:10396000FFF7C6FF10BD10B50620FFF7C1FF10BD61
:1039700010B50720FFF7BCFF10BD10B50820FFF7FA
:10398000B7FF10BD10B50920FFF7B2FF10BD10B58D
:103990000A20FFF7ADFF10BD10B50B20FFF7A8FF01
:1039A00010BD10B50C20FFF7A3FF10BD10B50D2002
:1039B000FFF79EFF10BD10B50E20FFF799FF10BD59
:1039C00010B50F20FFF794FF10BD10B51020FFF7C2
:1039D0008FFF10BD10B51120FFF78AFF10BD10B585
:1039E0001220FFF785FF10BD10B51320FFF780FFF1
:1039F00010BD10B51420FFF77BFF10BD10B51520CA
:103A0000FFF776FF10BD10B51620FFF771FF10BD50
:103A100010B51720FFF76CFF10BD10B51820FFF789
:103A200067FF10BD10B51920FFF762FF10BD10B57C
:103A30001A20FFF75DFF10BD10B51B20FFF758FFE0
:103A400010BD10B51C20FFF753FF10BD10B51D2091
:103A5000FFF74EFF10BD10B51E20FFF749FF10BD48
:103A600010B51F20FFF744FF10BD10B52020FFF751
:103A70003FFF10BD10B52120FFF73AFF10BD10B574
:103A80002220FFF735FF10BD10B52320FFF730FFD0
:103A900010BD10B52420FFF72BFF10BD10B5252059
:103AA000FFF726FF10BD10B52620FFF721FF10BD40
:103AB00010B52720FFF71CFF10BD10B52820FFF719
:103AC00017FF10BD10B52920FFF712FF10BD10B56C
:103AD0002A20FFF70DFF10BD10B53220FFF708FFB9
:103AE00010BD10B53320FFF703FF10BD10B5342013
:103AF000FFF7FEFE10BD10B53520FFF7F9FE10BD33
:103B000010B53620FFF7F4FE10BD10B53720FFF7D3
:103B1000EFFE10BD10B53820FFF7EAFE10BD10B55E
:103B20003920FFF7E5FE10BD10B53A20FFF7E0FEA3
:103B300010BD10B53B20FFF7DBFE10BD10B53C20DB
:103B4000FFF7D6FE10BD10B53D20FFF7D1FE10BD2A
:103B500010B53E20FFF7CCFE10BD10B53F20FFF79B
:103B6000C7FE10BD10B54020FFF7C2FE10BD10B556
:103B70004120FFF7BDFE10BD10B54220FFF7B8FE93
:103B800010BD10B54320FFF7B3FE10BDD0020020DA
:103B9000D938000810B5002400BF00BF00F056F966
:103BA000044600BF00BF1021A34800F094FE00BFF0
:103BB00000BF204600F04EF900BF00BF10BD10B599
:103BC000FFF7E8FF10BD10B500209C490860FFF723
:103BD000FDFD10BD10B5FFF7F6FFFFF7F0FF10BDBC
:103BE00000BFFEE770B505460C46002614B900BFBD
:103BF000FFF7F6FF15B90A20208070BD00BF00BF97
:103C000000F024F9064600BF00BF10228A4928466A
:103C100001F018FB00BF00BF304600F01BF900BFE9
:103C200000BF0020208000BFE7E72DE9F0410546F6
:103C30000C46002714B900BFFFF7D2FF1DB90A20B8
:103C40002080BDE8F0811021284601F0E3FA064605
:103C5000102E15D200BF00BF00F0F8F8074600BFD5
:103C600000BF10222946744801F0ECFA00BF00BFE3
:103C7000384600F0EFF800BF00BF0020208002E0CF
:103C80004FF47A70208000BFDBE710B5FFF7B4FD7A
:103C90000446204610BD7047014611B900BFFFF72A
:103CA0009FFF664A106808B1002201E04FF4FA62F3
:103CB0000A80704761490860704770B5054628461C
:103CC00000F0CFF80446183C204670BD70B505469C
:103CD000284600F0C6F80446103C204670BD70B57A
:103CE0000546284600F0BDF8044600BF204670BDDA
:103CF00030B502460B464FF0FF354FF00004AD1AC9
:103D00009C4127D24FF0FF352C0CAD1A9C410FD2AD
:103D10004FF0FF352C0AAD1A9C4103D2190E484CC6
:103D2000605C45E0190C464C645C04F108003FE01F
:103D30004FF0FF35FF24AD1A9C4105D2190A404CC3
:103D4000645C04F1100033E019463D4C645C04F1FE
:103D500018002DE04FF6FF750024AD1A9C4115D2D6
:103D60006FF07F450024AD1A9C4107D2140E44EA3F
:103D70000321334C645C04F1200019E0140C44EA84
:103D800003412F4C645C04F1280011E0FF2500245E
:103D9000AD1A9C4107D2140A44EA0361284C645CC2
:103DA00004F1300004E01146254C645C04F1380055
:103DB00030BD70B504460CB9082070BD204600F037
:103DC00053F805462846F8E770B504460CB91020AC
:103DD00070BD204600F048F805462846F8E770B563
:103DE00004460CB9202070BD204600F03DF8054681
:103DF0002846F8E72DE9F04304460D464FF0000150
:103E000084EA010085EA0101084302D14020BDE8AF
:103E1000F083E243E843521C40F1000102EA040649
:103E200001EA050730463946FFF762FF8046C8F1D0
:103E30003F094846EBE70000E00300208400002033
:103E4000FCF9000872B6704762B67047EFF3108055
:103E500072B6704780F31088704730BF704720BF3C
:103E60007047B0FA80F0704790FAA0F0B0FA80F096
:103E7000704790FAA0F0704710B5B0F1005F0AD318
:103E8000F84CA04207D8440104EB810303F1085227
:103E9000002414600CE0B0F1804F09D3F24CA04232
:103EA00006D8440104EB810303F18442002414602A
:103EB00010BD10B5B0F1005F0AD3EA4CA04207D89C
:103EC000440104EB810303F10852012414600CE067
:103ED000B0F1804F09D3E44CA04206D8440104EB72
:103EE000810303F184420124146010BD2DE9F041E7
:103EF00004464FF00008102C6BD2DFE804F0080EE7
:103F00000F1014293E090A0B0C11120D135300BF98
:103F100000BF00BF00BF00BF8AE000BF00BF00BFFE
:103F200000BF00BF84E000BF00BFFFF78FFF8046E7
:103F300000BF00BFCD48006820F48030CB49086046
:103F400000BF00BF4046FFF785FF00BF00BF6FE026
:103F500000BF00BFFFF77AFF804600BF00BFC34825
:103F6000006820F40030C149086000BF00BF40462F
:103F7000FFF770FF00BF00BF5AE000BF00BFFFF7B0
:103F800065FF804600BF00BFB848006820F480206D
:103F9000B649086000BF00BF4046FFF75BFF00BFA7
:103FA00000BF45E000BF00BFFFF750FF804600BFE5
:103FB00000BF4FF0E020006920F001004FF0E02149
:103FC000086100BF00BF4046FFF744FF00BF00BFCD
:103FD0002EE04FF0E0204068401C102101EB401023
:103FE000C6B2B44223DAA4F11000C11700EBD161CC
:103FF000C1F34715C11700EBD1614911A0EB411185
:10400000CFB200BF00BFFFF721FF804600BF00BF57
:104010000120B8404FF0E02101EB8501C1F880019B
:1040200000BF00BF4046FFF715FF00BF00BF00BF45
:1040300000BFBDE8F0812DE9F04104464FF00008D3
:10404000102C6BD2DFE804F0080E0F1014293E0983
:104050000A0B0C11120D135300BF00BF00BF00BFAD
:1040600000BF8AE000BF00BF00BF00BF00BF84E008
:1040700000BF00BFFFF7EAFE804600BF00BF7B48DD
:10408000006840F480307949086000BF00BF4046B6
:10409000FFF7E0FE00BF00BF6FE000BF00BFFFF70B
:1040A000D5FE804600BF00BF7048006840F4003075
:1040B0006E49086000BF00BF4046FFF7CBFE00BF5F
:1040C00000BF5AE000BF00BFFFF7C0FE804600BF40
:1040D00000BF6648006840F480206449086000BF63
:1040E00000BF4046FFF7B6FE00BF00BF45E000BF7F
:1040F00000BFFFF7ABFE804600BF00BF4FF0E020DF
:10410000006940F001004FF0E021086100BF00BFEE
:104110004046FFF79FFE00BF00BF2EE04FF0E020BB
:104120004068401C102101EB4010C7B2BC4223DAAA
:10413000A4F11000C11700EBD161C1F34715C117FD
:1041400000EBD1614911A0EB4111CEB200BF00BF1D
:10415000FFF77CFE804600BF00BF0120B0404FF05B
:10416000E02101EB8501C1F8000100BF00BF40461E
:10417000FFF770FE00BF00BF00BF00BFBDE8F081C9
:104180002DE9F04104464FF00008102C19D2DFE869
:1041900004F0080E0F10111516090A0B0C12130D5E
:1041A000141700BF00BF00BF00BF00BF38E000BF52
:1041B00000BF00BF00BF00BF00BF00BF00BF00BF07
:1041C0002EE04FF0E0204068401C102101EB401031
:1041D000C7B2BC4223DAA4F11000C11700EBD161D1
:1041E000C1F34715C11700EBD1614911A0EB411193
:1041F000CEB200BF00BFFFF729FE804600BF00BF60
:104200000120B0404FF0E02101EB8501C1F88002B0
:1042100000BF00BF4046FFF71DFE00BF00BF00BF4C
:1042200000BFBDE8F0812DE9F05F06460D464FF076
:10423000000B2846FFF71DFE82464FEA1A65102E36
:1042400071D2DFE806F008151617182D43090A0B7E
:104250000C59710D879E00BF00BF00BF00BF00BF9B
:10426000DFE00000FFFF0F20FFFF0F4024ED00E024
:1042700000BF00BFD5E000BF00BFFFF7E7FD8346EA
:1042800000BF00BFD848046824F0FF042C4304603A
:1042900000BF00BF5846FFF7DDFD00BF00BFC0E014
:1042A00000BF00BFFFF7D2FD834600BF00BFCE486E
:1042B000046824F47F4444EA0524046000BF00BF7E
:1042C0005846FFF7C7FD00BF00BFAAE000BF00BF10
:1042D000FFF7BCFD834600BF00BFC348046824F459
:1042E0007F0444EA0544046000BF00BF5846FFF75E
:1042F000B1FD00BF00BF94E000BF00BFFFF7A6FD07
:10430000834600BF00BFB848001D046824F07F4406
:1043100044EA0564046000BF00BF5846FFF79AFDF9
:1043200000BF00BF7DE043E000BF00BFFFF78EFD90
:10433000834600BF00BFAC480830046824F0FF0487
:104340002C43046000BF00BF5846FFF783FD00BF49
:1043500000BF66E000BF00BFFFF778FD834600BFE7
:1043600000BFA1480830046824F47F0444EA0544EF
:10437000046000BF00BF5846FFF76CFD00BF00BFE0
:104380004FE000BF00BFFFF761FD834600BF00BFE5
:1043900095480830046824F07F4444EA05640460CA
:1043A00000BF00BF5846FFF755FD00BF00BF38E013
:1043B0004FF0E0204068401C102101EB401000F05D
:1043C000FF094E452CDAA6F11000C11700EB9171E0
:1043D000C1F38707C11700EB91718910A0EB810130
:1043E00001F0FF0800BF00BFFFF730FD834600BFAC
:1043F00000BF7E4850F827404FEAC801FF208840A0
:1044000084434FEAC80105FA01F00443774840F8B5
:10441000274000BF00BF5846FFF71CFD00BF00BF8C
:1044200000BF00BFBDE8F09F2DE9F05F06464FF0EA
:10443000000B102E70D2DFE806F0080F1215182AB4
:104440003D090A0B0C495C0D708400BF00BF00BF22
:1044500000BF00BF664CBAE06FF00204B7E06FF037
:104460000104B4E04FF0FF34B1E000BF00BFFFF73C
:10447000EDFC834600BF00BF5B480568ECB200BF9F
:1044800000BF5846FFF7E6FC00BF00BF9FE000BF3B
:1044900000BFFFF7DBFC834600BF00BF5248056842
:1044A000C5F3072400BF00BF5846FFF7D3FC00BF89
:1044B00000BF8CE000BF00BFFFF7C8FC834600BF11
:1044C00000BF49480568C5F3074480E000BF00BF4E
:1044D000FFF7BCFC834600BF00BF4348001D0568D2
:1044E0002C0E00BF00BF5846FFF7B4FC00BF00BF52
:1044F0006DE000BF00BFFFF7A9FC834600BF00BF0F
:10450000394808300568ECB200BF00BF5846FFF7D5
:10451000A1FC00BF00BF5AE026E000BF00BFFFF7CC
:1045200095FC834600BF00BF2F4808300568C5F3DF
:10453000074400BF00BF5846FFF78CFC00BF00BF18
:1045400045E000BF00BFFFF781FC834600BF00BF0E
:104550002548083005682C0E00BF00BF5846FFF7FD
:1045600079FC00BF00BF32E04FF0E0204068401C03
:10457000102101EB401000F0FF0A564525DAA6F1A4
:104580001000C11700EB9171C1F38707C11700EB51
:1045900091718910A0EB810101F0FF0900BF00BFFC
:1045A000FFF754FC834600BF00BF104850F8275067
:1045B00000BF00BF5846FFF74DFC00BF00BF4FEAE9
:1045C000C90025FA00F0C4B200E0094C00BF00BFEA
:1045D000002C05DB2046FFF74CFC80464FEA1864B0
:1045E0002046BDE8F09F000018ED00E000E400E088
:1045F0000080FFFF0146412903DB5A2901DC01222B
:1046000000E00022012A08D0612903DB7A2901DCBD
:10461000012200E00022012A01D1012200E0002253
:10462000104670470146412903DB5A2901DC01226B
:1046300000E00022012A08D0612903DB7A2901DC8D
:10464000012200E00022012A01D1012200E0002223
:10465000012A08D0302903DB392901DC012200E0DE
:104660000022012A01D1012200E0002210467047F9
:104670000146612903DB7A2901DC012200E00022E6
:10468000104670470146412903DB5A2901DC01220B
:1046900000E00022104670470146302903DB39292B
:1046A00001DC012200E0002210467047014630295B
:1046B00003DB372901DC012200E0002210467047AD
:1046C0000146302901DB392907DD412901DB462973
:1046D00003DD612903DB662901DC012200E0002201
:1046E000104670470146202901D0092901D1012235
:1046F00000E00022104670470146202909D00D290C
:1047000007D00A2905D00C2903D0092901D00B298B
:1047100001D1012200E00022104670470146202905
:1047200003DB7E2901DC012200E0002210467047F5
:104730000146212903DB7E2901DC012200E0002261
:10474000104670470146202903DB7E2901DC012247
:1047500000E00022012A35D1202909D00D2907D0F7
:104760000A2905D00C2903D0092901D00B2901D130
:10477000012200E000222ABB412903DB5A2901DC87
:10478000012200E00022012A08D0612903DB7A29F6
:1047900001DC012200E00022012A01D1012200E017
:1047A0000022012A08D0302903DB392901DC01224B
:1047B00000E00022012A01D1012200E000220AB912
:1047C000012200E000221046704701464AB2002A4A
:1047D00001DB1F2901DD7F2901D1012200E0002238
:1047E000104670470146412903DB5A2901DC0122AA
:1047F00000E00022012A02D101F1200200E00A4675
:10480000D0B270470146612903DB7A2901DC01221D
:1048100000E00022012A02D1A1F1200200E00A46B4
:10482000D0B27047F0B504460B462046FFF7EAFFCA
:1048300005461846FFF7E6FF0646B54201D10120BE
:1048400000E0002007463846F0BD0000FC48FD4966
:1048500001600146416000218160C16001614161E8
:104860008161C16101620163C1624162F649816394
:10487000C1634FF48061016441640146F34A1160F1
:1048800070472DE9F04105460B4694460027002469
:1048900002E03F021F43641C042CFAD3604605F07B
:1048A0000306294646B1344603E001F8013B401EA9
:1048B000641C08B1042CF8D30A4601E080C2001F32
:1048C0000428FBD2114602E001F8013B401E0028FB
:1048D000FAD1BDE8F08130B505460C4622460021EC
:1048E0002846FFF7CEFF30BD2DE9F04F85B00746D3
:1048F0008846914646463D46AE4207D94A4641461D
:10490000384601F01DF905B0BDE8F08F4C4607EBC5
:104910000900451E08EB0900461EA81B04900498D8
:10492000042834D305F00300029006F0030101913E
:10493000DDE90110884201D1012000E00020009053
:104940000098012823D10298032810D0029840B281
:10495000039008E016F8010905F80109641E0398A0
:10496000401E40B2039014B103980028F2DAA5F17A
:10497000030AA6F1030B04E05BF804094AF80409F2
:10498000241F042CF8D20AF103050BF1030604E0FE
:1049900016F8010905F80109641E002CF8D100BFC2
:1049A000B1E72DE9F84F80468946154615B9012033
:1049B000BDE8F88FB8F1000F01D10020F8E7B9F198
:1049C000000F01D10020F3E70124294608EB05027E
:1049D00009EB050302F0030C03F0030BDC4501D1E6
:1049E000012000E0002000900098012829D1BCF1AE
:1049F000000F12D0E2460AE0521E5B1E107893F8B8
:104A000000E0704500D00024491EAAF1010A012CE3
:104A100003D111B1BAF1000FEED1012C11D116461C
:104A20001F4608E0361F3F1F3068D7F800E070458A
:104A300000D00024091F012C01D10429F2D23246F2
:104A40003B4608E0521E5B1E107893F800E070456C
:104A500000D00024491E012C01D10029F2D12046AA
:104A6000A6E7F0B503460E461546D96BB1FBF5F047
:104A700005FB101CBCF1000F02D0A5EB0C0200E0FE
:104A800000229419586CA04201D20020F0BD0F19E9
:104A90001144DF63586C001B58640846F6E72DE9A3
:104AA000F04106460F46B6FBF3FC03FB1C6109B15F
:104AB0005C1A00E00024B2FBF3FC03FB1C2109B1EB
:104AC0005D1A00E0002502EB0508A7F1010C08FBC8
:104AD0000C4C0CEB0200BDE8F0812DE9FE4F804646
:104AE000894614461E46002000900CB901AC00BF58
:104AF00000202060524F00BF00BFFFF7A7F90090D1
:104B000000BF00BFF86B0290D7F844B04B46424656
:104B100001210298FFF7C3FF05465D450FD900BF8D
:104B200000BF0098FFF796F900BF00BFA5EB0B0090
:104B3000206042F2E27030800020BDE8FE8F4A46DD
:104B400041463846FFF78DFF8246BAF1000F0CD17F
:104B500000BF00BF0098FFF77DF900BF00BF2560D0
:104B600042F2E27030800020E7E700BF00BF00980B
:104B7000FFF770F900BF00BF42F21070308050465E
:104B8000DBE72DE9FC5F07460C46904600200090CD
:104B900000BF00BFFFF75AF9009000BF00BFD7F871
:104BA0000490D9F8380008B1484600E0244882460D
:104BB000DAF84450DAF83CB000BF00BF0098FFF7C5
:104BC00049F900BF00BF012C0AD9BBFBF4F004FB7C
:104BD00010B60EB1A01B00E00020019001982D1A24
:104BE00042F21070A8F800002846BDE8FC9F70B59E
:104BF00004460D462A4621461148FFF7C2FF0646E5
:104C0000304670BD18B942F211720A807047104ADE
:104C10000260002242608260C26002614261826181
:104C2000C2610262826242630263C2624262826362
:104C3000C2630264426442F210720A8000BFE5E778
:104C4000F00300204845415038040020880000202F
:104C50004E4F4E452DE9FF4F91B00446DDE92089C6
:104C600000200090B8F1000F02D10DF1180800BF2C
:104C70000020C8F8000049462046FFF7C3FFB9F8F6
:104C80000000A0F51C51103902D015B0BDE8F08F1E
:104C9000FE48006820B942F2E770A9F80000F4E786
:104CA000DFF8ECA30020059000BF00BFFFF7CEF8AF
:104CB000009000BF00BF129880BB5546AB462E4601
:104CC000DAF83C000D9004231A4614990D98FFF76A
:104CD000E6FE049004990D9808440C90DDE91E232B
:104CE00014990C98FFF7DBFE0390DDE903010844FB
:104CF0000590DAF844700598B8427DD900BF00BF2E
:104D00000098FFF7A7F800BF00BF0598C01BC8F8C0
:104D1000000042F2E270A9F80000B6E7FFE712983F
:104D20000B90DDE912010844401E0A900025AB46B5
:104D3000D64806683BE0B16B1298814205D1316CD0
:104D40001398814201D1354633E0B06B0990316C44
:104D5000B06B0844401E0890DDE90901814200D291
:104D600027E009990B98884203D8DDE909108842A9
:104D70000FD209990B98884203D308990A98884260
:104D800007D908990B9888420FD808990A98884241
:104D90000BD300BF00BF0098FFF75CF800BF00BF57
:104DA00042F27F70A9F800006FE7B346F668002E64
:104DB000C1D100BF45B925461298A0631298E0639F
:104DC0001398206413986064DAF83C000D90042373
:104DD0001A4614990D98FFF762FE0490DAF84470B1
:104DE0000498B84211D900BF00BF0098FFF732F80D
:104DF00000BF00BF049800E024E0C01BC8F800001A
:104E000042F2E270A9F800003FE7E86B0C90DDE9A0
:104E10001E2314990C98FFF742FE03906F6C0398C1
:104E2000B8420FD900BF00BF0098FFF713F800BFCA
:104E300000BF0398C01BC8F8000042F2D870A9F860
:104E4000000022E714988000029004225046029944
:104E5000FFF707FE0F900F9830BBDAF8447000BFE1
:104E600000BF0098FEF7F6FF00BF00BF129858B9C8
:104E70000598B84204D90598C01BC8F800000EE098
:104E80000598C8F800000AE00298B84204D90298D0
:104E9000C01BC8F8000002E00298C8F8000042F207
:104EA000E270A9F80000F0E60020019034E0284606
:104EB000DDE91E12FFF7D5FD0E900E9820BBE86BC2
:104EC0000C906F6C00BF00BF0098FEF7C3FF00BFDF
:104ED00000BF01991498401A0790DDE91E23079935
:104EE0000C98FFF7DCFD05900598B84204D90598A9
:104EF000C01BC8F8000002E00598C8F8000042F2A4
:104F0000D870A9F80000C0E6019ADDE90E0141F869
:104F100022000198401C0190149901988842C6D340
:104F2000A5420DD1C4F808B0E660BBF1000F02D075
:104F3000CBF80C4001E0554804605EB1B46009E074
:104F4000686910902561109860616C61109808B1D3
:104F5000109804614F48206065600C98A061039927
:104F60000C980844401EE0610F9820620398A062EC
:104F70001F9860631E9820631498E0621498606222
:104F800000BF00BF0098FEF765FF00BF00BF42F200
:104F90001070A9F8000000BF77E62DE9F041044643
:104FA0000D46002700BF00BFFEF750FF074600BFB9
:104FB00000BF666A00BF00BF3846FEF74BFF00BF68
:104FC00000BF42F2107028803046BDE8F0812DE924
:104FD000F041044688461546002700BF00BFFEF793
:104FE00035FF074600BF00BF606A60B900BF00BF61
:104FF0003846FEF72FFF00BF00BF42F2DE70288068
:105000000020BDE8F081E16A606A88420BD900BFE8
:1050100000BF3846FEF71EFF00BF00BF42F295708A
:1050200028800020EDE7606A401E6062D4E9080134
:1050300050F8216000BF00BF3846FEF70BFF00BFED
:1050400000BF42F2107028803046DAE72DE9F047C1
:1050500004460F4615464FF0000900BF00BFFEF79B
:10506000F5FE814600BF00BFE06AC01B461EE06A35
:10507000B04213D800BF00BF4846FEF7EBFE00BFAA
:1050800000BF42F295702880002005E088000020D3
:10509000F0030020504F4F4CBDE8F087606AB042EB
:1050A0000BD900BF00BF4846FEF7D4FE00BF00BFCB
:1050B00042F2957028800020E7E7206A50F82680A9
:1050C00000BF00BF4846FEF7C5FE00BF00BF42F26A
:1050D000107028804046D8E72DE9F04704460E4678
:1050E00017464FF0000A00BF00BFFEF7AFFE824632
:1050F00000BF00BFE16A606A88420BD300BF00BFF7
:105100005046FEF7A7FE00BF00BF42F2DD703880B8
:10511000BDE8F0874FF00008656A08E0206A50F8A3
:105120002590B14502D14FF0010803E06D1CE06A03
:10513000A842F3D800BFB8F1010F06D1D4E90801A5
:1051400050F82100216A41F82500D4E9080140F80F
:105150002160606A401C606200BF00BF5046FEF7DD
:1051600079FE00BF00BF42F21070388000BFCFE769
:105170002DE9F84F04460F461646002000904FF0E8
:10518000FF3B00BF00BFFEF761FE009000BF00BF05
:10519000E16A606A88420CD300BF00BF0098FEF746
:1051A00059FE00BF00BF42F2DD7030805846BDE8B6
:1051B000F88F4FF00009656A08E0206A50F82580F2
:1051C000B84502D14FF0010903E06D1CE06AA84226
:1051D000F3D800BFB9F1010F0FD1E06A401EA0EB78
:1051E000050A00BF00BF0098FEF734FE00BF00BFF5
:1051F00042F2107030805046D9E700BF00BF0098DF
:10520000FEF728FE00BF00BF42F28870308058468B
:10521000CDE7000010B502460B461146002001E024
:10522000491C401C19B10C780CB19842F8D310BD40
:1052300030B504464FF0FF312046FFF7EBFF05463F
:10524000284630BD70B504460D4616460CB9002000
:1052500070BD0DB90020FBE721462A46002304E07B
:1052600010780870491C521C5B1C21B11AB11078CF
:1052700008B1B342F4D301B10AB90020E8E7B34260
:1052800001D2002008702046E2E770B504460D46C2
:105290004FF0FF3229462046FFF7D4FF064630463E
:1052A00070BD70B503460C4615460BB9002070BDA5
:1052B0000CB90020FBE70DB91846F8E7194600E0E5
:1052C000491C11B108780028FAD109B90020EEE78D
:1052D0002246002604E010780870491C521C761CF7
:1052E00021B11AB1107808B1AE42F4D301B10AB9B4
:1052F0000020DCE7002008701846D8E770B50446A7
:105300000D464FF0FF3229462046FFF7CAFF0646FA
:10531000304670BD2DE9F04305460B469446BCF17E
:10532000000F02D10020BDE8F08335B90BB9002091
:10533000F9E7187842421046F5E713B92A78104683
:10534000F1E729461C460F4626467F1C761C4FF087
:10535000000805E0491C641C7F1C761C08F101084C
:10536000087894F80090484505D1087818B117B12D
:105370000EB1E045EED3E04501D10020D3E7087837
:1053800094F80090484505D0087894F80090A0EB78
:1053900009020BE0087808B9002207E02FB90EB91E
:1053A000002203E03078424200E03A781046BAE743
:1053B00070B504460D464FF0FF3229462046FFF7F0
:1053C000A9FF0646304670BD2DE9F74F82B08046F2
:1053D0000E46049818B9002005B0BDE8F08FB8F16A
:1053E000000F09D10EB90020F6E73078FFF7FAF97F
:1053F00007467C422046EFE73EB998F80000FFF7E9
:10540000F1F905462C462046E6E7C146B246C846B5
:10541000C3465646CDF804A0D8460BF1010B019EB9
:10542000701C0190C84699F80000FFF7DBF90546AB
:1054300056469AF80000FFF7D5F90746002000907D
:1054400015E009F101090AF1010A0BF1010B0198BC
:10545000401C01900098401C009099F80000FFF754
:10546000C1F905469AF80000FFF7BCF90746BD42AE
:105470000BD199F8000040B1BBF1000F05D00198A5
:1054800018B1049900988842DBD3049900988842A7
:1054900001D10020A0E7BD4201D0EC1B16E00DB900
:1054A000002413E0BBF1000F0AD1019808B90024D1
:1054B0000CE001990878FFF795F907467C4205E072
:1054C0009BF80000FFF78EF905462C46204683E73F
:1054D00070B504460D464FF0FF3229462046FFF7CF
:1054E00073FF0646304670BD30B504460B46154680
:1054F0000CB9002030BD0BB90020FBE7214600228B
:1055000001E0491C521C31B1087820B10878A8424A
:1055100001D09A42F5D309B90020EBE79A4201D3B2
:105520000020E7E70878A84201D00020E2E708461B
:10553000E0E770B505460C4622464FF0FF3128469D
:10554000FFF7D2FF0646304670BD2DE9F043054611
:105550000E46174615B90020BDE8F0830EB90020AD
:10556000FAE72C46A6F1010949462046FFF752FE0C
:10557000804644440CB90020EEE700E0641EAC42D3
:1055800002D02078B842F9D12078B84201D000206A
:10559000E2E72046E0E770B505460C4622464FF0AC
:1055A000FF312846FFF7D1FF0646304670BD70B583
:1055B00004460D4616460CB9002070BD0BB90020FC
:1055C000FBE721461A4605E00878A84200D10E7094
:1055D000491C521E19B1087808B1002AF4D120469E
:1055E000EBE7F0B504460D4616464FF0FF33324662
:1055F00029462046FFF7DBFF07463846F0BD2DE978
:10560000FF4F06460F4615461EB9002004B0BDE800
:10561000F08F0FB90020F9E70DB90020F6E7681CFC
:1056200000D001E04FF0FF30039029463046FFF7ED
:10563000F1FD804638460399FFF7ECFD04460CB9AE
:105640003046E3E7444501D90020DFE706EB080BCD
:10565000BBF1000F01D10020D8E707EB040BBBF131
:10566000000F01D10020D1E7A8EB040002904FF019
:1056700000090020019000BF06EB090000902246BF
:1056800039460098FFF746FE8246BAF1000F01D175
:10569000012000E00020019009F10109019810B9F2
:1056A00002988145E8D9BAF1000F01D00020ADE79A
:1056B0000098ABE770B504460D464FF0FF3229461F
:1056C0002046FFF79CFF0646304670BD2DE9FF4F90
:1056D0008DB00F4615461A9E1D9818B9002011B0BE
:1056E000BDE8F08F002003900490012F01DA012023
:1056F0000390022D01D3242D01D90120039096B3EC
:105700003046FFF70BF802900298012802D00120E2
:10571000039028E0302E26D0A6F13000C0B20790CA
:105720001B98012804D0A6F14100C0B2069003E006
:10573000A6F16100C0B206900A2D02D80798A842CF
:1057400009DB0A2D09D907980A2804D3A5F10A0014
:105750000699884201D9012000E0002005900598B3
:10576000012800D103901D9C0398002846D1DDF844
:1057700034A0DDF834A0CDF830A001200B9007E074
:105780000B98401CC0B20B900C98B0FBF5F00C903D
:105790000C98A842F4D21098012800D100E0002013
:1057A00009900B9909980844B84225DC0020019023
:1057B0000B98B84201DA0B9800E038460A903EB1E7
:1057C000B8460A98391A0998081AC0B2089006E033
:1057D000DDE90910084400F0FF080020089008984F
:1057E000002806DD302E01D1012000E000200490C9
:1057F00004E00020049001E001200390039800B130
:10580000B84644441C9808B100202070641E4FF034
:10581000000941E00398A8BBBAF1000F02D1B9F129
:10582000000F1CD1BAFBF5F005FB10A000F0FF0B38
:10583000BBF10A0F04D20BF1300004F801090BE0B0
:105840001B98012804D00BF1370004F8010903E08C
:105850000BF1570004F80109BAFBF5FA1AE01098A9
:10586000012810D1049808B9019828B1049850B1C2
:10587000A8F10100484506D12D2004F801090120B6
:10588000019007E003E02EB104F8016902E03F2037
:1058900004F8010909F10109C145BBD3039808B116
:1058A00000201CE71D981AE72DE9FF5F05460E460C
:1058B00017461C46DDE90F9ADDF8388000233A468A
:1058C000314628468DE81007FFF700FF834658460B
:1058D00004B0BDE8F09F2DE9FF4F85B0044689462E
:1058E0001F46DDE913AB002C02DA6542012601E018
:1058F0002546002612983346CDE902ABCDE900706B
:1059000049462846079AFFF7E1FE8046404609B01F
:10591000BDE8F08F2DE9FF4F8BB00646894615464E
:10592000B9F1000F02D10DF1240900BFC9F80060E0
:10593000189810B907A8189000BF00211898017096
:105940001EB900200FB0BDE8F08F012D01D0242D2D
:1059500001D90020F6E734462078FEF7CDFE03900B
:1059600004E0641C2078FEF7C7FE0390039801282A
:10597000F7D020782B2802D02D280BD103E0641C0F
:105980004FF0000B09E00E98012800D1641C4FF085
:10599000010B02E04FF0000B00BF00BF0A9425B1DD
:1059A000082D1CD0102D36D11EE02078302814D1BF
:1059B000641C2078582802D078280BD100BF10250D
:1059C00067783846FEF77CFE8246BAF1010F00D1B7
:1059D000641C01E0082500BF00E00A251CE02078D7
:1059E000302800D1641C17E02078302812D1641CC4
:1059F0002078582802D078280AD100BF6778384626
:105A0000FEF75EFE8246BAF1010F00D1641C00E091
:105A100000BF00BF00E000BF00BF4FF00008002043
:105A20000290019040E027783846FEF7FBFD059094
:105A30000598012836D13846FEF72EFE06900698C6
:105A4000012804D1A7F13000C0B208900FE0384619
:105A5000FEF70EFE04900498012804D1A7F1570028
:105A6000C0B2089003E0A7F13700C0B208900898D0
:105A7000A84214DA029880B9304850F82500404511
:105A800009D308FB05F8089880440898804504D29B
:105A90000120029001E001200290641C04E001203A
:105AA000019001E00120019001980028BBD00298EC
:105AB000012801D14FF0FF380A98844202D0C9F87A
:105AC000004001E0C9F80060189880F800B0404636
:105AD00038E7F8B504460D46164600200346324620
