:020000040800F2
:10000000D8EB0020013C0008093C00080B3C00082C
:100010000D3C00080F3C0008113C000800000000E7
:10002000000000000000000000000000133C000879
:10003000153C000800000000233D0108A101010853
:10004000872100081B3C00081B3C00081B3C0008E3
:100050001B3C00081B3C00081B3C00081B3C000824
:100060001B3C00081B3C00081B3C00081B3C000814
:100070001B3C00081B3C00081B3C00081B3C000804
:100080001B3C00081B3C00081B3C00081B3C0008F4
:100090002F2700081B3C00081B3C00081B3C0008E5
:1000A0001B3C00081B3C00081B3C00081B3C0008D4
:1000B0001B3C00081B3C00081B3C00081B3C0008C4
:1000C0001B3C00081B3C00081B3C00081B3C0008B4
:1000D0001B3C00081B3C00081B3C0008952F000837
:1000E0001B3C00081B3C00081B3C00081B3C000894
:1000F0001B3C00081B3C00081B3C00081B3C000884
:100100001B3C00081B3C00081B3C00081B3C000873
:100110001B3C00081B3C00081B3C00081B3C000863
:100120001B3C00081B3C00081B3C00081B3C000853
:10013000DFF80CD013F0C2FA004800476D5B0008EE
:10014000D8EB00204FF0010080F3138801480249EA
:100150000160FEE70CED00E00400FA05014600BF77
:10016000704700BF594A128812F0400FFAD0C2B24D
:10017000564B1B1D1A80704710B505F0E3FD10BDEE
:100180005348806940F001005149886151484068F6
:1001900020F0E0604F4948600846406840F08060C9
:1001A0004860704708B54FF4806003F03BFD27209E
:1001B0008DF8000000208DF801008DF8020001206C
:1001C0008DF80300684603F032FD25208DF800000D
:1001D00000208DF801008DF8020001208DF8030049
:1001E000684603F024FD34208DF8000000208DF8CF
:1001F00001008DF8020001208DF80300684603F02D
:1002000016FD26208DF8000000208DF801008DF8E5
:10021000020001208DF80300684603F008FD08BDC8
:1002200010B586B004460121052005F06BF80121C8
:10023000480405F074F80420ADF8140018208DF877
:10024000170003208DF8160005A9234804F088FD47
:100250000820ADF8140004208DF8170003208DF855
:10026000160005A91C4804F07BFD01940020ADF8A0
:100270000800ADF80A00ADF80C00ADF810000C2035
:10028000ADF80E0001A9114805F071FAFFF78AFFD9
:10029000012240F225510D4805F001FB01210B48D8
:1002A00005F0F1FA06B010BD704710B5FFF764FF16
:1002B000FFF7FAFF4FF4E130FFF7B2FFFFF772FFED
:1002C00001F000FE03F0E0FA10BD00000044004021
:1002D00000100240000001400008014010B502F08B
:1002E0005FFA10BD10B511228021D24801F033FD14
:1002F00010BD2DE9F047044601F003FB8146FFF7EE
:10030000F1FFCC4801F0E6FA06463246CAA148465B
:1003100001F0D8F90020014601F0CAFA064632463B
:10032000C8A1484601F0CEF9204612F07AFF0746F0
:1003300001F0BEFA06463246C5A1484601F0C2F9B0
:10034000484601F05EF98246504612F005FE85B23D
:100350002946504603F00DFA484600F005FA50468B
:1003600014F0C6FABDE8F0872DE9F05F05461446A3
:1003700001F0C7FA8246FFF7B5FFAE4801F0AAFACE
:1003800007463A46ACA1504601F09CF90020B4491A
:1003900001F08EFA07463A46AAA1504601F092F9BA
:1003A000284612F03EFF074601F082FA81464A468F
:1003B000ACA1504601F086F90020014601F078FA20
:1003C00007463A46A9A1504601F07CF9204601F0C3
:1003D00081FA07463A46A7A1504601F073F9504604
:1003E00001F00FF98346584612F0B6FD86B2314649
:1003F000584603F0BEF9504600F0B6F9584614F0DE
:1004000077FABDE8F09F2DE9F04F85B004468846A5
:1004100001F077FA04900027B946FFF763FF85489B
:1004200001F058FA83465A4683A1049801F04AF92C
:100430000020934901F03CFA83465A4681A1049872
:1004400001F040F9002000900190029003900025F7
:100450000DE0611C4A5D0DEB07008AA113F0B6FCAC
:1004600000F0FF0907EB0900C7B2681CC5B2607A4B
:10047000A842EEDC684601F02DFA83465A46414612
:10048000049801F01FF9049801F0BBF88246504629
:1004900012F062FD86B23146504603F06AF90498C4
:1004A00000F062F9504614F023FA05B0BDE8F08F71
:1004B0002DE9FC4701F025FA8146FFF713FF694655
:1004C00001A803F05EF8019808B1009808B9BDE8EA
:1004D000FC87584801F0FEF905462A4656A14846D1
:1004E00001F0F0F80020694901F0E2F905462A46DA
:1004F00054A1484601F0E6F8019812F092FE064633
:1005000001F0D6F905462A4661A1484601F0DAF81D
:10051000009812F086FE054601F0CAF907463A46F1
:100520005CA1484601F0CEF8484601F06AF88046E2
:10053000404612F011FD84B22146404603F019F9FD
:10054000484600F011F9404614F0D2F900BFBEE76A
:1005500070B5044650480470022201464F4803F02B
:10056000F4FAC5B270BD10B502224B494B4803F0F6
:10057000B4FA4948007810BD70B5054631A1284647
:1005800001F061F804460CB1207D70BD0020FCE74D
:1005900070B505462EA1284601F055F804460CB169
:1005A000207D70BD0020FCE72DE9F04101F0A9F9A4
:1005B0000546FFF797FE1F4801F08CF907463A46BB
:1005C0001DA1284601F07EF80020354901F070F9A0
:1005D00007463A461BA1284601F074F8284601F068
:1005E00010F80646304612F0B7FC84B22146304679
:1005F00003F0BFF8284600F0B7F8304614F078F959
:10060000BDE8F0813EB5044602A800210B46224613
:10061000CDE9001008460EF0E2FC3EBD3EB50446B2
:1006200002A8002123460A46CDE9001008460EF034
:10063000D6FC3EBDCC1E00206465766963656964A6
:10064000000000006D73675F747970650000000042
:100650006865617274626561745F636F756E740062
:1006600000000840636D645F696400007374617426
:1006700075730000636D645F74797065000000003D
:1006800000001040253032780000000000001C40BF
:100690006C6E67006C61740005000020E0F7FFFFDE
:1006A00000002040F7480068704770B504460D46CA
:1006B0002CB9AC4201D0012070BD0020FCE70DB97F
:1006C0000120F9E705E0207808B90020F4E7641C70
:1006D0006D1C207812F0F7FB0646287812F0F3FB29
:1006E0008642F0D0207812F0EEFB0646287812F011
:1006F000EAFB301AE0E770B50446204612F02CFC05
:10070000451C2846E04909688847060000D170BDAD
:100710002A462146304612F0DCFB3046F7E730B976
:10072000DA49D94A1160DA49DA4A1160704701683A
:1007300009B1016800E0D549D34A1160416809B1A7
:10074000416800E0D249D34A116000BFEEE710B51E
:100750002820CD490968884704461CB12821204635
:1007600012F0D0FB204610BD70B504461EE025688F
:10077000A08910F4807F04D1A06810B1A068FFF7B1
:10078000F3FFA08910F4807F05D1206918B1C14919
:10079000206909688847206A18B1BE49206A09683B
:1007A00088472046BB49096888472C46002CDED183
:1007B00070BD2DE9F04F8BB083468A460020044679
:1007C00005460026B44F002188468946099001203D
:1007D00008909AF800002D2802D1B04F0AF1010AC2
:1007E0009AF80000302801D10AF1010A9AF80000B5
:1007F000312822DB9AF8000039281EDC00BF1AF8E5
:10080000011BA1F1300012F0FBFC0022A44BCDE94A
:1008100006012046294612F081FCCDE90401DDE9FC
:10082000062312F0D4FB04460D469AF80000302847
:1008300003DB9AF800003928E1DD9AF800002E2841
:1008400030D19AF8010030282CDB9AF801003928C1
:1008500028DC0AF1010A00BF1AF8011BA1F13000DF
:1008600012F0CEFC00228E4BCDE90601204629462F
:1008700012F054FCCDE90401DDE9062312F0A7FBD8
:1008800004460D460022844B4046494612F040FC87
:10089000804689469AF80000302803DB9AF8000069
:1008A0003928D9DD9AF80000652803D09AF80000AD
:1008B000452823D10AF1010A9AF800002B2802D119
:1008C0000AF1010A08E09AF800002D2804D14FF03F
:1008D000FF3008900AF1010A08E01AF8010B3038DD
:1008E000099901EB810100EB410009909AF80000A1
:1008F000302803DB9AF800003928EEDDDDE9082115
:1009000001FB02F012F07CFC42464B46CDE90001AF
:1009100012F05DFB02460B46CDE902010020604962
:1009200014F044F822462B46CDE9060130463946FC
:1009300012F0F4FBCDE90401DDE9062312F0EEFB31
:1009400004460D46CBE906452046294612F076FCC2
:10095000CBF814000320CBF80C0050460BB0BDE8D8
:10096000F08F2DE9F05F8146D9E90645D9F81400EA
:1009700012F046FC074622462B4612F0C9FB21F036
:10098000004182460022474B12F0A4FC1BD8464A85
:10099000464B2046294612F09DFC14D80022444BB9
:1009A0002046294612F0AAFC0DD8152036490968C0
:1009B00088470646002E4CD03EA13046D9F8142078
:1009C00013F004FA45E040202F490968884706469D
:1009D000002E3ED02046294613F01CFF0746224633
:1009E0002B4612F095FB21F00041824600222D4B50
:1009F00012F070FC0FD825F0004127462E4A2F4BED
:100A0000384612F067FC06D222462B462CA130460F
:100A100013F0DCF91DE025F0004127462A4A2B4B54
:100A2000384612F057FC07D325F000410022284B2E
:100A3000384612F063FC06D222462B4625A13046EA
:100A400013F0C4F905E022462B4623A1304613F0EB
:100A5000BDF93046BDE8F09F0146002208783028F5
:100A600006DB0878392803DC08783038024441E096
:100A70000878412832DB087846282FDC0878373898
:100A8000024437E01000002008000020414901081E
:100A9000F14801080C0000200000F03F0000F0BF0A
:100AA000000024400000B03C0000C0FFFFFFDF4119
:100AB0000000E0C12564000044F3C2E4E4E9634CB3
:100AC000252E3066000000008DEDB5A0F7C6B03EC3
:100AD00065CDCD41256500002566000008786128B8
:100AE00006DB0878662803DC08785738024401E002
:100AF000002070471201491C0878302806DB08786E
:100B0000392803DC08783038024415E00878412899
:100B100006DB0878462803DC0878373802440BE007
:100B20000878612806DB0878662803DC08785738DF
:100B3000024401E00020DCE71201491C087830285B
:100B400006DB0878392803DC08783038024415E0E1
:100B50000878412806DB0878462803DC087837380F
:100B600002440BE00878612806DB0878662803DC7D
:100B700008785738024401E00020BAE71201491C06
:100B80000878302806DB0878392803DC0878303804
:100B9000024415E00878412806DB0878462803DC83
:100BA0000878373802440BE00878612806DB0878BB
:100BB000662803DC08785738024401E0002098E7F3
:100BC000104696E72DE9F05F8346884608F1010458
:100BD000002798F80000222805D0F748C0F80080C8
:100BE0000020BDE8F09F04E014F8011B5C2900D14F
:100BF000641C2078222804D0207810B1781C0700CB
:100C0000F2D1781CED49096888478146B9F1000F97
:100C100001D10020E5E708F101044D469EE020786F
:100C20005C2804D014F8010B05F8010B96E0641C55
:100C30002078722818D006DC622809D066280BD0EC
:100C40006E287DD10CE0742812D07528F9D113E0FC
:100C5000082005F8010B7FE00C2005F8010B7BE074
:100C60000A2005F8010B77E00D2005F8010B73E071
:100C7000092005F8010B6FE0601CFFF7EDFE06464A
:100C8000241DB6F55C4F02D3B6F5604F00D306B90C
:100C900062E0B6F5584F1CD3B6F55C4F19D26078B8
:100CA0005C2802D1A078752800D055E0E01CFFF741
:100CB000D3FE8246A41DBAF55C4F02D3BAF5604F4D
:100CC00000D349E0C6F30901504661F39F2000F5C7
:100CD00080360427802E01D2012708E0B6F5006F88
:100CE00001D2022703E0B6F5803F00D203273D443E
:100CF000012F20D0022F15D0032F0AD0042F24D18A
:100D000006F0BF0040F08001681E05460170B6097C
:100D100000BF06F0BF0040F08001681E054601706C
:100D2000B60900BF06F0BF0040F08001681E05460E
:100D30000170B60900BFA248C05D3043C1B200E0F7
:100D400006E0681E0546017000BF00BF3D4403E099
:100D5000207805F8010B00BF00BF641C2078222812
:100D600003D0207800287FF45AAF00202870207824
:100D7000222800D1641CCBF810900420CBF80C0082
:100D800020462EE72DE9F04707464FF000082FB91F
:100D9000AFF2D020FFF7AFFCBDE8F0873D460DE095
:100DA000494688A012F0CFF810B108F1010804E01C
:100DB000B9F1200F01DA08F105086D1C95F80090D3
:100DC000B9F1000F04D008F101005FEA0008E7D193
:100DD00008F1030079490968884706460EB90020E2
:100DE000DAE734463D46222004F8010B47E0287834
:100DF0001F280ADD2878222807D028785C2804D00C
:100E000015F8010B04F8010B39E05C2004F8010B24
:100E100015F8011B89460C2919D006DC082912D0C7
:100E2000092920D00A2922D115E00D2917D022291D
:100E300005D05C291BD15C2004F8010B1EE02220A8
:100E400004F8010B1AE0622004F8010B16E066209A
:100E500004F8010B12E06E2004F8010B0EE0722082
:100E600004F8010B0AE0742004F8010B06E04A467E
:100E700056A1204612F0AAFF641D00BF00BF2878CB
:100E80000028B4D1222004F8010B002004F8010B43
:100E9000304681E710B504462069FFF773FF10BDA7
:100EA00000E0401C20B1017811B101782029F8DD63
:100EB00070472DE9F04706460C4620787B2804D081
:100EC0003D4804600020BDE8F0870620F060601C0B
:100ED000FFF7E6FF044620787D2801D1601CF2E789
:100EE000FFF735FC0546B060B06808B90020EAE7B6
:100EF0002046FFF7D5FF804641462846FFF762FEB1
:100F00000746FFF7CDFF04460CB90020DBE7286950
:100F100028620020286120783A2803D026480460FF
:100F20000020D0E7601CFFF7BBFF80464146284603
:100F300000F0A7F80746FFF7B3FF04460CB90020FE
:100F4000C1E731E0FFF703FC070000D1BBE72F60EA
:100F50007D603D46601CFFF7A3FF81464946284659
:100F6000FFF730FE8046FFF79BFF04460CB90020D8
:100F7000A9E7286928620020286120783A2803D050
:100F80000D48046000209EE7601CFFF789FF814642
:100F90004946284600F075F88046FFF781FF044671
:100FA0000CB900208FE700BF20782C28CAD0207809
:100FB0007D280FD1601C86E710000020080000206B
:100FC000DA530108225C080C0A0D0900752530343B
:100FD00078000000FE480460002074E72DE9F04727
:100FE00005460C4620785B2804D0F94804600020B0
:100FF000BDE8F0870520E860601CFFF751FF04465C
:1010000020785D2801D1601CF2E7FFF7A0FB0646BF
:10101000A860A86808B90020EAE72046FFF740FF6B
:1010200080464146304600F02CF80746FFF738FF6F
:1010300004460CB90020DBE717E0FFF788FB070048
:1010400000D1D5E737607E603E46601CFFF728FF81
:1010500081464946304600F014F88046FFF720FFED
:1010600004460CB90020C3E700BF20782C28E4D048
:1010700020785D2801D1601CBAE7D54804600020C3
:10108000B6E770B505460C460CB9002070BD0422C9
:10109000D0A1204611F07FFF18B90220E860201D82
:1010A000F4E70522CDA1204611F075FF18B9002004
:1010B000E860601DEAE70422CAA1204611F06BFF38
:1010C00020B90120E8606861201DDFE72078222830
:1010D00004D121462846FFF775FDD7E720782D2853
:1010E00005D02078302807DB2078392804DC214619
:1010F0002846FFF75EFBC9E720785B2804D121462C
:101100002846FFF76BFFC1E720787B2804D12146F2
:101110002846FFF7CEFEB9E7AD4804600020B5E7EA
:101120002DE9F04780460D4616460024FFF70FFBD9
:1011300007460020A64908600FB9BDE8F087404681
:10114000FFF7AEFE814649463846FFF79AFF044650
:1011500024B93846FFF708FB0020EEE766B12046C9
:10116000FFF79EFE0446207830B13846FFF7FCFAC0
:10117000974804600020E0E705B12C603846DCE7C2
:1011800010B50446002211462046FFF7C9FF10BDE6
:101190002DE9F74F88B0884616464FF00009CA4639
:1011A000002007900720049000250898806802908E
:1011B00000270020019003E07F1C02980068029045
:1011C00002980028F8D14FBB16B108F1040100E0E5
:1011D000032108468549096888470790079818B988
:1011E00000200BB0BDE8F08F079C7B2004F8010BBA
:1011F00066B10A2004F8010B002503E0092004F879
:10120000010B6D1CA8F10100A842F7DC7D2004F859
:10121000010B002004F8010B0798E2E7B8007349BE
:10122000096888478146B9F1000F01D10020D8E74D
:10123000B8006E49096888478246BAF1000F05D1A7
:1012400048466B49096888470020CAE7B900484604
:1012500011F058FEB900504611F054FE089880680D
:10126000029008F1010816B10498404404902DE062
:101270000299086AFFF786FD05904AF82500324674
:101280004146029800F07DF929466D1C069049F808
:1012900021000598A8B1069898B1069811F05CFE57
:1012A0008346059811F058FE0BEB0001891C16B11E
:1012B00008F1020000E00020014404980844049072
:1012C00001E0012001900298006802900298002835
:1012D000CED1019820B945490498096888470790FC
:1012E000079808B9012001900198F0B1002510E09D
:1012F0005AF8250020B15AF825003D490968884769
:1013000059F8250020B159F825003949096888475E
:101310006D1CBD42ECDB504635490968884748469C
:1013200033490968884700205BE77B2107980170F3
:101330000798441C16B10A2004F8010B0020207005
:1013400000253EE05EB10020039005E0092004F88E
:10135000010B0398401C039003984045F6DB5AF8B4
:101360002510204611F00EFE5AF8250011F0F4FD6C
:1013700004443A2004F8010B16B1092004F8010BCB
:1013800059F82510204611F0FDFD59F8250011F0FF
:10139000E3FD0444781EA84202D02C2004F8010B7F
:1013A00016B10A2004F8010B002020705AF825001D
:1013B0000F490968884759F825000D490968884789
:1013C0006D1CBD42BEDB504609490968884711E0E3
:1013D000100000206E756C6C0000000066616C737C
:1013E00065000000747275650000000008000020B0
:1013F0000C0000204846F849096888474EB100258E
:1014000003E0092004F8010B6D1CA8F10100A842BB
:10141000F7DC7D2004F8010B002004F8010B07988D
:10142000DFE62DE9F74F82B083464FF00008052034
:101430000190DBF80890002700250020009002E0D2
:101440007F1CD9F80090B9F1000FF9D17FB90320C2
:10145000E249096888478046B8F1000F03D0E0A14F
:10146000404611F08FFD404605B0BDE8F08FB80052
:10147000DA490968884706460EB90020F4E7B90042
:10148000304611F03FFDDBF808901FE0DDE9031264
:10149000491C484600F075F8824629466D1C46F8FE
:1014A00021A0BAF1000F0DD0504611F055FD801C5F
:1014B000049909B1012100E0002101440198084488
:1014C000019001E001200090D9F80090B9F1000FDF
:1014D00002D000980028D9D0009820B9BF490198BF
:1014E000096888478046B8F1000F01D101200090BB
:1014F000009890B1002508E056F8250020B156F874
:101500002500B549096888476D1CBD42F4DB3046AB
:10151000B149096888470020A6E75B2088F80000E9
:1015200008F101040020207000251CE056F8251069
:10153000204611F027FD56F8250011F00DFD04445A
:10154000781EA84209D02C2004F8010B049810B191
:10155000202004F8010B0020207056F825009E4939
:10156000096888476D1CBD42E0DB30469A4909682E
:1015700088475D2004F8010B002004F8010B404669
:1015800072E72DE9F04104460D461646002714B9CE
:101590000020BDE8F081207B07282FD2DFE800F093
:1015A0000A1004161B202700AFF2D810FFF7A3F88B
:1015B000074623E0AFF2DC10FFF79DF807461DE079
:1015C000AFF2E010FFF797F8074617E02046FFF765
:1015D000C8F9074612E02046FFF75CFC07460DE01D
:1015E000324629462046FFF71CFF074606E03246F2
:1015F00029462046FFF7CCFD074600BF00BF38460E
:10160000C7E710B50446012200212046FFF7B9FFC5
:1016100010BD10B50446002211462046FFF7B1FF69
:1016200010BD01468A68002001E0401C1268002AB3
:10163000FBD170470246906801E0491E006808B17E
:101640000029FADC704770B505460E46AC6800E02C
:1016500024682CB13146206AFFF727F80028F7D11B
:10166000204670BD01604860704770B50546FFF7C1
:101670006EF804460CB9002070BD28222946204689
:1016800011F027FC00202062E06840F48070E060E8
:101690000020606020602046EEE770B505460E46EB
:1016A000AC6806B970BD0CB9AE6009E000E0246812
:1016B00014B120680028FAD131462046FFF7D2FF46
:1016C00000BFEFE770B506460D46144604B970BD7D
:1016D000206A18B14049206A096888472846FFF700
:1016E0000AF8206221463046FFF7D7FF00BFEEE739
:1016F00070B505460C462046FFF7B7FF0646314653
:101700002846FFF7CAFF70BD2DE9F04105460E4699
:1017100014462046FFF7A9FF07463A4631462846B9
:10172000FFF7D0FFBDE8F08110B502460B46916887
:1017300001E009685B1E09B1002BFADC09B9002041
:1017400010BD486810B1D1E900042060086810B1EC
:10175000D1E9004060609068884201D108689060DB
:101760000020086048600846EAE770B504460D4668
:1017700029462046FFF7D8FF0646FEF7F5FF70BD65
:101780002DE9F04105460F460026AC6801E0761CC5
:1017900024682CB13946206AFEF787FF0028F6D16D
:1017A0002CB131462846FFF7BFFFBDE8F08100208D
:1017B000FBE770B504460D4629462046FFF7E0FFDB
:1017C0000646FEF7D1FF70BD2DE9F04106460F46F3
:1017D0001446B56808E000000C0000200800002056
:1017E0005B5D00002D687F1E0DB1002FFADC0DB986
:1017F000BDE8F0812868206068686060206808B1F2
:1018000020684460B068A84201D1B46001E060681B
:1018100004600020686028602846FEF7A5FF00BF2E
:10182000E6E72DE9F04105460E4617464FF0000861
:10183000AC6802E008F1010824682CB13146206A46
:10184000FEF733FF0028F5D144B13046FEF753FFD1
:1018500038623A4641462846FFF7B6FFBDE8F081B8
:1018600010B5FEF774FF04460CB10220E06020467C
:1018700010BD10B5FEF76BFF04460CB10120E0600F
:10188000204610BD10B5FEF762FF04460CB10020E3
:10189000E060204610BD70B50546FEF758FF0446CF
:1018A00024B10DB1012000E00020E060204670BDB1
:1018B00070B505460E46FEF74AFF044644B10320C4
:1018C000E060C4E906562846314611F0B7FC606175
:1018D000204670BD70B50546FEF739FF04462CB1B1
:1018E0000420E0602846FEF706FF2061204670BD18
:1018F00010B5FEF72CFF04460CB10520E060204631
:1019000010BD10B5FEF723FF04460CB10620E060C1
:10191000204610BD2DE9F05F81468A460025AB4682
:10192000FFF7E6FF0646002410E059F8240011F006
:1019300067FC0746FFF7BCFF05460CB9B56003E03E
:1019400029465846FFF78EFEAB46641C0EB154453F
:10195000EBDB3046BDE8F09F2DE9F05F81468A461B
:101960000025AB46FFF7C4FF0646002410E059F8F7
:10197000240011F09BFC0746FFF79AFF05460CB9BF
:10198000B56003E029465846FFF76CFEAB46641C81
:101990000EB15445EBDB3046BDE8F09F2DE9F04732
:1019A000074688460025A946FFF7A2FF0646002401
:1019B00010E007EBC400D0E900211046FFF778FFE4
:1019C00005460CB9B56003E029464846FFF74AFED4
:1019D000A946641C0EB14445EBDB3046BDE8F087F8
:1019E0002DE9F047074688460025A946FFF780FF06
:1019F000064600240DE057F82400FFF76BFF05466C
:101A00000CB9B56003E029464846FFF72BFEA9460E
:101A1000641C0EB14445EEDB3046BDE8F0872DE98D
:101A2000F047054689464FF0000815B90020BDE88B
:101A3000F087FEF78CFE04460CB90020F7E7E86853
:101A400020F48070E06068696061D5E90601C4E94E
:101A50000601286950B12869FEF74DFE2061206912
:101A600020B92046FEF780FE0020E0E7286A50B14A
:101A7000286AFEF740FE2062206A20B92046FEF761
:101A800073FE0020D3E7B9F1000F01D12046CEE765
:101A9000AF6816E001213846FFF7C1FF064626B9B8
:101AA0002046FEF761FE0020C1E7B8F1000F05D027
:101AB000C8F80060C6F80480B04601E0A660B046F1
:101AC0003F68002FE6D12046B1E7014655E0027895
:101AD000202A01D1401C50E00278092A01D1401C83
:101AE0004BE002780D2A01D1401C46E002780A2A18
:101AF00001D1401C41E002782F2A0BD142782F2AD5
:101B000008D100E0401C0278002A36D002780A2A68
:101B100033D0F7E702782F2A0ED142782A2A0BD148
:101B200000E0401C02782AB102782A2AF9D14278D2
:101B30002F2AF6D1801C20E00278222A19D110F831
:101B4000012B01F8012B0AE002785C2A03D110F87E
:101B5000012B01F8012B10F8012B01F8012B027861
:101B600012B10278222AEFD110F8012B01F8012BD3
:101B700003E010F8012B01F8012B0278002AA6D10E
:101B80000A70704700B587B001210C2003F0BAFB42
:101B90000121880303F0C3FB4FF46040ADF804005B
:101BA00003208DF8060018208DF8070001A9D948F8
:101BB00003F0D6F84FF48050ADF8040003208DF800
:101BC000060010208DF8070001A9D24803F0C8F8DC
:101BD0004FF48051CF4803F06EF90020ADF80800B3
:101BE0004FF48270ADF80A000020ADF80C0002201E
:101BF000ADF80E000120ADF810004002ADF8120063
:101C00000820ADF814000020ADF816000720ADF84C
:101C1000180002A9C04803F007FC0121BE4803F0E8
:101C2000A8FC07B000BD10B504462146BA4803F031
:101C3000D1FC00BF0221B84803F01FFD0028F9D0F5
:101C400000BF0121B44803F018FD0028F9D0B248C4
:101C500003F0C2FCC0B210BD10B5A520FFF7E3FF32
:101C600010BD70B504460D4645EA0421AA4803F0AC
:101C7000B1FC00BF0221A84803F0FFFC0028F9D006
:101C800000BF0121A44803F0F8FC0028F9D0A248C5
:101C900003F0A2FCC0B270BD10B5044644F0800051
:101CA000002242EA00219C4803F094FC00BF02217C
:101CB000994803F0E2FC0028F9D000BF01219648C2
:101CC00003F0DBFC0028F9D0934803F085FCC0B298
:101CD00010BD10B500244FF480518E4803F0EDF88C
:101CE0000520FFF7A0FF00BFA520FFF79CFF0446DB
:101CF00014F0010FF8D14FF48051864803F0DBF85F
:101D000010BD10B50446FFF7E4FF4FF48051814841
:101D100003F0D3F80620FFF786FF4FF480517D488B
:101D200003F0C9F8FFF7D5FF4FF48051794803F06D
:101D3000C4F8D820FFF777FF0020FFF774FF200AD0
:101D4000FFF771FFE0B2FFF76EFF4FF4805171486B
:101D500003F0B1F810BD2DE9F04106460C461746D8
:101D6000FFF7B7FF4FF480516A4803F0A6F803204D
:101D7000FFF759FFC4F30740FFF755FFC4F30720EF
:101D8000FFF751FFE0B2FFF74EFF002503E0FFF73A
:101D900063FF70556D1CBD42F9D34FF480515D480F
:101DA00003F089F8BDE8F0812DE9F04106460C46C4
:101DB0001746FFF78EFF4FF48051564803F07DF829
:101DC0000620FFF730FF4FF48051524803F073F8BC
:101DD000FFF77FFF4FF480514E4803F06EF802206A
:101DE000FFF721FFC4F30740FFF71DFFC4F30720EF
:101DF000FFF719FFE0B2FFF716FF002503E0705D63
:101E0000FFF711FF6D1CBD42F9D34FF480514148DB
:101E100003F051F8BDE8F08170B586B00020059060
:101E20004FF480513B4803F048F89F20FFF7FBFE3A
:101E3000FFF712FF8DF81400FFF70EFF8DF8150065
:101E4000FFF70AFF8DF816004FF48051314803F078
:101E500032F800BF04A80DF09BFA04462F48007822
:101E600010F0020F1CD041F28830B4FBF0F100FBFF
:101E700011400521B0FBF1F541F28830B4FBF0F6DA
:101E80009DF817009DF816109DF81520CDE900214A
:101E900002909DF814302A46314621A011F072FFBD
:101EA00000BF9DF8140020280AD19DF815002028B5
:101EB00006D19DF81600152802D1002006B070BD8D
:101EC000FF20FBE7F8B5FFF75DFE0A200EF0CDF925
:101ED000FFF7A2FFE0B100BF68460DF059FA0446D3
:101EE0000E48007810F0010F11D041F28830B4FB99
:101EF000F0F100FB11400521B0FBF1F541F2883013
:101F0000B4FBF0F62A46314613A011F03BFF00BFA8
:101F1000F8BD0000000C0140003800400400002023
:101F20005B253035642E253033642F495D3A2069B6
:101F300064203D203078253032782C2030782530D0
:101F400032782C203078253032782C2030782530AB
:101F500032780D0A0D0A00005B253035642E2530DD
:101F600033642F455D3A20666C6173682069642094
:101F7000636865636B206661696C65640D0A0D0AB0
:101F8000000000000023C38003810160828070474D
:101F90000146C8880A89904201D10120704700207B
:101FA000FCE70146CA880B899A4204DDCA880B897E
:101FB000D21A90B205E08A880B89D21ACB881A44CB
:101FC00090B270472DE9F04104460F461646E0886E
:101FD0002189884204DDE0882189401A85B205E024
:101FE000A0882189401AE188084485B2B54202DA06
:101FF0000020BDE8F081E088218988420ADD22893D
:10200000216888183246394610F063FF2089304431
:1020100020811EE0A0882189401A85B2B5420ADDE0
:102020002289216888183246394610F052FF2089EB
:10203000304420810DE02289216888182A463946DB
:1020400010F047FF721B7919206810F042FF701BD7
:1020500020810120CDE72DE9F04104460F461646C8
:10206000E0882189884206DDA088E188401A21891C
:10207000084485B203E02089E188401A85B2B54260
:1020800002DA0020BDE8F081E088218988421FDD66
:10209000A088E188401A85B2B5420ADDE28820684E
:1020A00081183246384610F014FFE0883044E08052
:1020B00018E0E288206881182A46384610F009FFA7
:1020C000721B7819216810F004FF701BE08009E092
:1020D000E288206881183246384610F0FAFEE0881F
:1020E0003044E0800120CDE700BF00BF7047000012
:1020F00070B505460C4645F2555002F07DFF20466E
:1021000002F080FF284602F07AFF02F07EFF02F024
:1021100081FF70BD10B502F078FF10BD10B5044608
:10212000204603F00EFD10BD08B500208DF800001C
:1021300002208DF8010003208DF8020001208DF8A7
:102140000300684601F073FD08BD70B506460C46F5
:1021500015460121C80203F0E2F80F48007830402C
:102160000E490870284603F0CEFC204603F0D4FC4C
:102170000A48007803F0E5FC03F0EEFCFFF7D4FF1B
:1021800003F0D5FC70BD10B50448007803F0D3FC13
:1021900003F0E2FC10BD0000140000201500002038
:1021A000FE490880704708B54FF4806001F03AFDA1
:1021B00014208DF8000001208DF8010000208DF81A
:1021C000020001208DF80300684601F030FD08BDD3
:1021D0001CB5F34A0021F34802F019F8F0480068F2
:1021E000F1490988884207D101A800231422EC494B
:1021F0000090EE4809F068FE1CBD08B501210520DD
:1022000003F080F80121480603F089F84FF40060DC
:10221000ADF8000004208DF8030003208DF80200C3
:102220006946E34802F09CFD4FF48050ADF8000091
:1022300018208DF8030003208DF802006946DC4861
:1022400002F08EFD08BD08B50121042003F05AF804
:102250000121102003F056F84FF48070ADF8000013
:1022600010208DF8030003208DF802006946D04845
:1022700002F076FD4FF40070ADF8000010208DF8EC
:10228000030003208DF802006946CA4802F068FD89
:102290004FF48071C64802F010FE4FF40071C5483B
:1022A00002F00BFE08BD1FB50446FFF7CCFFFFF799
:1022B0007AFFFFF7A2FFBB4801F022FD684601F05C
:1022C00043FE00208DF806008DF807008DF8080009
:1022D0008DF809008DF80A008DF80B008DF80200CA
:1022E0008DF803000A208DF8040005208DF8050004
:1022F000ADF800406946AB4801F01BFD0020AE4937
:102300000870AE49087003AAADA1B14808F04FFCAF
:1023100003AB2822AFA1A54809F0F1F9AFF24F11A4
:10232000142003F0EEFD0121142003F002FE14201E
:1023300003F0DDFD1FBD2DE9FF4107460C461546A4
:102340001E4601208DF80A0000208DF80B008DF844
:102350000C004FF6FF7000EA4710ADF800004FF692
:10236000FF7000EA4410ADF802004FF6FF7000EA7B
:102370004510ADF804004FF6FF7000EA4610ADF8C6
:1023800006000020ADF8080001208DF80D00684619
:1023900001F059FD01220221824802F053F8BDE804
:1023A000FF8170B5044600250020207221467D483B
:1023B00001F038FE064604E06D1C8A48854200D9CB
:1023C00005E03146774801F0C5FE0128F4D100BF91
:1023D00070BD08B56A4600217D4809F00DF808BDBA
:1023E0001CB501A800231A4619460090784808F049
:1023F00005FE1CBD2DE9F04F87B080468946154685
:102400009A460027002600200490039018F0010F40
:102410000AD045F0FF0345F0FF0229462846FFF7A2
:102420008AFF6148058008E0FF231A46002108461C
:10243000FFF781FF00205C49088018F0020F16D0DA
:102440004846FFF7AEFF68A0D9F8001011F09AFCDB
:10245000002707E009F10B00C15D67A011F092FCB5
:10246000781CC7B2082FF5DB65A011F08BFC18F0C3
:10247000010F6FD0002704E105A8002106AB0A4632
:10248000CDE9001042F21071484809F0DDFA044627
:10249000BDF81400A0F5E441D9397DD0FFF7A0FFC5
:1024A00058A0216811F06EFC002607E004F10B0033
:1024B000815D51A011F066FC701CC6B2082EF5DBE0
:1024C0004FA011F05FFC2068A84202D1781CC7B26F
:1024D0002EE000BF02A80CF05BFF83464D48007859
:1024E00010F0010F13D041F28830BBFBF0F100FB7C
:1024F00011B00521B0FBF1F0019041F28830BBFB37
:10250000F0F00090014644A0019A11F03BFC00BF9E
:102510000398401CC0B203900398052805DD4FF0D6
:10252000FF300490FFF755FFAEE0FFF752FFA8E041
:102530002149097801EB81013E4A206842F82100D7
:10254000A07A1D49097801EB810102EB81018872B3
:1025500000260EE099E004F10B00815D164800783A
:1025600000EB8000334A02EB80000B308155701C79
:10257000C6B2A07AB042EEDC0F480078401C0E498B
:10258000087008460078282801D1002008700498B7
:10259000401C40B204904FE051E000001A000020BF
:1025A000002200200064004016000020402200208D
:1025B0000008014000100140180000201900002010
:1025C000464C455843414E5F4D5554455800000018
:1025D00014220020464C455843414E5F5155455505
:1025E0004500000040420F002D3E73656E642025BB
:1025F00030347820000000002530327820000000C0
:102600000D0A00002D3E7265637620253034782057
:1026100000000000040000205B253035642E2530CA
:1026200033642F455D3A20657863657074696F6E19
:10263000210D0A00E01E0020FFF7CBFE20E000BFC6
:1026400002A80CF0A5FE83464548007810F0010F63
:1026500014D041F28830BBFBF0F100FB11B0052132
:10266000B0FBF1F0019041F28830BBFBF0F03D4B44
:10267000009001463CA0019A11F084FB00BF03E0EA
:1026800000BF5745FFF6F8AE00BFFF231A460021F2
:102690000846FFF750FE00203B490880049807B029
:1026A000BDE8F08F3948007839490978884206DB5F
:1026B0003648007836490978401AC0B27047344825
:1026C0000078C0F12800314909780844C0B2F5E724
:1026D00010B50024FFF784FE2D4800782B490978B7
:1026E000884203D1FFF775FE002010BD284801780D
:1026F0000078401C264A107001EB8100254901EB4F
:10270000800410460078282802D100201146087065
:10271000FFF75FFE2046E8E710B5FFF761FE0020F7
:102720001A4908701A490870FFF753FE10BD10B51A
:102730001948007800B910BD05F0BEFF03F0A1FCF8
:1027400005F0CBFF00BFF6E710B50446134800883C
:10275000844204D10EF099F808B901F0AAF910BD2D
:1027600004000020E15301085B253035642E25303C
:1027700033642F455D3A2025733A2074696D656F87
:1027800075740D0A000000001600002018000020DB
:1027900019000020E01E0020C10000201A000020C7
:1027A000FD4800787047FC49087070473EB5044604
:1027B00002A800210B462246CDE9001008460CF085
:1027C0000EFC3EBD3EB5044602A8002123460A4643
:1027D000CDE9001008460CF002FC3EBD7CB500BF00
:1027E00068460CF0D5FD0446EC48007810F0020F66
:1027F00012D041F28830B4FBF0F100FB114005210A
:10280000B0FBF1F541F28830B4FBF0F6E44B2A4618
:102810003146E4A011F0B6FA00BF0121102002F009
:1028200071FD4FF40040ADF8040010208DF8070052
:1028300003208DF8060001A9DF4802F091FA4FF459
:102840000041DD4802F037FB0220FFF7AFFF4FF4F5
:102850000041D94802F031FB0120FFF7A7FF4FF4F8
:102860000041D54802F027FB0220FFF79FFF7CBD07
:102870007CB500BF68460CF08BFD0446C748007865
:1028800010F0020F12D041F28830B4FBF0F100FBDF
:1028900011400521B0FBF1F541F28830B4FBF0F6B0
:1028A000C64B2A463146BFA011F06CFA00BF012189
:1028B000082002F027FD0120ADF8040010208DF85B
:1028C000070003208DF8060001A9BD4802F048FA70
:1028D0000121BB4802F0F1FA0420FFF767FF012154
:1028E000B74802F0E8FA0420FFF760FF0121B4487E
:1028F00002F0E3FA7CBD10B5FFF7BAFF10BD08B5D2
:102900006A460021AF4808F077FD08BD2DE9FC417B
:10291000044601A8009041F2883004FB00F1002336
:102920001A46A94809F084FCBDF80400A0F5E4416A
:10293000D93920D100BF68460CF02AFD05469748DA
:10294000007810F0020F12D041F28830B5FBF0F1A0
:1029500000FB11500521B0FBF1F641F28830B5FBC8
:10296000F0F79A4B3246394699A011F00BFA00BFA6
:102970000020BDE8FC810120FBE770B505460E464E
:1029800000240CE0295D9A4802F0EAFF00BF802194
:10299000974803F053F80028F9D0601C84B2B44281
:1029A000F0DB70BD1CB501A800231A461946009043
:1029B000844808F023FB1CBD2DE9F04786B006468D
:1029C0000D464FF00009284610F0C6FA87B2FFF70F
:1029D000E9FF8848FFF788FB304610F0BDFA1FFA80
:1029E00080FA51463046FFF7C8FF0420FFF78EFFFC
:1029F0008046B8F1010F27D10CE0012205A97D48DE
:102A0000FFF729FB9DF814204846411C01F0FF09FF
:102A10000DF800207748FFF7BBFA0028EDD000241E
:102A20000CE0285D1DF80410884205D0FFF767FF11
:102A3000002006B0BDE8F087601CC4B2BC42F0DBE9
:102A4000FFF75DFF0120F4E7FFF759FF0020F0E7F3
:102A50002DE9F047A8B005460E464FF0000880214A
:102A600008A810F04FFA2B4663A2802108A8009610
:102A700011F098F900BF01A80CF08AFC07464748FE
:102A8000007810F0020F14D041F28830B7FBF0F15B
:102A900000FB11700521B0FBF1F941F28830B7FB62
:102AA000F0FA08A85A4B4A465146009059A011F036
:102AB00069F900BFFFF776FF5CA108A8FFF77CFF6C
:102AC00004464CB30A20FFF721FF0446012C1FD116
:102AD0000CE0012207A94748FFF7BDFA9DF81C202A
:102AE0004046411C01F0FF0802A90A544148FFF783
:102AF0004FFA0028EDD0FFF702FF4EA102A810F018
:102B00000CFA18B1012028B0BDE8F0870020FAE7E0
:102B1000FFF7F5FE0020F6E7FFF7F1FE0020F2E7F1
:102B20002DE9FE4F07464FF0000800267FB902ABA3
:102B3000002243A1244809F04CFA02AA43A12148EB
:102B400008F035F802AA44A1474808F030F8002000
:102B500011490870F1E14548007830B1022818D0D9
:102B6000042817D0052816D19CE100BF01A80CF05D
:102B70000FFC81460948007810F0020F78D041F22E
:102B80008830B9FBF0F100FB11900521B0FBF1FAA0
:102B90006FE0CAE01CE1ACE11C0000200400002052
:102BA000EF5301085B253035642E253033642F49FF
:102BB0005D3A2025730D0A0000100140FA53010808
:102BC000000C0140A42300207C230020465401086F
:102BD0005B253035642E253033642F495D3A20253E
:102BE000733A2074696D656F75740D0A00000000FA
:102BF000004800407023002041542B5A49504F5048
:102C0000454E3D322C302C25732C25640D0A0000D6
:102C1000125401085B253035642E253033642F496A
:102C20005D3A2025733A2025730D0A000D0A4F4B9B
:102C300000000000434F4E4E454354204F4B0000D0
:102C40004C3230365F574149540000004C32303628
:102C50005F4D5554455800004C3230365F53454E59
:102C6000445F4D5554455800D02300206500002096
:102C700009E041F28830B9FBF0FBFB4B5246594664
:102C8000FAA011F07FF800BFFFF7A8FDFFF7F0FDF5
:102C90000A20FFF78BFD0120FD490870FDA1FEA071
:102CA000FFF78AFE01281FD10220F949087000BFF2
:102CB00001A80CF06DFB8146F948007810F0020F76
:102CC00011D041F28830B9FBF0F100FB11900521E1
:102CD000B0FBF1FA41F28830B9FBF0FB524659469D
:102CE000F0A011F04FF81FE00020E949087000BF84
:102CF00001A80CF04DFB8146E948007810F0010F67
:102D000011D041F28830B9FBF0F100FB11900521A0
:102D1000B0FBF1FA41F28830B9FBF0FB524659465C
:102D2000E8A011F02FF800BFE4E000BF01A80CF00C
:102D30002FFB8146DA48007810F0020F12D041F2E2
:102D40008830B9FBF0F100FB11900521B0FBF1FADE
:102D500041F28830B9FBF0FBC34B52465946E1A023
:102D600011F010F800BF002429E0E74951F83400C1
:102D700010F0F2F81FFA80F9E34951F8340049469F
:102D8000FFF7FBFDE04800EBC4008088B0F57A7FD8
:102D90000DDBDD4800EBC40080884FF47A7190FBB6
:102DA000F1F000F0FF094846FFF700FD05E0D649C5
:102DB00001EBC4018888FFF705FD601CC4B2072C35
:102DC000D3DBD248FFF790F90420B149087091E0B5
:102DD00000BF01A80CF0DCFA8146B148007810F081
:102DE000020F12D041F28830B9FBF0F100FB1190D4
:102DF0000521B0FBF1FA41F28830B9FBF0FB9A4BA8
:102E000052465946C2A010F0BDFF00BF42F2B021A9
:102E1000C9A0FFF71DFE0546012D20D100BF01A866
:102E20000CF0B6FA81469E48007810F0010F11D0E0
:102E300041F28830B9FBF0F100FB11900521B0FBA5
:102E4000F1FA41F28830B9FBF0FB52465946BEA078
:102E500010F098FF00BF05208D49087021E000BFE9
:102E600001A80CF095FA81468D48007810F0010F0A
:102E700011D041F28830B9FBF0F100FB119005212F
:102E8000B0FBF1FA41F28830B9FBF0FB52465946EB
:102E9000B6A010F077FF00BF00207D490870701CBD
:102EA00086B227E000BF01A80CF072FA81467C4888
:102EB000007810F0020F12D041F28830B9FBF0F127
:102EC00000FB11900521B0FBF1FA41F28830B9FB0B
:102ED000F0FB654B52465946AEA010F053FF00BFC1
:102EE0004FF0010806206A4908700120B3490870B4
:102EF00000BF00BF00BF082E1FDD00BF01A80CF0FF
:102F000047FA81466648007810F0010F13D041F26D
:102F10008830B9FBF0F100FB11900521B0FBF1FA0C
:102F200041F28830B9FBF0FB4F4B52465946A4A002
:102F3000009610F027FF00BF03E0B8F1000F3FF448
:102F40000AAE00BFB8F1000F22D100BF01A80CF0FB
:102F50001FFA81465248007810F0010F14D041F258
:102F60008830B9FBF0F100FB11900521B0FBF1FABC
:102F700041F28830B9FBF0FB08203B4B52465946E2
:102F8000009097A010F0FEFE00BF0020BDE8FE8F6D
:102F90000120FBE710B5A248007800B910BD05F08C
:102FA0008BFB03F0CDF805F098FB00BFF6E708B502
:102FB0006A464FF400719B4809F077FB08BD1CB5C9
:102FC00040F22551984802F04FFD002848D096481D
:102FD00002F0CAFCC0B2019094484078934908704E
:102FE0000846807848700846C07888709DF80400CC
:102FF000C870274800780A2833D2DFE800F0051CA3
:1030000006081D3234321E074FE14EE14DE1FFF755
:10301000C9FC012201A93D48FEF7D4FF834880780E
:103020000D2805D18148C0780A2801D1FFF7BFFFDC
:10303000FFF765FC39E100BF00BFFFF7B3FC0122D9
:1030400001A93248FEF7BEFF784800784F2809D121
:10305000764840784B2805D1744880780D28E7E001
:1030600024E121E1EBE0EDE0075401085B25303578
:10307000642E253033642F495D3A2025733A20535E
:10308000544154455F554E494E495445440D0A003C
:10309000650000204154000041540D0A000000006A
:1030A000040000205B253035642E253033642F4921
:1030B0005D3A20706F776572757020646F6E650D74
:1030C0000A0000005B253035642E253033642F451F
:1030D0005D3A20706F7765727570206661696C6506
:1030E000640D0A005B253035642E253033642F498A
:1030F0005D3A2025733A2053544154455F494E4967
:103100005445440D0A0000002000002070230020D8
:103110005B253035642E253033642F495D3A2025F8
:10312000733A2053544154455F434F4E4E454354E8
:10313000494E470D0A0000003133392E3232342E09
:1031400031372E31363300005B253035642E253083
:1031500033642F455D3A20636F6E6E656374207330
:10316000756363657373210D0A0000005B253035BC
:10317000642E253033642F455D3A20636F6E6E6593
:103180006374206661696C65642C20726574727961
:10319000210D0A005B253035642E253033642F491C
:1031A0005D3A2025733A2053544154455F434F4EB6
:1031B0004E45435445440D0A000000001C00002009
:1031C0005B253035642E253033642F455D3A20254C
:1031D000733A207265747279203D2025640D0A00CF
:1031E0005B253035642E253033642F455D3A20252C
:1031F000733A2057652063616E6E6F7420636F6E43
:103200006E656374207365727665722C20726574C6
:10321000726965642025642074696D65730D0A0008
:10322000C10000207C2300200048004061000020F5
:1032300005D1FD48C0780A2801D1FFF7B8FEFFF795
:103240005EFB32E0FFF7AEFB9DF804007B280ED159
:10325000F648007858B90120F4490870F448FEF7A0
:1032600043FF012201A9F248FEF7ACFE19E09DF8E8
:1032700004007D280DD1012201A9ED48FEF7A2FE30
:103280000020EA4908706A460021EA480BF0B3F9C9
:1032900007E0E648007820B1012201A9E448FEF7E2
:1032A00091FEFFF72CFB00E000BF00BF1CBDF8B58E
:1032B00000BF68460CF06CF80446DF48007810F058
:1032C000020F12D041F28830B4FBF0F100FB114044
:1032D0000521B0FBF1F541F28830B4FBF0F6D74B95
:1032E0002A463146D6A010F04DFD00BF0920DB492B
:1032F00008700C21DAA0FFF740FB0120FFF756FA17
:103300000620D649087000BF68460CF041F8044614
:10331000C948007810F0020F12D041F28830B4FB97
:10332000F0F100FB11400521B0FBF1F541F28830CE
:10333000B4FBF0F6C14B2A463146CDA010F022FD79
:1033400000BFF8BD2DE9F04FA7B04FF0000AFFF71E
:1033500029FB28211BA80FF0D5FD282110A80FF06C
:10336000D1FD0320BD490870B148FEF7BDFE0C2118
:10337000C6A0FFF702FB0220FFF7C8FA1A900CE084
:10338000012225A9AA48FEF766FE9DF89420504622
:10339000411C01F0FF0A1BA90A54A548FEF7F8FDDD
:1033A0000028EDD0BDA11BA80FF0B7FD5FEA000912
:1033B0003BD0BCA148460FF0B0FD814609F10109A0
:1033C000A5A148460FF0A9FD8346B9F1000F0DD025
:1033D000002406E019F8012B2046611CCCB210A98C
:1033E0000A54D945F6D3002010A9085500BF03A8F8
:1033F0000BF0CEFF07469048007810F0020F13D074
:1034000041F28830B7FBF0F100FB11700521B0FBF1
:10341000F1F841F28830B7FBF0F010AB42460146BC
:103420000290A1A010F0AEFC2DE000BF03A80BF0AD
:10343000AFFF07468048007810F0010F13D041F22B
:103440008830B7FBF0F100FB11700521B0FBF1F8FB
:1034500041F28830B7FBF0F01BAB424601460290C8
:1034600098A010F08FFC00BF06207C490870FFF781
:1034700046FA00209F4908609F490860FFF717FF40
:1034800027B0BDE8F08F142109A80FF03BFD1421EF
:1034900004A80FF037FD4FF0000A00240AE0204690
:1034A000611CCCB210A90A5C5046411C01F0FF0A15
:1034B00009A90A5410A8005D2C28F0D1002009A900
:1034C00001F80A00601CC4B24FF0000A0AE020466E
:1034D000611CCCB210A90A5C5046411C01F0FF0AE5
:1034E00004A90A5410A8005D0028F0D104A901F82D
:1034F0000A0000BF03A80BF04BFF07464E480078B8
:1035000010F0020F15D041F28830B7FBF0F100FB4C
:1035100011700521B0FBF1F841F28830B7FBF0F0F3
:10352000029004A809AB4246009074A0029910F0E2
:1035300029FC00BF062049490870FFF7E0F909A8F7
:1035400011F053F905460E4604A811F04EF9CDE9E5
:103550000E010022724B284631460FF0DFFD074670
:103560000FF08BFE6349086000226D4BDDE90E0110
:103570000FF0D4FD07460FF080FE5F49086000BFE2
:103580007EE770B505460C46FFF7DCFE594800683B
:10359000286059480068206070BD2DE9F04387B06D
:1035A0004FF00009FFF7FEF9142101A80FF0AAFC63
:1035B00003202A4908701E48FEF796FD082159A0ED
:1035C000FFF7DBF90420FFF7A1F98046B8F1010FFE
:1035D00027D10CE0012206A91548FEF73CFD9DF815
:1035E00018204846411C01F0FF0901A90A5410485F
:1035F000FEF7CEFC0028EDD04DA101A80FF08DFC08
:1036000004000FD027A120460FF087FC0446641C5D
:1036100049A120460FF081FC07460CB1002694E03A
:1036200098E09CE09CE00000610000206000002029
:10363000702300206C6E0020040000201F5401083D
:103640005B253035642E253033642F495D3A2025C3
:10365000733A2073746172740D0A000065000020D3
:1036600041542B4754504F533D310D0A0000000088
:103670005B253035642E253033642F495D3A202593
:10368000733A20646F6E650D0A00000041542B47A9
:1036900054504F533D320D0A000000002B47545048
:1036A0004F533A00200000005B253035642E253052
:1036B00033642F495D3A206275663A2025730D0AFE
:1036C000000000005B253035642E253033642F4523
:1036D0005D3A2063616E6E6F742067657420706F51
:1036E000736974696F6E20696E666F2C205B257339
:1036F0005D0D0A00580000205C0000205B2530357D
:10370000642E253033642F495D3A206C6E67203D6E
:103710002025732C206C6174203D2025730D0A0038
:10372000006AF84041542B4353510D0A0000000039
:103730002B4353513A0000002C00000014F8012BD9
:103740003046711CCEB20DF80020BC42F6D30020EA
:103750000DF8060068460FF02DFCC5B200E000250C
:10376000FFF7CDF8062079490870284607B0BDE874
:10377000F0832DE9FE4F06460C464FF0000800BFCF
:1037800001A80BF005FE81467148007810F0020F89
:1037900014D041F28830B9FBF0F100FB1190052103
:1037A000B0FBF1FA41F28830B9FBF0FB694B5246AD
:1037B0005946AFF6A030009610F0E4FA00BF02A818
:1037C00000231A4619460090634807F017FCFFF7DC
:1037D000E9F808205D490870610001F10D0011F061
:1037E000AFF807465DA24FF48061384610F0DAFA70
:1037F0001FFA80F800250CE0735D07EB08005BA260
:103800004FF4806110F0CEFA40441FFA80F8681C33
:1038100085B2A542F0D360000D3081B23846FFF783
:10382000ACF854A1AFF2D010FFF7C6F801281CD0B5
:1038300000BF01A80BF0ACFD81464548007810F0B0
:10384000020F11D041F28830B9FBF0F100FB11906A
:103850000521B0FBF1FA41F28830B9FBF0FB52468A
:10386000594647A010F08EFA00BF0620374908706D
:10387000384611F03DF8FFF742F802AA0021364819
:1038800007F0BAFDBDE8FE8F10B586B00121092012
:1038900001F038FD0121880401F041FD4FF4806002
:1038A000ADF8140018208DF8170003208DF81600CD
:1038B00005A93B4801F054FA4FF40060ADF814003C
:1038C00004208DF8170003208DF8160005A9344850
:1038D00001F046FA4FF4E13001900020ADF8080005
:1038E000ADF80A00ADF80C00ADF810000C20ADF8F2
:1038F0000E0001A92B4801F03AFF00BF2948001D26
:103900000088C4B227480088C4B2012240F2255181
:10391000244801F0C4FF0121224801F0B4FF4FF414
:10392000807221492148FEF72DFB002007490870CD
:10393000AFF67511272002F0E4FA0121272002F0EA
:10394000F8FA272002F0D3FA06B010BD6500002077
:10395000040000203C540108D023002041542B5A7D
:10396000495053454E443D322C00000025303278FA
:10397000000000000D0A53454E44204F4B0000004C
:103980005B253035642E253033642F495D3A207332
:10399000656E64206661696C65640D0A0000000054
:1039A000000C0140004800407022002070230020DD
:1039B00008B50121102001F0A5FC4FF4C040ADF87E
:1039C000000010208DF8030003208DF802006946E6
:1039D0003E4801F0C5F94FF400513C4801F06BFA44
:1039E0004FF48041394801F068FA08BD08B54FF43A
:1039F0008041364801F05FFA6A46002114200BF03E
:103A000069FA4FF48041314801F057FA6A460021C3
:103A100004200BF05FFA08BD08B54FF480412B4835
:103A200001F049FA6A46002104200BF053FA4FF4E2
:103A30008041264801F041FA6A46002114200BF02B
:103A400049FA08BD08B54FF48041204801F033FA27
:103A50006A46002102200BF03DFA4FF480411B48DA
:103A600001F02BFA6A4600213E200BF033FA08BD24
:103A700070B505462E4607240BE046FA04F010F018
:103A8000010F02D0FFF7B2FF01E0FFF7C5FF601E94
:103A900044B2002CF1DA70BD10B5002406E0FFF747
:103AA000D1FF4420FFF7E4FF601CC4B2142CF6DB06
:103AB00010BD10B5002406E0FFF7C4FF8820FFF713
:103AC000D7FF601CC4B2142CF6DB10BD00100140FF
:103AD00001460020C80AC002704710B50346981876
:103AE000B0F1016F01D9012010BD0AB90120FBE737
:103AF000002404E013F8010B01F8010B641C94424C
:103B0000F8D30020F0E770B503469818B0F1016FC4
:103B100001D9032070BD0AB90020FBE7012600246B
:103B20000BE01D780878A84204D0FF2D01D00220B8
:103B3000F0E700265B1C491C641C9442F1D3012E63
:103B400001D10020E6E70120E4E72DE9F05F074618
:103B5000884614464FF004093819B0F1016F02D9B4
:103B60000120BDE8F09F0CB90020FAE714F0010F26
:103B700001D00120F5E7224641463846FFF7C3FF52
:103B800006460EB90020ECE7012080F3108800BF44
:103B900000F0CBFD352001F060F8022E0BD1384645
:103BA000FFF796FF834600F005FE8146B9F1040F4A
:103BB00001D00220D5E7002512E018F815A0680012
:103BC000401C18F800004AEA002A5146384600F026
:103BD000F1FE8146B9F1040F00D004E0BF1C6D1C5A
:103BE000B5EB540FE9D300BF00F0ABFD002080F32C
:103BF000108800BFB9F1040F00D1B2E70220B0E78E
:103C00000648804706480047FEE7FEE7FEE7FEE776
:103C1000FEE7FEE7FEE7FEE7FEE7FEE7455D00089C
:103C20003101000831490143314A1160704770B5D4
:103C3000002100230F22C4780CB32D4C246804F417
:103C4000E064C4F5E064210AC1F10403CA40447889
:103C500004FA03F18478144021430901254C0678C5
:103C6000A155047804F01F050124AC4005786D11BE
:103C70004FF0E02606EB8505C5F8004109E0047821
:103C800004F01F050124AC401B4D0678761145F861
:103C9000264070BD194A0A400243154B1B1F1A608B
:103CA000704739B1124A121D12680243104B1B1D96
:103CB0001A6006E00E4A121D126882430C4B1B1D4F
:103CC0001A607047042808D14FF0E021096941F0DB
:103CD00004014FF0E022116107E04FF0E021096993
:103CE00021F004014FF0E022116170470000FA0555
:103CF0000CED00E000E400E080E100E080FFFF1F49
:103D000010B50446FE48844209D10121480601F05D
:103D100020FB00214FF0007001F01BFB08E00121A7
:103D2000880601F016FB00214FF0806001F011FBC6
:103D300010BD30B5024600200023146824F00204B0
:103D40001460146844F00104146000E05B1C5468C3
:103D500014F0010F03D1A3F57F44FF3CF6D1546862
:103D600014F0010F01D100206CE08C79012C04D1FA
:103D7000146844F08004146003E0146824F08004A4
:103D80001460CC79012C04D1146844F04004146010
:103D900003E0146824F0400414600C7A012C04D170
:103DA000146844F02004146003E0146824F0200434
:103DB00014604C7A012C04D1146844F0100414608F
:103DC00003E0146824F0100414608C7A012C04D1F0
:103DD000146844F00804146003E0146824F0080434
:103DE0001460CC7A012C04D1146844F004041460EB
:103DF00003E0146824F0040414608C78A407CD78E0
:103E000044EA05640D7944EA05444D7944EA0554D1
:103E10000D886D1E2C43D461146824F001041460D5
:103E2000002300E05B1C546814F0010F03D0A3F5DD
:103E30007F44FF3CF6D1546814F0010F01D00020FC
:103E400000E0012030BD10B50021837A012202FA82
:103E500003F1AC4A126842F00102AA4B1A60A94A67
:103E60001C3212688A43A74B1C331A60027BCAB902
:103E7000A44A0C3212688A43A24B0C331A6042885F
:103E8000C38842EA03439F4A4032847A42F834307E
:103E90000288838842EA03439A4A4032847A02EBDA
:103EA000C4025360027B012A19D1964A0C3212686F
:103EB0000A43944B0C331A604288038842EA034356
:103EC000904A4032847A42F83430C288838842EA89
:103ED00003438C4A4032847A02EBC4025360C27AB4
:103EE0003AB9884A121D12688A43864B1B1D1A6014
:103EF00006E0844A121D12680A43824B1B1D1A6099
:103F0000028932B97F4A143212688A437D4B1433D6
:103F10001A600289012A06D17A4A143212680A43C9
:103F2000784B14331A60427B012A06D1754A1C3241
:103F300012680A43734B1C331A60724A126822F0EB
:103F40000102704B1A6010BD00218171C1710172B4
:103F500041728172C1728170C170032101710221AD
:103F600041710121018070476649096841F00101F2
:103F7000644A11601146096843F60E729143614A22
:103F800011601146096841EA002111601146096873
:103F900021F001011160704721B1026842F48032C2
:103FA000026003E0026822F4803202607047E1B1EF
:103FB000026842F0800202604FF4C272125842F46A
:103FC00080734FF4C27213504FF4CA72125842F405
:103FD00080734FF4CA7213504FF4D272125842F4E5
:103FE00080734FF4D27213501BE0026822F08002FB
:103FF00002604FF4C272125822F480734FF4C272FE
:1040000013504FF4CA72125822F480734FF4CA72DC
:1040100013504FF4D272125822F480734FF4D272BC
:104020001350704710B502460020936803F0806378
:10403000B3F1806F00D110E0936803F00063B3F137
:10404000006F01D1012008E0936803F08053B3F1C1
:10405000805F01D1022000E00420042879D002F51D
:10406000C07303EB00131B6803F0010402F5C07377
:1040700003EB00131C600B7A7BB94B7A0C8843EA84
:10408000445302F5C07404EB00142468234302F582
:10409000C07404EB0014236010E00B7A4C6843EA10
:1040A000C4034C7A234302F5C07404EB0014246863
:1040B000234302F5C07404EB001423608B7A03F0F1
:1040C0000F038B7202F5C07303EB00135B6823F0E0
:1040D0000F0402F5C07303EB00135C6002F5C073BC
:1040E00003EB00135B688C7A234302F5C07404EB86
:1040F000001463608B7B1C064B7B44EA034403E0A3
:1041000000640040006600400B7B44EA0323CC7A45
:10411000234302F5C07404EB0014A3608B7C1C06DF
:104120004B7C44EA03440B7C44EA0323CC7B2343CB
:1041300002F5C07404EB0014E36002F5C07303EBF6
:1041400000131B6843F0010402F5C07303EB001376
:104150001C6010BD10B50246002321B1012907D013
:1041600002290FD109E09068F84C00EA04030BE043
:104170009068F74C00EA040306E09068F54C00EA0A
:10418000040301E0002300BF00BFF34C181BA3424F
:1041900016D007DC83B16FF0806018180ED00228AB
:1041A00018D111E0B0F5007F10D0EC4C001909D007
:1041B000B0F5003F0ED10BE002230DE000230BE031
:1041C000002309E0002307E0012305E0012303E0C9
:1041D000012301E0002300BF00BFD8B210BD21B110
:1041E000012907D002290FD109E0826842F080023C
:1041F00082600AE0826842F40042826005E08268E0
:1042000042F40002826000E000BF00BF704710B5BA
:1042100000F5D87303EB01131B6803F0040313725A
:10422000137A53B900F5D87303EB01131B6840F2FE
:10423000FF7404EA5353136009E000F5D87303EBED
:1042400001131B686FF0604404EAD303536000F568
:10425000D87303EB01131B6803F00203537200F5DC
:10426000D87303EB01135B6803F00F03937200F53F
:10427000D87303EB01135B681B0AD37400F5D87382
:1042800003EB01139B68D37200F5D87303EB0113A2
:104290009B681C0A147300F5D87303EB01139B6829
:1042A0001C0C547300F5D87303EB01139B681B0EB1
:1042B000937300F5D87303EB0113DB68D37300F538
:1042C000D87303EB0113DB681C0A147400F5D87370
:1042D00003EB0113DB681C0C547400F5D87303EB7B
:1042E0000113DB681B0E937421B9C36843F02003EC
:1042F000C36003E0036943F02003036110BD21B9EB
:10430000C26842F02002C26003E0026942F020026B
:10431000026170470246002019B9D36803F0030018
:1043200006E0012903D1136903F0030000E0002037
:10433000704710B502460B4600204FF6FF71BBB91F
:10434000146824F0020444F00104146000E0491EE3
:10435000546804F00304012C01D00029F7D15468FB
:1043600004F00304012C01D0002032E0012030E0F1
:10437000012B13D1146824F00304146000E0491EDB
:10438000546814F0030F01D00029F8D1546814F0D8
:10439000030F01D000201CE001201AE0022B17D1EE
:1043A000146824F0010444F00204146000E0491E83
:1043B000546804F00304022C01D00029F7D154689A
:1043C00004F00304022C01D0002002E0012000E0F0
:1043D000002010BD014600200A6822F0010242F0D0
:1043E00002020A604A6802F00302022A00D1012098
:1043F000704701464FF6FF7200200B6823F002035E
:104400000B6000E0521E4B6803F00203022B01D147
:10441000002AF7D14B6803F00203022B00D00120E1
:104420007047014600208A6902F07000704701461B
:1044300000208A69100E7047014600208A69C2F385
:10444000074070471AB143690B43436102E0436977
:104450008B434361704710B50246002011F4700F82
:1044600008D09369C1F31304234201D001202DE049
:1044700000202BE011F0807F08D05368C1F31304B3
:10448000234201D0012021E000201FE011F0006F45
:1044900008D09368C1F31304234201D0012015E032
:1044A000002013E011F0007F08D0D368C1F313049B
:1044B000234201D0012009E0002007E01369C1F385
:1044C0001304234201D0012000E0002010BD00228F
:1044D000234B994202D10023836111E0C1F31302FF
:1044E00011F0007F01D0C2600AE011F0806F01D0AE
:1044F000026105E011F0006F01D0826000E04260CF
:104500007047024600200A4201D0012000E000204E
:10451000704770B504460D4600266069284272D087
:10452000B5F5807F69D01DDC082D42D006DC012D59
:104530002DD0022D31D0042D7FD134E0102D3ED06E
:10454000202D42D0402D78D145E00000030000042A
:104550000003000800000310000100080001FFF73D
:104560007000F030B5F5004F61D009DCB5F5007F83
:104570004AD0B5F5806F4DD0B5F5006F5DD150E0F4
:10458000B5F5803F2DD0B5F5003F56D12FE0A0689E
:104590005549FFF7B6FF064651E0E0680321FFF7F3
:1045A000B0FF06464BE0E0680821FFF7AAFF064689
:1045B00045E0E0681021FFF7A4FF06463FE02069D0
:1045C0000321FFF79EFF064639E020690821FFF727
:1045D00098FF064633E020691021FFF792FF064658
:1045E0002DE060680821FFF78CFF064627E0606831
:1045F0001021FFF786FF064621E0A0690121FFF7A1
:1046000080FF06461BE01BE0A0690221FFF779FF4F
:10461000064614E0A0690421FFF773FF06460EE08A
:104620000BE0A0697021FFF76CFF064607E06068A9
:104630000421FFF766FF064601E0002600BF00E008
:104640000026304670BDB1F5007F3AD00FDC20293E
:1046500028D006DC01291CD004291DD0082940D10E
:104660001DE0402921D0B1F5807F3AD126E0B1F597
:10467000004F31D006DCB1F5806F25D0B1F5006F69
:104680002FD124E0B1F5803F12D0B1F5003F28D101
:1046900011E0154A826025E00822C26022E0102263
:1046A000C2601FE0082202611CE01022026119E0D2
:1046B0000822426016E01022426013E004224260A9
:1046C00010E0042242600DE0042242600AE0002271
:1046D00082610422426005E000228261042242607D
:1046E00000E000BF00BF704701010100014600204B
:1046F000FE4A106800F03800084310607047FB491C
:10470000096821F00801F94A11601146096801435E
:1047100011607047F549096821F01001F34A1160F2
:1047200011460968014311607047F148EF4948603C
:10473000F04848607047EE48EC494860ED484860F2
:104740007047EA48006940F08000E8490861704716
:10475000E648006940F08000E449086170470420A1
:10476000E249C96811F0010F01D001200EE0DF49D4
:10477000C96811F0040F01D0022007E0DB49C968C5
:1047800011F0100F01D0032000E00420704700B5A5
:1047900002460423FFF7E3FF034603E0FFF7DFFFD2
:1047A0000346521E012B01D1002AF7D102B905237D
:1047B000184600BD30B5044604254FF43020FFF7FD
:1047C000E6FF0546042D17D1C848006940F00200F5
:1047D000C649086108464461006940F0400008612C
:1047E0004FF43020FFF7D3FF0546C048006941F67B
:1047F000FD710840BD490861284630BD10B504244C
:104800004FF43020FFF7C3FF0446042C16D1B748FD
:10481000006940F00400B54908610846006940F0AD
:10482000400008614FF43020FFF7B1FF0446AF4865
:10483000006941F6FB710840AC490861204610BD93
:1048400000B502460423FFF78AFF034603E0FFF7A3
:1048500086FF0346521E012B01D1002AF7D102B96F
:104860000523184600BD10B504244FF43020FFF78F
:10487000E7FF0446042C16D19C48006940F0040070
:104880009A4908610846006940F0400008614FF409
:104890003020FFF7D5FF04469448006941F6FB71CC
:1048A000084092490861204610BD00208F49C9691F
:1048B00011F0020F01D0012000E00020704730B558
:1048C000A5250424FFF7F1FF00B100254FF43020A7
:1048D000FFF75DFF0446042C3AD185488349886080
:1048E000844888600846006940F020000861084656
:1048F000006940F0400008614FF43020FFF747FFA7
:104900000446042C1BD17948006941F6DF71084048
:10491000764908610846006940F010000861764851
:104920000580E002FFF733FF0446052C10D06F48E6
:10493000006941F6EF7108406C49086108E0052CF8
:1049400006D06A48006941F6EF710840674908617E
:10495000204630BDF0B504460D4604260027F0027F
:10496000FFF715FF0646042E22D16048006940F08B
:1049700001005E4908612580F002FFF708FF064646
:10498000042E0ED1A71C280C3880F002FFF7FFFE82
:1049900006465648006941F6FE71084053490861D1
:1049A00006E05248006941F6FE7108404F4908612F
:1049B0003046F0BD70B504460D460426F002FFF700
:1049C000E6FE0646042E11D14848006940F0010079
:1049D000464908612580F002FFF7D9FE06464348A4
:1049E000006941F6FE71084040490861304670BDDB
:1049F00070B505460E460424E002FFF7C8FE0446E3
:104A0000042C17D13A48394988603A4888600846EA
:104A1000006940F0100008612E80E002FFF7B7FE49
:104A20000446052C06D03148006941F6EF71084074
:104A30002E490861204670BD2DE9F04304464FF62B
:104A4000FF763746B046B1460425E443E6B2C4F3E8
:104A50000727C4F307484FEA1469E802FFF797FEF7
:104A60000546042D40D122482049886021488860AD
:104A70000846006940F010000861FF2E06D01E486D
:104A800008300680E802FFF782FE0546042D08D1B3
:104A9000FF2F06D018480A300780E802FFF777FE9C
:104AA0000546042D0AD1B8F1FF0F07D012480C308B
:104AB000A0F80080E802FFF76AFE0546042D0AD13F
:104AC000B9F1FF0F07D00C480E30A0F80090E802B3
:104AD000FFF75DFE0546052D06D00448006941F646
:104AE000EF71084001490861284607E000200240B4
:104AF00023016745AB89EFCD00F8FF1FBDE8F083C8
:104B000030B5054604244FF43020FFF740FE04463C
:104B1000042C41D15E485F4988605F488860084640
:104B2000006940F0200008610846006940F040003C
:104B300008614FF43020FFF72AFE0446042C22D1EE
:104B40005448006941F6DF7108405249086108463F
:104B5000006940F0100008611DB100204F49088035
:104B600002E0A5204D4908804FF43020FFF70FFEEA
:104B70000446052C10D04748006941F6EF71084003
:104B80004449086108E0052C06D04248006941F616
:104B9000DF7108403F490861204630BDF0B5054649
:104BA0000E46174604243A483A4988603A488860D5
:104BB000E002FFF7ECFD0446042C19D135480069EA
:104BC00040F010003349086147F0F80030432843B3
:104BD0003249891C0880E002FFF7D9FD0446052C04
:104BE00006D02C48006941F6EF7108402949086158
:104BF0002046F0BD2748C069800870472548006AF4
:104C0000704700202349096811F0200F01D00120CE
:104C100000E00020704729B11E4A126902431D4B73
:104C20001A6104E01B4A126982431A4B1A617047E9
:104C300001460020012908D1164AD26912F0010F5D
:104C400001D0012008E0002006E0124AD2680A42A2
:104C500001D0012000E0002070470E49C860704775
:104C600004200C49C96811F0010F01D001200EE0A9
:104C70000849C96811F0040F01D0022007E0054976
:104C8000C96811F0100F01D0032000E00420704724
:104C90002301674500200240AB89EFCD00F8FF1FDC
:104CA00010B50446CA48844208D10121042000F00E
:104CB00043FB0021042000F03FFB46E0C54884424E
:104CC00008D10121082000F037FB0021082000F066
:104CD00033FB3AE0C048844208D10121102000F0A3
:104CE0002BFB0021102000F027FB2EE0BB48844264
:104CF00008D10121202000F01FFB0021202000F01E
:104D00001BFB22E0B648844208D10121402000F07C
:104D100013FB0021402000F00FFB16E0B148844255
:104D200008D10121802000F007FB0021802000F045
:104D300003FB0AE0AC48844207D10121801500F052
:104D4000FBFA0021A01500F0F7FA10BD10B5012103
:104D5000084600F0F1FA0021012000F0EDFA10BD44
:104D60002DE9F04102460025002600200023002402
:104D7000002791F803C00CF00F0591F803C01CF058
:104D8000100F03D091F802C04CEA050591F800C05D
:104D9000BCF1000F31D0146800202BE04FF0010C63
:104DA0000CFA00F3B1F800C00CEA03069E4220D1D1
:104DB00083004FF00F0C0CFA03F7BC4305FA03FC19
:104DC0004CEA040491F803C0BCF1280F06D14FF05F
:104DD000010C0CFA00FCC2F814C00AE091F803C000
:104DE000BCF1480F05D14FF0010C0CFA00FCC2F8E1
:104DF00010C0401C0828D1D31460B1F800C0BCF129
:104E0000FF0F34DD546800202EE000F1080C4FF055
:104E1000010808FA0CF3B1F800C00CEA03069E4240
:104E200021D183004FF00F0C0CFA03F7BC4305FAB5
:104E300003FC4CEA040491F803C0BCF1280F05D12F
:104E400000F1080C08FA0CF8C2F8148091F803C0BD
:104E5000BCF1480F07D100F1080C4FF0010808FA27
:104E60000CF8C2F81080401C0828CED35460BDE86E
:104E7000F0814FF6FF710180022181700421C17021
:104E800070470246002093680B4201D0012000E0E9
:104E9000002070470146886880B2704702460020B3
:104EA000D3680B4201D0012000E00020704701468A
:104EB000C86880B2704701617047416170470AB1AC
:104EC000016100E041617047C16070474FF480327A
:104ED0000A43826181618261826982697047024608
:104EE0000020424B18684FF68073184040EA0210C9
:104EF00008433E4B186070473D49C8617047F0B5A4
:104F00000A46002300240021002500F00046B6F1E7
:104F1000004F02D1354EF16901E0344E7168C0F3A3
:104F2000034583B200F44016B6F5401F08D121F0C6
:104F300070612E4E766826F070662C4F7E6012E00F
:104F400000F48016B6F5801F06D1032606FA05F494
:104F5000A14341F0706106E0460D360103FA06F602
:104F6000B14341F0706122B1460D360103FA06F6F5
:104F7000314300F00046B6F1004F02D11B4EF16103
:104F800001E01A4E7160F0BD30B500228B071C0F96
:104F90000F2303FA04F2154B08338C1053F8243016
:104FA0009343124C08348D1044F8253023468C105E
:104FB00053F824308C07240F00FA04F423430B4CDD
:104FC00008348D1044F8253030BD0A490860704718
:104FD00000080140000C0140001001400014014095
:104FE00000180140001C0140002001400000014069
:104FF00000002042DC0020420E49086070470D4945
:10500000486070470B49886070474AF6AA200949F2
:10501000086070474CF6CC4006490860704701466E
:105020000020044AD2680A4201D0012000E000209A
:105030007047000000300040DB48006840F001008D
:10504000D949086008464068D8490840D6494860B0
:1050500008460068D6490840D349086008460068F9
:1050600020F4802008600846406820F4FE00486074
:105070004FF41F0088607047CB49096821F48031E4
:10508000C94A11601146096821F480211160B0F508
:10509000803F03D0B0F5802F0ED106E0C2490968E9
:1050A00041F48031C04A116007E0BF49096841F40A
:1050B000A021BD4A116000E000BF00BF704710B5DD
:1050C00001460022002300204A11012A02D1B64CD9
:1050D000236806E0022A02D1B34C236A01E0B24CF5
:1050E000636A01F01F02012494401C4201D0012098
:1050F00000E0002010BD70B500240025002600BF90
:105100003120FFF7DCFF0646641CB4F5A06F01D028
:10511000002EF5D03120FFF7D2FF08B1012500E0C5
:105120000025284670BD014600209F4A106820F0E7
:10513000F80040EAC100106070479E49086070475F
:1051400002460020984B586820F47C1042EA010384
:105150001843954B5860704796490866704701465A
:105160000020914A506820F00300084350607047C7
:105170008D48406800F00C007047014600208A4AC4
:10518000506820F0F000084350607047014600204E
:10519000854A506820F4E06008435060704701463B
:1051A0000020814A506820F4605040EAC1005060FD
:1051B000704729B17C4A527A02437B4B5A7204E011
:1051C000794A527A8243784B5A7270477A4908601A
:1051D000704701460020744A506820F4404008435C
:1051E000506070470021754A11706F4A82F8201094
:1051F000012802D0042808D103E001216F4A117070
:1052000004E005216D4A117000E000BF00BF704747
:105210006B49086070476449096A0143624A116238
:105220007047674944390860704730B50021002253
:10523000002400235C4D6D6805F00C0121B10429A8
:1052400005D0082923D105E05E4D056022E05E4DC2
:1052500005601FE0544D6D6805F47012524D6D6885
:1052600005F48034022505EB92421CB9574D554395
:1052700005600BE04C4D6D6815F4003F03D0544DB4
:105280005543056002E0504D5543056002E04D4D29
:10529000056000BF00BF444D6D6805F0F0010909CD
:1052A0004C4D6B5C0568DD4045603F4D6D6805F415
:1052B000E061090A474D6B5C4568DD4085603A4D09
:1052C0006D6805F46051C90A424D6B5C4568DD406C
:1052D000C560354D6D6805F44041890B3E4D6B5CF2
:1052E000C568B5FBF3F5056130BD29B12E4A526999
:1052F00002432D4B5A6104E02B4A526982432A4BE8
:105300005A61704729B1284A92690243264B9A6133
:1053100004E0254A92698243234B9A61704729B180
:10532000214AD2690243204BDA6104E01E4AD26965
:1053300082431D4BDA61704729B11B4AD268024390
:10534000194BDA6004E0184AD2688243164BDA60DF
:10535000704729B1144A12690243134B1A6104E0E1
:10536000114A12698243104B1A617047144940393F
:10537000086070470F49C86470470B49C87170478F
:105380000948406A40F0807007494862704701460A
:105390000020054A92680A4201D0012000E0002066
:1053A0007047014988727047001002400000FFF802
:1053B000FFFFF6FE00004242D800424220100240A9
:1053C0008004424200127A00001BB70000093D0031
:1053D000808D5B00660000207600002010B504463A
:1053E000BE48844208D101218014FFF7A5FF0021A7
:1053F000A014FFF7A1FF16E0B948844208D10121AB
:105400000014FFF7A6FF00212014FFF7A2FF0AE017
:10541000B448844207D10121C013FFF79AFF00214D
:10542000E013FFF796FF10BD10B50022028802F4CA
:1054300041520B884C8823438C882343CC882343D8
:105440000C8923434C8923438C892343CC892343F0
:105450001A430280838B4FF2FF74234083830B8AAD
:10546000038210BD2DE9F04F85B005460C464FF084
:10547000000902274FF000084FF0010B0026B2464A
:10548000A88B4FF240010840A88302202884B5F879
:105490001C90A068022801D100BF38E0A08810B994
:1054A0004FF0010B01E04FF0020B8D48854200D117
:1054B00000E000BF6846FFF7B8FEDDF800A0E08816
:1054C000B0F5007F0AD14FEA1A2000EB80004000BF
:1054D000A168B0FBF1F0401D86B20BE04FEA4B1023
:1054E000BAFBF0F000EB80004000A168B0FBF1F0E7
:1054F000401D86B20A20B6FBF0F606F00108A6EBC6
:105500000800C0F34F074FF6FF7000EA0828022F8B
:1055100001DBFF2F02DD02274FF00008E08840EAA0
:10552000080038432884A088A1890843618808437B
:105530002188084340F4006040EA0909A5F81C905E
:1055400005B0BDE8F08F0021018041808180C180DD
:10555000018141818181C181072101827047002140
:10556000018041808180C180022181600021818190
:10557000704721B1028842F04002028004E00288B4
:105580004FF6BF731A400280704721B1828B42F4FC
:105590008062828304E0828B4FF6FF331A4082835D
:1055A000704730B5002400230C110125A540ABB293
:1055B0001AB185881D43858002E085889D438580DA
:1055C00030BD1AB183880B43838002E083888B430C
:1055D0008380704781817047014688897047A1F5B3
:1055E0007E42FF3A04D0028842F48072028004E0D6
:1055F00002884FF6FF631A400280704721B182880B
:1056000042F00402828004E082884FF6FB731A4065
:105610008280704702884FF2FF731A40028002882E
:105620000A4302807047018841F48051018070472D
:1056300021B1028842F40052028004E002884DF653
:10564000FF731A400280704702460020012901D0F2
:10565000108B00E0908A70470146088A7047B1F5C8
:10566000804F04D1028842F48042028004E0028824
:105670004BF6FF731A4002807047024600201389E0
:105680000B4201D0012000E000207047CA43028194
:105690007047F0B50246002000240023002501F0E9
:1056A0000F070126BE40B4B20B1101269E40B3B2D3
:1056B000968806EA03051689264202D00DB101201C
:1056C00000E00020F0BD10B5002201F00F0401231E
:1056D000A3409AB2D343038110BD000000300140C3
:1056E00000380040003C004010B50446FB488442AE
:1056F00009D101218803FFF71FFE00214FF48040EC
:10570000FFF71AFE32E0F648844209D1012148042D
:10571000FFF71FFE00214FF40030FFF71AFE25E0CF
:10572000F048844209D101218804FFF712FE0021CC
:105730004FF48020FFF70DFE18E0EB48844209D1BA
:105740000121C804FFF705FE00214FF40020FFF7F8
:1057500000FE0BE0E548844208D101210805FFF76F
:10576000F8FD00214FF48010FFF7F3FD10BD2DE987
:10577000F04786B005460E460024A24600BFA1466B
:105780000027B08900B100BF2F462C8A4CF6FF706D
:105790000440F08804432C82AC894EF6F310044098
:1057A000B08831890843718908430443AC81AC8ACD
:1057B0004FF6FF400440B0890443AC8201A8FFF7D4
:1057C00034FDC648874202D1DDF810A001E0DDF8C3
:1057D0000CA0A88910F4004F08D00AEBCA0000EB17
:1057E0000A1031684900B0FBF1F807E00AEBCA0083
:1057F00000EB0A1031688900B0FBF1F86420B8FBB7
:10580000F0F004012009642101FB1089A88910F43B
:10581000004F08D0322000EBC900B0FBF1F000F0DF
:105820000700044308E0322000EB09106421B0FBBC
:10583000F1F000F00F0004432C8106B0BDE8F087C2
:105840004FF41651016000218180C18001810C213B
:10585000418100218181704710B502460020108AE5
:105860004FF2FF0318400B884C8823438C88234356
:10587000CC8823431843108210BD00210180418051
:105880008180C180704721B1828942F400528281B7
:1058900004E082894DF6FF731A4082817047F0B5AB
:1058A00003460024002600250020A1F510676A3F6A
:1058B00000D100BF1846C1F3421401F01F060127B2
:1058C00007FA06F5012C01D10C3004E0022C01D1BD
:1058D000103000E014301AB107682F43076002E06F
:1058E0000768AF430760F0BD1AB1838A0B43838218
:1058F00002E0838A8B4383827047028A4FF6F073FB
:105900001A400282028A0A430282704782894FF259
:10591000FF731A40828182890A438281704721B1D4
:10592000828942F00202828104E082894FF6FD738F
:105930001A4082817047028A4FF6DF731A40028252
:10594000028A0A430282704721B1028A42F48042ED
:10595000028204E0028A4BF6FF731A40028270470B
:10596000C1F308028280704701468888C0F30800AE
:105970007047818941F0010181817047028BD2B269
:105980000283028B42EA012202837047028B02F4F7
:105990007F420283028B0A430283704721B1828ACD
:1059A00042F02002828204E0828A4FF6DF731A40BE
:1059B0008282704721B1828A42F01002828204E022
:1059C000828A4FF6EF731A408282704721B1828A31
:1059D00042F00802828204E0828A4FF6F7731A408E
:1059E0008282704721B1828942F40042828103E0C1
:1059F0008289C2F30E028281704721B1828A42F409
:105A00000062828204E0828A4FF2FF731A4082822F
:105A10007047828A4FF6FB731A408282828A0A4359
:105A20008282704721B1828A42F00202828204E0BF
:105A3000828A4FF6FD731A40828270470246002028
:105A4000B1F5007F00D100BF13880B4201D00120C7
:105A500000E00020704701F40072B2F5007F00D131
:105A600000BFCA430280704770B50246002400237D
:105A700000250020A1F510666A3E00D100BFC1F3E9
:105A8000421501F01F03012606FA03F3012D02D18E
:105A90009689334006E0022D02D1168A334001E098
:105AA000968A33400C12012606FA04F41688344014
:105AB00013B10CB1012000E0002070BD10B5002230
:105AC0000023A1F510646A3C00D100BF0A12012432
:105AD0009440A3B2DC43048010BD000000380140B4
