:020000040800F2
:10000000084B0020FD190008051A0008071A00080F
:10001000091A00080B1A00080D1A00080000000059
:100020000000000000000000000000000F1A00089F
:10003000111A0008000000004BE30008FDD9000879
:100040004B140008171A0008171A0008171A00089E
:10005000171A0008171A0008171A0008171A0008BC
:10006000171A0008171A0008171A0008171A0008AC
:10007000171A0008171A0008171A0008171A00089C
:10008000171A0008171A0008171A0008171A00088C
:10009000D1190008171A0008171A0008171A0008C3
:1000A000171A0008171A0008171A0008171A00086C
:1000B000171A0008171A0008171A0008171A00085C
:1000C000171A0008171A0008171A0008171A00084C
:1000D000171A0008171A0008171A00082B0F000833
:1000E000171A0008171A0008171A0008171A00082C
:1000F000171A0008171A0008171A0008171A00081C
:10010000171A0008171A0008171A0008171A00080B
:10011000171A0008171A0008171A0008171A0008FB
:10012000171A0008171A0008171A0008171A0008EB
:10013000DFF80CD00EF04CF80048004715340008EA
:10014000084B0020014600BF704700BF584A128884
:1001500012F0400FFAD0C2B2564B1A80704710B559
:1001600003F042FA10BD5448806940F00100524942
:1001700088615248406820F0E06050494860084675
:10018000406840F080604860704708B54FF4806078
:1001900001F046FC27208DF8000000208DF80100BA
:1001A0008DF8020001208DF80300684601F03DFC47
:1001B00025208DF8000000208DF801008DF8020048
:1001C00001208DF80300684601F02FFC34208DF8E3
:1001D000000000208DF801008DF8020001208DF84C
:1001E0000300684601F021FC26208DF80000002065
:1001F0008DF801008DF8020001208DF8030068469B
:1002000001F013FC08BD10B586B00446012105209D
:1002100002F0BFFC0121480402F0C8FC0420ADF844
:10022000140018208DF8170003208DF8160005A97A
:10023000234802F0DBF90820ADF8140004208DF803
:10024000170003208DF8160005A91D4802F0CEF90D
:1002500001940020ADF80800ADF80A00ADF80C00DC
:10026000ADF810000C20ADF80E0001A9104802F006
:10027000CAFEFFF78AFF012240F225510C4802F026
:100280005AFF01210A4802F04AFF06B010BD70472C
:1002900010B5FFF764FFFFF7FAFF4FF4E130FFF707
:1002A000B2FFFFF772FF00F084F901F013F810BD00
:1002B000004400400444004000100240000001409F
:1002C0000008014000B587B001210C2002F061FC5C
:1002D0000121880302F06AFC4FF46040ADF804008D
:1002E00003208DF8060018208DF8070001A9C248E8
:1002F00002F07CF94FF48050ADF8040003208DF833
:10030000060010208DF8070001A9BB4802F06EF925
:100310004FF48051B84802F014FA0020ADF80800FC
:100320004FF48270ADF80A000020ADF80C000220F6
:10033000ADF80E000120ADF810004002ADF812003B
:100340000820ADF814000020ADF816000720ADF825
:10035000180002A9A94802F0B1FC0121A74802F047
:1003600050FD07B000BD10B504462146A34802F079
:100370007EFD00BF0221A14802F0CCFD0028F9D08B
:1003800000BF01219D4802F0C5FD0028F9D09B481F
:1003900002F06FFDC0B210BD10B5A520FFF7E3FF5E
:1003A00010BD70B504460D4645EA0421934802F09D
:1003B0005EFD00BF0221914802F0ACFD0028F9D09B
:1003C00000BF01218D4802F0A5FD0028F9D08B481F
:1003D00002F04FFDC0B270BD10B5044644F080007D
:1003E000002242EA0021854802F041FD00BF0221BF
:1003F000824802F08FFD0028F9D000BF01217F481C
:1004000002F088FD0028F9D07C4802F032FDC0B22D
:1004100010BD10B500244FF48051774802F093F9D5
:100420000520FFF7A0FF00BFA520FFF79CFF0446B3
:1004300004F001000128F7D04FF480516E4802F01B
:1004400080F910BD10B50446FFF7E3FF4FF480516B
:10045000694802F078F90620FFF785FF4FF48051D4
:10046000654802F06EF9FFF7D4FF4FF480516248FF
:1004700002F069F9D820FFF776FF200CFFF773FF31
:10048000200AFFF770FFE0B2FFF76DFF4FF48051D5
:10049000594802F056F910BD2DE9F04106460C46C8
:1004A0001746FFF7B6FF4FF48051534802F04BF95F
:1004B0000320FFF758FFC4F30740FFF754FFC4F3CE
:1004C0000720FFF750FFE0B2FFF74DFF002503E0E4
:1004D000FFF762FF70556D1CBD42F9D34FF4805198
:1004E000454802F02EF9BDE8F0812DE9F0410646BD
:1004F0000C461746FFF78DFF4FF480513E4802F03F
:1005000022F90620FFF72FFF4FF480513A4802F0FE
:1005100018F9FFF77EFF4FF48051374802F013F9C6
:100520000220FFF720FFC4F30740FFF71CFFC4F3CE
:100530000720FFF718FFE0B2FFF715FF002503E0E3
:10054000705DFFF710FF6D1CBD42F9D34FF4805171
:10055000294802F0F6F8BDE8F08108B500200090C7
:100560004FF48051244802F0EEF89F20FFF7FBFE85
:10057000FFF712FF8DF80000FFF70EFF8DF8010066
:10058000FFF70AFF8DF802004FF480511A4802F07D
:10059000D8F89DF80000202809D19DF801002028F6
:1005A00005D19DF80200152801D1002008BDFF20CB
:1005B000FCE7F8B5FFF786FE0A200DF084FAFFF796
:1005C000CCFFC0B100BF68460CF09EFB04460C484F
:1005D000007810F0010F0DD060086421B0FBF1F23B
:1005E00001FB1205C820B4FBF0F62A46314605A0EF
:1005F0000DF0DCFE00BFF8BD000C014000380040EB
:10060000040000205B253034642E253032642F45F1
:100610005D3A20666C617368206964206368656375
:100620006B206661696C65640D0A0D0A00000000AC
:100630000023C38003810160828070470146C8881F
:100640000A89904201D1012070470020FCE7014651
:10065000CA880B899A4204DDCA880B89D21A90B2E3
:1006600005E08A880B89D21ACB881A4490B2704769
:100670002DE9F04104460F461646E088218988425C
:1006800004DDE0882189401A85B205E0A08821892F
:10069000401AE188084485B2B54202DA0020BDE87C
:1006A000F081E088218988420ADD22892168881842
:1006B000324639460DF0B9FA2089304420811EE0D7
:1006C000A0882189401A85B2B5420ADD22892168B5
:1006D0008818324639460DF0A8FA20893044208126
:1006E0000DE02289216888182A4639460DF09DFAC6
:1006F000721B791920680DF098FA701B2081012077
:10070000CDE72DE9F04104460F461646E0882189E1
:10071000884206DDA088E188401A2189084485B214
:1007200003E02089E188401A85B2B54202DA002050
:10073000BDE8F081E088218988421FDDA088E1883A
:10074000401A85B2B5420ADDE28820688118324637
:1007500038460DF06AFAE0883044E08018E0E2881C
:10076000206881182A4638460DF05FFA721B781906
:1007700021680DF05AFA701BE08009E0E2882068D9
:100780008118324638460DF050FAE0883044E08057
:100790000120CDE700BF00BF704700003EB5044612
:1007A00002AB0022CDE90023134622460021084671
:1007B0000CF0CFF83EBD3EB5044602AB0022CDE9B9
:1007C00000232346114610460CF0C3F83EBD08B581
:1007D0000121082002F0DDF90120ADF80000102011
:1007E0008DF8030003208DF802006946FF4801F0F0
:1007F000FDFE0121FD4801F0A6FF0420FFF7CEFF1A
:100800000121FA4801F09DFF0420FFF7C7FF0121F5
:10081000F64801F098FF08BD10B5FFF7D8FF10BDEE
:1008200008B56A460021F24808F0A2FA08BD2DE991
:10083000FC41044601ABC82004FB00F100930023F7
:100840001A46EC4809F0AEF9BDF80400A0F5E44101
:10085000D9391CD100BF68460CF056FA0546E64867
:10086000007810F0020F0ED068086421B0FBF1F29E
:1008700001FB1206C820B5FBF0F7E04B32463946C3
:10088000DFA00DF093FD00BF0020BDE8FC8101203A
:10089000FBE770B505460E4600240CE0295DE048F4
:1008A00002F0ADFC00BF8021DD4802F016FD0028FB
:1008B000F9D0601C84B2B442F0DB70BD1CB501AB52
:1008C000009300231A461946C94808F053F81CBD86
:1008D0002DE9F04786B006460D464FF00009284640
:1008E0000DF0DEF987B2FFF7E9FFCE48FFF752FFC0
:1008F00030460DF0D5F91FFA80FA51463046FFF721
:10090000C8FF0420FFF793FF8046B8F1010F27D1FD
:100910000CE0012205A9C348FFF7F3FE9DF814205F
:100920004846411C01F0FF090DF80020BD48FFF7C3
:1009300085FE0028EDD000240CE0285D1DF8041091
:10094000884205D0FFF76CFF002006B0BDE8F087B5
:10095000601CC4B2BC42F0DBFFF762FF0120F4E789
:10096000FFF75EFF0020F0E72DE9F047A8B005464D
:100970000E464FF00008802108A80DF06FF92B46B5
:10098000A9A2802108A800960DF020FD00BF01A8B3
:100990000CF0BAF907469848007810F0020F10D012
:1009A00078086421B0FBF1F201FB1209C820B7FB03
:1009B000F0FA08AB0093A44B4A465146A3A00DF0B1
:1009C000F5FC00BFFFF77AFFA6A108A8FFF780FF9C
:1009D0000446F4B30A20FFF72AFF0446012C3BD15A
:1009E00027E0012207A98F48FFF78BFE00BF01A86F
:1009F0000CF08AF907468048007810F0020F0FD0FB
:100A000078086421B0FBF1F201FB1209C820B7FBA2
:100A1000F0FA9DF81C304A46514694A00DF0C6FCF1
:100A200000BF9DF81C204046411C01F0FF0802A9B0
:100A30000A547C48FFF702FE0028D2D0FFF7F0FEF0
:100A400091A102A80DF016F920B1012028B0BDE84F
:100A5000F08705E00020F9E7FFF7E2FE0020F5E768
:100A6000FFF7DEFE0020F1E72DE9FE4F002700260C
:100A700002AB002287A15F4808F065FF02AA88A1A7
:100A80005B4807F050FD02AA89A18E4807F04BFD94
:100A900024E28D48007830B1022868D004287ED046
:100AA00005287DD1D9E100BF01A80CF02DF98046C1
:100AB0005148007810F0020F0FD04FEA580064211F
:100AC000B0FBF1F201FB1209C820B8FBF0FA7F4B32
:100AD0004A4651467EA00DF069FC00BFFFF777FE45
:100AE0000A20FFF75BFE01207749087081A182A0F0
:100AF000FFF7EEFE01281CD102207349087000BFE9
:100B000001A80CF001F980463B48007810F0020F74
:100B10000ED04FEA58006421B0FBF1F201FB12093C
:100B2000C820B8FBF0FA4A46514675A00DF03EFCCD
:100B30001CE000206449087000BF01A80CF0E4F834
:100B400080462D48007810F0010F0ED04FEA580073
:100B50006421B0FBF1F201FB1209C820B8FBF0FAE6
:100B60004A4651466EA00DF021FC00BF96E100BF41
:100B700001A80CF0C9F880461F48007810F0020F59
:100B800012D04FEA58006421B0FBF1F201FB1209C8
:100B9000C820B8FBF0FA4D4B4A46514601E0FBE055
:100BA0007BE167A00DF002FC00BF0024EAE06D4984
:100BB00051F834000DF074F81FFA80F8694951F8C3
:100BC00034004146FFF765FE664800EBC4008088AC
:100BD000B0F57A7F08DB634800EBC40080884FF4EF
:100BE0007A7190FBF1F0BFE0C4E00000000C01401E
:100BF000980200207002002004000020D6EC0008BB
:100C00005B253034642E253032642F495D3A20252F
:100C1000733A2074696D656F75740D0A00000000E9
:100C2000004800406402002041542B434950535473
:100C30004152543D22544350222C222573222C220F
:100C40002564220D0A000000BBEC00085B2530344F
:100C5000642E253032642F495D3A2025733A2025D1
:100C6000730D0A000D0A4F4B000000005B25303465
:100C7000642E253032642F495D3A20524543562078
:100C8000253032780D0A0000434F4E4E4543542024
:100C90004F4B000053494D3830305F5741495400A5
:100CA00053494D3830305F4D5554455800000000D1
:100CB00053494D3830305F53454E445F4D55544590
:100CC00058000000C40200204C000020AEEC0008D8
:100CD0005B253034642E253032642F495D3A20255F
:100CE000733A2053544154455F554E494E4954453B
:100CF000440D0A004154000041540D0A0000000058
:100D00005B253034642E253032642F495D3A2070E3
:100D10006F776572757020646F6E650D0A00000054
:100D20005B253034642E253032642F455D3A2070C7
:100D30006F7765727570206661696C65640D0A0075
:100D40005B253034642E253032642F495D3A2025EE
:100D5000733A2053544154455F494E495445440D1C
:100D60000A0000000800002000F0FF084046FFF7DE
:100D700015FD05E0FD4901EBC4018888FFF71BFD67
:100D8000601CC4B2082CFFF612AFF948FFF702FD51
:100D90000420F849087081E000BF01A80BF0B4FFFF
:100DA0008046F548007810F0020F0FD04FEA580047
:100DB0006421B0FBF1F201FB1209C820B8FBF0FA84
:100DC000EE4B4A465146EEA00DF0F0FA00BF42F25B
:100DD0000F71F5A0FFF7C8FD0546012D1DD100BF1D
:100DE00001A80BF091FF8046E348007810F0010F56
:100DF0000ED04FEA58006421B0FBF1F201FB12095A
:100E0000C820B8FBF0FA4A465146EBA00DF0CEFAE6
:100E100000BF0520D74908701EE000BF01A80BF0F5
:100E200073FF8046D448007810F0010F0ED04FEACF
:100E300058006421B0FBF1F201FB1209C820B8FB95
:100E4000F0FA4A465146E5A00DF0B0FA00BF002086
:100E5000C8490870701C86B220E000BF01A80BF0E2
:100E600053FF8046C448007810F0020F0FD04FEABD
:100E700058006421B0FBF1F201FB1209C820B8FB55
:100E8000F0FABE4B4A465146DEA00DF08FFA00BF85
:100E900001270620B749087000BF00BF00BF082E19
:100EA0001CDD00BF01A80BF02FFF8046B248007880
:100EB00010F0010F10D04FEA58006421B0FBF1F29E
:100EC00001FB1209C820B8FBF0FAAC4B4A46514668
:100ED000D6A000960DF06AFA00BF02E0002F3FF4A2
:100EE000D8AD00BFFFB900BF01A80BF00DFF8046D1
:100EF000A148007810F0010F11D04FEA580064218A
:100F0000B0FBF1F201FB1209C820B8FBF0FA08238C
:100F100000939A4B4A465146CCA00DF047FA00BFC9
:100F20000020BDE8FE8F0120FBE710B5D748007810
:100F300000B910BD05F076F802F058FD05F083F811
:100F400000BFF6E708B56A464FF40071D04809F0D3
:100F500066F808BD08B540F22551CE4802F0D3F935
:100F600088B3CC4802F04FF9C0B20090CA4840782C
:100F7000C94908700846807848700846C07888706B
:100F80009DF80000C8707B48007809283FD2DFE850
:100F900000F0051B3E061C3E393E1D0038E0FFF701
:100FA0008DFC012269467248FFF762FBBA488078DF
:100FB0004F2805D1B848C0784B2801D1FFF7C2FFB0
:100FC000FFF72EFC24E024E000BF00BFFFF776FC13
:100FD000012269466648FFF74BFBAF4800784F286F
:100FE0000DD1AD4840784B2809D1AB4880780D2809
:100FF00005D1A948C0780A2801D1FFF7A3FFFFF760
:101000000FFC05E0FFF75AFCFFF70AFC00BF00BF2A
:1010100000BF08BD70472DE9F04387B04FF00009CD
:10102000FFF74CFC142101A80CF018FE03205149D5
:1010300008704F48FFF7AEFB082198A0FFF729FC86
:101040000420FFF7F4FB8046B8F1010F37D10CE024
:10105000012206A94648FFF754FB9DF81820484690
:10106000411C01F0FF0901A90A544148FFF7E6FAC3
:101070000028EDD08CA101A80CF0FCFD04001FD0CD
:101080008BA120460CF0F6FD0446641C89A1204685
:101090000CF0F0FD07466CB1002606E014F8012BB9
:1010A0003046711CCEB20DF80020BC42F6D30020B1
:1010B0000DF8060068460CF0FBFDC5B200E0002507
:1010C000FFF7AEFB06202B490870284607B0BDE8A5
:1010D000F0832DE9FF4104460D4677A00068029099
:1010E00000BF01A80BF010FE06462348007810F060
:1010F000020F10D070086421B0FBF1F201FB12075F
:10110000C820B6FBF0F86D4B3A464146AFF2C440FA
:1011100000940DF04BF900BF03AB009300231A4677
:101120001946674807F026FC0A20124908700C216E
:1011300064A0FFF7AEFB6420FFF73DFBA9B2204699
:10114000FFF7A7FB08200B490870012102A8FFF751
:10115000A0FBC820FFF72FFB06200649087003AA52
:101160000021574807F004FEBDE8FF810800002079
:10117000640200204C00002004000020AEEC0008B7
:101180005B253034642E253032642F495D3A2025AA
:10119000733A2053544154455F434F4E4E45435498
:1011A000494E470D0A0000003133392E3139362EB1
:1011B0003135332E323400005B253034642E253037
:1011C00032642F455D3A20636F6E6E6563742073E1
:1011D000756363657373210D0A0000005B2530346D
:1011E000642E253032642F455D3A20636F6E6E6544
:1011F0006374206661696C65642C20726574727911
:10120000210D0A005B253034642E253032642F49CD
:101210005D3A2025733A2053544154455F434F4E65
:101220004E45435445440D0A000000005B25303410
:10123000642E253032642F455D3A2025733A2072A2
:1012400065747279203D2025640D0A005B253034D9
:10125000642E253032642F455D3A2025733A20579D
:10126000652063616E6E6F7420636F6E6E6563746C
:10127000207365727665722C20726574726965647C
:101280002025642074696D65730D0A00AD0000208F
:1012900070020020004800404800002041542B43C9
:1012A00053510D0A000000002B4353513A00000037
:1012B000200000002C0000001A000000CAEC00080A
:1012C000C402002041542B43495053454E440D0A5B
:1012D0000000000010B586B00121092001F059FC82
:1012E0000121880401F062FC4FF48060ADF8140025
:1012F00018208DF8170003208DF8160005A927483F
:1013000001F074F94FF40060ADF8140004208DF87A
:10131000170003208DF8160005A9204801F066F992
:101320004FF4E13001900020ADF80800ADF80A005C
:10133000ADF80C00ADF810000C20ADF80E0001A9BE
:10134000174801F060FE00BF16480088C4B24FF095
:101350004020B0F80008C4B24FF0010240F225511D
:101360000F4801F0E8FE01210D4801F0D8FE4FF4CE
:1013700080720D490D48FFF75BF900200C49087099
:10138000AFF22F41272002F012FA0121272002F0AC
:1013900026FA272002F001FA06B010BD000C014029
:1013A000004800400448004064010020640200201E
:1013B0004C00002070B505460C4645F2555001F032
:1013C00061FA204601F064FA284601F05EFA01F065
:1013D00062FA01F065FA70BD10B501F05CFA10BD5B
:1013E00010B50446204601F0FDFF10BD08B50020F1
:1013F0008DF8000002208DF8010003208DF8020016
:1014000001208DF80300684600F00FFB08BD70B5A1
:1014100006460C4615460121C80201F0C7FB0F48DD
:10142000007830400E490870284601F0BAFF204687
:1014300001F0C2FF0A48007801F0D4FF01F0DBFFA1
:10144000FFF7D4FF01F0C5FF70BD10B50448007868
:1014500001F0C3FF01F0CFFF10BD00004D000020E0
:101460004E00002008B54FF4806000F0D9FA142037
:101470008DF8000001208DF8010000208DF8020099
:1014800001208DF80300684600F0CFFA08BD1CB5B6
:10149000FF4A0021FF4800F0DBFDFD480068FE49DF
:1014A0000988884207D101AB009300231422F84930
:1014B000FA4808F0C5F91CBD08B50121052001F066
:1014C00068FB0121480601F071FB4FF40060ADF8A4
:1014D000000004208DF8030003208DF80200694607
:1014E000EF4801F083F84FF48050ADF80000182069
:1014F0008DF8030003208DF802006946E84801F0EA
:1015000075F808BD08B50121042001F042FB012156
:10151000102001F03EFB4FF48070ADF80000102069
:101520008DF8030003208DF802006946DC4801F0C5
:101530005DF84FF40070ADF8000010208DF8030046
:1015400003208DF802006946D64801F04FF84FF4A9
:101550008071D34801F0F7F84FF40071D14801F0E1
:10156000F2F808BDF0B585B00446FFF7CBFFFFF7F2
:1015700079FFFFF7A1FFC74800F0CEFA01A800F0FD
:10158000EFFB00208DF80A008DF80B008DF80C00A1
:101590008DF80D008DF80E008DF80F008DF8060007
:1015A0008DF807000A208DF8080005208DF8090045
:1015B000ADF8044001A9B74800F0C7FA0020BA49C5
:1015C0000870BA49087004AAB9A1BD4806F0ABFF7B
:1015D00004AB2822BBA1B14807F04FFDAFF2511177
:1015E000142002F0E4F80121142002F0F8F814208D
:1015F00002F0D3F800BF68460BF086FB0546B548FD
:10160000007810F0020F0ED068086421B0FBF1F2F0
:1016100001FB1206C820B5FBF0F7AF4B3246394646
:10162000AEA00CF0C3FE00BF05B0F0BD2DE9FF4138
:1016300004460D4616461F4601208DF80A0000207C
:101640008DF80B008DF80C006005000CADF8000063
:101650006805000CADF802007005000CADF8040040
:101660007805000CADF806000020ADF80800012058
:101670008DF80D00684600F0F6FA01220221854837
:1016800000F001FEBDE8FF8170B504460025002092
:10169000207221467F4800F0D8FB064604E06D1C0E
:1016A0009548854200D905E031467A4800F073FC40
:1016B0000128F4D100BF70BD08B56A4600218048FA
:1016C00007F056FB08BD1CB501AB009300231A467A
:1016D00019467B4807F04EF91CBD2DE9F04F87B045
:1016E0000646884614469946002004900027824604
:1016F000039016F0010F0AD044F0FF0344F0FF02FC
:1017000021462046FFF792FF6348048008E0FF234C
:101710001A4600210846FFF789FF00205E4908802D
:1017200016F0020F02D04046FFF7AEFF16F0010F91
:101730007DD0002004909BE005AB0022CDE9002382
:1017400006AB4FF4C871554807F03CFE0546BDF89E
:101750001400A0F5E441D9396BD0FFF7B4FF286835
:10176000A04204D10498401CC0B204902AE000BFFB
:1017700002A80BF0C9FA83465648007810F0010F12
:1017800010D04FEA5B006421B0FBF1F201FB1200C4
:101790000190C820BBFBF0F00090014657A0019AD1
:1017A0000CF004FE00BF0398401CC0B203900398E5
:1017B000052804DD4FF0FF3AFFF77EFF5CE0FFF7FE
:1017C0007BFF55E03849097801EB8101524A2868CE
:1017D00042F82100A87A3449097801EB810102EB33
:1017E0008101887200270DE005F10B00C15D2E48D4
:1017F000007800EB8000484A02EB80000B30C155B6
:10180000781CC7B2A87AB842EEDC27480078401CA2
:101810002549087008460078282801D10020087062
:101820000AF101004FFA80FAFFF746FF1FE024E0BB
:10183000FFE700BF02A80BF067FA8346254800784F
:1018400010F0010F11D04FEA5B006421B0FBF1F200
:1018500001FB12000190C820BBFBF0F02F4B009061
:1018600001462FA0019A0CF0A1FD00BF04E000BFCB
:1018700004984845FFF660AF00BFFF231A460021D9
:101880000846FFF7D3FE002003490880504657E082
:101890001006002000640040500000205006002088
:1018A00000080140001001405200002053000020B9
:1018B000464C455843414E5F4D5554455800000035
:1018C00024060020464C455843414E5F515545552E
:1018D0004500000004000020E2EC00085B253034E5
:1018E000642E253032642F495D3A2025733A2064F6
:1018F0006F6E650D0A00000040420F005B2530341A
:10190000642E253032642F455D3A2065786365701A
:1019100074696F6E210D0A00F0020020EFEC0008E0
:101920005B253034642E253032642F455D3A202506
:10193000733A2074696D656F75740D0A00000000BC
:1019400007B0BDE8F08F2948007829490978884216
:1019500006DB2648007826490978401AC0B270474D
:1019600023480078C0F12800204909780844C0B213
:10197000F5E710B50024FFF7A6FE1D4800781B49C7
:101980000978884203D1FFF797FE002010BD184860
:1019900001780078401C164A107001EB810015494F
:1019A00001EB800410460078282802D1002011465F
:1019B0000870FFF781FE2046E8E710B5FFF783FEC9
:1019C00000200A4908700A490870FFF775FE10BD2B
:1019D00010B50948007800B910BD04F023FB01F0F0
:1019E000A6FF04F030FB00BFF6E700005200002025
:1019F00053000020F0020020AD0000200648804780
:101A000006480047FEE7FEE7FEE7FEE7FEE7FEE7E3
:101A1000FEE7FEE7FEE7FEE7E935000831010008D2
:101A200036490143364A1160704770B500210023E2
:101A30000F22C4784CB3324C246804F4E064C4F53B
:101A4000E0644FEA1421C1F1040322FA01F2447860
:101A500004FA03F1847804EA020444EA01014FEA3B
:101A60000111284C0678A155047804F01F054FF0A9
:101A7000010404FA05F405784FEA65154FF0E026F5
:101A800006EB8505C5F8004109E0047804F01F0560
:101A90000124AC401C4D0678761145F8264070BDF7
:101AA0001A4A0A4002431A4B1A60704741B1194A58
:101AB000126842EA00024FF0E023C3F8102D07E05D
:101AC000144A126822EA00024FF0E023C3F8102DF6
:101AD0007047042808D14FF0E021096941F0040162
:101AE0004FF0E022116107E04FF0E021096921F099
:101AF00004014FF0E0221161704700000000FA0578
:101B00000CED00E000E400E080E100E080FFFF1F5A
:101B100008ED00E010ED00E010B50446FF488442F7
:101B200009D10121480601F05BF800214FF0007057
:101B300001F056F808E00121880601F051F8002173
:101B40004FF0806001F04CF810BD30B50246002027
:101B50000023146824F002041460146844F00104A3
:101B6000146000E05B1C546804F00104012C03D0F5
:101B7000A3F57F44FF3CF5D1546804F00104012C27
:101B800001D000206EE08C79012C04D1146844F05F
:101B90008004146003E0146824F080041460CC799D
:101BA000012C04D1146844F04004146003E014686C
:101BB00024F0400414600C7A012C04D1146844F021
:101BC0002004146003E0146824F0200414604C7AAC
:101BD000012C04D1146844F01004146003E014686C
:101BE00024F0100414608C7A012C04D1146844F0A1
:101BF0000804146003E0146824F008041460CC7A2C
:101C0000012C04D1146844F00404146003E0146847
:101C100024F0040414608C78A407CD7844EA0564A9
:101C20000D7944EA05444D7944EA05540D886D1E4A
:101C30002C43D461146824F001041460002300E0F4
:101C40005B1C546804F00104012C03D1A3F57F440C
:101C5000FF3CF5D1546804F00104012C01D10020AF
:101C600000E0012030BD10B50021837A012202FA84
:101C700003F1AB4A126842F00102AA4BC3F80026F6
:101C80001A46D2F81C2622EA0102A74B1A60027BF0
:101C9000B2B9A64A126822EA0102A44B1A6042882D
:101CA000C38842EA0343A24A847A42F83430028865
:101CB000838842EA03439E4A847A02EBC40253605B
:101CC000027B012A16D1994A126842EA0102974B17
:101CD0001A604288038842EA0343954A847A42F8AC
:101CE0003430C288838842EA0343914A847A02EB03
:101CF000C4025360C27A3AB98E4A126822EA0102DB
:101D0000884BC3F8042606E08A4A126842EA0102B8
:101D1000844BC3F80426028932B9874A126822EA42
:101D20000102804BC3F814260289012A06D1824A97
:101D3000126842EA01027B4BC3F81426427B012A57
:101D400006D1794A126842EA0102764BC3F81C2692
:101D5000734A126822F00102724BC3F8002610BDCC
:101D600000218171C171017241728172C1728170F1
:101D7000C17003210171022141710121018070476D
:101D80006749096841F00101664AC2F800166449D2
:101D9000096843F60E7221EA0201624AC2F800168F
:101DA0001146D1F8001641EA0021C2F8001611468A
:101DB000D1F8001621F00101C2F80016704721B1D8
:101DC000026842F48032026003E0026822F480324A
:101DD00002607047E1B1026842F0800202604FF495
:101DE000C272125842F480734FF4C27213504FF40F
:101DF000CA72125842F480734FF4CA7213504FF4EF
:101E0000D272125842F480734FF4D27213501BE016
:101E1000026822F0800202604FF4C272125822F46B
:101E200080734FF4C27213504FF4CA72125822F4E6
:101E300080734FF4CA7213504FF4D272125822F4C6
:101E400080734FF4D2721350704710B502460020D1
:101E5000936803F08063B3F1806F00D110E0936862
:101E600003F00063B3F1006F01D1012008E0936833
:101E700003F08053B3F1805F01D1022000E0042021
:101E800004287ED002F5C07303EB00131B6803F037
:101E9000010402F5C07303EB00131C600B7A7BB9DD
:101EA0004B7A0C6843EA445302F5C07404EB001407
:101EB0002468234302F5C07404EB0014236010E08F
:101EC0000B7A4C6843EAC4034C7A234302F5C0748E
:101ED00004EB00142468234302F5C07404EB0014DF
:101EE00023608B7A03F00F038B7202F5C07303EB50
:101EF00000135B6823F00F0402F5C07303EB0013BB
:101F00005C6002F5C07303EB00135B688C7A2343BB
:101F100002F5C07404EB001463600FE0006400403D
:101F200000660040006000401C6600400C660040F7
:101F30004066004004660040146600408B7B1C062F
:101F40004B7B44EA03440B7B44EA0323CC7A2343D0
:101F500002F5C07404EB0014A3608B7C1C064B7C60
:101F600044EA03440B7C44EA0323CC7B234302F57D
:101F7000C07404EB0014E36002F5C07303EB0013BC
:101F800000E007E01B6843F0010402F5C07303EBB7
:101F900000131C6010BD10B50246002321B10129B9
:101FA00007D002290FD109E09068F84C00EA040339
:101FB0000BE09068F64C00EA040306E09068F54CEC
:101FC00000EA040301E0002300BF00BFF24C181B2D
:101FD000A34216D007DC83B16FF0806018180ED0D2
:101FE000022818D111E0B0F5007F10D0EB4C001999
:101FF00009D0B0F5003F0ED10BE002230DE0002325
:102000000BE0002309E0002307E0012305E00123A2
:1020100003E0012301E0002300BF00BFD8B210BDE0
:1020200021B1012907D002290FD109E0826842F0CD
:10203000800282600AE0826842F40042826005E029
:10204000826842F40002826000E000BF00BF704777
:1020500010B500F5D87303EB01131B6803F00403FC
:102060001372137A53B900F5D87303EB01131B688D
:1020700040F2FF7404EA5353136009E000F5D8738B
:1020800003EB01131B686FF0604404EAD303536051
:1020900000F5D87303EB01131B6803F002035372BE
:1020A00000F5D87303EB01135B6803F00F03937221
:1020B00000F5D87303EB01135B681B0AD37400F5BA
:1020C000D87303EB01139B68D37200F5D87303EB4D
:1020D00001139B681B0A137300F5D87303EB0113FC
:1020E0009B681B0C537300F5D87303EB01139B68BB
:1020F0001B0E937300F5D87303EB0113DB68D373E6
:1021000000F5D87303EB0113DB681B0A137400F5A9
:10211000D87303EB0113DB681B0C537400F5D87301
:1021200003EB0113DB681B0E937421B9C36843F002
:102130002003C36003E0036943F02003036110BD83
:1021400021B9C26842F02002C26003E0026942F095
:102150002002026170470246002019B9D36803F0DB
:10216000030006E0012903D1136903F0030000E036
:102170000020704710B502460B4600204FF6FF7155
:10218000BBB9146824F0020444F00104146000E0B8
:10219000491E546804F00304012C01D00029F7D132
:1021A000546804F00304012C01D0002032E0012027
:1021B00030E0012B13D1146824F00304146000E014
:1021C000491E546814F0030F01D00029F8D1546857
:1021D00014F0030F01D000201CE001201AE0022BB4
:1021E00017D1146824F0010444F00204146000E0E4
:1021F000491E546804F00304022C01D00029F7D1D1
:10220000546804F00304022C01D0002002E00120F5
:1022100000E0002010BD014600200A6822F0010203
:1022200042F002020A604A6802F00302022A00D168
:102230000120704701464FF6FF7200200B6823F023
:1022400002030B6000E0521E4B6803F00203022BF6
:1022500001D1002AF7D14B6803F00203022B00D012
:1022600001207047014600208A6902F07000704723
:10227000014600208A69100E7047014600208A69D5
:10228000C2F3074070471AB143690B43436102E050
:1022900043698B434361704710B50246002011F437
:1022A000700F08D09369C1F31304234201D00120B9
:1022B0002DE000202BE011F0807F08D05368C1F39F
:1022C0001304234201D0012021E000201FE011F07F
:1022D000006F08D09368C1F31304234201D001209A
:1022E00015E0002013E011F0007F08D0D368C1F39F
:1022F0001304234201D0012009E0002007E0136904
:10230000C1F31304234201D0012000E0002010BDDE
:102310000022234B994202D10023836111E0C1F3D3
:10232000130211F0007F01D0C2600AE011F0806F4B
:1023300001D0026105E011F0006F01D0826000E081
:1023400042607047024600200A4201D0012000E0AE
:102350000020704770B504460D460026606928428B
:1023600071D0B5F5807F68D01CDC082D41D006DC2B
:10237000012D2CD0022D30D0042D7ED133E0102D34
:102380003DD0202D41D0402D77D144E00300000402
:102390000003000800000310000100080001FFF71F
:1023A0007000F030B5F5004F61D009DCB5F5007F65
:1023B0004AD0B5F5806F4DD0B5F5006F5DD150E0D6
:1023C000B5F5803F2DD0B5F5003F56D12FE0A06880
:1023D0005549FFF7B7FF064651E0E0680321FFF7D4
:1023E000B1FF06464BE0E0680821FFF7ABFF064669
:1023F00045E0E0681021FFF7A5FF06463FE02069B1
:102400000321FFF79FFF064639E020690821FFF707
:1024100099FF064633E020691021FFF793FF064637
:102420002DE060680821FFF78DFF064627E0606811
:102430001021FFF787FF064621E0A0690121FFF781
:1024400081FF06461BE01BE0A0690221FFF77AFF2F
:10245000064614E0A0690421FFF774FF06460EE06B
:102460000BE0A0697021FFF76DFF064607E060688A
:102470000421FFF767FF064601E0002600BF00E0E9
:102480000026304670BDB1F5007F3AD00FDC202920
:1024900028D006DC01291CD004291DD0082940D1F0
:1024A0001DE0402921D0B1F5807F3AD126E0B1F579
:1024B000004F31D006DCB1F5806F25D0B1F5006F4B
:1024C0002FD124E0B1F5803F12D0B1F5003F28D1E3
:1024D00011E0154A826025E00822C26022E0102245
:1024E000C2601FE0082202611CE01022026119E0B4
:1024F0000822426016E01022426013E0042242608B
:1025000010E0042242600DE0042242600AE0002252
:1025100082610422426005E000228261042242605E
:1025200000E000BF00BF70470101010010B5044684
:10253000CA48844208D10121042000F044FB002154
:10254000042000F040FB46E0C548844208D1012148
:10255000082000F038FB0021082000F034FB3AE0AE
:10256000C048844208D10121102000F02CFB00213A
:10257000102000F028FB2EE0BB48844208D1012146
:10258000202000F020FB0021202000F01CFB22E096
:10259000B648844208D10121402000F014FB0021FC
:1025A000402000F010FB16E0B148844208D1012120
:1025B000802000F008FB0021802000F004FB0AE0EE
:1025C000AC48844207D10121801500F0FCFA0021BB
:1025D000A01500F0F8FA10BD10B50121084600F072
:1025E000F2FA0021012000F0EEFA10BD2DE9F041D1
:1025F000024600250026002000230024002791F831
:1026000003C00CF00F0591F803C01CF0100F03D0AD
:1026100091F802C04CEA0505B1F800C01CF0FF0FAC
:1026200031D0146800202BE04FF0010C0CFA00F3BD
:10263000B1F800C00CEA03069E4220D183004FF09F
:102640000F0C0CFA03F7BC4305FA03FC4CEA040434
:1026500091F803C0BCF1280F06D14FF0010C0CFA21
:1026600000FCC2F814C00AE091F803C0BCF1480FA6
:1026700005D14FF0010C0CFA00FCC2F810C0401C50
:102680000828D1D31460B1F800C0BCF1FF0F34DDCD
:10269000546800202EE000F1080C4FF0010808FA01
:1026A0000CF3B1F800C00CEA03069E4221D183006E
:1026B0004FF00F0C0CFA03F7BC4305FA03FC4CEA8D
:1026C000040491F803C0BCF1280F05D100F1080CF7
:1026D00008FA0CF8C2F8148091F803C0BCF1480F56
:1026E00007D100F1080C4FF0010808FA0CF8C2F805
:1026F0001080401C0828CED35460BDE8F0814FF60E
:10270000FF710180022181700421C170704702466F
:10271000002093680B4201D0012000E000207047A8
:102720000146886880B2704702460020D3680B4299
:1027300001D0012000E0002070470146C86880B247
:10274000704701617047416170470AB1016100E063
:1027500041617047C16070474FF480320A43826123
:102760008161826182698269704702460020424B22
:1027700018684FF68073184040EA021008433E4B39
:10278000186070473D49C8617047F0B50A4600239C
:1027900000240021002500F00046B6F1004F02D1D0
:1027A000354EF16901E0344E7168C0F3034583B2E0
:1027B00000F44016B6F5401F08D121F070612E4E8E
:1027C000766826F070662C4F7E6012E000F480166A
:1027D000B6F5801F06D1032606FA05F4A14341F0A1
:1027E000706106E0460D360103FA06F6B14341F08A
:1027F000706122B1460D360103FA06F6314300F04E
:102800000046B6F1004F02D11B4EF16101E01A4EB5
:102810007160F0BD30B500228B071C0F0F2303FA47
:1028200004F2154B08338C1053F824309343124CA8
:1028300008348D1044F8253023468C1053F824308A
:102840008C07240F00FA04F423430B4C08348D103A
:1028500044F8253030BD0A4908607047000801403F
:10286000000C01400010014000140140001801401C
:10287000001C0140002001400000014000002042F7
:10288000DC0020420E49086070470D4948607047DF
:102890000B49886070474AF6AA20094908607047CA
:1028A0004CF6CC4006490860704701460020044AB7
:1028B000D2680A4201D0012000E0002070470000E9
:1028C00000300040DB48006840F00100D949086052
:1028D00008464068D8490840D6494860084600681C
:1028E000D6490840D34908600846006820F4802093
:1028F00008600846406820F4FE0048604FF41F005E
:1029000088607047CB49096821F48031C94A116059
:102910001146096821F480211160B0F5803F03D091
:10292000B0F5802F0ED106E0C249096841F480312C
:10293000C04A116007E0BF49096841F4A021BD4ABF
:10294000116000E000BF00BF704710B501460022D3
:10295000002300204A11012A02D1B64C236806E068
:10296000022A02D1B34C236A01E0B24C636A01F03F
:102970001F02012494401C4201D0012000E00020ED
:1029800010BD70B500240025002600BF3120FFF7E0
:10299000DCFF0646641CB4F5A06F01D0002EF5D014
:1029A0003120FFF7D2FF08B1012500E000252846BD
:1029B00070BD014600209F4A106820F0F80040EAF0
:1029C000C100106070479E490860704702460020B1
:1029D000984B586820F47C1042EA01031843954B49
:1029E0005860704796490866704701460020914A32
:1029F000506820F003000843506070478D484068DD
:102A000000F00C007047014600208A4A506820F010
:102A1000F00008435060704701460020854A506826
:102A200020F4E06008435060704701460020814A6E
:102A3000506820F4605040EAC1005060704729B1EE
:102A40007C4A527A02437B4B5A7206E0794A527AA8
:102A5000C343DBB21A40774B5A727047794908601A
:102A6000704701460020734A506820F440400843F4
:102A7000506070470021744A11706E4A82F820102D
:102A8000012802D0042808D103E001216E4A117008
:102A900004E005216C4A117000E000BF00BF7047E0
:102AA0006A49086070476349096A0143614A1162D3
:102AB000704767490860704730B500210022002444
:102AC00000235C4D6D6805F00C0121B1042905D08F
:102AD000082923D105E05F4D056022E05E4D0560C9
:102AE0001FE0544D6D6805F47012524D6D6805F489
:102AF0008034022505EB92421CB9584D55430560C0
:102B00000BE04C4D6D6815F4003F03D0544D554318
:102B1000056002E0504D5543056002E04D4D0560F3
:102B200000BF00BF434D6D6805F0F00109094D4D30
:102B30006B5C0568DD4045603E4D6D6805F4E06105
:102B4000090A484D6B5C4568DD408560394D6D680C
:102B500005F46051C90A434D6B5C4568DD40C560B2
:102B6000344D6D6805F44041890B3F4D6B5CC56881
:102B7000B5FBF3F5056130BD29B12E4A5269024318
:102B80002C4B5A6104E02B4A52698243294B5A610B
:102B9000704729B1274A92690243264B9A6104E0A3
:102BA000244A92698243234B9A61704729B1214A92
:102BB000D26902431F4BDA6104E01E4AD2698243A4
:102BC0001C4BDA61704729B11A4AD2680243194B8B
:102BD000DA6004E0174AD2688243164BDA60704725
:102BE00029B1144A12690243124B1A6104E0114AD6
:102BF000126982430F4B1A6170471C490860704785
:102C00000F49C86470470B49C87170470948406A4A
:102C100040F0807007494862704701460020054A2D
:102C200092680A4201D0012000E00020704701496B
:102C300088727047001002400000FFF8FFFFF6FEA8
:102C400000004242D800424220100240800442422A
:102C50003C04424200127A00001BB70000093D000C
:102C6000808D5B005400002064000020400442423C
:102C700010B50446BF48844208D101218014FFF7F3
:102C8000A2FF0021A014FFF79EFF16E0BA4884427D
:102C900008D101210014FFF7A3FF00212014FFF742
:102CA0009FFF0AE0B548844207D10121C013FFF716
:102CB00097FF0021E013FFF793FF10BD10B500222E
:102CC000028802F441520B884C8823438C882343AA
:102CD000CC8823430C8923434C8923438C89234389
:102CE000CC8923431A430280838B4FF2FF74234025
:102CF00083830B8A038210BD2DE9F04F85B0054612
:102D00000C464FF0000902274FF000084FF0010B6E
:102D10000026B246A88B4FF240010840A88302204B
:102D20002884B5F81C90A068022801D100BF36E0C5
:102D3000A08810B94FF0010B01E04FF0020B8E4854
:102D4000854200D100E000BF6846FFF7B5FEDDF820
:102D500000A0E088B0F5007F0AD14FEA1A2000EB0E
:102D600080004000A168B0FBF1F0401D86B20BE08E
:102D70004FEA4B10BAFBF0F000EB80004000A16876
:102D8000B0FBF1F0401D86B20A20B6FBF0F606F06B
:102D90000108A6EB0800C0F34F074FEA0828022FEE
:102DA00001DBFF2F02DD02274FF00008E08840EA38
:102DB000080038432884A088A18908436188084313
:102DC0002188084340F4006040EA0909A5F81C90F6
:102DD00005B0BDE8F08F0021018041808180C18075
:102DE000018141818181C1810721018270470021D8
:102DF000018041808180C180022181600021818128
:102E0000704721B1028842F04002028004E002884B
:102E10004FF6BF731A400280704721B1828B42F493
:102E20008062828304E0828B4FF6FF331A408283F4
:102E3000704770B5002400230C110125A540ABB2EA
:102E40001AB185881D43858004E08588DE43B6B2CB
:102E50003540858070BD10B51AB183880B438380DF
:102E600004E08388CC43A4B22340838010BD8181D9
:102E70007047014688897047A1F57E42FF3A04D029
:102E8000028842F48072028004E002884FF6FF63F9
:102E90001A400280704721B1828842F00402828089
:102EA00004E082884FF6FB731A40828070470288E4
:102EB0004FF2FF731A40028002880A430280704773
:102EC000018841F480510180704721B1028842F4A9
:102ED0000052028004E002884DF6FF731A4002801F
:102EE000704702460020012901D0108B00E0908A33
:102EF00070470146088A7047B1F5804F04D10288B7
:102F000042F48042028004E002884BF6FF731A40CC
:102F1000028070470246002013890B4201D0012035
:102F200000E000207047CA4302817047F0B50246B6
:102F3000002000240023002501F00F070126BE40D9
:102F4000B4B20B1101269E40B3B2968806EA03057F
:102F50001689264202D00DB1012000E00020F0BD0C
:102F600010B5002201F00F040123A3409AB2D3430D
:102F7000038110BD0030014000380040003C00409B
:102F800010B50446FC48844209D101218803FFF7AB
:102F90001AFE00214FF48040FFF715FE32E0F7489B
:102FA000844209D101214804FFF71AFE00214FF4A1
:102FB0000030FFF715FE25E0F148844209D10121D8
:102FC0008804FFF70DFE00214FF48020FFF708FE74
:102FD00018E0EC48844209D10121C804FFF700FE43
:102FE00000214FF40020FFF7FBFD0BE0E648844290
:102FF00008D101210805FFF7F3FD00214FF48010EF
:10300000FFF7EEFD10BD2DE9F04786B005460E46F0
:103010000024A24600BFA1460027B08900B100BF2E
:103020002F462C8A4CF6FF700440F08804432C8213
:10303000AC894EF6F3100440B08831890843718999
:1030400008430443AC81AC8A4FF6FF400440B0898A
:103050000443AC8201A8FFF72FFDC748874202D185
:10306000DDF810A001E0DDF80CA0A88910F4004FF5
:1030700008D00AEBCA0000EB0A1031684900B0FB27
:10308000F1F807E00AEBCA0000EB0A10316889008A
:10309000B0FBF1F86420B8FBF0F0040120096421D2
:1030A00001FB1089A88910F4004F08D0322000EBF2
:1030B000C900B0FBF1F000F00700044308E0322043
:1030C00000EB09106421B0FBF1F000F00F000443A5
:1030D0002C8106B0BDE8F0874FF416510160002145
:1030E0008180C18001810C21418100218181704753
:1030F00010B502460020108A4FF2FF0318400B88DB
:103100004C8823438C882343CC8823431843108264
:1031100010BD0021018041808180C180704721B1B4
:10312000828942F40052828104E082894DF6FF7365
:103130001A4082817047F0B503460024002600251E
:103140000020A1F510676A3F00D100BF1846C1F307
:10315000421401F01F06012707FA06F5012C01D1E0
:103160000C3004E0022C01D1103000E014301AB110
:1031700007682F43076002E00768AF430760F0BDB0
:1031800010B51AB1838A0B43838204E0838ACC434F
:10319000A4B22340838210BD028A4FF6F0731A4016
:1031A0000282028A0A430282704782894FF2FF73C9
:1031B0001A40828182890A438281704721B18289C3
:1031C00042F00202828104E082894FF6FD731A40C8
:1031D00082817047028A4FF6DF731A400282028AA8
:1031E0000A430282704721B1028A42F4804202827D
:1031F00004E0028A4BF6FF731A4002827047C1F363
:1032000008028280704701468888C0F30800704732
:10321000818941F0010181817047028BD2B2028322
:10322000028B42EA012202837047028B02F47F4242
:103230000283028B0A430283704721B1828A42F0E3
:103240002002828204E0828A4FF6DF731A40828273
:10325000704721B1828A42F01002828204E0828AA1
:103260004FF6EF731A408282704721B1828A42F092
:103270000802828204E0828A4FF6F7731A40828243
:10328000704721B1828942F40042828103E0828941
:10329000C2F30E028281704721B1828A42F4006239
:1032A000828204E0828A4FF2FF731A408282704762
:1032B000828A4FF6FB731A408282828A0A43828294
:1032C000704721B1828A42F00202828204E0828A3F
:1032D0004FF6FD731A408282704702460020B1F516
:1032E000007F00D100BF13880B4201D0012000E015
:1032F0000020704701F40072B2F5007F00D100BFDA
:10330000CA430280704770B502460024002300259E
:103310000020A1F510666A3E00D100BFC1F342153E
:1033200001F01F03012606FA03F3012D02D196894D
:10333000334006E0022D02D1168A334001E0968A1E
:1033400033400C12012606FA04F41688344013B1F7
:103350000CB1012000E0002070BD10B50022002358
:10336000A1F510646A3C00D100BF0A120124944008
:10337000A3B2DC43048010BD00380140004400408B
:1033800000480040004C00400050004010B50121B2
:10339000C802FFF725FC00214FF40060FFF720FC76
:1033A00010BD0021164A126822F4C07141EA0001E2
:1033B000144AC2F8041C70470021114A126822F016
:1033C0007F0100F07F0242EA01010E4AC2F8041CAC
:1033D000704701200C490860704700F07F010B4ADC
:1033E0001160704740F08001084A1160704708483A
:1033F0000068C0B2704700200549086070470000AF
:10340000042C004000200040A4800542002C004015
:10341000082C00408AB000240AF0FCFAFCF738FFC0
:1034200009A802F069FD30A00AF0C0FF00BF00BF8C
:1034300000BF00F0D9FC044600BF00BF3048007850
:10344000401C2F49087000BF00BF204600F0D0FC90
:1034500000BF00BF00BF09AB03220021059106A8F1
:103460000EC00B464FF4007233212648CDE90323EA
:10347000CDE90101032300930023234A23A1264819
:1034800007F0CAFA00BF00BF00BF00F0ADFC044661
:1034900000BF00BF1A480078401E1949087008464E
:1034A0000078A0B91D480088002809DD00BF00BFD2
:1034B000204600F09DFC00BF00BF03F049FB0DE07B
:1034C00000BF00BF204600F093FC00BF06E000BF35
:1034D00000BF204600F08CFC00BF00BF00BF09A861
:1034E00002F0D9FF00BFFEE70D0A0D0A2B2B4E6F2D
:1034F000772053746172742B2B0D0A0D0A000000A3
:10350000F40000201C28002035D800085374617294
:1035100074205461736B000058270020B80000200D
:1035200000210020674A126842F48032654B1A601D
:1035300000BF644A126802F40030491C10B9B1F5AA
:10354000A06FF6D15F4A126812F4003F01D001204B
:1035500000E00020012842D15B4A126842F01002CC
:10356000594B1A601A46126822F003021A601A4672
:10357000126842F002021A60524A5268514B5A6075
:103580001A4652685A601A46526842F480625A607B
:103590001A46526822F47C125A601A46526842F463
:1035A00088125A601A46126842F080721A6000BF90
:1035B000444A126812F0007FFAD0424A526822F060
:1035C0000302404B5A601A46526842F002025A60A7
:1035D00000BF3C4A526802F00C02082AF9D1704739
:1035E00010B5FFF79DFF10BD10B53648006840F0DC
:1035F00001003449086008464068344908403149B0
:10360000486008460068324908402E49086008466C
:10361000006820F4802008600846406820F4FE001E
:1036200048604FF41F008860FFF7DAFF4FF000603A
:103630002849086010BD10B5002100200022214B50
:103640005B6803F00C0121B1042906D0082928D1B8
:1036500007E0214B214C236027E0214B1F4C2360C6
:1036600023E0184B5B6803F47010164B5B6803F49F
:103670008032022303EB904022B91A4B4343174C8C
:1036800023600DE00F4B5B6813F4003F04D0164B32
:103690004343124C236003E0114B43430F4C236020
:1036A00003E00D4B0D4C236000BF00BF054B5B6872
:1036B000C3F303130D4CE15C084B1B68CB40074C74
:1036C000236010BD00100240002002400000FFF8FF
:1036D000FFFFF6FE08ED00E000127A00680000200F
:1036E000001BB70000093D00808D5B006C000020CE
:1036F00000B585B06846FFF7DFF9019805B000BD59
:1037000010B5FFF7F5FF04461948006840F08070D7
:103710004FF0E021C1F8FC0D4FF000001549486062
:103720000846006840F001000860204600F060FA9A
:1037300010BD1049486870472DE9F0478246FFF7F1
:10374000D7FF4FF0000980460B4A00234046494608
:103750000AF028FA064602460B46504600210AF0B7
:1037600021FA04460D4620462946BDE8F0870000B0
:10377000FCED00E0001000E040420F00704710B583
:103780000446442C04D204F11000C0B200F07CFBCB
:1037900010BD10B500F024FB10BD10B50446442C3C
:1037A00004D204F11000C0B200F01AFC10BD70B5D4
:1037B00004460D460026442C10D200BF00BF00F086
:1037C00013FB064600BF00BFBF4840F8245000BFAF
:1037D00000BF304600F00CFB00BF00BF70BD70B5ED
:1037E00004460D460026442C13D200BF00BF00F053
:1037F000FBFA064600BF00BF294604F11000C0B224
:1038000000F0EDFC00BF00BF304600F0F1FA00BF51
:1038100000BF70BD704710B5002404E0AB492046DE
:10382000FFF7C5FF641C442CF8D310BD70B50446E7
:10383000002600BF00BF00F0D7FA064600BF00BF59
:1038400002F0F0FB00BF00BF304600F0D1FA00BF2D
:1038500000BF442C04D29C4850F8245005B1A8471E
:1038600002F0F1FB70BD10B50020FFF7DFFF10BDC7
:1038700010B50120FFF7DAFF10BD10B50220FFF7E9
:10388000D5FF10BD10B50320FFF7D0FF10BD10B558
:103890000420FFF7CBFF10BD10B50520FFF7C6FFD2
:1038A00010BD10B50620FFF7C1FF10BD10B50720F1
:1038B000FFF7BCFF10BD10B50820FFF7B7FF10BD24
:1038C00010B50920FFF7B2FF10BD10B50A20FFF7B1
:1038D000ADFF10BD10B50B20FFF7A8FF10BD10B550
:1038E0000C20FFF7A3FF10BD10B50D20FFF79EFFC2
:1038F00010BD10B50E20FFF799FF10BD10B50F20B9
:10390000FFF794FF10BD10B51020FFF78FFF10BD1B
:1039100010B51120FFF78AFF10BD10B51220FFF778
:1039200085FF10BD10B51320FFF780FF10BD10B547
:103930001420FFF77BFF10BD10B51520FFF776FFB1
:1039400010BD10B51620FFF771FF10BD10B5172080
:10395000FFF76CFF10BD10B51820FFF767FF10BD13
:1039600010B51920FFF762FF10BD10B51A20FFF740
:103970005DFF10BD10B51B20FFF758FF10BD10B53F
:103980001C20FFF753FF10BD10B51D20FFF74EFFA1
:1039900010BD10B51E20FFF749FF10BD10B51F2048
:1039A000FFF744FF10BD10B52020FFF73FFF10BD0B
:1039B00010B52120FFF73AFF10BD10B52220FFF708
:1039C00035FF10BD10B52320FFF730FF10BD10B537
:1039D0002420FFF72BFF10BD10B52520FFF726FF91
:1039E00010BD10B52620FFF721FF10BD10B5272010
:1039F000FFF71CFF10BD10B52820FFF717FF10BD03
:103A000010B52920FFF712FF10BD10B52A20FFF7CF
:103A10000DFF10BD10B53220FFF708FF10BD10B527
:103A20003320FFF703FF10BD10B53420FFF7FEFE73
:103A300010BD10B53520FFF7F9FE10BD10B53620CA
:103A4000FFF7F4FE10BD10B53720FFF7EFFE10BDF5
:103A500010B53820FFF7EAFE10BD10B53920FFF78A
:103A6000E5FE10BD10B53A20FFF7E0FE10BD10B521
:103A70003B20FFF7DBFE10BD10B53C20FFF7D6FE64
:103A800010BD10B53D20FFF7D1FE10BD10B53E2092
:103A9000FFF7CCFE10BD10B53F20FFF7C7FE10BDED
:103AA00010B54020FFF7C2FE10BD10B54120FFF752
:103AB000BDFE10BD10B54220FFF7B8FE10BD10B519
:103AC0004320FFF7B3FE10BD800600201538000824
:103AD00010B5002400BF00BF00F086F9044600BF07
:103AE00000BF1021BB4800F0EEFE00BF00BF204623
:103AF00000F07EF900BF00BF10BD10B5FFF7E8FF72
:103B000010BD10B50020B4490860FFF7F9FD10BDE5
:103B100010B5FFF7F6FFFFF7F0FF10BD00BFFEE79F
:103B200070B505460C46002614B900BFFFF7F6FF36
:103B300015B90A20208070BD00BF00BF00F054F905
:103B4000064600BF00BF1022A249284601F072FBC2
:103B500000BF00BF304600F04BF900BF00BF00209F
:103B6000208000BFE7E72DE9F04105460C4600271D
:103B700014B900BFFFF7D2FF1DB90A202080BDE8AD
:103B8000F0811021284601F03DFB0646102E15D28B
:103B900000BF00BF00F028F9074600BF00BF102299
:103BA00029468C4801F046FB00BF00BF384600F0B4
:103BB0001FF900BF00BF0020208002E04FF47A70A0
:103BC000208000BFDBE710B5FFF7B3FD04462046B9
:103BD00010BD7047014611B900BFFFF79FFF7E4A35
:103BE000106808B1002201E04FF4FA620A807047C1
:103BF00079490860704770B50546284600F0FFF81F
:103C00000446183C204670BD70B50546284600F0B5
:103C1000F6F80446103C204670BD70B505462846AF
:103C200000F0EDF8044600BF204670BD2DE9F04FCE
:103C30008BB004460D464FF0FF314FF00000091BDA
:103C4000A84143D24FF0FF31080C091BA8411DD2F7
:103C50004FF0FF31080A091BA8410AD23822A046BA
:103C6000A9462046294609F0D0FF06465B498F5DEC
:103C700069E03022A246AB462046294609F0C5FF3E
:103C800006465649885D00F108075CE04FF0FF31B9
:103C9000FF20091BA8410CD2282220462946CDE945
:103CA000015409F0B2FF06464C49885D00F1100747
:103CB00049E0202220462946CDE9035409F0A5FF1A
:103CC00006464649885D00F118073CE04FF6FF7153
:103CD0000020091BA8411FD26FF07F410020091B63
:103CE000A8410CD2182220462946CDE9055409F0F6
:103CF0008CFF06463949885D00F1200723E0102239
:103D000020462946CDE9075409F07FFF064633498E
:103D1000885D00F1280716E0FF210020091BA8415B
:103D20000CD2082220462946CDE9095409F06DFF3E
:103D300006462A49885D00F1300704E026462748F8
:103D4000805D00F1380738460BB0BDE8F08F70B5E4
:103D500004460CB9082070BD204600F053F8054613
:103D60002846F8E770B504460CB9102070BD20460F
:103D700000F048F805462846F8E770B504460CB947
:103D8000202070BD204600F03DF805462846F8E7A3
:103D90002DE9F04704460D464FF0000184EA01008A
:103DA00085EA0101084302D14020BDE8F087E243E3
:103DB000E843521C40F1000102EA040601EA05074B
:103DC00030463946FFF732FF8046C8F13F09484682
:103DD000EBE70000900700207C00002000ED0008C9
:103DE00072B6704762B67047EFF3108072B67047D4
:103DF00080F31088704730BF704720BF7047B0FA1B
:103E000080F0704790FAA0F0B0FA80F0704790FA16
:103E1000A0F0704710B5B0F1005F0AD3F74CA04294
:103E200007D8440104EB810303F108520024146015
:103E30000CE0B0F1804F09D3F14CA04206D8440108
:103E400004EB810303F184420024146010BD10B51B
:103E5000B0F1005F0AD3E94CA04207D8440104EB5B
:103E6000810303F10852012414600CE0B0F1804F8B
:103E700009D3E34CA04206D8440104EB810303F1CB
:103E800084420124146010BD2DE9F04104464FF036
:103E90000008102C72D2DFE804F0080E0F10142B6B
:103EA00042090A0B0C11120D135900BF00BF00BFCD
:103EB00000BF00BF91E000BF00BF00BF00BF00BF58
:103EC0008BE000BF00BFFFF78FFF804600BF00BF41
:103ED000CC48006820F480304FF0E021C1F8240D78
:103EE00000BF00BF4046FFF783FF00BF00BF74E084
:103EF00000BF00BFFFF778FF804600BF00BFC1488A
:103F0000006820F400304FF0E021C1F8240D00BF1C
:103F100000BF4046FFF76CFF00BF00BF5DE000BF81
:103F200000BFFFF761FF804600BF00BFB5480068D3
:103F300020F480204FF0E021C1F8240D00BF00BF25
:103F40004046FFF755FF00BF00BF46E000BF00BF7F
:103F5000FFF74AFF804600BF00BF4FF0E020006936
:103F600020F001004FF0E021086100BF00BF404693
:103F7000FFF73EFF00BF00BF2FE0FFE74FF0E0205C
:103F80004068401C102101EB4010C6B2B44223DA55
:103F9000A4F11000C11700EBD161C1F34715C1179F
:103FA00000EBD1614911A0EB4111CFB200BF00BFBE
:103FB000FFF71AFF804600BF00BF0120B8404FF056
:103FC000E02101EB8501C1F8800100BF00BF404640
:103FD000FFF70EFF00BF00BF00BF00BFBDE8F081CC
:103FE0002DE9F04104464FF00008102C72D2DFE8B2
:103FF00004F0080E0F10142B42090A0B0C11120DBD
:10400000135900BF00BF00BF00BF00BF91E000BF59
:1040100000BF00BF00BF00BF8BE000BF00BFFFF7C5
:10402000E3FE804600BF00BF7648006840F4803061
:104030004FF0E021C1F8240D00BF00BF4046FFF75C
:10404000D7FE00BF00BF74E000BF00BFFFF7CCFE8B
:10405000804600BF00BF6B48006840F400304FF05E
:10406000E021C1F8240D00BF00BF4046FFF7C0FEAD
:1040700000BF00BF5DE000BF00BFFFF7B5FE804698
:1040800000BF00BF5F48006840F480204FF0E0218F
:10409000C1F8240D00BF00BF4046FFF7A9FE00BFD6
:1040A00000BF46E000BF00BFFFF79EFE804600BF96
:1040B00000BF4FF0E020006940F001004FF0E02128
:1040C000086100BF00BF4046FFF792FE00BF00BF7F
:1040D0002FE0FFE74FF0E0204068401C102101EB8B
:1040E0004010C7B2BC4223DAA4F11000C11700EBA4
:1040F000D161C1F34715C11700EBD1614911A0EBA4
:104100004111CEB200BF00BFFFF76EFE804600BF78
:1041100000BF0120B0404FF0E02101EB8501C1F864
:10412000000100BF00BF4046FFF762FE00BF00BFB6
:1041300000BF00BFBDE8F0812DE9F04104464FF01B
:104140000008102C19D2DFE804F0080E0F1011152A
:1041500016090A0B0C12130D141700BF00BF00BF85
:1041600000BF00BF38E000BF00BF00BF00BF00BFFE
:1041700000BF00BF00BF00BF2EE04FF0E02040684E
:10418000401C102101EB4010C7B2BC4223DAA4F15D
:104190001000C11700EBD161C1F34715C11700EB47
:1041A000D1614911A0EB4111CEB200BF00BFFFF7B2
:1041B0001BFE804600BF00BF0120B0404FF0E02151
:1041C00001EB8501C1F8800200BF00BF4046FFF748
:1041D0000FFE00BF00BF00BF00BFBDE8F0812DE9AA
:1041E000F05F06460D464FF0000B2846FFF70FFE26
:1041F00082464FEA1A65102E7DD205E0FFFF0F20A0
:10420000FFFF0F4024ED00E0DFE806F0080E0F107E
:10421000112A43090A0B0C5C760D8FA800BF00BF62
:1042200000BF00BF00BFF1E000BF00BFEEE000BF75
:1042300000BFFFF7D9FD834600BF00BFE548046813
:1042400024F0FF0444EA05044FF0E020C0F8184DC4
:1042500000BF00BF5846FFF7CBFD00BF00BFD5E051
:1042600000BF00BFFFF7C0FD834600BF00BFD948B5
:10427000046824F47F4444EA05244FF0E020C0F8A9
:10428000184D00BF00BF5846FFF7B2FD00BF00BF8A
:10429000BCE000BF00BFFFF7A7FD834600BF00BF23
:1042A000CC48046824F47F0444EA05444FF0E0203D
:1042B000C0F8184D00BF00BF5846FFF799FD00BF7A
:1042C00000BFA3E000BF00BFFFF78EFD834600BF25
:1042D00000BFC148046824F07F4444EA05644FF0FD
:1042E000E020C0F81C4D00BF00BF5846FFF780FD1E
:1042F00000BF00BF8AE04AE000BF00BFFFF774FDC7
:10430000834600BF00BFB548046824F0FF0444EAB8
:1043100005044FF0E020C0F8204D00BF00BF584614
:10432000FFF766FD00BF00BF70E000BF00BFFFF7F2
:104330005BFD834600BF00BFA848046824F47F04E7
:1043400044EA05444FF0E020C0F8204D00BF00BF14
:104350005846FFF74DFD00BF00BF57E000BF00BF4C
:10436000FFF742FD834600BF00BF9C48046824F06D
:104370007F4444EA05644FF0E020C0F8204D00BFC0
:1043800000BF5846FFF734FD00BF00BF3EE04FF0CE
:10439000E0204068401C102101EB401000F0FF09B4
:1043A0004E4532DAA6F11000C11700EB9171C1F34E
:1043B0008707C11700EB91718910A0EB810101F013
:1043C000FF0800BF00BFFFF70FFD834600BF00BF1F
:1043D0004FF0E02000EB8700D0F800444FEAC8011E
:1043E000FF20884084434FEAC80105FA01F00443E6
:1043F0004FF0E02000EB8700C0F8004400BF00BF92
:104400005846FFF7F5FC00BF00BF00BF00BFBDE886
:10441000F09F2DE9F05F06464FF0000B102E6FD293
:10442000DFE806F0080F1215182A3D090A0B0C499F
:104430005C0D6F8200BF00BF00BF00BF00BF684CB3
:10444000BBE06FF00204B8E06FF00104B5E04FF09C
:10445000FF34B2E000BF00BFFFF7C6FC834600BFD9
:1044600000BF5C480568ECB200BF00BF5846FFF7CC
:10447000BFFC00BF00BFA0E000BF00BFFFF7B4FC5F
:10448000834600BF00BF53480568C5F3072400BF3B
:1044900000BF5846FFF7ACFC00BF00BF8DE000BF77
:1044A00000BFFFF7A1FC834600BF00BF4948056875
:1044B000C5F3074481E000BF00BFFFF795FC8346CA
:1044C00000BF00BF444805684FEA156400BF00BF45
:1044D0005846FFF78DFC00BF00BF6EE000BF00BF75
:1044E000FFF782FC834600BF00BF3C480568ECB282
:1044F00000BF00BF5846FFF77BFC00BF00BF5CE079
:1045000025E000BF00BFFFF76FFC834600BF00BF80
:1045100032480568C5F3074400BF00BF5846FFF79F
:1045200067FC00BF00BF48E000BF00BFFFF75CFCB6
:10453000834600BF00BF294805684FEA156400BFE5
:1045400000BF5846FFF754FC00BF00BF35E04FF0F6
:10455000E0204068401C102101EB401000F0FF0AF1
:10456000564528DAA6F11000C11700EB9171C1F38E
:104570008707C11700EB91718910A0EB810101F051
:10458000FF0900BF00BFFFF72FFC834600BF00BF3D
:104590004FF0E02000EB8700D0F8005400BF00BFD0
:1045A0005846FFF725FC00BF00BF4FEAC90025FAB7
:1045B00000F0C4B200E00A4C00BF00BF002C05DBD5
:1045C0002046FFF724FC80464FEA18642046BDE8E9
:1045D000F09F000018ED00E01CED00E020ED00E091
:1045E0000080FFFF0146412903DB5A2901DC01223B
:1045F00000E00022012A08D0612903DB7A2901DCCE
:10460000012200E00022012A01D1012200E0002263
:10461000D0B270470146412903DB5A2901DC01224F
:1046200000E00022012A08D0612903DB7A2901DC9D
:10463000012200E00022012A01D1012200E0002233
:10464000012A08D0302903DB392901DC012200E0EE
:104650000022012A01D1012200E00022D0B27047DD
:104660000146612903DB7A2901DC012200E00022F6
:10467000D0B270470146412903DB5A2901DC0122EF
:1046800000E00022D0B270470146302903DB39290F
:1046900001DC012200E00022D0B27047014630293F
:1046A00003DB372901DC012200E00022D0B2704791
:1046B0000146302901DB392907DD412901DB462983
:1046C00003DD612903DB662901DC012200E0002211
:1046D000D0B270470146202901D0092901D1012219
:1046E00000E00022D0B270470146202909D00D29F0
:1046F00007D00A2905D00C2903D0092901D00B299C
:1047000001D1012200E00022D0B2704701462029E9
:1047100003DB7E2901DC012200E00022D0B27047D9
:104720000146212903DB7E2901DC012200E0002271
:10473000D0B270470146202903DB7E2901DC01222B
:1047400000E00022012A35D1202909D00D2907D007
:104750000A2905D00C2903D0092901D00B2901D140
:10476000012200E000222ABB412903DB5A2901DC97
:10477000012200E00022012A08D0612903DB7A2906
:1047800001DC012200E00022012A01D1012200E027
:104790000022012A08D0302903DB392901DC01225B
:1047A00000E00022012A01D1012200E000220AB922
:1047B000012200E00022D0B2704701464AB2002A2E
:1047C00001DB1F2901DD7F2901D1012200E0002248
:1047D000D0B270470146412903DB5A2901DC01228E
:1047E00000E00022012A02D101F1200200E00A4685
:1047F000D0B270470146612903DB7A2901DC01222E
:1048000000E00022012A02D1A1F1200200E00A46C4
:10481000D0B27047F0B505460B462846FFF7EAFFD1
:1048200006461846FFF7E6FF0746BE4201D10120C3
:1048300000E00020C4B22046F0BD0000FC48FD4965
:1048400001600146416000218160C16001614161F8
:104850008161C16101620163C1624162F6498163A4
:10486000C1634FF48061016441640146F34A116001
:1048700070472DE9F04106460B4694460027002577
:1048800002E03F021F436D1C042DFAD3604606F080
:104890000304314644B1254603E001F8013B401EC4
:1048A0006D1C08B1042DF8D30A4601E080C2001F38
:1048B0000428FBD2114602E001F8013B401E00280B
:1048C000FAD1BDE8F08130B505460C4622460021FC
:1048D0002846FFF7CEFF30BD2DE9F04F85B080466A
:1048E000894692464E464546AE4207D9524649460B
:1048F000404601F023F905B0BDE8F08F544608EBBF
:104900000A00451E09EB0A00461EA81B04900498E5
:10491000042834D305F0030706F003000190019842
:10492000874201D1012000E00020C0B20090009831
:10493000012824D1032F0FD078B2029008E016F896
:10494000010905F80109641E0298401E40B2029058
:1049500014B102980028F2DAA5F1030BF01E0390BF
:1049600007E0039800684BF804090398001F0390C0
:10497000241F042CF5D20BF103050398C61C04E098
:1049800016F8010905F80109641E002CF8D100BFD2
:10499000B1E72DE9F84F80468946154615B9012043
:1049A000BDE8F88FB8F1000F01D10020F8E7B9F1A8
:1049B000000F01D10020F3E70124294608EB05028E
:1049C00009EB050302F0030603F0030B5E4501D17A
:1049D000012000E00020C0B200900098012828D1FA
:1049E00096B1B2460AE0521E5B1E107893F800E0C2
:1049F000704500D00024491EAAF1010A012C03D100
:104A000011B1BAF1000FEED1012C12D117469C461C
:104A100009E03F1FACF1040C3868DCF800E0704599
:104A200000D00024091F012C01D10429F1D23A46FB
:104A3000634608E0521E5B1E107893F800E0704554
:104A400000D00024491E012C01D10029F2D12046BA
:104A5000A6E7F0B503460E461546D96BB1FBF5F057
:104A600005FB101CBCF1000F02D0A5EB0C0200E00E
:104A700000229419586CA04201D20020F0BD0F19F9
:104A80001144DF63586C001B58640846F6E72DE9B3
:104A9000F04106460F46B6FBF3FC03FB1C6109B16F
:104AA0005C1A00E00024B2FBF3FC03FB1C2109B1FB
:104AB0005D1A00E0002502EB0508A7F1010C08FBD8
:104AC0000C4C0CEB0200BDE8F0812DE9FE4F804656
:104AD000894614461E46002000900CB901AC00BF68
:104AE00000202060524F00BF00BFFFF77DF900900B
:104AF00000BF00BFF86B0290D7F844B04B46424667
:104B000001210298FFF7C3FF05465D450FD900BF9D
:104B100000BF0098FFF76CF900BF00BFA5EB0B00CA
:104B2000206042F2E27030800020BDE8FE8F4A46ED
:104B300041463846FFF78DFF8246BAF1000F0CD18F
:104B400000BF00BF0098FFF753F900BF00BF25600A
:104B500042F2E27030800020E7E700BF00BF00981B
:104B6000FFF746F900BF00BF42F210703080504698
:104B7000DBE72DE9FC5F07460C46904600200090DD
:104B800000BF00BFFFF730F9009000BF00BFD7F8AB
:104B90000490D9F8380008B1484600E0244882461D
:104BA000DAF84450DAF83CB000BF00BF0098FFF7D5
:104BB0001FF900BF00BF012C0AD9BBFBF4F004FBB6
:104BC00010B60EB1A01B00E00020019001982D1A34
:104BD00042F21070A8F800002846BDE8FC9F70B5AE
:104BE00004460D462A4621461148FFF7C2FF0646F5
:104BF000304670BD18B942F211720A807047104AEF
:104C00000260002242608260C26002614261826191
:104C1000C2610262826242630263C2624262826372
:104C2000C2630264426442F210720A8000BFE5E788
:104C3000A007002048454150E807002080000020E0
:104C40004E4F4E452DE9FF4F91B00446DDE92089D6
:104C500000200090B8F1000F02D10DF1180800BF3C
:104C60000020C8F8000049462046FFF7C3FFB9F806
:104C70000000A0F51C51103902D015B0BDE8F08F2E
:104C8000FF48006820B942F2E770A9F80000F4E795
:104C9000DFF8F0A30020059000BF00BFFFF7A4F8E5
:104CA000009000BF00BF129880BB5546D3465646C1
:104CB000DAF83C000D9004231A4614990D98FFF77A
:104CC000E6FE049004990D9808440C90DDE91E233B
:104CD00014990C98FFF7DBFE0390DDE9030108440B
:104CE0000590DAF844700598B8427ED900BF00BF3D
:104CF0000098FFF77DF800BF00BF0598C01BC8F8FB
:104D0000000042F2E270A9F80000B6E7FFE712984F
:104D10000B90DDE912010844401E0A900025AB46C5
:104D2000D74806683BE0B16B1298814205D1316CDF
:104D30001398814201D1354633E0B06B0990316C54
:104D4000B06B0844401E0890DDE90901814200D2A1
:104D500027E009990B98884203D8DDE909108842B9
:104D60000FD209990B98884203D308990A98884270
:104D700007D908990B9888420FD808990A98884251
:104D80000BD300BF00BF0098FFF732F800BF00BF91
:104D900042F27F70A9F800006FE7B346F668002E74
:104DA000C1D100BF45B925461298A0631298E063AF
:104DB0001398206413986064DAF83C000D90042383
:104DC0001A4614990D98FFF762FE0490DAF84470C1
:104DD0000498B84211D900BF00BF0098FFF708F847
:104DE00000BF00BF0498C01B00E023E0C8F800002B
:104DF00042F2E270A9F800003FE7E86B0C90DDE9B1
:104E00001E2314990C98FFF742FE03906F6C0398D1
:104E1000B8420FD900BF00BF0098FEF7E9FF00BFFE
:104E200000BF0398C01BC8F8000042F2D870A9F870
:104E3000000022E714988000029004225046029954
:104E4000FFF707FE0F900F9830BBDAF8447000BFF1
:104E500000BF0098FEF7CCFF00BF00BF129858B902
:104E60000598B84204D90598C01BC8F800000EE0A8
:104E70000598C8F800000AE00298B84204D90298E0
:104E8000C01BC8F8000002E00298C8F8000042F217
:104E9000E270A9F80000F0E60020019034E0284616
:104EA000DDE91E12FFF7D5FD0E900E9820BBE86BD2
:104EB0000C906F6C00BF00BF0098FEF799FF00BF19
:104EC00000BF01991498401A0790DDE91E23079945
:104ED0000C98FFF7DCFD05900598B84204D90598B9
:104EE000C01BC8F8000002E00598C8F8000042F2B4
:104EF000D870A9F80000C0E6019ADDE90E0141F87A
:104F000022000198401C0190149901988842C6D350
:104F1000A5420DD1C4F808B0E660BBF1000F02D085
:104F2000CBF80C4001E0564804605EB1B46009E083
:104F3000686910902561109860616C61109808B1E3
:104F4000109804615048206065600C98A061039936
:104F50000C980844401EE0610F9820620398A062FC
:104F60001F9860631E9820631498E0621498606232
:104F700000BF00BF0098FEF73BFF00BF00BF42F23A
:104F80001070A9F8000000BF77E62DE9F041044653
:104F90000D46002700BF00BFFEF726FF074600BFF3
:104FA00000BF666A00BF00BF3846FEF721FF00BFA2
:104FB00000BF42F2107028803046BDE8F0812DE934
:104FC000F041044688461546002700BF00BFFEF7A3
:104FD0000BFF074600BF00BF606A60B900BF00BF9B
:104FE0003846FEF705FF00BF00BF42F2DE702880A2
:104FF0000020BDE8F081E16A606A88420BD900BFF9
:1050000000BF3846FEF7F4FE00BF00BF42F29570C5
:1050100028800020EDE7606A401E6062D4E9080144
:1050200050F8216000BF00BF3846FEF7E1FE00BF28
:1050300000BF42F2107028803046DAE72DE9F047D1
:1050400004460F4615464FF0000900BF00BFFEF7AB
:10505000CBFE814600BF00BFE06AC01B461EE06A6F
:10506000B04213D800BF00BF4846FEF7C1FE00BFE4
:1050700000BF42F2957028800020BDE8F087000054
:1050800080000020A0070020504F4F4C606AB042C3
:105090000BD900BF00BF4846FEF7AAFE00BF00BF05
:1050A00042F2957028800020E7E7206A50F82680B9
:1050B00000BF00BF4846FEF79BFE00BF00BF42F2A4
:1050C000107028804046D8E72DE9F04704460E4688
:1050D00017464FF0000A00BF00BFFEF785FE82466C
:1050E00000BF00BFE16A606A88420BD300BF00BF07
:1050F0005046FEF77DFE00BF00BF42F2DD703880F3
:10510000BDE8F0874FF00008656A08E0206A50F8B3
:105110002590B14502D14FF0010803E06D1CE06A13
:10512000A842F3D800BFB8F1010F06D1D4E90801B5
:1051300050F82100216A41F82500D4E9080140F81F
:105140002160606A401C606200BF00BF5046FEF7ED
:105150004FFE00BF00BF42F21070388000BFCFE7A3
:105160002DE9F84F04460F461646002000904FF0F8
:10517000FF3B00BF00BFFEF737FE009000BF00BF3F
:10518000E16A606A88420CD300BF00BF0098FEF756
:105190002FFE00BF00BF42F2DD7030805846BDE8F0
:1051A000F88F4FF00009656A08E0206A50F8258002
:1051B000B84502D14FF0010903E06D1CE06AA84236
:1051C000F3D800BFB9F1010F0FD1E06A401EA0EB88
:1051D000050A00BF00BF0098FEF70AFE00BF00BF2F
:1051E00042F2107030805046D9E700BF00BF0098EF
:1051F000FEF7FEFD00BF00BF42F2887030805846C7
:10520000CDE7000010B502460B461146002001E034
:10521000491C401C19B10C780CB19842F8D310BD50
:1052200030B504464FF0FF312046FFF7EBFF05464F
:10523000284630BD70B504460D4616460CB9002010
:1052400070BD0DB90020FBE721462A46002304E08B
:1052500010780870491C521C5B1C21B11AB11078DF
:1052600008B1B342F4D301B10AB90020E8E7B34270
:1052700001D2002008702046E2E770B504460D46D2
:105280004FF0FF3229462046FFF7D4FF064630464E
:1052900070BD70B503460C4615460BB9002070BDB5
:1052A0000CB90020FBE70DB91846F8E7194600E0F5
:1052B000491C11B108780028FAD109B90020EEE79D
:1052C0002246002604E010780870491C521C761C07
:1052D00021B11AB1107808B1AE42F4D301B10AB9C4
:1052E0000020DCE7002008701846D8E770B50446B7
:1052F0000D464FF0FF3229462046FFF7CAFF06460B
:10530000304670BD2DE9F04305460B469446BCF18E
:10531000000F02D10020BDE8F08335B90BB90020A1
:10532000F9E7187841420846F5E713B929780846A5
:10533000F1E72A461C461746234626467F1C761C64
:105340004FF0000805E0521C641C7F1C761C08F11D
:105350000108107894F80090484505D1107818B1EC
:1053600017B10EB1E045EED3E04501D10020D2E700
:10537000107894F80090484505D0107894F8009083
:10538000A0EB09010BE0107808B9002107E02FB964
:105390000EB9002103E03078414200E03978084638
:1053A000B9E770B504460D464FF0FF322946204656
:1053B000FFF7A8FF0646304670BD2DE9F74F82B0D3
:1053C00080460E46049818B9002005B0BDE8F08F5D
:1053D000B8F1000F09D10EB90020F6E73078FFF7D9
:1053E000F9F907467C422046EFE73EB998F80000FD
:1053F000FFF7F0F905462C462046E6E7C146B246DF
:10540000C846CB465646CDF804A0D8460BF1010B52
:10541000019E701C0190C84699F80000FFF7DAF968
:10542000054656469AF80000FFF7D4F907460020D3
:10543000009015E009F101090AF1010A0BF1010BD5
:105440000198401C01900098401C009099F80000C1
:10545000FFF7C0F905469AF80000FFF7BBF90746C9
:10546000BD420BD199F8000040B1BBF1000F05D04F
:10547000019818B1049900988842DBD304990098E8
:10548000884201D10020A0E7BD4201D0EC1B16E00C
:105490000DB9002413E0BBF1000F0AD1019808B93F
:1054A00000240CE001990878FFF794F907467C4244
:1054B00005E09BF80000FFF78DF905462C462046D5
:1054C00083E770B504460D464FF0FF32294620466B
:1054D000FFF773FF0646304670BD30B504460B46F5
:1054E00015460CB9002030BD0BB90020FBE7214662
:1054F000002201E0491C521C31B1087820B1087823
:10550000A84201D09A42F5D309B90020EBE79A42AC
:1055100001D30020E7E70878A84201D00020E2E7A5
:105520000846E0E770B505460C4622464FF0FF31CD
:105530002846FFF7D2FF0646304670BD2DE9F043FE
:1055400005460E46174615B90020BDE8F0830EB992
:105550000020FAE72C46A6F1010949462046FFF74C
:1055600051FE804644440CB90020EEE700E0641E82
:10557000AC4202D02078B842F9D12078B84201D0AC
:105580000020E2E72046E0E770B505460C462246DB
:105590004FF0FF312846FFF7D1FF0646304670BD79
:1055A00070B504460D4616460CB9002070BD0BB907
:1055B0000020FBE721461A4605E00878A84200D102
:1055C0000E70491C521E19B1087808B1002AF4D196
:1055D0002046EBE7F0B504460D4616464FF0FF3384
:1055E000324629462046FFF7DBFF07463846F0BD26
:1055F0002DE9FF4F06460F4615461EB9002004B0A0
:10560000BDE8F08F0FB90020F9E70DB90020F6E7EB
:10561000681C00D001E04FF0FF300390294630466F
:10562000FFF7F0FD804638460399FFF7EBFD04468F
:105630000CB93046E3E7444501D90020DFE706EB2B
:10564000080BBBF1000F01D10020D8E707EB040BDA
:10565000BBF1000F01D10020D1E7A8EB04000290BC
:105660004FF000090020019000BF06EB09000090F8
:10567000224639460098FFF745FE8246BAF1000FF0
:1056800001D1012000E00020C0B2019009F1010920
:10569000019810B902988145E7D9BAF1000F01D0FD
:1056A0000020ACE70098AAE770B504460D464FF01D
:1056B000FF3229462046FFF79BFF0646304670BD65
:1056C0002DE9FF4F8DB00F4615461A9E1D9818B94B
:1056D000002011B0BDE8F08F002003900490012F4E
:1056E00001DA01200390022D01D3242D01D90120DC
:1056F00003909EB33046FFF709F802900298012804
:1057000002D00120039029E0302E27D0A6F13000EE
:10571000C0B207901B98012804D0A6F14100C0B286
:10572000069003E0A6F16100C0B206900A2D02D8EF
:105730000798A84209DB0A2D09D907980A2804D33B
:10574000A5F10A000699884201D9012000E0002055
:10575000C0B205900598012800D103901D9C0398C4
:1057600090BBDDF834A0DDF834A0CDF830A00120E6
:105770000B9007E00B98401CC0B20B900C98B0FB4C
:10578000F5F00C900C98A842F4D21098012800D1A2
:1057900000E00020C0B209900B9909980844B84273
:1057A00028DC002001900B98B84201DA0B9800E049
:1057B0003846C0B20A9046B1B8460A98391A0998D4
:1057C000081AC0B2089007E016E0DDE909100844A5
:1057D00000F0FF08002008900898002807DD302E10
:1057E00001D1012000E00020C0B2049004E00020BC
:1057F000049001E001200390039800B1B8464444AE
:105800001C9808B100202070641E4FF0000941E090
:105810000398A8BBBAF1000F02D1B9F1000F1CD157
:10582000BAFBF5F005FB10A000F0FF0BBBF10A0F6F
:1058300004D20BF1300004F801090BE01B98012899
:1058400004D00BF1370004F8010903E00BF1570015
:1058500004F80109BAFBF5FA1AE01098012810D1F2
:10586000049808B9019828B1049850B1A8F1010032
:10587000484506D12D2004F801090120019007E0D8
:1058800003E02EB104F8016902E03F2004F80109A9
:1058900009F10109C145BBD3039808B1002018E7FD
:1058A0001D9816E72DE9FF5F05460E4617461C4674
:1058B000DDE90F9ADDF8388000233A463146284664
:1058C0008DE81007FFF7FCFE8346584604B0BDE89C
:1058D000F09F2DE9FF4F85B00446894692461F464A
:1058E000DDF848B0002C02DA6542012601E02546C9
:1058F0000026DDE91323CDE9007BCDE90223334601
:10590000524649462846FFF7DBFE8046404609B02E
:10591000BDE8F08F2DE9FF4F8BB00646894615464E
:10592000B9F1000F02D10DF1240900BFC9F80060E0
:10593000189810B907A8189000BF00211898017096
:105940001EB900200FB0BDE8F08F012D01D0242D2D
:1059500001D90020F6E734462078FEF7C5FE039013
:1059600004E0641C2078FEF7BFFE03900398012832
:10597000F7D020782B2802D02D280BD103E0641C0F
:105980004FF0000B09E00E98012800D1641C4FF085
:10599000010B02E04FF0000B00BF00BF0A9425B1DD
:1059A000082D1CD0102D36D11EE02078302814D1BF
:1059B000641C2078582802D078280BD100BF10250D
:1059C00067783846FEF774FE8246BAF1010F00D1BF
:1059D000641C01E0082500BF00E00A251CE02078D7
:1059E000302800D1641C17E02078302812D1641CC4
:1059F0002078582802D078280AD100BF6778384626
:105A0000FEF756FE8246BAF1010F00D1641C00E099
:105A100000BF00BF00E000BF00BF4FF00008002043
:105A20000290019040E027783846FEF7F3FD05909C
:105A30000598012836D13846FEF726FE06900698CE
:105A4000012804D1A7F13000C0B208900FE0384619
:105A5000FEF706FE04900498012804D1A7F1570030
:105A6000C0B2089003E0A7F13700C0B208900898D0
:105A7000A84214DA029880B92F4850F82500404512
:105A800009D308FB05F8089880440898804504D29B
:105A90000120029001E001200290641C04E001203A
:105AA000019001E00120019001980028BBD00298EC
:105AB000012801D14FF0FF380A98844202D0C9F87A
:105AC000004001E0C9F80060189880F800B0404636
:105AD00038E7F8B504460D461646002332462946F7
