:020000040800F2
:1000000060C900201D310008253100082731000893
:10001000293100082B3100082D31000800000000B4
:100020000000000000000000000000002F31000868
:10003000313100080000000087120108DDEF0008E0
:10004000B32B00083731000837310008373100087A
:1000500037310008373100083731000837310008E0
:1000600037310008373100083731000837310008D0
:1000700037310008373100083731000837310008C0
:1000800037310008373100083731000837310008B0
:10009000F3300008373100083731000837310008E5
:1000A0003731000837310008373100083731000890
:1000B0003731000837310008373100083731000880
:1000C0003731000837310008373100083731000870
:1000D0003731000837310008373100080B26000897
:1000E0003731000837310008373100083731000850
:1000F0003731000837310008373100083731000840
:10010000373100083731000837310008373100082F
:10011000373100083731000837310008373100081F
:10012000373100083731000837310008373100080F
:10013000DFF80CD010F09AFF00480047D54A0008BD
:1001400060C90020014600BF704700BF594A1288AD
:1001500012F0400FFAD0C2B2564B1B1D1A807047E6
:1001600010B504F0A3FD10BD5348806940F00100B4
:10017000514988615148406820F0E0604F4948602B
:100180000846406840F080604860704708B54FF40A
:10019000806002F0D5FF27208DF8000000208DF848
:1001A00001008DF8020001208DF80300684602F07E
:1001B000CCFF25208DF8000000208DF801008DF87F
:1001C000020001208DF80300684602F0BEFF3420D3
:1001D0008DF8000000208DF801008DF8020001204C
:1001E0008DF80300684602F0B0FF26208DF800006D
:1001F00000208DF801008DF8020001208DF8030029
:10020000684602F0A2FF08BD10B586B00446012181
:10021000052004F02BF80121480404F034F80420F0
:10022000ADF8140018208DF8170003208DF8160083
:1002300005A9234803F048FD0820ADF81400042068
:100240008DF8170003208DF8160005A91C4803F04F
:100250003BFD01940020ADF80800ADF80A00ADF8B0
:100260000C00ADF810000C20ADF80E0001A91148EB
:1002700004F031FAFFF78AFF012240F225510D48C0
:1002800004F0C1FA01210B4804F0B1FA06B010BD28
:10029000704710B5FFF764FFFFF7FAFF4FF4E13046
:1002A000FFF7B2FFFFF772FF01F028FD02F0BAFB83
:1002B00010BD00000044004000100240000001405A
:1002C0000008014010B501F00FFE10BD10B511225D
:1002D0008021844801F085FC10BD2DE9F0470446DB
:1002E00001F055FA8146FFF7F1FF7E4801F038FA38
:1002F000064632467CA1484601F02AF900204FF01C
:10030000804101F01BFA064632467AA1484601F0C8
:100310001FF9204610F0C7FC074601F00FFA064609
:10032000324677A1484601F013F9484601F0AFF88C
:100330008246504610F052FB85B22946504602F0E4
:1003400024FB484600F056F9504611F061FDBDE827
:10035000F0872DE9F04781468A46144601F017FAE6
:100360000646FFF7B3FF5F4801F0FAF980464246C0
:100370005DA1304601F0ECF80020654901F0DEF99E
:10038000804642465BA1304601F0E2F8002001467B
:1003900001F0D4F9804642465EA1304601F0D8F81B
:1003A000204601F0DDF9804642465CA1304601F06E
:1003B000CFF8304601F06BF80746384610F00EFBD8
:1003C00085B22946384602F0E0FA304600F012F9CC
:1003D000384611F01DFDBDE8F0872DE9F04F85B0DE
:1003E0000446884601F0D3F904900027B946FFF788
:1003F0006DFF3C4801F0B4F983465A463AA104988F
:1004000001F0A6F80020014601F098F983465A460B
:1004100038A1049801F09CF800200090019002900F
:10042000039000250DE0611C4A5D0DEB07003EA125
:1004300010F07EFF00F0FF0907EB0900C7B2681C4F
:10044000C5B2607AA842EEDC684601F089F98346BD
:100450005A464146049801F07BF8049801F017F8D9
:100460008246504610F0BAFA86B23146504602F043
:100470008CFA049800F0BEF8504611F0C9FC05B0A3
:10048000BDE8F08F70B505461AA1284601F021F8A5
:1004900004460CB1207D70BD0020FCE770B5054618
:1004A00017A1284601F015F804460CB1207D70BD57
:1004B0000020FCE73EB5044602A800210B46224678
:1004C000CDE9001008460DF03EFD3EBD3EB50446A8
:1004D00002A8002123460A46CDE9001008460DF087
:1004E00032FD3EBD1C120020646576696365696457
:1004F000000000006D73675F747970650000000094
:100500006865617274626561745F636F756E7400B3
:10051000000010407374617475730000636D645F54
:10052000747970650000000025303278000000000A
:10053000F7480068704770B504460D462CB9AC42C8
:1005400001D0012070BD0020FCE70DB90120F9E7C2
:1005500005E0207808B90020F4E7641C6D1C2078C1
:1005600010F0F3F90646287810F0EFF98642F0D043
:10057000207810F0EAF90646287810F0E6F9301AEB
:10058000E0E770B50446204610F028FA451C2846DE
:10059000E04909688847060000D170BD2A46214617
:1005A000304610F0D8F93046F7E730B9DA49D94A81
:1005B0001160DA49DA4A11607047016809B10168CF
:1005C00000E0D549D34A1160416809B1416800E0B3
:1005D000D249D34A116000BFEEE710B52820CD49BB
:1005E0000968884704461CB12821204610F0CCF940
:1005F000204610BD70B504461EE02568A08910F4A1
:10060000807F04D1A06810B1A068FFF7F3FFA08934
:1006100010F4807F05D1206918B1C14920690968AB
:100620008847206A18B1BE49206A09688847204671
:10063000BB49096888472C46002CDED170BD2DE9E6
:10064000F04F8BB083468A460020044605460026BC
:10065000B44F0021884689460990012008909AF8F5
:1006600000002D2802D1B04F0AF1010A9AF80000CB
:10067000302801D10AF1010A9AF80000312822DB62
:100680009AF8000039281EDC00BF1AF8011BA1F1FE
:10069000300010F0F7FA0022A44BCDE90601204605
:1006A000294610F07DFACDE90401DDE9062310F0BA
:1006B000D0F904460D469AF80000302803DB9AF87A
:1006C00000003928E1DD9AF800002E2830D19AF890
:1006D000010030282CDB9AF80100392828DC0AF1C7
:1006E000010A00BF1AF8011BA1F1300010F0CAFA8C
:1006F00000228E4BCDE906012046294610F050FA23
:10070000CDE90401DDE9062310F0A3F904460D4606
:100710000022844B4046494610F03CFA8046894608
:100720009AF80000302803DB9AF800003928D9DD58
:100730009AF80000652803D09AF80000452823D1D4
:100740000AF1010A9AF800002B2802D10AF1010AE5
:1007500008E09AF800002D2804D14FF0FF300890EF
:100760000AF1010A08E01AF8010B3038099901EB87
:10077000810100EB410009909AF80000302803DB6A
:100780009AF800003928EEDDDDE9082101FB02F0CE
:1007900010F078FA42464B46CDE9000110F059F9C5
:1007A00002460B46CDE902010020604911F08EFBA4
:1007B00022462B46CDE906013046394610F0F0F9C5
:1007C000CDE90401DDE9062310F0EAF904460D46FF
:1007D000CBE906452046294610F072FACBF8140002
:1007E0000320CBF80C0050460BB0BDE8F08F2DE98C
:1007F000F05F8146D9E90645D9F8140010F042FAB5
:10080000074622462B4610F0C5F921F000418246EA
:100810000022474B10F086FA1BD8464A464B20462A
:10082000294610F07FFA14D80022444B204629466E
:1008300010F08CFA0DD8152036490968884706460D
:10084000002E4CD03EA13046D9F8142010F070FD97
:1008500045E040202F49096888470646002E3ED0D3
:100860002046294611F066FA074622462B4610F02C
:1008700091F921F00041824600222D4B10F052FAEE
:100880000FD825F0004127462E4A2F4B384610F04E
:1008900049FA06D222462B462CA1304610F048FDDC
:1008A0001DE025F0004127462A4A2B4B384610F020
:1008B00039FA07D325F000410022284B384610F0C2
:1008C00045FA06D222462B4625A1304610F030FDCF
:1008D00005E022462B4623A1304610F029FD304684
:1008E000BDE8F09F014600220878302806DB087832
:1008F000392803DC08783038024441E00878412880
:1009000032DB087846282FDC08783738024437E095
:100910001000002008000020611E0108111E0108BF
:100920000C0000200000F03F0000F0BF0000244059
:100930000000B03C0000C0FFFFFFDF410000E0C14D
:100940002564000044F3C2E4E4E9634C252E3066DC
:10095000000000008DEDB5A0F7C6B03E65CDCD41DD
:1009600025650000256600000878612806DB087808
:10097000662803DC08785738024401E000207047FD
:100980001201491C0878302806DB0878392803DC76
:1009900008783038024415E00878412806DB0878EA
:1009A000462803DC0878373802440BE008786128D1
:1009B00006DB0878662803DC08785738024401E033
:1009C0000020DCE71201491C0878302806DB087893
:1009D000392803DC08783038024415E008784128CB
:1009E00006DB0878462803DC0878373802440BE039
:1009F0000878612806DB0878662803DC0878573811
:100A0000024401E00020BAE71201491C08783028AE
:100A100006DB0878392803DC08783038024415E012
:100A20000878412806DB0878462803DC0878373840
:100A300002440BE00878612806DB0878662803DCAE
:100A400008785738024401E0002098E7104696E7FE
:100A50002DE9F05F8346884608F10104002798F8E5
:100A60000000222805D0F748C0F800800020BDE82B
:100A7000F09F04E014F8011B5C2900D1641C20786D
:100A8000222804D0207810B1781C0700F2D1781CFD
:100A9000ED49096888478146B9F1000F01D100206E
:100AA000E5E708F101044D469EE020785C2804D07B
:100AB00014F8010B05F8010B96E0641C20787228ED
:100AC00018D006DC622809D066280BD06E287DD1AC
:100AD0000CE0742812D07528F9D113E0082005F82D
:100AE000010B7FE00C2005F8010B7BE00A2005F8E4
:100AF000010B77E00D2005F8010B73E0092005F8E4
:100B0000010B6FE0601CFFF7EDFE0646241DB6F5F5
:100B10005C4F02D3B6F5604F00D306B962E0B6F57C
:100B2000584F1CD3B6F55C4F19D260785C2802D1BF
:100B3000A078752800D055E0E01CFFF7D3FE824670
:100B4000A41DBAF55C4F02D3BAF5604F00D349E05B
:100B5000C6F30901504661F39F2000F58036042753
:100B6000802E01D2012708E0B6F5006F01D20227DE
:100B700003E0B6F5803F00D203273D44012F20D08B
:100B8000022F15D0032F0AD0042F24D106F0BF0066
:100B900040F08001681E05460170B60900BF06F0EE
:100BA000BF0040F08001681E05460170B60900BF15
:100BB00006F0BF0040F08001681E05460170B609CE
:100BC00000BFA248C05D3043C1B200E006E0681E2D
:100BD0000546017000BF00BF3D4403E0207805F8E2
:100BE000010B00BF00BF641C2078222803D02078AE
:100BF00000287FF45AAF002028702078222800D1E6
:100C0000641CCBF810900420CBF80C0020462EE793
:100C10002DE9F04707464FF000082FB9AFF2D0207A
:100C2000FFF7AFFCBDE8F0873D460DE0494688A0E0
:100C30000FF0CBFE10B108F1010804E0B9F1200F6C
:100C400001DA08F105086D1C95F80090B9F1000F64
:100C500004D008F101005FEA0008E7D108F10300C1
:100C600079490968884706460EB90020DAE7344614
:100C70003D46222004F8010B47E028781F280ADDB2
:100C80002878222807D028785C2804D015F8010B92
:100C900004F8010B39E05C2004F8010B15F8011B86
:100CA00089460C2919D006DC082912D0092920D040
:100CB0000A2922D115E00D2917D0222905D05C2957
:100CC0001BD15C2004F8010B1EE0222004F8010B6C
:100CD0001AE0622004F8010B16E0662004F8010B0C
:100CE00012E06E2004F8010B0EE0722004F8010BF4
:100CF0000AE0742004F8010B06E04A4656A120469B
:100D000010F016FB641D00BF00BF28780028B4D186
:100D1000222004F8010B002004F8010B304681E783
:100D200010B504462069FFF773FF10BD00E0401CBA
:100D300020B1017811B101782029F8DD70472DE943
:100D4000F04706460C4620787B2804D03D480460D6
:100D50000020BDE8F0870620F060601CFFF7E6FF8A
:100D6000044620787D2801D1601CF2E7FFF735FCAE
:100D70000546B060B06808B90020EAE72046FFF7F2
:100D8000D5FF804641462846FFF762FE0746FFF73B
:100D9000CDFF04460CB90020DBE72869286200205B
:100DA000286120783A2803D0264804600020D0E744
:100DB000601CFFF7BBFF80464146284600F0A7F8BD
:100DC0000746FFF7B3FF04460CB90020C1E731E046
:100DD000FFF703FC070000D1BBE72F607D603D46B5
:100DE000601CFFF7A3FF814649462846FFF730FE07
:100DF0008046FFF79BFF04460CB90020A9E728694D
:100E000028620020286120783A2803D00D48046029
:100E100000209EE7601CFFF789FF8146494628466F
:100E200000F075F88046FFF781FF04460CB90020FA
:100E30008FE700BF20782C28CAD020787D280FD1DA
:100E4000601C86E71000002008000020FA28010836
:100E5000225C080C0A0D090075253034780000006A
:100E6000FE480460002074E72DE9F04705460C4673
:100E700020785B2804D0F94804600020BDE8F087A2
:100E80000520E860601CFFF751FF044620785D28CC
:100E900001D1601CF2E7FFF7A0FB0646A860A86836
:100EA00008B90020EAE72046FFF740FF80464146A8
:100EB000304600F02CF80746FFF738FF04460CB91F
:100EC0000020DBE717E0FFF788FB070000D1D5E73C
:100ED00037607E603E46601CFFF728FF814649462A
:100EE000304600F014F88046FFF720FF04460CB9A6
:100EF0000020C3E700BF20782C28E4D020785D28AC
:100F000001D1601CBAE7D54804600020B6E770B58F
:100F100005460C460CB9002070BD0422D0A1204625
:100F20000FF07BFD18B90220E860201DF4E70522D0
:100F3000CDA120460FF071FD18B90020E860601DBA
:100F4000EAE70422CAA120460FF067FD20B901207C
:100F5000E8606861201DDFE72078222804D121465F
:100F60002846FFF775FDD7E720782D2805D0207893
:100F7000302807DB2078392804DC21462846FFF793
:100F80005EFBC9E720785B2804D121462846FFF79D
:100F90006BFFC1E720787B2804D121462846FFF764
:100FA000CEFEB9E7AD4804600020B5E72DE9F04773
:100FB00080460D4616460024FFF70FFB074600202B
:100FC000A64908600FB9BDE8F0874046FFF7AEFEBE
:100FD000814649463846FFF79AFF044624B9384609
:100FE000FFF708FB0020EEE766B12046FFF79EFE04
:100FF0000446207830B13846FFF7FCFA9748046081
:101000000020E0E705B12C603846DCE710B5044667
:10101000002211462046FFF7C9FF10BD2DE9F74F0A
:1010200088B0884616464FF00009CA46002007904F
:10103000072004900025089880680290002700206F
:10104000019003E07F1C029800680290029800283B
:10105000F8D14FBB16B108F1040100E003210846A6
:101060008549096888470790079818B900200BB090
:10107000BDE8F08F079C7B2004F8010B66B10A20C5
:1010800004F8010B002503E0092004F8010B6D1C96
:10109000A8F10100A842F7DC7D2004F8010B002034
:1010A00004F8010B0798E2E7B8007349096888471C
:1010B0008146B9F1000F01D10020D8E7B8006E4990
:1010C000096888478246BAF1000F05D148466B4946
:1010D000096888470020CAE7B90048460FF054FC69
:1010E000B90050460FF050FC08988068029008F153
:1010F000010816B10498404404902DE00299086A52
:10110000FFF786FD05904AF82500324641460298D1
:1011100000F07DF929466D1C069049F821000598DC
:10112000A8B1069898B106980FF058FC8346059828
:101130000FF054FC0BEB0001891C16B108F1020002
:1011400000E00020014404980844049001E00120DC
:10115000019002980068029002980028CED1019870
:1011600020B945490498096888470790079808B945
:10117000012001900198F0B1002510E05AF82500F7
:1011800020B15AF825003D490968884759F82500DB
:1011900020B159F825003949096888476D1CBD42BE
:1011A000ECDB5046354909688847484633490968A9
:1011B000884700205BE77B21079801700798441C53
:1011C00016B10A2004F8010B0020207000253EE033
:1011D0005EB10020039005E0092004F8010B03989C
:1011E000401C039003984045F6DB5AF82510204632
:1011F0000FF00AFC5AF825000FF0F0FB04443A20E7
:1012000004F8010B16B1092004F8010B59F8251058
:1012100020460FF0F9FB59F825000FF0DFFB0444DE
:10122000781EA84202D02C2004F8010B16B10A2027
:1012300004F8010B002020705AF825000F490968B6
:10124000884759F825000D49096888476D1CBD423B
:10125000BEDB504609490968884711E010000020AC
:101260006E756C6C0000000066616C7365000000B8
:101270007472756500000000080000200C0000205A
:101280004846F849096888474EB1002503E009201F
:1012900004F8010B6D1CA8F10100A842F7DC7D20C9
:1012A00004F8010B002004F8010B0798DFE62DE994
:1012B000F74F82B083464FF0000805200190DBF81D
:1012C0000890002700250020009002E07F1CD9F83C
:1012D0000090B9F1000FF9D17FB90320E249096804
:1012E00088478046B8F1000F03D0E0A140460FF0D8
:1012F0008BFB404605B0BDE8F08FB800DA490968BD
:10130000884706460EB90020F4E7B90030460FF0D2
:101310003BFBDBF808901FE0DDE90312491C48465F
:1013200000F075F8824629466D1C46F821A0BAF1F6
:10133000000F0DD050460FF051FB801C049909B1ED
:10134000012100E00021014401980844019001E0DE
:1013500001200090D9F80090B9F1000F02D0009858
:101360000028D9D0009820B9BF490198096888475A
:101370008046B8F1000F01D101200090009890B193
:10138000002508E056F8250020B156F82500B5499B
:10139000096888476D1CBD42F4DB3046B1490968D5
:1013A00088470020A6E75B2088F8000008F10104C8
:1013B0000020207000251CE056F8251020460FF074
:1013C00023FB56F825000FF009FB0444781EA842C1
:1013D00009D02C2004F8010B049810B1202004F847
:1013E000010B0020207056F825009E4909688847A7
:1013F0006D1CBD42E0DB30469A49096888475D2094
:1014000004F8010B002004F8010B404672E72DE9B7
:10141000F04104460D461646002714B90020BDE8E9
:10142000F081207B07282FD2DFE800F00A10041695
:101430001B202700AFF2D810FFF7A3F8074623E0E0
:10144000AFF2DC10FFF79DF807461DE0AFF2E010A9
:10145000FFF797F8074617E02046FFF7C8F9074659
:1014600012E02046FFF75CFC07460DE032462946B5
:101470002046FFF71CFF074606E032462946204675
:10148000FFF7CCFD074600BF00BF3846C7E710B5E1
:101490000446012200212046FFF7B9FF10BD10B518
:1014A0000446002211462046FFF7B1FF10BD014659
:1014B0008A68002001E0401C1268002AFBD17047B6
:1014C0000246906801E0491E006808B10029FADC74
:1014D000704770B505460E46AC6800E024682CB134
:1014E0003146206AFFF727F80028F7D1204670BD63
:1014F00001604860704770B50546FFF76EF8044616
:101500000CB9002070BD2822294620460FF023FA8E
:1015100000202062E06840F48070E060002060609D
:1015200020602046EEE770B505460E46AC6806B969
:1015300070BD0CB9AE6009E000E0246814B1206809
:101540000028FAD131462046FFF7D2FF00BFEFE76F
:1015500070B506460D46144604B970BD206A18B130
:101560004049206A096888472846FFF70AF8206240
:1015700021463046FFF7D7FF00BFEEE770B50546BE
:101580000C462046FFF7B7FF064631462846FFF7D0
:10159000CAFF70BD2DE9F04105460E4614462046AF
:1015A000FFF7A9FF07463A4631462846FFF7D0FF26
:1015B000BDE8F08110B502460B46916801E009686C
:1015C0005B1E09B1002BFADC09B9002010BD486888
:1015D00010B1D1E900042060086810B1D1E90040E1
:1015E00060609068884201D10868906000200860BF
:1015F00048600846EAE770B504460D46294620468D
:10160000FFF7D8FF0646FEF7F5FF70BD2DE9F04164
:1016100005460F460026AC6801E0761C24682CB114
:101620003946206AFEF787FF0028F6D12CB13146F3
:101630002846FFF7BFFFBDE8F0810020FBE770B54B
:1016400004460D4629462046FFF7E0FF0646FEF712
:10165000D1FF70BD2DE9F04106460F461446B5682E
:1016600008E000000C000020080000205B5D000086
:101670002D687F1E0DB1002FFADC0DB9BDE8F08199
:101680002868206068686060206808B1206844604D
:10169000B068A84201D1B46001E060680460002035
:1016A000686028602846FEF7A5FF00BFE6E72DE941
:1016B000F04105460E4617464FF00008AC6802E0C0
:1016C00008F1010824682CB13146206AFEF733FF87
:1016D0000028F5D144B13046FEF753FF38623A4650
:1016E00041462846FFF7B6FFBDE8F08110B5FEF78A
:1016F00074FF04460CB10220E060204610BD10B516
:10170000FEF76BFF04460CB10120E060204610BDDF
:1017100010B5FEF762FF04460CB10020E0602046E1
:1017200010BD70B50546FEF758FF044624B10DB153
:10173000012000E00020E060204670BD70B5054645
:101740000E46FEF74AFF044644B10320E060C4E9B8
:101750000656284631460FF0B3FA6061204670BD48
:1017600070B50546FEF739FF04462CB10420E06051
:101770002846FEF706FF2061204670BD10B5FEF733
:101780002CFF04460CB10520E060204610BD10B5CA
:10179000FEF723FF04460CB10620E060204610BD92
:1017A0002DE9F05F81468A460025AB46FFF7E6FF4C
:1017B0000646002410E059F824000FF063FA0746AB
:1017C000FFF7BCFF05460CB9B56003E02946584653
:1017D000FFF78EFEAB46641C0EB15445EBDB304682
:1017E000BDE8F09F2DE9F05F81468A460025AB46B3
:1017F000FFF7C4FF0646002410E059F824000FF05C
:101800007EFA0746FFF79AFF05460CB9B56003E07C
:1018100029465846FFF76CFEAB46641C0EB1544592
:10182000EBDB3046BDE8F09F2DE9F04707468846E0
:101830000025A946FFF7A2FF0646002410E007EBAB
:10184000C400D0E900211046FFF778FF05460CB927
:10185000B56003E029464846FFF74AFEA946641CE6
:101860000EB14445EBDB3046BDE8F0872DE9F0478B
:10187000074688460025A946FFF780FF0646002454
:101880000DE057F82400FFF76BFF05460CB9B56073
:1018900003E029464846FFF72BFEA946641C0EB11B
:1018A0004445EEDB3046BDE8F0872DE9F0470546BC
:1018B00089464FF0000815B90020BDE8F087FEF713
:1018C0008CFE04460CB90020F7E7E86820F480702D
:1018D000E06068696061D5E90601C4E9060128692C
:1018E00050B12869FEF74DFE2061206920B92046DD
:1018F000FEF780FE0020E0E7286A50B1286AFEF774
:1019000040FE2062206A20B92046FEF773FE0020C8
:10191000D3E7B9F1000F01D12046CEE7AF6816E05A
:1019200001213846FFF7C1FF064626B92046FEF7DB
:1019300061FE0020C1E7B8F1000F05D0C8F80060D3
:10194000C6F80480B04601E0A660B0463F68002FAC
:10195000E6D12046B1E7014655E00278202A01D1C0
:10196000401C50E00278092A01D1401C4BE002786B
:101970000D2A01D1401C46E002780A2A01D1401C00
:1019800041E002782F2A0BD142782F2A08D100E0BB
:10199000401C0278002A36D002780A2A33D0F7E7B2
:1019A00002782F2A0ED142782A2A0BD100E0401C5F
:1019B00002782AB102782A2AF9D142782F2AF6D160
:1019C000801C20E00278222A19D110F8012B01F89E
:1019D000012B0AE002785C2A03D110F8012B01F8F0
:1019E000012B10F8012B01F8012B027812B10278BB
:1019F000222AEFD110F8012B01F8012B03E010F897
:101A0000012B01F8012B0278002AA6D10A70704739
:101A100000B587B001210C2002F028FC01218803C9
:101A200002F031FC4FF46040ADF8040003208DF863
:101A3000060018208DF8070001A9C24802F044F9F9
:101A40004FF48050ADF8040003208DF806001020FC
:101A50008DF8070001A9BB4802F036F94FF4805118
:101A6000B84802F0DCF90020ADF808004FF48270AD
:101A7000ADF80A000020ADF80C000220ADF80E0011
:101A80000120ADF810004002ADF812000820ADF8BA
:101A900014000020ADF816000720ADF8180002A9C8
:101AA000A94802F075FC0121A74802F016FD07B015
:101AB00000BD10B504462146A34802F03FFD00BF1B
:101AC0000221A14802F08DFD0028F9D000BF0121BC
:101AD0009D4802F086FD0028F9D09B4802F030FDB9
:101AE000C0B210BD10B5A520FFF7E3FF10BD70B563
:101AF00004460D4645EA0421934802F01FFD00BF4D
:101B00000221914802F06DFD0028F9D000BF0121AB
:101B10008D4802F066FD0028F9D08B4802F010FDD8
:101B2000C0B270BD10B5044644F08000002242EA05
:101B30000021854802F002FD00BF0221824802F028
:101B400050FD0028F9D000BF01217F4802F049FD77
:101B50000028F9D07C4802F0F3FCC0B210BD10B5EB
:101B600000244FF48051774802F05BF90520FFF71D
:101B7000A0FF00BFA520FFF79CFF044614F0010F53
:101B8000F8D14FF480516F4802F049F910BD10B5FB
:101B90000446FFF7E4FF4FF480516A4802F041F930
:101BA0000620FFF786FF4FF48051664802F037F9B0
:101BB000FFF7D5FF4FF48051624802F032F9D82088
:101BC000FFF777FF0020FFF774FF200AFFF771FF90
:101BD000E0B2FFF76EFF4FF480515A4802F01FF950
:101BE00010BD2DE9F04106460C461746FFF7B7FF3A
:101BF0004FF48051534802F014F90320FFF759FFC6
:101C0000C4F30740FFF755FFC4F30720FFF751FF68
:101C1000E0B2FFF74EFF002503E0FFF763FF7055CA
:101C20006D1CBD42F9D34FF48051464802F0F7F8DD
:101C3000BDE8F0812DE9F04106460C461746FFF756
:101C40008EFF4FF480513F4802F0EBF80620FFF77B
:101C500030FF4FF480513B4802F0E1F8FFF77FFF7F
:101C60004FF48051374802F0DCF80220FFF721FFE3
:101C7000C4F30740FFF71DFFC4F30720FFF719FF68
:101C8000E0B2FFF716FF002503E0705DFFF711FFDC
:101C90006D1CBD42F9D34FF480512A4802F0BFF8C1
:101CA000BDE8F08108B5002000904FF48051254830
:101CB00002F0B7F89F20FFF7FCFEFFF713FF8DF847
:101CC0000000FFF70FFF8DF80100FFF70BFF8DF805
:101CD00002004FF480511B4802F0A1F89DF800006B
:101CE000202809D19DF80100202805D19DF8020087
:101CF000152801D1002008BDFF20FCE7F8B5FFF74B
:101D000087FE0A200DF0CFF9FFF7CCFFC0B100BF6E
:101D100068460CF0F1FA04460C48007810F0010F08
:101D20000DD060086421B0FBF1F201FB1205C82060
:101D3000B4FBF0F62A46314605A00FF0D5FA00BFF5
:101D4000F8BD0000000C01400038004004000020F5
:101D50005B253034642E253032642F455D3A206691
:101D60006C61736820696420636865636B206661D9
:101D7000696C65640D0A0D0A000000000023C38031
:101D800003810160828070470146C8880A899042B9
:101D900001D1012070470020FCE70146CA880B8969
:101DA0009A4204DDCA880B89D21A90B205E08A886B
:101DB0000B89D21ACB881A4490B270472DE9F041B2
:101DC00004460F461646E0882189884204DDE088F3
:101DD0002189401A85B205E0A0882189401AE1884E
:101DE000084485B2B54202DA0020BDE8F081E088FF
:101DF000218988420ADD22892168881832463946BD
:101E00000EF0A9FD2089304420811EE0A0882189A0
:101E1000401A85B2B5420ADD228921688818324607
:101E200039460EF098FD2089304420810DE022894A
:101E3000216888182A4639460EF08DFD721B7919E3
:101E400020680EF088FD701B20810120CDE72DE970
:101E5000F04104460F461646E0882189884206DD97
:101E6000A088E188401A2189084485B203E02089CE
:101E7000E188401A85B2B54202DA0020BDE8F0815F
:101E8000E088218988421FDDA088E188401A85B258
:101E9000B5420ADDE28820688118324638460EF0E5
:101EA0005AFDE0883044E08018E0E288206881181C
:101EB0002A4638460EF04FFD721B781921680EF045
:101EC0004AFD701BE08009E0E288206881183246F4
:101ED00038460EF040FDE0883044E0800120CDE738
:101EE00000BF00BF70470000F648007870473EB55D
:101EF000044602A800210B462246CDE90010084600
:101F00000CF021F83EBD3EB5044602A80021234650
:101F10000A46CDE9001008460CF015F83EBD08B59C
:101F20000121082002F0A2F90120ADF800001020E4
:101F30008DF8030003208DF802006946E24801F0A5
:101F4000C3FE0121E04801F06CFF0420FFF7CFFF42
:101F50000121DD4801F063FF0420FFF7C8FF0121E4
:101F6000D94801F05EFF08BD10B5FFF7D8FF10BDDE
:101F700008B56A460021D54808F0F2F908BD2DE9F8
:101F8000FC41044601A80090C82004FB00F1002396
:101F90001A46CF4809F000F9BDF80400A0F5E44165
:101FA000D9391CD100BF68460CF0A6F90546C948CE
:101FB000007810F0020F0ED068086421B0FBF1F237
:101FC00001FB1206C820B5FBF0F7C34B3246394679
:101FD000C2A00FF089F900BF0020BDE8FC810120FC
:101FE000FBE770B505460E4600240CE0295DC348AA
:101FF00002F06AFC00BF8021C04802F0D3FC002838
:10200000F9D0601C84B2B442F0DB70BD1CB501A8ED
:1020100000231A4619460090AC4807F0A3FF1CBDE8
:102020002DE9F04786B006460D464FF000092846D8
:102030000EF0D4FC87B2FFF7E9FFB148FFF750FF7D
:1020400030460EF0CBFC1FFA80FA51463046FFF7BF
:10205000C8FF0420FFF793FF8046B8F1010F27D196
:102060000CE0012205A9A648FFF7F1FE9DF8142017
:102070004846411C01F0FF090DF80020A048FFF779
:1020800083FE0028EDD000240CE0285D1DF804102C
:10209000884205D0FFF76CFF002006B0BDE8F0874E
:1020A000601CC4B2BC42F0DBFFF762FF0120F4E722
:1020B000FFF75EFF0020F0E72DE9F047A8B00546E6
:1020C0000E464FF00008802108A80EF05DFC2B465C
:1020D0008CA2802108A800960FF016F900BF01A875
:1020E0000CF00AF907467B48007810F0020F10D078
:1020F00078086421B0FBF1F201FB1209C820B7FB9C
:10210000F0FA08A8874B4A465146009086A00FF087
:10211000EBF800BFFFF77AFF89A108A8FFF780FF5F
:1021200004464CB30A20FFF72AFF0446012C1FD1B6
:102130000CE0012207A97248FFF789FE9DF81C20D8
:102140004046411C01F0FF0802A90A546C48FFF701
:102150001BFE0028EDD0FFF70BFF7BA102A80EF0BD
:102160001EFC18B1012028B0BDE8F0870020FAE776
:10217000FFF7FEFE0020F6E7FFF7FAFE0020F2E789
:102180002DE9FE4F0027002602AB002271A1504826
:1021900008F0D3FE02AA72A14C4807F0BCFC02AAC8
:1021A00073A1784807F0B7FC00204649087005E2A3
:1021B0007548007830B1022868D004287ED0052800
:1021C0007DD1B7E100BF01A80CF096F880464148E8
:1021D000007810F0020F0FD04FEA58006421B0FBD6
:1021E000F1F201FB1209C820B8FBF0FA674B4A462E
:1021F000514667A00FF078F800BFFFF790FE0A2065
:10220000FFF775FE0120604908706AA16AA0FFF718
:1022100007FF01281CD102205B49087000BF01A8FC
:102220000CF06AF880462B48007810F0020F0ED0B0
:102230004FEA58006421B0FBF1F201FB1209C820FB
:10224000B8FBF0FA4A4651465DA00FF04DF81CE08D
:1022500000204D49087000BF01A80CF04DF88046E1
:102260001C48007810F0010F0ED04FEA580064218E
:10227000B0FBF1F201FB1209C820B8FBF0FA4A46A4
:10228000514657A00FF030F800BF77E100BF01A81A
:102290000CF032F880460F48007810F0020F0FD093
:1022A0004FEA58006421B0FBF1F201FB1209C8208B
:1022B000B8FBF0FA354B4A465146A1E0D9E05CE163
:1022C000A1E0000014000020000C01406413002075
:1022D0003C13002004000020292901085B2530342C
:1022E000642E253032642F495D3A2025733A2074DC
:1022F000696D656F75740D0A0000000000480040AC
:102300003013002041542B43495053544152543D03
:1023100022544350222C222573222C222564220D84
:102320000A0000000E2901085B253034642E253098
:1023300032642F495D3A2025733A2025730D0A0037
:102340000D0A4F4B00000000434F4E4E45435420B2
:102350004F4B000053494D3830305F5741495400CE
:1023600053494D3830305F4D5554455800000000FA
:1023700053494D3830305F53454E445F4D555445B9
:1023800058000000901300205D0000200129010882
:102390005B253034642E253032642F495D3A202588
:1023A000733A2053544154455F554E494E49544564
:1023B000440D0A004154000041540D0A0000000081
:1023C0005B253034642E253032642F495D3A20700D
:1023D0006F776572757020646F6E650D0A0000007E
:1023E0005B253034642E253032642F455D3A2070F1
:1023F0006F7765727570206661696C65640D0A009F
:10240000F5A00EF071FF00BF002429E0FB4951F850
:1024100034000EF0E3FA1FFA80F8F84951F834005E
:102420004146FFF7DEFDF54800EBC4008088B0F5BB
:102430007A7F0DDBF14800EBC40080884FF47A719D
:1024400090FBF1F000F0FF084046FFF750FD05E07B
:10245000EA4901EBC4018888FFF755FD601CC4B24E
:10246000082CD3DBE648FFF73BFD0420E549087064
:1024700084E000BF01A80BF03FFF8046E2480078EF
:1024800010F0020F0FD04FEA58006421B0FBF1F2B8
:1024900001FB1209C820B8FBF0FADC4B4A46514652
:1024A000DBA00EF021FF00BF42F20F71E2A0FFF7A8
:1024B00003FE0546012D1DD100BF01A80BF01CFF36
:1024C0008046D148007810F0010F0ED04FEA580036
:1024D0006421B0FBF1F201FB1209C820B8FBF0FA4D
:1024E0004A465146D8A00EF0FFFE00BF0520C54960
:1024F00008701EE000BF01A80BF0FEFE8046C24837
:10250000007810F0010F0ED04FEA58006421B0FBA4
:10251000F1F201FB1209C820B8FBF0FA4A46514615
:10252000D2A00EF0E1FE00BF0020B6490870701C7A
:1025300086B223E000BF01A80BF0DEFE8046B24861
:10254000007810F0020F0FD04FEA58006421B0FB62
:10255000F1F201FB1209C820B8FBF0FAAB4B4A4676
:102560005146CCA00EF0C0FE00BF01270620A549B1
:1025700008700120D149087000BF00BF00BF082EBD
:102580001CDD00BF01A80BF0B7FE80469E48007816
:1025900010F0010F10D04FEA58006421B0FBF1F2A7
:1025A00001FB1209C820B8FBF0FA984B4A46514685
:1025B000C3A000960EF098FE00BF02E0002F3FF48B
:1025C000F7AD00BFFFB900BF01A80BF095FE804634
:1025D0008D48007810F0010F11D04FEA58006421A7
:1025E000B0FBF1F201FB1209C820B8FBF0FA082099
:1025F000864B4A4651460090B9A00EF075FE00BFCA
:102600000020BDE8FE8F0120FBE710B5C44800782C
:1026100000B910BD05F004F802F046FD05F011F810
:1026200000BFF6E708B56A464FF40071BD4808F0F0
:10263000F0FF08BD1CB540F22551BB4802F0C8F9B7
:10264000002873D0B84802F043F9C0B20190B748EF
:102650004078B64908700846807848700846C078C7
:1026600088709DF80400C87066480078092869D20F
:10267000DFE800F0051A68061B6838681C0062E095
:10268000FFF7C4FC012201A95D48FFF797FBA748AB
:1026900080784F2805D1A548C0784B2801D1FFF795
:1026A000C1FFFFF765FC4EE000BF00BFFFF7AEFCC7
:1026B000012201A95248FFF781FB9C4800784F286E
:1026C0000DD19A4840784B2809D1984880780D2838
:1026D00005D19648C0780A2801D1FFF7A3FFFFF77C
:1026E00047FC30E0FFF792FC9DF804007B280BD1FB
:1026F00001208F4908704248FFF7F2FB012201A92F
:102700003F48FFF75BFB1AE09DF804007D280ED1DF
:10271000012201A93A48FFF751FB002084490870C3
:102720006A46002183480AF01AFF08E00CE080485E
:10273000007820B1012201A93148FFF73FFBFFF7E4
:1027400017FC00BF00BF00BF1CBD2DE9F04387B0E0
:102750004FF00009FFF75AFC142101A80EF014F9FC
:102760000320284908702648FFF7BAFB082172A009
:10277000FFF737FC0420FFF702FC8046B8F1010F99
:1027800027D10CE0012206A91D48FFF760FB9DF848
:1027900018204846411C01F0FF0901A90A541848B5
:1027A000FFF7F2FA0028EDD066A101A80EF0F7F8C5
:1027B00004000FD065A120460EF0F1F80446641C19
:1027C00063A120460EF0EBF807460CB10026C8E0E6
:1027D000CCE0D0E0D0E000005B253034642E253022
:1027E00032642F495D3A2025733A205354415445B1
:1027F0005F494E495445440D0A000000180000206E
:10280000301300205D000020040000200129010891
:102810005B253034642E253032642F495D3A202503
:10282000733A2053544154455F434F4E4E454354F1
:10283000494E470D0A0000003133392E3139362E0A
:102840003135332E323400005B253034642E253090
:1028500032642F455D3A20636F6E6E65637420733A
:10286000756363657373210D0A0000005B253034C6
:10287000642E253032642F455D3A20636F6E6E659D
:102880006374206661696C65642C2072657472796A
:10289000210D0A005B253034642E253032642F4927
:1028A0005D3A2025733A2053544154455F434F4EBF
:1028B0004E45435445440D0A00000000140000201A
:1028C0005B253034642E253032642F455D3A202557
:1028D000733A207265747279203D2025640D0A00D8
:1028E0005B253034642E253032642F455D3A202537
:1028F000733A2057652063616E6E6F7420636F6E4C
:102900006E656374207365727665722C20726574CF
:10291000726965642025642074696D65730D0A0011
:10292000BD0000203C13002000480040590000205A
:1029300058000020985C002041542B4353510D0A4D
:10294000000000002B4353513A000000200000001B
:102950002C00000014F8012B3046711CCEB20DF88B
:102960000020BC42F6D300200DF8060068460EF0A9
:1029700063F8C5B200E00025FFF7FAFA06205A49CD
:102980000870284607B0BDE8F0832DE9FF410446F2
:102990000D4656A00068029000BF01A80BF0ACFCE9
:1029A00006465348007810F0020F10D070086421DA
:1029B000B0FBF1F201FB1207C820B6FBF0F84D4B5B
:1029C0003A464146AFF2A06000940EF08DFC00BF85
:1029D00003A800231A4619460090474807F0C2FA98
:1029E0000A20414908700C2144A0FFF7FAFA64203C
:1029F000FFF789FAA9B22046FFF7F3FA08203A490F
:102A00000870012102A8FFF7ECFAC820FFF77BFA53
:102A100006203549087003AA0021374807F0A0FCBA
:102A2000BDE8FF8110B586B00121092001F01EFC30
:102A30000121880401F027FC4FF48060ADF81400F8
:102A400018208DF8170003208DF8160005A92F48CF
:102A500001F03AF94FF40060ADF8140004208DF84D
:102A6000170003208DF8160005A9284801F02CF95D
:102A70004FF4E13001900020ADF80800ADF80A00F5
:102A8000ADF80C00ADF810000C20ADF80E0001A957
:102A90001F4801F020FE00BF1D48001D0088C4B281
:102AA0001B480088C4B2012240F22551184801F0A9
:102AB000AAFE0121164801F09AFE4FF480721549D2
:102AC0001548FFF75BF9002007490870AFF29B41FA
:102AD000272002F0CAF90121272002F0DEF9272081
:102AE00002F0B9F906B010BD5D0000201A00000028
:102AF000040000201D2901089013002041542B439D
:102B0000495053454E440D0A00000000000C01409E
:102B100000480040301200203013002070B50546F8
:102B20000C4645F2555001F01BFA204601F01EFA02
:102B3000284601F018FA01F01CFA01F01FFA70BDE6
:102B400010B501F016FA10BD10B50446204601F08C
:102B5000ACFF10BD08B500208DF8000002208DF8F4
:102B6000010003208DF8020001208DF80300684663
:102B700000F0EBFA08BD70B506460C46154601217B
:102B8000C80201F080FB0F48007830400E49087001
:102B9000284601F06CFF204601F072FF0A480078D9
:102BA00001F083FF01F08CFFFFF7D4FF01F073FF0A
:102BB00070BD10B50448007801F071FF01F080FF8E
:102BC00010BD00005E0000205F00002008B54FF43B
:102BD000806000F0B5FA14208DF8000001208DF817
:102BE000010000208DF8020001208DF803006846E6
:102BF00000F0ABFA08BD1CB5F74A0021F74800F019
:102C000094FDF5480068F6490988884207D101A873
:102C100000231422F0490090F24808F009F91CBD85
:102C200008B50121052001F021FB0121480601F032
:102C30002AFB4FF40060ADF8000004208DF803007B
:102C400003208DF802006946E74801F03DF84FF493
:102C50008050ADF8000018208DF8030003208DF897
:102C600002006946E04801F02FF808BD08B50121CF
:102C7000042001F0FBFA0121102001F0F7FA4FF4D3
:102C80008070ADF8000010208DF8030003208DF84F
:102C900002006946D44801F017F84FF40070ADF80F
:102CA000000010208DF8030003208DF80200694613
:102CB000CE4801F009F84FF48071CB4801F0B1F82B
:102CC0004FF40071C94801F0ACF808BD1FB50446C7
:102CD000FFF7CCFFFFF77AFFFFF7A2FFBF4800F036
:102CE0009DFA684600F0BEFB00208DF806008DF8C6
:102CF00007008DF808008DF809008DF80A008DF89E
:102D00000B008DF802008DF803000A208DF80400F6
:102D100005208DF80500ADF800406946AF4800F089
:102D200096FA0020B2490870B249087003AAB2A10D
:102D3000B54806F0F0FE03AB2822B4A1A94807F07D
:102D400092FCAFF24D11142002F08FF801211420F3
:102D500002F0A3F8142002F07EF81FBD2DE9FF4118
:102D600007460C4615461E4601208DF80A00002035
:102D70008DF80B008DF80C004FF6FF7000EA47103D
:102D8000ADF800004FF6FF7000EA4410ADF8020005
:102D90004FF6FF7000EA4510ADF804004FF6FF70E3
:102DA00000EA4610ADF806000020ADF8080001204A
:102DB0008DF80D00684600F0D4FA01220221874800
:102DC00000F0CEFDBDE8FF8170B50446002500206F
:102DD00020722146814800F0B3FB064604E06D1CDA
:102DE0008E48854200D905E031467C4800F040FC21
:102DF0000128F4D100BF70BD08B56A4600218248A1
:102E000007F0AEFA08BD1CB501A800231A46194602
:102E100000907D4807F0A6F81CBD2DE9F04F87B063
:102E200006468846144699460020049000278246AC
:102E3000039016F0010F0AD044F0FF0344F0FF02A4
:102E400021462046FFF78AFF6548048008E0FF23FB
:102E50001A4600210846FFF781FF002060490880DC
:102E600016F0020F02D04046FFF7AEFF16F0010F3A
:102E70007ED0002004909CE005A8002106AB0A4605
:102E8000CDE900104FF4C871564807F091FD054692
:102E9000BDF81400A0F5E441D9396BD0FFF7B3FFBA
:102EA0002868A04204D10498401CC0B204902AE0D3
:102EB00000BF02A80BF020FA83465948007810F0B2
:102EC000010F10D04FEA5B006421B0FBF1F201FB6F
:102ED00012000190C820BBFBF0F00090014651A009
:102EE000019A0EF001FA00BF0398401CC0B2039093
:102EF0000398052804DD4FF0FF3AFFF77DFF5CE003
:102F0000FFF77AFF55E03A49097801EB81014C4A15
:102F1000286842F82100A87A3549097801EB810137
:102F200002EB8101887200270DE005F10B00C15D05
:102F30002F48007800EB8000414A02EB80000B3004
:102F4000C155781CC7B2A87AB842EEDC2848007890
:102F5000401C2749087008460078282801D1002025
:102F600008700AF101004FFA80FAFFF745FF1FE0F1
:102F700024E0FFE700BF02A80BF0BEF98346284813
:102F8000007810F0010F11D04FEA5B006421B0FB14
:102F9000F1F201FB12000190C820BBFBF0F0294BBD
:102FA0000090014628A0019A0EF09EF900BF04E0AF
:102FB00000BF04984845FFF65FAF00BFFF231A46E5
:102FC00000210846FFF7CAFE002005490880504648
:102FD00007B0BDE8F08F0000DC1600200064004060
:102FE000600000201C170020000801400010014074
:102FF0006200002063000020464C455843414E5F6C
:103000004D55544558000000F0160020464C4558D8
:1030100043414E5F515545554500000040420F0069
:10302000040000205B253034642E253032642F45A7
:103030005D3A20657863657074696F6E210D0A00D2
:10304000BC130020352901085B253034642E25305F
:1030500032642F455D3A2025733A2074696D656F9F
:1030600075740D0A00000000284800782849097886
:10307000884206DB2548007825490978401AC0B205
:10308000704723480078C0F1280020490978084497
:10309000C0B2F5E710B50024FFF7B5FE1C48007874
:1030A0001A490978884203D1FFF7A6FE002010BD17
:1030B000174801780078401C154A107001EB810018
:1030C000144901EB800410460078282802D1002022
:1030D00011460870FFF790FE2046E8E710B5FFF7AD
:1030E00092FE00200949087009490870FFF784FE24
:1030F00010BD10B50848007800B910BD04F090FA72
:1031000001F073FF04F09DFA00BFF6E762000020B3
:1031100063000020BC130020BD000020064880474B
:1031200006480047FEE7FEE7FEE7FEE7FEE7FEE7AC
:10313000FEE7FEE7FEE7FEE7AD4C000831010008C0
:1031400031490143314A1160704770B500210023B5
:103150000F22C4780CB32D4C246804F4E064C4F549
:10316000E064210AC1F10403CA40447804FA03F17F
:103170008478144021430901254C0678A155047830
:1031800004F01F050124AC4005786D114FF0E026D6
:1031900006EB8505C5F8004109E0047804F01F0539
:1031A0000124AC401B4D0678761145F8264070BDD1
:1031B000194A0A400243154B1B1F1A60704739B168
:1031C000124A121D12680243104B1B1D1A6006E0C2
:1031D0000E4A121D126882430C4B1B1D1A60704769
:1031E000042808D14FF0E021096941F004014FF0B3
:1031F000E022116107E04FF0E021096921F00401AC
:103200004FF0E022116170470000FA050CED00E07C
:1032100000E400E080E100E080FFFF1F10B50446FD
:10322000FE48844209D10121480601F046F80021F8
:103230004FF0007001F041F808E00121880601F02C
:103240003CF800214FF0806001F037F810BD30B538
:10325000024600200023146824F00204146014685D
:1032600044F00104146000E05B1C546814F0010F8A
:1032700003D1A3F57F44FF3CF6D1546814F0010F4D
:1032800001D100206CE08C79012C04D1146844F049
:103290008004146003E0146824F080041460CC7986
:1032A000012C04D1146844F04004146003E0146855
:1032B00024F0400414600C7A012C04D1146844F00A
:1032C0002004146003E0146824F0200414604C7A95
:1032D000012C04D1146844F01004146003E0146855
:1032E00024F0100414608C7A012C04D1146844F08A
:1032F0000804146003E0146824F008041460CC7A15
:10330000012C04D1146844F00404146003E0146830
:1033100024F0040414608C78A407CD7844EA056492
:103320000D7944EA05444D7944EA05540D886D1E33
:103330002C43D461146824F001041460002300E0DD
:103340005B1C546814F0010F03D0A3F57F44FF3CCD
:10335000F6D1546814F0010F01D0002000E00120E4
:1033600030BD10B50021837A012202FA03F1AC4A84
:10337000126842F00102AA4B1A60A94A1C32126874
:103380008A43A74B1C331A60027BCAB9A44A0C3289
:1033900012688A43A24B0C331A604288C38842EAFF
:1033A00003439F4A4032847A42F83430028883884B
:1033B00042EA03439A4A4032847A02EBC4025360E1
:1033C000027B012A19D1964A0C3212680A43944BA7
:1033D0000C331A604288038842EA0343904A403221
:1033E000847A42F83430C288838842EA03438C4AA4
:1033F0004032847A02EBC4025360C27A3AB9884AF6
:10340000121D12688A43864B1B1D1A6006E0844A0F
:10341000121D12680A43824B1B1D1A60028932B9C1
:103420007F4A143212688A437D4B14331A60028932
:10343000012A06D17A4A143212680A43784B1433AF
:103440001A60427B012A06D1754A1C3212680A436F
:10345000734B1C331A60724A126822F00102704BDF
:103460001A6010BD00218171C171017241728172B7
:10347000C1728170C170032101710221417101216A
:10348000018070476649096841F00101644A116092
:103490001146096843F60E729143614A1160114664
:1034A000096841EA002111601146096821F0010113
:1034B0001160704721B1026842F48032026003E07B
:1034C000026822F4803202607047E1B1026842F083
:1034D000800202604FF4C272125842F480734FF4BB
:1034E000C27213504FF4CA72125842F480734FF4F0
:1034F000CA7213504FF4D272125842F480734FF4D0
:10350000D27213501BE0026822F0800202604FF476
:10351000C272125822F480734FF4C27213504FF4E7
:10352000CA72125822F480734FF4CA7213504FF4C7
:10353000D272125822F480734FF4D2721350704733
:1035400010B502460020936803F08063B3F1806FEA
:1035500000D110E0936803F00063B3F1006F01D174
:10356000012008E0936803F08053B3F1805F01D13C
:10357000022000E00420042879D002F5C07303EB98
:1035800000131B6803F0010402F5C07303EB001382
:103590001C600B7A7BB94B7A0C8843EA445302F5E2
:1035A000C07404EB00142468234302F5C07404EBD8
:1035B0000014236010E00B7A4C6843EAC4034C7A91
:1035C000234302F5C07404EB00142468234302F57E
:1035D000C07404EB001423608B7A03F00F038B722A
:1035E00002F5C07303EB00135B6823F00F0402F5D0
:1035F000C07303EB00135C6002F5C07303EB0013B0
:103600005B688C7A234302F5C07404EB001463609A
:103610008B7B1C064B7B44EA034403E000640040C0
:10362000006600400B7B44EA0323CC7A234302F577
:10363000C07404EB0014A3608B7C1C064B7C44EA32
:1036400003440B7C44EA0323CC7B234302F5C07480
:1036500004EB0014E36002F5C07303EB00131B6876
:1036600043F0010402F5C07303EB00131C6010BDAE
:1036700010B50246002321B1012907D002290FD13C
:1036800009E09068F84C00EA04030BE09068F74CFE
:1036900000EA040306E09068F54C00EA040301E048
:1036A000002300BF00BFF34C181BA34216D007DC59
:1036B00083B16FF0806018180ED0022818D111E085
:1036C000B0F5007F10D0EC4C001909D0B0F5003FE8
:1036D0000ED10BE002230DE000230BE0002309E0F4
:1036E000002307E0012305E0012303E0012301E0BB
:1036F000002300BF00BFD8B210BD21B1012907D0FF
:1037000002290FD109E0826842F0800282600AE05B
:10371000826842F40042826005E0826842F400025E
:10372000826000E000BF00BF704710B500F5D8739D
:1037300003EB01131B6803F004031372137A53B9EC
:1037400000F5D87303EB01131B6840F2FF7404EA21
:103750005353136009E000F5D87303EB01131B68A2
:103760006FF0604404EAD303536000F5D87303EBB1
:1037700001131B6803F00203537200F5D87303EBC7
:1037800001135B6803F00F03937200F5D87303EB2A
:1037900001135B681B0AD37400F5D87303EB0113A4
:1037A0009B68D37200F5D87303EB01139B681C0A66
:1037B000147300F5D87303EB01139B681C0C54734E
:1037C00000F5D87303EB01139B681B0E937300F590
:1037D000D87303EB0113DB68D37300F5D87303EBE5
:1037E0000113DB681C0A147400F5D87303EB011392
:1037F000DB681C0C547400F5D87303EB0113DB6811
:103800001B0E937421B9C36843F02003C36003E027
:10381000036943F02003036110BD21B9C26842F07F
:103820002002C26003E0026942F020020261704798
:103830000246002019B9D36803F0030006E001290D
:1038400003D1136903F0030000E00020704710B5B6
:1038500002460B4600204FF6FF71BBB9146824F0F6
:10386000020444F00104146000E0491E546804F0AE
:103870000304012C01D00029F7D1546804F003049B
:10388000012C01D0002032E0012030E0012B13D1C7
:10389000146824F00304146000E0491E546814F016
:1038A000030F01D00029F8D1546814F0030F01D0A0
:1038B00000201CE001201AE0022B17D1146824F02C
:1038C000010444F00204146000E0491E546804F04E
:1038D0000304022C01D00029F7D1546804F003043A
:1038E000022C01D0002002E0012000E0002010BDE9
:1038F000014600200A6822F0010242F002020A603A
:103900004A6802F00302022A00D1012070470146F2
:103910004FF6FF7200200B6823F002030B6000E0FB
:10392000521E4B6803F00203022B01D1002AF7D18B
:103930004B6803F00203022B00D0012070470146C0
:1039400000208A6902F070007047014600208A69F1
:10395000100E7047014600208A69C2F30740704785
:103960001AB143690B43436102E043698B434361EE
:10397000704710B50246002011F4700F08D093690B
:10398000C1F31304234201D001202DE000202BE0DD
:1039900011F0807F08D05368C1F31304234201D093
:1039A000012021E000201FE011F0006F08D0936893
:1039B000C1F31304234201D0012015E0002013E0DD
:1039C00011F0007F08D0D368C1F31304234201D063
:1039D000012009E0002007E01369C1F3130423422A
:1039E00001D0012000E0002010BD0022234B9942AD
:1039F00002D10023836111E0C1F3130211F0007FB3
:103A000001D0C2600AE011F0806F01D0026105E0D0
:103A100011F0006F01D0826000E042607047024602
:103A200000200A4201D0012000E00020704770B55C
:103A300004460D4600266069284272D0B5F5807FA5
:103A400069D01DDC082D42D006DC012D2DD0022DC1
:103A500031D0042D7FD134E0102D3ED0202D42D026
:103A6000402D78D145E00000030000040003000869
:103A700000000310000100080001FFF77000F030A3
:103A8000B5F5004F61D009DCB5F5007F4AD0B5F53A
:103A9000806F4DD0B5F5006F5DD150E0B5F5803F3A
:103AA0002DD0B5F5003F56D12FE0A0685549FFF75E
:103AB000B6FF064651E0E0680321FFF7B0FF064677
:103AC0004BE0E0680821FFF7AAFF064645E0E06802
:103AD0001021FFF7A4FF06463FE020690321FFF70E
:103AE0009EFF064639E020690821FFF798FF064649
:103AF00033E020691021FFF792FF06462DE0606851
:103B00000821FFF78CFF064627E060681021FFF7C9
:103B100086FF064621E0A0690121FFF780FF0646E7
:103B20001BE01BE0A0690221FFF779FF064614E0C5
:103B3000A0690421FFF773FF06460EE00BE0A069C1
:103B40007021FFF76CFF064607E060680421FFF76D
:103B500066FF064601E0002600BF00E00026304672
:103B600070BDB1F5007F3AD00FDC202928D006DCEB
:103B700001291CD004291DD0082940D11DE040296D
:103B800021D0B1F5807F3AD126E0B1F5004F31D098
:103B900006DCB1F5806F25D0B1F5006F2FD124E0A0
:103BA000B1F5803F12D0B1F5003F28D111E0154AA0
:103BB000826025E00822C26022E01022C2601FE07D
:103BC000082202611CE01022026119E00822426012
:103BD00016E01022426013E00422426010E004224A
:103BE00042600DE0042242600AE000228261042269
:103BF000426005E0002282610422426000E000BFD2
:103C000000BF70470101010010B50446CA48844254
:103C100008D10121042000F043FB0021042000F022
:103C20003FFB46E0C548844208D10121082000F04E
:103C300037FB0021082000F033FB3AE0C048844203
:103C400008D10121102000F02BFB0021102000F0F2
:103C500027FB2EE0BB48844208D10121202000F040
:103C60001FFB0021202000F01BFB22E0B64884420D
:103C700008D10121402000F013FB0021402000F07A
:103C80000FFB16E0B148844208D10121802000F0EA
:103C900007FB0021802000F003FB0AE0AC488442CF
:103CA00007D10121801500F0FBFA0021A01500F0DA
:103CB000F7FA10BD10B50121084600F0F1FA002115
:103CC000012000F0EDFA10BD2DE9F041024600257B
:103CD0000026002000230024002791F803C00CF0E8
:103CE0000F0591F803C01CF0100F03D091F802C02B
:103CF0004CEA050591F800C0BCF1000F31D0146802
:103D000000202BE04FF0010C0CFA00F3B1F800C0DA
:103D10000CEA03069E4220D183004FF00F0C0CFAF0
:103D200003F7BC4305FA03FC4CEA040491F803C012
:103D3000BCF1280F06D14FF0010C0CFA00FCC2F8C0
:103D400014C00AE091F803C0BCF1480F05D14FF050
:103D5000010C0CFA00FCC2F810C0401C0828D1D39A
:103D60001460B1F800C0BCF1FF0F34DD54680020CE
:103D70002EE000F1080C4FF0010808FA0CF3B1F83E
:103D800000C00CEA03069E4221D183004FF00F0CC5
:103D90000CFA03F7BC4305FA03FC4CEA040491F85F
:103DA00003C0BCF1280F05D100F1080C08FA0CF88B
:103DB000C2F8148091F803C0BCF1480F07D100F19C
:103DC000080C4FF0010808FA0CF8C2F81080401CEB
:103DD0000828CED35460BDE8F0814FF6FF71018012
:103DE000022181700421C17070470246002093684F
:103DF0000B4201D0012000E0002070470146886896
:103E000080B2704702460020D3680B4201D00120E7
:103E100000E0002070470146C86880B27047016129
:103E20007047416170470AB1016100E0416170472C
:103E3000C16070474FF480320A43826181618261C0
:103E400082698269704702460020424B18684FF62B
:103E50008073184040EA021008433E4B18607047D8
:103E60003D49C8617047F0B50A460023002400218F
:103E7000002500F00046B6F1004F02D1354EF16941
:103E800001E0344E7168C0F3034583B200F440167C
:103E9000B6F5401F08D121F070612E4E766826F0ED
:103EA00070662C4F7E6012E000F48016B6F5801F1D
:103EB00006D1032606FA05F4A14341F0706106E03D
:103EC000460D360103FA06F6B14341F0706122B1A6
:103ED000460D360103FA06F6314300F00046B6F10E
:103EE000004F02D11B4EF16101E01A4E7160F0BD2E
:103EF00030B500228B071C0F0F2303FA04F2154B79
:103F000008338C1053F824309343124C08348D102E
:103F100044F8253023468C1053F824308C07240FA6
:103F200000FA04F423430B4C08348D1044F8253078
:103F300030BD0A490860704700080140000C01408C
:103F4000001001400014014000180140001C014015
:103F5000002001400000014000002042DC0020421F
:103F60000E49086070470D49486070470B498860EA
:103F700070474AF6AA200949086070474CF6CC40C1
:103F800006490860704701460020044AD2680A4288
:103F900001D0012000E00020704700000030004008
:103FA000DB48006840F00100D949086008464068D5
:103FB000D8490840D649486008460068D6490840B4
:103FC000D34908600846006820F48020086008464D
:103FD000406820F4FE0048604FF41F00886070477E
:103FE000CB49096821F48031C94A1160114609683A
:103FF00021F480211160B0F5803F03D0B0F5802F0F
:104000000ED106E0C249096841F48031C04A11600E
:1040100007E0BF49096841F4A021BD4A116000E0F2
:1040200000BF00BF704710B50146002200230020EA
:104030004A11012A02D1B64C236806E0022A02D1B5
:10404000B34C236A01E0B24C636A01F01F02012401
:1040500094401C4201D0012000E0002010BD70B54A
:1040600000240025002600BF3120FFF7DCFF0646B4
:10407000641CB4F5A06F01D0002EF5D03120FFF7FD
:10408000D2FF08B1012500E00025284670BD014699
:1040900000209F4A106820F0F80040EAC10010603C
:1040A00070479E490860704702460020984B586848
:1040B00020F47C1042EA01031843954B5860704786
:1040C00096490866704701460020914A506820F0E2
:1040D00003000843506070478D48406800F00C00B2
:1040E0007047014600208A4A506820F0F0000843DB
:1040F0005060704701460020854A506820F4E06017
:1041000008435060704701460020814A506820F4FF
:10411000605040EAC1005060704729B17C4A527A31
:1041200002437B4B5A7204E0794A527A8243784BBD
:104130005A7270477A490860704701460020744AF5
:10414000506820F440400843506070470021754A91
:1041500011706F4A82F82010012802D0042808D17B
:1041600003E001216F4A117004E005216D4A1170CE
:1041700000E000BF00BF70476B49086070476449AA
:10418000096A0143624A116270476749443908600D
:10419000704730B500210022002400235C4D6D687B
:1041A00005F00C0121B1042905D0082923D105E02F
:1041B0005E4D056022E05E4D05601FE0544D6D6868
:1041C00005F47012524D6D6805F48034022505EB3C
:1041D00092421CB9574D554305600BE04C4D6D683C
:1041E00015F4003F03D0544D5543056002E0504D97
:1041F0005543056002E04D4D056000BF00BF444DD2
:104200006D6805F0F00109094C4D6B5C0568DD40F7
:1042100045603F4D6D6805F4E061090A474D6B5CF0
:104220004568DD4085603A4D6D6805F46051C90A06
:10423000424D6B5C4568DD40C560354D6D6805F4E9
:104240004041890B3E4D6B5CC568B5FBF3F50561DC
:1042500030BD29B12E4A526902432D4B5A6104E008
:104260002B4A526982432A4B5A61704729B1284A26
:1042700092690243264B9A6104E0254A926982437F
:10428000234B9A61704729B1214AD2690243204BDE
:10429000DA6104E01E4AD26982431D4BDA6170473D
:1042A00029B11B4AD2680243194BDA6004E0184A6C
:1042B000D2688243164BDA60704729B1144A1269FA
:1042C0000243134B1A6104E0114A12698243104BF6
:1042D0001A61704714494039086070470F49C86433
:1042E00070470B49C87170470948406A40F08070B8
:1042F00007494862704701460020054A92680A4211
:1043000001D0012000E00020704701498872704709
:10431000001002400000FFF8FFFFF6FE00004242DE
:10432000D8004242201002408004424200127A002B
:10433000001BB70000093D00808D5B006400002079
:104340007400002010B50446BE48844208D1012103
:104350008014FFF7A5FF0021A014FFF7A1FF16E0CE
:10436000B948844208D101210014FFF7A6FF0021BB
:104370002014FFF7A2FF0AE0B448844207D10121CC
:10438000C013FFF79AFF0021E013FFF796FF10BD5F
:1043900010B50022028802F441520B884C88234356
:1043A0008C882343CC8823430C8923434C892343A3
:1043B0008C892343CC8923431A430280838B4FF299
:1043C000FF74234083830B8A038210BD2DE9F04FD5
:1043D00085B005460C464FF0000902274FF0000853
:1043E0004FF0010B0026B246A88B4FF24001084067
:1043F000A88302202884B5F81C90A068022801D167
:1044000000BF38E0A08810B94FF0010B01E04FF079
:10441000020B8D48854200D100E000BF6846FFF7DF
:10442000B8FEDDF800A0E088B0F5007F0AD14FEAC1
:104430001A2000EB80004000A168B0FBF1F0401DA5
:1044400086B20BE04FEA4B10BAFBF0F000EB8000B5
:104450004000A168B0FBF1F0401D86B20A20B6FB17
:10446000F0F606F00108A6EB0800C0F34F074FF680
:10447000FF7000EA0828022F01DBFF2F02DD022770
:104480004FF00008E08840EA080038432884A088FC
:10449000A1890843618808432188084340F40060EB
:1044A00040EA0909A5F81C9005B0BDE8F08F00218D
:1044B000018041808180C180018141818181C181F0
:1044C0000721018270470021018041808180C180E5
:1044D0000221816000218181704721B1028842F070
:1044E0004002028004E002884FF6BF731A40028047
:1044F000704721B1828B42F48062828304E0828B18
:104500004FF6FF331A408283704730B500240023F2
:104510000C110125A540ABB21AB185881D438580D9
:1045200002E085889D43858030BD1AB183880B43A6
:10453000838002E083888B4383807047818170474A
:10454000014688897047A1F57E42FF3A04D002886F
:1045500042F48072028004E002884FF6FF631A4042
:104560000280704721B1828842F00402828004E018
:1045700082884FF6FB731A408280704702884FF2A0
:10458000FF731A40028002880A4302807047018844
:1045900041F480510180704721B1028842F40052F9
:1045A000028004E002884DF6FF731A4002807047D3
:1045B00002460020012901D0108B00E0908A70474C
:1045C0000146088A7047B1F5804F04D1028842F451
:1045D0008042028004E002884BF6FF731A4002809A
:1045E00070470246002013890B4201D0012000E0F1
:1045F00000207047CA4302817047F0B50246002090
:1046000000240023002501F00F070126BE40B4B2AC
:104610000B1101269E40B3B2968806EA030516895F
:10462000264202D00DB1012000E00020F0BD10B5FF
:10463000002201F00F040123A3409AB2D343038167
:1046400010BD00000030014000380040003C004038
:1046500010B50446FB48844209D101218803FFF7C5
:104660001FFE00214FF48040FFF71AFE32E0F648AB
:10467000844209D101214804FFF71FFE00214FF4B5
:104680000030FFF71AFE25E0F048844209D10121ED
:104690008804FFF712FE00214FF48020FFF70DFE83
:1046A00018E0EB48844209D10121C804FFF705FE58
:1046B00000214FF40020FFF700FE0BE0E5488442A4
:1046C00008D101210805FFF7F8FD00214FF4801003
:1046D000FFF7F3FD10BD2DE9F04786B005460E4605
:1046E0000024A24600BFA1460027B08900B100BF48
:1046F0002F462C8A4CF6FF700440F08804432C822D
:10470000AC894EF6F3100440B088318908437189B2
:1047100008430443AC81AC8A4FF6FF400440B089A3
:104720000443AC8201A8FFF734FDC648874202D19A
:10473000DDF810A001E0DDF80CA0A88910F4004F0E
:1047400008D00AEBCA0000EB0A1031684900B0FB40
:10475000F1F807E00AEBCA0000EB0A1031688900A3
:10476000B0FBF1F86420B8FBF0F0040120096421EB
:1047700001FB1089A88910F4004F08D0322000EB0B
:10478000C900B0FBF1F000F00700044308E032205C
:1047900000EB09106421B0FBF1F000F00F000443BE
:1047A0002C8106B0BDE8F0874FF41651016000215E
:1047B0008180C18001810C2141810021818170476C
:1047C00010B502460020108A4FF2FF0318400B88F4
:1047D0004C8823438C882343CC882343184310827E
:1047E00010BD0021018041808180C180704721B1CE
:1047F000828942F40052828104E082894DF6FF737F
:104800001A4082817047F0B5034600240026002537
:104810000020A1F510676A3F00D100BF1846C1F320
:10482000421401F01F06012707FA06F5012C01D1F9
:104830000C3004E0022C01D1103000E014301AB129
:1048400007682F43076002E00768AF430760F0BDC9
:104850001AB1838A0B43838202E0838A8B4383826B
:104860007047028A4FF6F0731A400282028A0A43A6
:104870000282704782894FF2FF731A4082818289D7
:104880000A438281704721B1828942F0020282810B
:1048900004E082894FF6FD731A4082817047028AD4
:1048A0004FF6DF731A400282028A0A43028270477F
:1048B00021B1028A42F48042028204E0028A4BF66D
:1048C000FF731A4002827047C1F30802828070476A
:1048D00001468888C0F308007047818941F00101D2
:1048E00081817047028BD2B20283028B42EA01229D
:1048F00002837047028B02F47F420283028B0A43D9
:104900000283704721B1828A42F02002828204E051
:10491000828A4FF6DF731A408282704721B1828A01
:1049200042F01002828204E0828A4FF6EF731A404E
:104930008282704721B1828A42F00802828204E0BA
:10494000828A4FF6F7731A408282704721B18289BA
:1049500042F40042828103E08289C2F30E02828126
:10496000704721B1828A42F40062828204E0828A26
:104970004FF2FF731A4082827047828A4FF6FB73B0
:104980001A408282828A0A438282704721B1828AD7
:1049900042F00202828204E0828A4FF6FD731A40DE
:1049A0008282704702460020B1F5007F00D100BF2F
:1049B00013880B4201D0012000E00020704701F471
:1049C0000072B2F5007F00D100BFCA430280704779
:1049D00070B502460024002300250020A1F51066D2
:1049E0006A3E00D100BFC1F3421501F01F0301264A
:1049F00006FA03F3012D02D19689334006E0022D19
:104A000002D1168A334001E0968A33400C12012607
:104A100006FA04F41688344013B10CB1012000E00A
:104A2000002070BD10B500220023A1F510646A3C7F
:104A300000D100BF0A1201249440A3B2DC430480D9
:104A400010BD000000380140004400400048004014
:104A5000004C00400050004010B50121C802FFF793
:104A60002CFC00214FF40060FFF727FC10BD002153
:104A7000164A126822F4C0710143144A116070474B
:104A80000021124A126822F07F0100F07F021143D8
:104A90000E4A1160704701200D490860704700F010
:104AA0007F010A4A121F1160704740F08001074AD7
:104AB000121F116070470548001D0068C0B27047A2
:104AC00000200249091D086070470000042C0040C6
:104AD000A48005428AB000240AF08CFAFBF7D9FBC7
:104AE00009A802F007FD31A00CF0FEFB00BF00BFDB
:104AF00000BF00F0A7FC044600BF00BF31480078AB
:104B0000401C3049087000BF00BF204600F09EFCEA
:104B100000BF00BF00BF09A8032100220592CDE914
:104B20000621089010464FF400713322264BCDE940
:104B30000132CDE9031003200023244A24A1009070
:104B4000264807F065FA00BF00BF00BF00F07AFCFE
:104B5000044600BF00BF1B480078401E194908707A
:104B600008460078A0B91E480088002809DD00BF6B
:104B700000BF204600F06AFC00BF00BF03F0E0FA6F
:104B80000DE000BF00BF204600F060FC00BF06E063
:104B900000BF00BF204600F059FC00BF00BF00BFAF
:104BA00009A802F076FF00BFFEE700000D0A0D0A1B
:104BB0002B2B4E6F772053746172742B2B0D0A0DC3
:104BC0000A00000004010020E838002025EE00085B
:104BD0005374617274205461736B00002438002098
:104BE000C800002000210020674A126842F4803289
:104BF000654B1A6000BF644A126802F40030491C19
:104C000010B9B1F5A06FF6D15F4A126812F4003FF7
:104C100001D0012000E00020012842D15B4A126847
:104C200042F01002594B1A601A46126822F0030231
:104C30001A601A46126842F002021A60524A52681A
:104C4000514B5A601A4652685A601A46526842F4EA
:104C500080625A601A46526822F47C125A601A46E0
:104C6000526842F488125A601A46126842F0807202
:104C70001A6000BF444A126812F0007FFAD0424A1C
:104C8000526822F00302404B5A601A46526842F0C2
:104C900002025A6000BF3C4A526802F00C02082A25
:104CA000F9D1704710B5FFF79DFF10BD10B536481C
:104CB000006840F001003449086008464068344903
:104CC00008403149486008460068324908402E498A
:104CD00008600846006820F48020086008464068A4
:104CE00020F4FE0048604FF41F008860FFF7DAFFF1
:104CF0004FF000602849086010BD10B50021002069
:104D00000022214B5B6803F00C0121B1042906D07D
:104D1000082928D107E0214B214C236027E0214BB3
:104D20001F4C236023E0184B5B6803F47010164B94
:104D30005B6803F48032022303EB904022B91A4BE4
:104D40004343174C23600DE00F4B5B6813F4003FA7
:104D500004D0164B4343124C236003E0114B4343F2
:104D60000F4C236003E00D4B0D4C236000BF00BFD0
:104D7000054B5B68C3F303130D4CE15C084B1B68E8
:104D8000CB40074C236010BD0010024000200240C1
:104D90000000FFF8FFFFF6FE08ED00E000127A00C9
:104DA00078000020001BB70000093D00808D5B00EB
:104DB0007C00002000B585B06846FFF7EAF901984D
:104DC00005B000BD10B5FFF7F5FF044617480068B1
:104DD00040F0807015490860002015494860084679
:104DE000006840F001000860204600F05FFA10BD46
:104DF0000F49486870472DE9F0478246FFF7DAFF10
:104E00004FF0000980460B4A0023404649460BF00C
:104E10006BFD064632460B46504600210BF064FD02
:104E200004460D4620462946BDE8F087FCED00E02B
:104E3000001000E040420F00704710B50446442CBB
:104E400004D204F11001C8B200F04CFB10BD10B543
:104E500000F0F4FA10BD10B50446442C04D204F15D
:104E60001001C8B200F0E3FB10BD70B504460D465A
:104E70000026442C10D200BF00BF00F0E3FA064623
:104E800000BF00BFBF4840F8245000BF00BF3046FD
:104E900000F0DCFA00BF00BF70BD70B504460D46DF
:104EA0000026442C13D200BF00BF00F0CBFA064608
:104EB00000BF00BF04F11001C8B2294600F0AFFCEA
:104EC00000BF00BF304600F0C1FA00BF00BF70BD98
:104ED000704710B5002404E0AB492046FFF7C5FF3A
:104EE000641C442CF8D310BD70B50446002600BFE6
:104EF00000BF00F0A7FA064600BF00BF02F090FB1B
:104F000000BF00BF304600F0A1FA00BF00BF442C34
:104F100004D29C4850F8245005B1A84702F091FBF8
:104F200070BD10B50020FFF7DFFF10BD10B50120E8
:104F3000FFF7DAFF10BD10B50220FFF7D5FF10BD57
:104F400010B50320FFF7D0FF10BD10B50420FFF708
:104F5000CBFF10BD10B50520FFF7C6FF10BD10B583
:104F60000620FFF7C1FF10BD10B50720FFF7BCFFFB
:104F700010BD10B50820FFF7B7FF10BD10B5092010
:104F8000FFF7B2FF10BD10B50A20FFF7ADFF10BD4F
:104F900010B50B20FFF7A8FF10BD10B50C20FFF7D0
:104FA000A3FF10BD10B50D20FFF79EFF10BD10B57B
:104FB0000E20FFF799FF10BD10B50F20FFF794FFEB
:104FC00010BD10B51020FFF78FFF10BD10B51120D8
:104FD000FFF78AFF10BD10B51220FFF785FF10BD47
:104FE00010B51320FFF780FF10BD10B51420FFF798
:104FF0007BFF10BD10B51520FFF776FF10BD10B573
:105000001620FFF771FF10BD10B51720FFF76CFFDA
:1050100010BD10B51820FFF767FF10BD10B519209F
:10502000FFF762FF10BD10B51A20FFF75DFF10BD3E
:1050300010B51B20FFF758FF10BD10B51C20FFF75F
:1050400053FF10BD10B51D20FFF74EFF10BD10B56A
:105050001E20FFF749FF10BD10B51F20FFF744FFCA
:1050600010BD10B52020FFF73FFF10BD10B5212067
:10507000FFF73AFF10BD10B52220FFF735FF10BD36
:1050800010B52320FFF730FF10BD10B52420FFF727
:105090002BFF10BD10B52520FFF726FF10BD10B562
:1050A0002620FFF721FF10BD10B52720FFF71CFFBA
:1050B00010BD10B52820FFF717FF10BD10B529202F
:1050C000FFF712FF10BD10B52A20FFF70DFF10BD2E
:1050D00010B53220FFF708FF10BD10B53320FFF7E1
:1050E00003FF10BD10B53420FFF7FEFE10BD10B554
:1050F0003520FFF7F9FE10BD10B53620FFF7F4FE9E
:1051000010BD10B53720FFF7EFFE10BD10B53820E9
:10511000FFF7EAFE10BD10B53920FFF7E5FE10BD20
:1051200010B53A20FFF7E0FE10BD10B53B20FFF7A9
:10513000DBFE10BD10B53C20FFF7D6FE10BD10B54C
:105140003D20FFF7D1FE10BD10B53E20FFF7CCFE8D
:1051500010BD10B53F20FFF7C7FE10BD10B54020B1
:10516000FFF7C2FE10BD10B54120FFF7BDFE10BD18
:1051700010B54220FFF7B8FE10BD10B54320FFF771
:10518000B3FE10BD4C170020D14E000810B500240E
:1051900000BF00BF00F056F9044600BF00BF102159
:1051A000A34800F094FE00BF00BF204600F04EF977
:1051B00000BF00BF10BD10B5FFF7E8FF10BD10B570
:1051C00000209C490860FFF7FDFD10BD10B5FFF7FA
:1051D000F6FFFFF7F0FF10BD00BFFEE770B5054614
:1051E0000C46002614B900BFFFF7F6FF15B90A20D8
:1051F000208070BD00BF00BF00F024F9064600BF4C
:1052000000BF10228A49284601F018FB00BF00BFEA
:10521000304600F01BF900BF00BF0020208000BF17
:10522000E7E72DE9F04105460C46002714B900BF19
:10523000FFF7D2FF1DB90A202080BDE8F0811021C0
:10524000284601F0E3FA0646102E15D200BF00BF33
:1052500000F0F8F8074600BF00BF10222946744846
:1052600001F0ECFA00BF00BF384600F0EFF800BFD5
:1052700000BF0020208002E04FF47A70208000BF41
:10528000DBE710B5FFF7B4FD0446204610BD7047BC
:10529000014611B900BFFFF79FFF664A106808B1C9
:1052A000002201E04FF4FA620A8070476149086009
:1052B000704770B50546284600F0CFF80446183C04
:1052C000204670BD70B50546284600F0C6F8044675
:1052D000103C204670BD70B50546284600F0BDF86C
:1052E000044600BF204670BD30B502460B464FF065
:1052F000FF354FF00004AD1A9C4127D24FF0FF3527
:105300002C0CAD1A9C410FD24FF0FF352C0AAD1A70
:105310009C4103D2190E484C605C45E0190C464C88
:10532000645C04F108003FE04FF0FF35FF24AD1A44
:105330009C4105D2190A404C645C04F1100033E032
:1053400019463D4C645C04F118002DE04FF6FF75E2
:105350000024AD1A9C4115D26FF07F450024AD1A90
:105360009C4107D2140E44EA0321334C645C04F1DF
:10537000200019E0140C44EA03412F4C645C04F152
:10538000280011E0FF250024AD1A9C4107D2140A21
:1053900044EA0361284C645C04F1300004E01146E7
:1053A000254C645C04F1380030BD70B504460CB97E
:1053B000082070BD204600F053F805462846F8E75F
:1053C00070B504460CB9102070BD204600F048F8B6
:1053D00005462846F8E770B504460CB9202070BD94
:1053E000204600F03DF805462846F8E72DE9F04351
:1053F00004460D464FF0000184EA010085EA0101F0
:10540000084302D14020BDE8F083E243E843521C48
:1054100040F1000102EA040601EA05073046394678
:10542000FFF762FF8046C8F13F094846EBE70000FE
:105430005C1800208C0000204429010872B67047D7
:1054400062B67047EFF3108072B6704780F3108831
:10545000704730BF704720BF7047B0FA80F0704788
:1054600090FAA0F0B0FA80F0704790FAA0F0704780
:1054700010B5B0F1005F0AD3F84CA04207D8440140
:1054800004EB810303F10852002414600CE0B0F136
:10549000804F09D3F24CA04206D8440104EB8103AB
:1054A00003F184420024146010BD10B5B0F1005F18
:1054B0000AD3EA4CA04207D8440104EB810303F16C
:1054C0000852012414600CE0B0F1804F09D3E44C81
:1054D000A04206D8440104EB810303F18442012475
:1054E000146010BD2DE9F04104464FF00008102C67
:1054F0006BD2DFE804F0080E0F1014293E090A0BE6
:105500000C11120D135300BF00BF00BF00BF00BF3E
:105510008AE000BF00BF00BF00BF00BF84E000BF43
:1055200000BFFFF78FFF804600BF00BFCD48006877
:1055300020F48030CB49086000BF00BF4046FFF731
:1055400085FF00BF00BF6FE000BF00BFFFF77AFF1D
:10555000804600BF00BFC348006820F40030C14946
:10556000086000BF00BF4046FFF770FF00BF00BFEC
:105570005AE000BF00BFFFF765FF804600BF00BFD5
:10558000B848006820F48020B649086000BF00BF1A
:105590004046FFF75BFF00BF00BF45E000BF00BF14
:1055A000FFF750FF804600BF00BF4FF0E0200069CA
:1055B00020F001004FF0E021086100BF00BF40462D
:1055C000FFF744FF00BF00BF2EE04FF0E02040682F
:1055D000401C102101EB4010C6B2B44223DAA4F102
:1055E0001000C11700EBD161C1F34715C11700EBE3
:1055F000D1614911A0EB4111CFB200BF00BFFFF74D
:1056000021FF804600BF00BF0120B8404FF0E021DD
:1056100001EB8501C1F8800100BF00BF4046FFF7E4
:1056200015FF00BF00BF00BF00BFBDE8F0812DE93E
:10563000F04104464FF00008102C6BD2DFE804F074
:10564000080E0F1014293E090A0B0C11120D1353EA
:1056500000BF00BF00BF00BF00BF8AE000BF00BFA7
:1056600000BF00BF00BF84E000BF00BFFFF7EAFE3D
:10567000804600BF00BF7B48006840F48030794915
:10568000086000BF00BF4046FFF7E0FE00BF00BF5C
:105690006FE000BF00BFFFF7D5FE804600BF00BF30
:1056A0007048006840F400306E49086000BF00BFD9
:1056B0004046FFF7CBFE00BF00BF5AE000BF00BF6F
:1056C000FFF7C0FE804600BF00BF6648006840F498
:1056D00080206449086000BF00BF4046FFF7B6FE67
:1056E00000BF00BF45E000BF00BFFFF7ABFE804634
:1056F00000BF00BF4FF0E020006940F001004FF014
:10570000E021086100BF00BF4046FFF79FFE00BFD9
:1057100000BF2EE04FF0E0204068401C102101EB5C
:105720004010C7B2BC4223DAA4F11000C11700EB4D
:10573000D161C1F34715C11700EBD1614911A0EB4D
:105740004111CEB200BF00BFFFF77CFE804600BF14
:1057500000BF0120B0404FF0E02101EB8501C1F80E
:10576000000100BF00BF4046FFF770FE00BF00BF52
:1057700000BF00BFBDE8F0812DE9F04104464FF0C5
:105780000008102C19D2DFE804F0080E0F101115D4
:1057900016090A0B0C12130D141700BF00BF00BF2F
:1057A00000BF00BF38E000BF00BF00BF00BF00BFA8
:1057B00000BF00BF00BF00BF2EE04FF0E0204068F8
:1057C000401C102101EB4010C7B2BC4223DAA4F107
:1057D0001000C11700EBD161C1F34715C11700EBF1
:1057E000D1614911A0EB4111CEB200BF00BFFFF75C
:1057F00029FE804600BF00BF0120B0404FF0E021ED
:1058000001EB8501C1F8800200BF00BF4046FFF7F1
:105810001DFE00BF00BF00BF00BFBDE8F0812DE945
:10582000F05F06460D464FF0000B2846FFF71DFEC1
:1058300082464FEA1A65102E71D2DFE806F008158D
:105840001617182D43090A0B0C59710D879E00BFBE
:1058500000BF00BF00BF00BFDFE00000FFFF0F2060
:10586000FFFF0F4024ED00E000BF00BFD5E000BF08
:1058700000BFFFF7E7FD834600BF00BFD8480468BC
:1058800024F0FF042C43046000BF00BF5846FFF71C
:10589000DDFD00BF00BFC0E000BF00BFFFF7D2FDCD
:1058A000834600BF00BFCE48046824F47F4444EA26
:1058B0000524046000BF00BF5846FFF7C7FD00BFC6
:1058C00000BFAAE000BF00BFFFF7BCFD834600BFDA
:1058D00000BFC348046824F47F0444EA054404601C
:1058E00000BF00BF5846FFF7B1FD00BF00BF94E006
:1058F00000BF00BFFFF7A6FD834600BF00BFB8484A
:10590000001D046824F07F4444EA0564046000BF7D
:1059100000BF5846FFF79AFD00BF00BF7DE043E09F
:1059200000BF00BFFFF78EFD834600BF00BFAC483D
:105930000830046824F0FF042C43046000BF00BF5B
:105940005846FFF783FD00BF00BF66E000BF00BF01
:10595000FFF778FD834600BF00BFA1480830046808
:1059600024F47F0444EA0544046000BF00BF5846A5
:10597000FFF76CFD00BF00BF4FE000BF00BFFFF7A7
:1059800061FD834600BF00BF95480830046824F0DD
:105990007F4444EA0564046000BF00BF5846FFF737
:1059A00055FD00BF00BF38E04FF0E0204068401CCC
:1059B000102101EB401000F0FF094E452CDAA6F152
:1059C0001000C11700EB9171C1F38707C11700EBFD
:1059D00091718910A0EB810101F0FF0800BF00BFA9
:1059E000FFF730FD834600BF00BF7E4850F82740D8
:1059F0004FEAC801FF20884084434FEAC80105FAF6
:105A000001F00443774840F8274000BF00BF5846E4
:105A1000FFF71CFD00BF00BF00BF00BFBDE8F09F47
:105A20002DE9F05F06464FF0000B102E70D2DFE834
:105A300006F0080F1215182A3D090A0B0C495C0DD7
:105A4000708400BF00BF00BF00BF00BF664CBAE05B
:105A50006FF00204B7E06FF00104B4E04FF0FF34E0
:105A6000B1E000BF00BFFFF7EDFC834600BF00BF01
:105A70005B480568ECB200BF00BF5846FFF7E6FC84
:105A800000BF00BF9FE000BF00BFFFF7DBFC834605
:105A900000BF00BF52480568C5F3072400BF00BF20
:105AA0005846FFF7D3FC00BF00BF8CE000BF00BF2B
:105AB000FFF7C8FC834600BF00BF49480568C5F32F
:105AC000074480E000BF00BFFFF7BCFC834600BF77
:105AD00000BF4348001D05682C0E00BF00BF58469C
