:020000040800F2
:10000000B8C9002051320008593200085B3200089C
:100010005D3200085F320008613200080000000015
:100020000000000000000000000000006332000833
:1000300065320008000000004B1801083DF200087E
:10004000F72C00086B3200086B3200086B32000896
:100050006B3200086B3200086B3200086B3200080C
:100060006B3200086B3200086B3200086B320008FC
:100070006B3200086B3200086B3200086B320008EC
:100080006B3200086B3200086B3200086B320008DC
:10009000253200086B3200086B3200086B32000812
:1000A0006B3200086B3200086B3200086B320008BC
:1000B0006B3200086B3200086B3200086B320008AC
:1000C0006B3200086B3200086B3200086B3200089C
:1000D0006B3200086B3200086B320008D72600082C
:1000E0006B3200086B3200086B3200086B3200087C
:1000F0006B3200086B3200086B3200086B3200086C
:100100006B3200086B3200086B3200086B3200085B
:100110006B3200086B3200086B3200086B3200084B
:100120006B3200086B3200086B3200086B3200083B
:10013000DFF80CD011F07CFA00480047694C000849
:10014000B8C90020014600BF704700BF584A128856
:1001500012F0400FFAD0C2B2564B1A80704710B559
:1001600004F06CFE10BD5448806940F00100524913
:1001700088615248406820F0E06050494860084675
:10018000406840F080604860704708B54FF4806078
:1001900003F070F827208DF8000000208DF8010092
:1001A0008DF8020001208DF80300684603F067F81F
:1001B00025208DF8000000208DF801008DF8020048
:1001C00001208DF80300684603F059F834208DF8BB
:1001D000000000208DF801008DF8020001208DF84C
:1001E0000300684603F04BF826208DF8000000203D
:1001F0008DF801008DF8020001208DF8030068469B
:1002000003F03DF808BD10B586B004460121052075
:1002100004F0E9F80121480404F0F2F80420ADF8F4
:10022000140018208DF8170003208DF8160005A97A
:10023000234803F005FE0820ADF8140004208DF8D3
:10024000170003208DF8160005A91D4803F0F8FDDE
:1002500001940020ADF80800ADF80A00ADF80C00DC
:10026000ADF810000C20ADF80E0001A9104804F004
:10027000F4FAFFF78AFF012240F225510C4804F0FE
:1002800084FB01210A4804F074FB06B010BD7047DE
:1002900010B5FFF764FFFFF7FAFF4FF4E130FFF707
:1002A000B2FFFFF772FF01F036FD02F02EFC10BD29
:1002B000004400400444004000100240000001409F
:1002C0000008014010B501F01BFE10BD10B5112251
:1002D0008021864801F092FC10BD2DE9F0470646CA
:1002E00001F05BFA8146FFF7F1FF804801F03EFA2A
:1002F000044602467EA1484601F030F900204FF046
:10030000804101F021FA044602467CA1484601F0F2
:1003100025F9304610F0B3FF044601F015FA804687
:10032000024679A1484601F019F9484601F0B5F8AE
:100330008246504610F041FE87B23946504602F0E0
:1003400097FB484600F05AF9504612F02FF8BDE8E6
:10035000F0872DE9F04781468A46144601F01DFAE0
:100360000646FFF7B3FF614801F000FA80460246F7
:100370005FA1304601F0F2F80020674901F0E4F98E
:10038000804602465DA1304601F0E8F800200146B3
:1003900001F0DAF98046024660A1304601F0DEF84D
:1003A000204601F0E3F9804602465EA1304601F0A6
:1003B000D5F8304601F071F80746384610F0FDFDDB
:1003C00085B22946384602F053FB304600F016F954
:1003D000384611F0EBFFBDE8F0872DE9F04F85B00E
:1003E0000446884601F0D9F904900027B946FFF782
:1003F0006DFF3E4801F0BAF9834602463CA10498DD
:1004000001F0ACF80020014601F09EF98346024657
:100410003AA1049801F0A2F8002000900190029007
:10042000039000250DE0611C4A5D0DEB070040A123
:1004300011F060FA00F0FF0907EB0900C7B2681C71
:10044000C5B2607AA842EEDC684601F08FF98346B7
:1004500002464146049801F081F8049801F01DF825
:100460008246504610F0A9FD86B23146504602F051
:10047000FFFA049800F0C2F8504611F097FF05B05B
:10048000BDE8F08F70B505461CA1284601F027F89D
:10049000044614B16069C0B270BD0020FCE770B5BD
:1004A000054619A1284601F01AF8044614B16069FE
:1004B000C0B270BD0020FCE73EB5044602AB00228E
:1004C000CDE9002313462246002108460DF06BFEBD
:1004D0003EBD3EB5044602AB0022CDE900232346D3
:1004E000114610460DF05FFE3EBD000014120020C4
:1004F0006465766963656964000000006D73675F19
:1005000074797065000000006865617274626561ED
:10051000745F636F756E74000000104073746174D3
:1005200075730000636D645F74797065000000008E
:100530002530327800000000F8480068704770B538
:1005400004460D462CB9AC4201D0012070BD0020FC
:10055000FCE70DB90120F9E705E0207808B9002093
:10056000F4E7641C6D1C207810F0DDFC064628784A
:1005700010F0D9FC8642F0D0207810F0D4FC06466A
:10058000287810F0D0FC301AE0E770B50446204619
:1005900010F013FD451C2846E1490968884706000C
:1005A00000D170BD2A462146304610F0C2FC3046CC
:1005B000F7E730B9DB49DA4A1160DB49DB4A116001
:1005C0007047016809B1016800E0D649D44A11605A
:1005D000416809B1416800E0D349D44A116000BFC5
:1005E000EEE710B52820CE490968884704461CB1BB
:1005F0002821204610F0B6FC204610BD70B50446F8
:100600001EE02568E06810F4807F04D1A06810B176
:10061000A068FFF7F3FFE06810F4807F05D1206940
:1006200018B1C249206909688847206A18B1BF49D2
:10063000206A096888472046BC49096888472C46D3
:10064000002CDED170BD2DE9F04F8BB083468A4679
:100650000020044605460026B54F002188468946FD
:100660000990012008909AF800002D2802D1B14F7E
:100670000AF1010A9AF80000302801D10AF1010AB2
:100680009AF80000312822DB9AF8000039281EDC95
:1006900000BF1AF8011BA1F1300010F0DFFD0022AD
:1006A000A54BCDE906012046294610F066FDCDE9AF
:1006B0000401DDE9062310F0BBFC04460D469AF860
:1006C0000000302803DB9AF800003928E1DD9AF8B1
:1006D00000002E2830D19AF8010030282CDB9AF83F
:1006E0000100392828DC0AF1010A00BF1AF8011BB1
:1006F000A1F1300010F0B2FD00228F4BCDE90601D0
:100700002046294610F039FDCDE90401DDE9062334
:1007100010F08EFC04460D460022854B40464946AB
:1007200010F025FD804689469AF80000302803DB4A
:100730009AF800003928D9DD9AF80000652803D01E
:100740009AF80000452823D10AF1010A9AF800001E
:100750002B2802D10AF1010A08E09AF800002D289E
:1007600004D14FF0FF3008900AF1010A08E01AF8AE
:10077000010B3038099901EB810100EB4100099030
:100780009AF80000302803DB9AF800003928EEDDE3
:10079000DDE9082101FB02F010F060FD42464B4606
:1007A000CDE9000110F044FC02460B46CDE9020100
:1007B0000020614911F058FE22462B46CDE9060182
:1007C0003046394610F0D9FCCDE90401DDE90623B5
:1007D00010F0D3FC04460D46CBE9064520462946D9
:1007E00010F05AFDCBF814000320CBF80C00504653
:1007F0000BB0BDE8F08F2DE9F05F8146D9E90645E1
:10080000D9F8140010F02AFD064622462B4610F0B7
:10081000AEFC21F0004182460022484B10F072FDF0
:100820001CD8474A474B2046294610F06BFD15D887
:100830000022454B2046294610F078FD0ED81520A1
:100840003749096888478046B8F1000F4DD03FA16D
:100850004046D9F8142011F04DF846E040203049C8
:10086000096888478046B8F1000F3ED020462946E7
:1008700011F02EFD064622462B4610F078FC21F0A2
:100880000041824600222D4B10F03CFD0FD825F090
:10089000004126462E4A2F4B204610F033FD06D24B
:1008A00022462B462CA1404611F024F81DE025F0ED
:1008B000004126462A4A2B4B204610F023FD07D341
:1008C00025F000410022284B204610F02FFD06D2D3
:1008D00022462B4625A1404611F00CF805E02246A1
:1008E0002B4623A1404611F005F84046BDE8F09F95
:1008F000014600220878302806DB0878392803DC16
:1009000008783038024441E00878412832DB087822
:1009100046282FDC08783738024437E010000020E2
:1009200008000020FD230108AD2301080C00002071
:100930000000F03F0000F0BF000024400000B03C89
:100940000000C0FFFFFFDF410000E0C125640000A0
:1009500044F3C2E4E4E9634C252E30660000000055
:100960008DEDB5A0F7C6B03E65CDCD412565000043
:10097000256600000878612806DB0878662803DC15
:1009800008785738024401E0002070471201491CE2
:100990000878302806DB0878392803DC08783038F6
:1009A000024415E00878412806DB0878462803DC75
:1009B0000878373802440BE00878612806DB0878AD
:1009C000662803DC08785738024401E00020DCE7A1
:1009D0001201491C0878302806DB0878392803DC26
:1009E00008783038024415E00878412806DB08789A
:1009F000462803DC0878373802440BE00878612881
:100A000006DB0878662803DC08785738024401E0E2
:100A10000020BAE71201491C0878302806DB087864
:100A2000392803DC08783038024415E0087841287A
:100A300006DB0878462803DC0878373802440BE0E8
:100A40000878612806DB0878662803DC08785738C0
:100A5000024401E0002098E7104696E72DE9F05F98
:100A60008346884608F10104002798F800002228F0
:100A700005D0F948C0F800800020BDE8F09F04E0F0
:100A800014F8011B5C2900D1641C2078222804D0B2
:100A9000207810B1781C0700F2D1781CEF49096862
:100AA00088478146B9F1000F01D10020E5E708F140
:100AB00001044D469EE020785C2804D014F8010B18
:100AC00005F8010B96E0641C2078722818D006DC2B
:100AD000622809D066280BD06E287ED10CE07428DD
:100AE00012D0752879D113E0082005F8010B7FE0BA
:100AF0000C2005F8010B7BE00A2005F8010B77E0DC
:100B00000D2005F8010B73E0092005F8010B6FE0DB
:100B1000601CFFF7EDFE0646241DB6F55C4F02D3C0
:100B2000B6F5604F00D306B962E0B6F5584F1CD356
:100B3000B6F55C4F19D260785C2802D1A078752890
:100B400000D055E0E01CFFF7D3FE8246A41DBAF5A5
:100B50005C4F02D3BAF5604F00D349E0C6F30901F8
:100B6000504661F39F2000F580360427802E01D285
:100B7000012708E0B6F5006F01D2022703E0B6F5C1
:100B8000803F00D203273D44012F20D0022F15D0F3
:100B9000032F0AD0042F24D106F0BF0040F08000BC
:100BA000691E0D460870B60900BF06F0BF0040F090
:100BB0008000691E0D460870B60900BF06F0BF0030
:100BC00040F08000691E0D460870B60900BFA448B9
:100BD000C05D3043C1B2681E00E005E0054601700B
:100BE00000BF00BF3D4403E0207805F8010B00BFC3
:100BF00000BF641C2078222803D0207800287FF4CE
:100C00005AAF002028702078222800D1641CCBF82D
:100C100010900420CBF80C0020462EE72DE9F04779
:100C200007464FF000082FB9AFF2D020FFF7ADFC18
:100C3000BDE8F0873D460DE049468AA010F0B4F9C2
:100C400010B108F1010804E0B9F1200F01DA08F150
:100C500005086D1C95F80090B9F1000F04D008F15B
:100C600001005FEA0008E7D108F103007B49096849
:100C7000884706460EB90020DAE734463D46222072
:100C800004F8010B47E028781F280ADD287822287D
:100C900007D028785C2804D015F8010B04F8010B64
:100CA00039E05C2004F8010B15F8011B89460C297A
:100CB00019D006DC082912D0092920D00A2922D10E
:100CC00015E00D2917D0222905D05C291BD15C2005
:100CD00004F8010B1EE0222004F8010B1AE0622048
:100CE00004F8010B16E0662004F8010B12E06E20F8
:100CF00004F8010B0EE0722004F8010B0AE07420E6
:100D000004F8010B06E04A4658A1204610F0F2FD17
:100D1000641D00BF00BF28780028B4D1222004F849
:100D2000010B002004F8010B304681E710B50446A2
:100D30002069FFF773FF10BD00E0401C20B101786F
:100D400011B101782029F8DD70472DE9F0470646FA
:100D50000C4620787B2804D03F4804600020BDE882
:100D6000F0870620F060601CFFF7E6FF044620785D
:100D70007D2801D1601CF2E7FFF733FC0546B06027
:100D8000B06808B90020EAE72046FFF7D5FF8046A3
:100D900001462846FFF762FE0746FFF7CDFF0446EF
:100DA0000CB90020DBE72869286200202861207840
:100DB0003A2803D0284804600020D0E7601CFFF7E1
:100DC000BBFF80460146284600F0A7F80746FFF71C
:100DD000B3FF04460CB90020C1E731E0FFF701FC86
:100DE000070000D1BBE72F607D603D46601CFFF728
:100DF000A3FF814601462846FFF730FE8046FFF7F5
:100E00009BFF04460CB90020A9E72869286200204E
:100E1000286120783A2803D00F48046000209EE71C
:100E2000601CFFF789FF81460146284600F075F8EF
:100E30008046FFF781FF04460CB900208FE700BF12
:100E400020782C28CAD020787D2801D1601C86E724
:100E500001480460002082E7100000200800002004
:100E60008A2E0108225C080C0A0D09007525303411
:100E7000780000002DE9F04705460C4620785B28F5
:100E800004D0FC4804600020BDE8F0870520E8603D
:100E9000601CFFF751FF044620785D2801D1601CDB
:100EA000F2E7FFF79EFB0646A860A86808B9002095
:100EB000EAE72046FFF740FF80460146304600F053
:100EC0002CF80746FFF738FF04460CB90020DBE793
:100ED00017E0FFF786FB070000D1D5E737607E609B
:100EE0003E46601CFFF728FF81460146304600F071
:100EF00014F88046FFF720FF04460CB90020C3E732
:100F000000BF20782C28E4D020785D2801D1601C17
:100F1000BAE7D84804600020B6E770B505460C462D
:100F20000CB9002070BD0422D3A1204610F064F853
:100F300018B90220E860201DF4E70522D0A1204660
:100F400010F05AF818B90020E860601DEAE70422A2
:100F5000CDA1204610F050F820B90120E86068616A
:100F6000201DDFE72078222804D121462846FFF7FC
:100F700075FDD7E720782D2805D02078302807DBAD
:100F80002078392804DC21462846FFF75CFBC9E7B6
:100F900020785B2804D121462846FFF76BFFC1E784
:100FA00020787B2804D121462846FFF7CEFEB9E7FA
:100FB000B04804600020B5E72DE9F04780460D46B3
:100FC00016460024FFF70DFB07460020A9490860DC
:100FD0000FB9BDE8F0874046FFF7AEFE81460146F7
:100FE0003846FFF79AFF044624B93846FFF706FB58
:100FF0000020EEE766B12046FFF79EFE044620780B
:1010000030B13846FFF7FAFA9A4804600020E0E76A
:1010100005B12C603846DCE710B5044600221146C5
:101020002046FFF7C9FF10BD2DE9F74F88B088466D
:1010300016464FF00009CA4600200790072004908A
:10104000002508988068029000270020019003E0A6
:101050007F1C02980068029002980028F8D14FBBCC
:1010600016B108F1040100E0032108468849096827
:1010700088470790079818B900200BB0BDE8F08F9B
:10108000079C7B2004F8010B66B10A2004F8010BD1
:10109000002503E0092004F8010B6D1CA8F10100F4
:1010A000A842F7DC7D2004F8010B002004F8010BB6
:1010B0000798E2E7B8007649096888478146B9F1A0
:1010C000000F01D10020D8E7B800714909688847AE
:1010D0008246BAF1000F05D148466E490968884733
:1010E0000020CAE7B90048460FF03CFFB90050465F
:1010F0000FF038FF08988068029008F1010816B1D7
:101100000498404404902DE00299086AFFF786FD98
:1011100005904AF8250032464146029800F07CF9D5
:1011200029466D1C069049F821000598A8B106983B
:1011300098B106980FF041FF834605980FF03DFFE8
:101140000BEB0001891C16B108F1020000E0002041
:10115000014404980844049001E0012001900298A1
:101160000068029002980028CED1019820B9484921
:101170000498096888470790079808B901200190EA
:101180000198F0B1002510E05AF8250020B15AF876
:10119000250040490968884759F8250020B159F8C9
:1011A00025003C49096888476D1CBD42ECDB504670
:1011B0003849096888474846364909688847002001
:1011C0005BE77B21079801700798441C16B10A2041
:1011D00004F8010B0020207000253EE05EB10020E5
:1011E000039005E0092004F8010B0398401C0390CC
:1011F00003984045F6DB5AF8251020460FF0F3FE21
:101200005AF825000FF0D9FE04443A2004F8010BE7
:1012100016B1092004F8010B59F8251020460FF0EB
:10122000E2FE59F825000FF0C8FE0444781EA842DB
:1012300002D02C2004F8010B16B10A2004F8010B8F
:10124000002020705AF8250012490968884759F88B
:1012500025001049096888476D1CBD42BEDB504619
:101260000C490968884748460A4909688847DEB139
:10127000002515E0100000206E756C6C0000000069
:1012800066616C7365000000747275650000000093
:10129000080000200C000020092004F8010B6D1C40
:1012A000A8F10100A842F7DC7D2004F8010B002022
:1012B00004F8010B0798E0E62DE9F74F82B083466A
:1012C0004FF0000805200190DBF80890002700256A
:1012D0000020009002E07F1CD9F80090B9F1000FC7
:1012E000F9D17FB90320FF49096888478046B8F1E2
:1012F000000F03D0FCA140460FF075FE404605B03C
:10130000BDE8F08FB800F7490968884706460EB96E
:101310000020F4E7B90030460FF024FEDBF8089017
:101320001FE0DDE90312491C484600F075F88246CB
:1013300029466D1C46F821A0BAF1000F0DD0504689
:101340000FF03BFE801C049909B1012100E000214F
:10135000014401980844019001E001200090D9F86F
:101360000090B9F1000F02D000980028D9D0009861
:1013700020B9DC490198096888478046B8F1000F18
:1013800001D101200090009890B1002508E056F8A6
:10139000250020B156F82500D449096888476D1CFE
:1013A000BD42F4DB3046D149096888470020A6E7F2
:1013B0005B2088F8000008F101040020207000255F
:1013C0001CE056F8251020460FF00DFE56F82500BB
:1013D0000FF0F3FD0444781EA84209D02C2004F835
:1013E000010B049810B1202004F8010B002020709C
:1013F00056F82500BD49096888476D1CBD42E0DBF1
:101400003046BA49096888475D2004F8010B00207E
:1014100004F8010B404672E72DE9F04104460D4601
:101420001646002714B90020BDE8F081E068C0B27C
:1014300007282FD2DFE800F00A1004161B2027002F
:10144000AFF2CC10FFF7A1F8074623E0AFF2D010BF
:10145000FFF79BF807461DE0AFF2D410FFF795F8B1
:10146000074617E02046FFF7C6F9074612E0204678
:10147000FFF75CFC07460DE0324629462046FFF7A1
:101480001BFF074606E0324629462046FFF7CCFD03
:10149000074600BF00BF3846C6E710B50446012224
:1014A00000212046FFF7B8FF10BD10B5044600220A
:1014B00011462046FFF7B0FF10BD01468A680020A4
:1014C00001E0401C1268002AFBD170470246906878
:1014D00001E0491E006808B10029FADC704770B5C8
:1014E00005460E46AC6800E024682CB13146206AFF
:1014F000FFF725F80028F7D1204670BD016048604D
:10150000704770B50546FFF76CF804460CB900202B
:1015100070BD2822294620460FF00BFD00202062D6
:10152000E06840F48070E060002060602060204649
:10153000EEE770B505460E46AC6806B970BD0CB94D
:10154000AE6009E000E0246814B120680028FAD1F8
:1015500031462046FFF7D2FF00BFEFE770B50646E1
:101560000D46144604B970BD206A18B15F49206A5F
:10157000096888472846FFF708F820622146304668
:10158000FFF7D7FF00BFEEE770B505460C462046D3
:10159000FFF7B7FF064601462846FFF7CAFF70BDB2
:1015A0002DE9F04105460E4614462046FFF7A9FFF7
:1015B0000746024631462846FFF7D0FFBDE8F081D6
:1015C00010B502460B46916801E009685B1E09B13F
:1015D000002BFADC09B9002010BD486810B1D1E930
:1015E00000042060086810B1D1E900406060906894
:1015F000884201D108689060002008604860084671
:10160000EAE770B504460D4629462046FFF7D8FFA5
:101610000646FEF7F3FF70BD2DE9F04105460F4683
:101620000026AC6801E0761C24682CB13946206A9B
:10163000FEF785FF0028F6D12CB131462846FFF78A
:10164000BFFFBDE8F0810020FBE770B504460D4602
:1016500029462046FFF7E0FF0646FEF7CFFF70BDA4
:101660002DE9F04106460F461446B56801E02D68A5
:101670007F1E0DB1002FFADC0DB9BDE8F08128689E
:10168000206068686060206808B120684460B068C5
:10169000A84201D1B46001E0606804600020686085
:1016A00028602846FEF7AAFF00BFE6E72DE9F041D3
:1016B00005460E4617464FF00008AC6802E008F1F8
:1016C000010824682CB13146206AFEF738FF002853
:1016D000F5D17CB13046FEF758FF38623A464146B4
:1016E000284605E0080000205B5D00000C0000209B
:1016F000FFF7B6FFBDE8F08110B5FEF772FF0446B4
:101700000CB10220E060204610BD10B5FEF769FF65
:1017100004460CB10120E060204610BD10B5FEF774
:1017200060FF04460CB10020E060204610BD70B59B
:101730000546FEF756FF044624B10DB1012000E036
:101740000020E060204670BD70B504460D46FEF7EF
:1017500048FF064646B10320F060C6E9064520462C
:1017600029460FF099FD7061304670BD70B5054691
:10177000FEF737FF04462CB10420E0602846FEF750
:1017800004FF2061204670BD10B5FEF72AFF044615
:101790000CB10520E060204610BD10B5FEF721FF1A
:1017A00004460CB10620E060204610BD2DE9F05F34
:1017B00081468A460027BB46FFF7E6FF80460026A3
:1017C00011E059F826000FF049FD0446FFF7BCFF71
:1017D000074616B9C8F8087003E039465846FFF7BF
:1017E0008DFEBB46761CB8F1000F01D05645E8DBF4
:1017F0004046BDE8F09F2DE9F05F81468A4600270C
:10180000BB46FFF7C1FF8046002611E059F82600CD
:101810000FF061FD0446FFF797FF074616B9C8F8B9
:10182000087003E039465846FFF768FEBB46761C51
:10183000B8F1000F01D05645E8DB4046BDE8F09F07
:101840002DE9F047074688460025A946FFF79CFF8B
:101850000646002410E007EBC400D0E90021104642
:10186000FFF772FF05460CB9B56003E0294648460C
:10187000FFF744FEA946641C0EB14445EBDB30463D
:10188000BDE8F0872DE9F047074688460025A946C0
:10189000FFF77AFF064600240DE057F82400FFF713
:1018A00065FF05460CB9B56003E029464846FFF7D9
:1018B00025FEA946641C0EB14445EEDB3046BDE86A
:1018C000F0872DE9F047054689464FF0000815B925
:1018D0000020BDE8F087FEF784FE04460CB9002026
:1018E000F7E7E86820F48070E06068696061D5E936
:1018F0000601C4E90601286950B12869FEF745FED2
:101900002061206920B92046FEF778FE0020E0E73C
:10191000286A50B1286AFEF738FE2062206A20B992
:101920002046FEF76BFE0020D3E7B9F1000F01D18E
:101930002046CEE7AF6816E001213846FFF7C1FF29
:10194000064626B92046FEF759FE0020C1E7B8F149
:10195000000F05D0C8F80060C6F80480B04601E06A
:10196000A660B0463F68002FE6D12046B1E70146A9
:1019700054E00278202A01D1401C4FE00278092A65
:1019800001D1401C4AE002780D2A01D1401C45E0FB
:1019900002780A2A01D1401C40E002782F2A0AD19D
:1019A00042782F2A07D100E0401C02788AB30278DF
:1019B0000A2A33D0F8E702782F2A0ED142782A2A51
:1019C0000BD100E0401C02782AB102782A2AF9D112
:1019D00042782F2AF6D1801C20E00278222A19D1E1
:1019E00010F8012B01F8012B0AE002785C2A03D1E0
:1019F00010F8012B01F8012B10F8012B01F8012B35
:101A0000027812B10278222AEFD110F8012B01F8E6
:101A1000012B03E010F8012B01F8012B0278002ABA
:101A2000A7D10A707047000000B587B001210C20D3
:101A300002F0D9FC0121880302F0E2FC4FF460407F
:101A4000ADF8040003208DF8060018208DF807007B
:101A500001A9C24802F0F4F94FF48050ADF8040037
:101A600003208DF8060010208DF8070001A9BB485F
:101A700002F0E6F94FF48051B84802F08CFA0020E9
:101A8000ADF808004FF48270ADF80A000020ADF800
:101A90000C000220ADF80E000120ADF8100040024D
:101AA000ADF812000820ADF814000020ADF81600C3
:101AB0000720ADF8180002A9A94802F029FD01216C
:101AC000A74802F0C8FD07B000BD10B50446214686
:101AD000A34802F0F6FD00BF0221A14802F044FE37
:101AE0000028F9D000BF01219D4802F03DFE0028EA
:101AF000F9D09B4802F0E7FDC0B210BD10B5A5209B
:101B0000FFF7E3FF10BD70B504460D4645EA04211A
:101B1000934802F0D6FD00BF0221914802F024FE56
:101B20000028F9D000BF01218D4802F01DFE0028D9
:101B3000F9D08B4802F0C7FDC0B270BD10B50446A5
:101B400044F08000002242EA0021854802F0B9FDFD
:101B500000BF0221824802F007FE0028F9D000BF32
:101B600001217F4802F000FE0028F9D07C4802F0F5
:101B7000AAFDC0B210BD10B500244FF480517748C3
:101B800002F00BFA0520FFF7A0FF00BFA520FFF72A
:101B90009CFF044604F001000128F7D04FF4805167
:101BA0006E4802F0F8F910BD10B50446FFF7E3FFE8
:101BB0004FF48051694802F0F0F90620FFF785FFE5
:101BC0004FF48051654802F0E6F9FFF7D4FF4FF477
:101BD0008051624802F0E1F9D820FFF776FF200C2F
:101BE000FFF773FF200AFFF770FFE0B2FFF76DFF0A
:101BF0004FF48051594802F0CEF910BD2DE9F04163
:101C000006460C461746FFF7B6FF4FF4805153487F
:101C100002F0C3F90320FFF758FFC4F30740FFF7B2
:101C200054FFC4F30720FFF750FFE0B2FFF74DFF6A
:101C3000002503E0FFF762FF70556D1CBD42F9D32C
:101C40004FF48051454802F0A6F9BDE8F0812DE936
:101C5000F04106460C461746FFF78DFF4FF48051C2
:101C60003E4802F09AF90620FFF72FFF4FF480510B
:101C70003A4802F090F9FFF77EFF4FF48051374861
:101C800002F08BF90220FFF720FFC4F30740FFF7B3
:101C90001CFFC4F30720FFF718FFE0B2FFF715FFA2
:101CA000002503E0705DFFF710FF6D1CBD42F9D306
:101CB0004FF48051294802F06EF9BDE8F08108B573
:101CC000002000904FF48051244802F066F99F20D4
:101CD000FFF7FBFEFFF712FF8DF80000FFF70EFF86
:101CE0008DF80100FFF70AFF8DF802004FF48051D4
:101CF0001A4802F050F99DF80000202809D19DF8FB
:101D00000100202805D19DF80200152801D10020EE
:101D100008BDFF20FCE7F8B5FFF786FE0A200DF0AE
:101D2000F2FAFFF7CCFFC0B100BF68460CF016FC1A
:101D300004460C48007810F0010F0DD060086421B3
:101D4000B0FBF1F201FB1205C820B4FBF0F62A4605
:101D5000314605A00FF0AAFD00BFF8BD000C014000
:101D600000380040040000205B253034642E25300C
:101D700032642F455D3A20666C6173682069642087
:101D8000636865636B206661696C65640D0A0D0AA2
:101D9000000000000023C38003810160828070473F
:101DA0000146C8880A89904201D10120704700206D
:101DB000FCE70146CA880B899A4204DDCA880B8970
:101DC000D21A90B205E08A880B89D21ACB881A44BD
:101DD00090B270472DE9F04104460F461646E08860
:101DE0002189884204DDE0882189401A85B205E016
:101DF000A0882189401AE188084485B2B54202DAF8
:101E00000020BDE8F081E088218988420ADD22892E
:101E100021688818324639460FF08BF82089304403
:101E200020811EE0A0882189401A85B2B5420ADDD2
:101E3000228921688818324639460FF07AF82089BD
:101E4000304420810DE02289216888182A463946CD
:101E50000FF06FF8721B791920680FF06AF8701B89
:101E600020810120CDE72DE9F04104460F461646BA
:101E7000E0882189884206DDA088E188401A21890E
:101E8000084485B203E02089E188401A85B2B54252
:101E900002DA0020BDE8F081E088218988421FDD58
:101EA000A088E188401A85B2B5420ADDE288206840
:101EB0008118324638460FF03CF8E0883044E08024
:101EC00018E0E288206881182A4638460FF031F879
:101ED000721B781921680FF02CF8701BE08009E064
:101EE000E28820688118324638460FF022F8E088F0
:101EF0003044E0800120CDE700BF00BF7047000004
:101F0000FF4800787047FE49087070473EB50446A8
:101F100002AB0022CDE900231346224600210846E9
:101F20000CF041F93EBD3EB5044602AB0022CDE9BE
:101F300000232346114610460CF035F93EBD7CB512
:101F400000BF68460CF00AFB0446EE48007810F02B
:101F5000020F0ED060086421B0FBF1F201FB120504
:101F6000C820B4FBF0F6E84B2A463146E7A00FF054
:101F70009DFC00BF0121102002F035FA4FF4004013
:101F8000ADF8040010208DF8070003208DF806003E
:101F900001A9E34801F054FF4FF40041E04801F08B
:101FA000FAFF0220FFF7B2FF4FF40041DC4801F0D6
:101FB000F4FFC820FFF7B7FF4FF40041D84801F005
:101FC000EAFF0220FFF7A2FF7CBD7CB500BF684698
:101FD0000CF0C4FA0446CB48007810F0020F0ED083
:101FE00060086421B0FBF1F201FB1205C820B4FBCC
:101FF000F0F6CC4B2A463146C4A00FF057FC00BF88
:102000000121082002F0EFF90120ADF804001020B2
:102010008DF8070003208DF8060001A9C24801F0E1
:102020000FFF0121C04801F0B8FF0420FFF76EFF49
:102030000121BD4801F0AFFF0420FFF767FF012138
:10204000B94801F0AAFF7CBD10B5FFF7BEFF10BD77
:1020500008B56A460021B54808F0B4FA08BD2DE974
:10206000FC41044601ABC82004FB00F100930023AF
:102070001A46AF4809F0C0F9BDF80400A0F5E441E4
:10208000D9391CD100BF68460CF068FA05469D4856
:10209000007810F0020F0ED068086421B0FBF1F256
:1020A00001FB1206C820B5FBF0F7A24B32463946B9
:1020B000A1A00FF0FBFB00BF0020BDE8FC810120C8
:1020C000FBE770B505460E4600240CE0295DA248EA
:1020D00002F0BFFC00BF80219F4802F028FD0028CD
:1020E000F9D0601C84B2B442F0DB70BD1CB501AB0A
:1020F000009300231A4619468C4808F065F81CBD69
:102100002DE9F04786B006460D464FF000092846F7
:102110000EF053FF87B2FFF7E9FF9048FFF7ECFEA0
:1021200030460EF04AFF1FFA80FA51463046FFF75C
:10213000C8FF0420FFF793FF8046B8F1010F27D1B5
:102140000CE0012205A98548FFF78DFE9DF81420BB
:102150004846411C01F0FF090DF800207F48FFF7B9
:102160001FFE0028EDD000240CE0285D1DF80410AF
:10217000884205D0FFF76CFF002006B0BDE8F0876D
:10218000601CC4B2BC42F0DBFFF762FF0120F4E741
:10219000FFF75EFF0020F0E72DE9F047A8B0054605
:1021A0000E464FF00008802108A80EF0DBFE2B46FB
:1021B0006BA2802108A800960FF088FB00BF01A841
:1021C0000CF0CCF907464F48007810F0020F10D001
:1021D00078086421B0FBF1F201FB1209C820B7FBBB
:1021E000F0FA08AB0093664B4A46514665A00FF0E3
:1021F0005DFB00BFFFF77AFF68A108A8FFF780FF2B
:1022000004464CB30A20FFF72AFF0446012C1FD1D5
:102210000CE0012207A95148FFF725FE9DF81C207C
:102220004046411C01F0FF0802A90A544B48FFF741
:10223000B7FD0028EDD0FFF70BFF5AA102A80EF062
:102240009DFE18B1012028B0BDE8F0870020FAE714
:10225000FFF7FEFE0020F6E7FFF7FAFE0020F2E7A8
:102260002DE9FE4F07464FF0000800267FB902AB6C
:1022700000224FA12E4808F090FF02AA4FA12B4840
:1022800007F07BFD02AA51A1554807F076FD00201A
:102290001B490870F5E15348007830B102282CD072
:1022A00004282BD005282AD1A6E100BF01A80CF0F4
:1022B00055F981461348007810F0020F0FD04FEA0D
:1022C00059006421B0FBF1F201FB120AC820B9FBEE
:1022D000F0FB454B5246594644A00FF0E7FA00BFC9
:1022E000FFF773FE0A20FFF711FE01203D49087039
:1022F00047A148A0FFF704FF90E0CCE01BE19FE17D
:102300001400002004000020912E01085B253034C9
:10231000642E253032642F495D3A2025730D0A0062
:10232000001001409E2E0108000C01405C130020AB
:1023300034130020E12E01085B253034642E253053
:1023400032642F495D3A2025733A2074696D656FB8
:1023500075740D0A0000000000480040281300209A
:1023600041542B43495053544152543D22544350FD
:10237000222C222573222C222564220D0A00000023
:10238000BA2E01085B253034642E253032642F4983
:102390005D3A2025733A2025730D0A000D0A4F4B34
:1023A00000000000434F4E4E454354204F4B000069
:1023B00053494D3830305F574149540053494D38E7
:1023C00030305F4D555445580000000053494D389A
:1023D00030305F53454E445F4D5554455800000022
:1023E000881300205D000020AD2E01085B253034ED
:1023F000642E253032642F495D3A2025733A2053EC
:10240000544154455F554E494E495445440D0A00C8
:102410004154000041540D0A0000000001281CD165
:102420000220FC49087000BF01A80CF097F8814613
:10243000F948007810F0020F0ED04FEA59006421DD
:10244000B0FBF1F201FB120AC820B9FBF0FB5246C7
:102450005946F2A00FF02AFA1CE00020ED4908705E
:1024600000BF01A80CF07AF88146EB48007810F024
:10247000010F0ED04FEA59006421B0FBF1F201FBCD
:10248000120AC820B9FBF0FB52465946EBA00FF0E8
:102490000DFA00BFD5E000BF01A80CF05FF881463F
:1024A000DD48007810F0020F0FD04FEA5900642188
:1024B000B0FBF1F201FB120AC820B9FBF0FBE74BBD
:1024C00052465946E6A00FF0F1F900BF002429E07A
:1024D000EC4951F834000EF070FD1FFA80F9E9491B
:1024E00051F834004946FFF7ECFDE64800EBC40024
:1024F0008088B0F57A7F0DDBE24800EBC40080886D
:102500004FF47A7190FBF1F000F0FF094846FFF7B5
:10251000FDFC05E0DB4901EBC4018888FFF703FD02
:10252000601CC4B2082CD3DBD748FFF7E5FC0420BD
:10253000B849087085E000BF01A80CF00FF881468B
:10254000B548007810F0020F0FD04FEA590064210F
:10255000B0FBF1F201FB120AC820B9FBF0FBBF4B44
:1025600052465946C9A00FF0A1F900BF42F20F71BF
:10257000D0A0FFF711FE0546012D1DD100BF01A817
:102580000BF0ECFF8146A448007810F0010F0ED04C
:102590004FEA59006421B0FBF1F201FB120AC82096
:1025A000B9FBF0FB52465946C6A00FF07FF900BFB9
:1025B0000520984908701EE000BF01A80BF0CEFF6F
:1025C00081469548007810F0010F0ED04FEA59006F
:1025D0006421B0FBF1F201FB120AC820B9FBF0FB49
:1025E00052465946C0A00FF061F900BF002089494A
:1025F0000870701C86B224E000BF01A80BF0AEFF8B
:1026000081468548007810F0020F0FD04FEA59003C
:102610006421B0FBF1F201FB120AC820B9FBF0FB08
:102620008E4B52465946BAA00FF040F900BF4FF00A
:1026300001080620774908700120BF49087000BFD3
:1026400000BF00BF082E1CDD00BF01A80BF086FFF5
:1026500081467148007810F0010F10D04FEA590000
:102660006421B0FBF1F201FB120AC820B9FBF0FBB8
:102670007A4B52465946B1A000960FF017F900BFA9
:1026800003E0B8F1000F3FF406AE00BFB8F1000F51
:102690001FD100BF01A80BF061FF81465E480078A2
:1026A00010F0010F11D04FEA59006421B0FBF1F294
:1026B00001FB120AC820B9FBF0FB08230093674B0B
:1026C00052465946A5A00FF0F1F800BF0020BDE822
:1026D000FE8F0120FBE710B5B048007800B910BDAF
:1026E00005F0CAF802F0ACFD05F0D7F800BFF6E738
:1026F00008B56A464FF40071A94809F0BAF808BD58
:102700001CB540F22551A74802F027FA88B3A54826
:1027100002F0A3F9C0B20190A3484078A249087022
:102720000846807848700846C07888709DF8040094
:10273000C87038480078092869D2DFE800F0051B26
:1027400068061C6839681D0062E0FFF7CFFC0122B3
:1027500001A94D48FFF73EFB934880784F2805D1EB
:102760009148C0784B2801D1FFF7C2FFFFF770FCFA
:102770004EE04EE000BF00BFFFF7B8FC012201A908
:102780004148FFF727FB884800784F280DD186483D
:1027900040784B2809D1844880780D2805D182489B
:1027A000C0780A2801D1FFF7A3FFFFF751FC2FE003
:1027B000FFF79CFC9DF804007B280BD101207B498E
:1027C00008703148FFF798FB012201A92E48FFF756
:1027D00001FB19E09DF804007D280DD1012201A91B
:1027E0002948FFF7F7FA0020704908706A4600216F
:1027F0006F480AF0E4FF07E06C48007820B101223E
:1028000001A92148FFF7E6FAFFF722FC00BF00BF4D
:1028100000BF1CBD5D000020040000205B2530349B
:10282000642E253032642F495D3A20706F776572CF
:10283000757020646F6E650D0A0000005B253034F2
:10284000642E253032642F455D3A20706F776572B3
:102850007570206661696C65640D0A00AD2E010813
:102860005B253034642E253032642F495D3A2025B3
:10287000733A2053544154455F494E495445440DE1
:102880000A00000018000020281300205B253034C7
:10289000642E253032642F495D3A2025733A205347
:1028A000544154455F434F4E4E454354494E470DA6
:1028B0000A0000003133392E3139362E3135332EAE
:1028C000323400005B253034642E253032642F45CD
:1028D0005D3A20636F6E6E65637420737563636524
:1028E0007373210D0A0000005B253034642E2530FF
:1028F00032642F455D3A20636F6E6E6563742066A7
:1029000061696C65642C207265747279210D0A000E
:102910005B253034642E253032642F495D3A202502
:10292000733A2053544154455F434F4E4E454354F0
:1029300045440D0A00000000140000205B253034DF
:10294000642E253032642F455D3A2025733A20727B
:1029500065747279203D2025640D0A005B253034B2
:10296000642E253032642F455D3A2025733A205776
:10297000652063616E6E6F7420636F6E6E65637445
:10298000207365727665722C207265747269656455
:102990002025642074696D65730D0A00BD00002058
:1029A0003413002000480040590000205800002047
:1029B000C85C00202DE9F04387B04FF00009FFF715
:1029C00095FB142101A80EF0CDFA03208E49087062
:1029D0008E48FFF791FA08218DA0FFF772FB0420C3
:1029E000FFF73DFB8046B8F1010F37D10CE0012223
:1029F00006A98648FFF737FA9DF818204846411C7B
:102A000001F0FF0901A90A548048FFF7C9F900281D
:102A1000EDD082A101A80EF0B1FA04001FD081A16F
:102A200020460EF0ABFA0446641C7FA120460EF04F
:102A3000A5FA07466CB1002606E014F8012B3046D3
:102A4000711CCEB20DF80020BC42F6D300200DF868
:102A5000060068460EF0DFFAC5B200E00025FFF779
:102A6000F7FA062068490870284607B0BDE8F083E9
:102A70002DE9FF4104460D466CA00068029000BF9E
:102A800001A80BF06BFD06466948007810F0020FB4
:102A900010D070086421B0FBF1F201FB1207C820CE
:102AA000B6FBF0F8634B3A464146AFF2287000940B
:102AB0000EF0FCFE00BF03AB009300231A4619463C
:102AC0005D4807F081FB0A204F4908700C215BA08C
:102AD000FFF7F7FA6420FFF726FAA9B22046FFF7BE
:102AE000F0FA082048490870012102A8FFF7E9FA26
:102AF000C820FFF718FA06204349087003AA0021EE
:102B00004D4807F05FFDBDE8FF81F0B587B00121BA
:102B1000092001F068FC0121880401F071FC4FF4E8
:102B20008060ADF8180018208DF81B0003208DF888
:102B30001A0006A9454801F083F94FF40060ADF88A
:102B4000180004208DF81B0003208DF81A0006A938
:102B50003E4801F075F94FF4E13002900020ADF8E5
:102B60000C00ADF80E00ADF81000ADF814000C200C
:102B7000ADF8120002A9364801F06FFE00BF3548DB
:102B80000088C5B24FF04020B0F80008C5B24FF041
:102B9000010240F225512E4801F0F7FE01212C4898
:102BA00001F0E7FE4FF480722B491848FFF7F2F866
:102BB000002015490870AFF2B741272002F021FA32
:102BC0000121272002F035FA272002F010FA00BF79
:102BD00001A80BF0C3FC04461548007810F0020F62
:102BE0000FD060086421B0FBF1F201FB1206C8208F
:102BF000B4FBF0F7194B32463946AFF6F0000EF051
:102C000055FE00BF07B0F0BD5D0000202813002076
:102C100041542B4353510D0A000000002B435351E4
:102C20003A000000200000002C0000001A00000004
:102C300004000020C92E01088813002041542B43B2
:102C4000495053454E440D0A00000000000C01405D
:102C5000004800400448004028120020D52E0108FA
:102C600070B505460C4645F2555001F035FA204640
:102C700001F038FA284601F032FA01F036FA01F094
:102C800039FA70BD10B501F030FA10BD10B5044628
:102C9000204601F0D1FF10BD08B500208DF80000DE
:102CA00002208DF8010003208DF8020001208DF82C
:102CB0000300684600F0E3FA08BD70B506460C460E
:102CC00015460121C80201F09BFB0F4800783040F7
:102CD0000E490870284601F08EFF204601F096FF4D
:102CE0000A48007801F0A8FF01F0AFFFFFF7D4FF1A
:102CF00001F099FF70BD10B50448007801F097FF0E
:102D000001F0A3FF10BD00005E0000205F00002066
:102D100008B54FF4806000F0ADFA14208DF8000083
:102D200001208DF8010000208DF8020001208DF8AF
:102D30000300684600F0A3FA08BD1CB5F94A00215B
:102D4000F94800F0AFFDF7480068F8490988884263
:102D500007D101AB009300231422F249F44808F094
:102D600099F91CBD08B50121052001F03CFB0121AA
:102D7000480601F045FB4FF40060ADF80000042068
:102D80008DF8030003208DF802006946E94801F040
:102D900057F84FF48050ADF8000018208DF803006C
:102DA00003208DF802006946E24801F049F808BDA9
:102DB00008B50121042001F016FB0121102001F0CB
:102DC00012FB4FF48070ADF8000010208DF8030066
:102DD00003208DF802006946D64801F031F84FF41F
:102DE0000070ADF8000010208DF8030003208DF86E
:102DF00002006946D04801F023F84FF48071CD48B5
:102E000001F0CBF84FF40071CB4801F0C6F808BDD3
:102E10001FB50446FFF7CCFFFFF77AFFFFF7A2FFCD
:102E2000C14800F0A3FA684600F0C4FB00208DF80A
:102E300006008DF807008DF808008DF809008DF860
:102E40000A008DF80B008DF802008DF803000A20AF
:102E50008DF8040005208DF80500ADF800406946A6
:102E6000B14800F09CFA0020B4490870B4490870D9
:102E700003AAB4A1B74806F080FF03AB2822B6A18D
:102E8000AB4807F024FDAFF24D11142002F0B9F861
:102E90000121142002F0CDF8142002F0A8F81FBD83
:102EA0002DE9FF4104460D4616461F4601208DF8C8
:102EB0000A0000208DF80B008DF80C006005000C56
:102EC000ADF800006805000CADF802007005000CBC
:102ED000ADF804007805000CADF806000020ADF850
:102EE000080001208DF80D00684600F0E6FA012286
:102EF00002218D4800F0F1FDBDE8FF8170B5044668
:102F00000025002020722146874800F0C8FB0646B5
:102F100004E06D1C9448854200D905E031468248A2
:102F200000F063FC0128F4D100BF70BD08B56A460B
:102F30000021884807F046FB08BD1CB501AB009393
:102F400000231A461946834807F03EF91CBD2DE9B7
:102F5000F04F87B0064688461446994600200490F4
:102F600000278246039016F0010F0AD044F0FF03B9
:102F700044F0FF0221462046FFF792FF6B48048091
:102F800008E0FF231A4600210846FFF789FF0020CA
:102F90006649088016F0020F02D04046FFF7AEFFE8
:102FA00016F0010F7DD0002004909BE005AB0022BD
:102FB000CDE9002306AB4FF4C8715D4807F02CFE45
:102FC0000546BDF81400A0F5E441D9396BD0FFF7F0
:102FD000B4FF2868A04204D10498401CC0B20490F9
:102FE0002AE000BF02A80BF0B9FA83465F480078D8
:102FF00010F0010F10D04FEA5B006421B0FBF1F23A
:1030000001FB12000190C820BBFBF0F000900146CC
:1030100057A0019A0EF04AFC00BF0398401CC0B2B2
:1030200003900398052804DD4FF0FF3AFFF77EFF79
:103030005CE0FFF77BFF55E04049097801EB810137
:10304000524A286842F82100A87A3C49097801EBE5
:10305000810102EB8101887200270DE005F10B0070
:10306000C15D3648007800EB8000484A02EB8000E2
:103070000B30C155781CC7B2A87AB842EEDC2F4895
:103080000078401C2D49087008460078282801D196
:10309000002008700AF101004FFA80FAFFF746FF9E
:1030A0001FE024E0FFE700BF02A80BF057FA8346B9
:1030B0002E48007810F0010F11D04FEA5B00642118
:1030C000B0FBF1F201FB12000190C820BBFBF0F055
:1030D0002F4B009001462FA0019A0EF0E7FB00BF96
:1030E00004E000BF04984845FFF660AF00BFFF232F
:1030F0001A4600210846FFF7D3FE00200B4908803E
:10310000504607B0BDE8F08F0C4800780C490978AC
:1031100088424FDB0948007809490978401AC0B253
:1031200070470000D41600200064004060000020BA
:103130001417002000080140001001406200002028
:1031400063000020464C455843414E5F4D55544561
:1031500058000000E8160020464C455843414E5F99
:10316000515545554500000040420F000400002025
:103170005B253034642E253032642F455D3A20655E
:103180007863657074696F6E210D0A00B4130020B6
:10319000ED2E01085B253034642E253032642F4536
:1031A0005D3A2025733A2074696D656F75740D0A58
:1031B0000000000022480078C0F128002149097869
:1031C0000844C0B2704710B50024FFF7B6FE1C4893
:1031D00000781C490978884203D1FFF7A7FE002038
:1031E00010BD174801780078401C154A107001EB9B
:1031F0008100154901EB800410460078282802D18F
:10320000002011460870FFF791FE2046E8E710B550
:10321000FFF793FE00200B49087009490870FFF77B
:1032200085FE10BD10B50948007800B910BD04F046
:1032300023FB01F0A6FF04F030FB00BFF6E700001F
:103240006300002062000020B4130020BD000020B5
:103250000648804706480047FEE7FEE7FEE7FEE730
:10326000FEE7FEE7FEE7FEE7FEE7FEE73D4E00086D
:103270003101000836490143364A1160704770B584
:10328000002100230F22C4784CB3324C246804F48C
:10329000E064C4F5E0644FEA1421C1F1040322FAAA
:1032A00001F2447804FA03F1847804EA020444EA5F
:1032B00001014FEA0111284C0678A155047804F069
:1032C0001F054FF0010404FA05F405784FEA65156F
:1032D0004FF0E02606EB8505C5F8004109E00478CB
:1032E00004F01F050124AC401C4D0678761145F80A
:1032F000264070BD1A4A0A4002431A4B1A607047B2
:1033000041B1194A126842EA00024FF0E023C3F8C3
:10331000102D07E0144A126822EA00024FF0E02361
:10332000C3F8102D7047042808D14FF0E021096937
:1033300041F004014FF0E022116107E04FF0E0217D
:10334000096921F004014FF0E0221161704700008B
:103350000000FA050CED00E000E400E080E100E090
:1033600080FFFF1F08ED00E010ED00E010B50446FF
:10337000FF48844209D10121480601F05BF8002191
:103380004FF0007001F056F808E00121880601F0C6
:1033900051F800214FF0806001F04CF810BD30B5BD
:1033A000024600200023146824F00204146014680C
:1033B00044F00104146000E05B1C546804F0010454
:1033C000012C03D0A3F57F44FF3CF5D1546804F0F1
:1033D0000104012C01D000206EE08C79012C04D175
:1033E000146844F08004146003E0146824F080043E
:1033F0001460CC79012C04D1146844F040041460AA
:1034000003E0146824F0400414600C7A012C04D109
:10341000146844F02004146003E0146824F02004CD
:1034200014604C7A012C04D1146844F01004146028
:1034300003E0146824F0100414608C7A012C04D189
:10344000146844F00804146003E0146824F00804CD
:103450001460CC7A012C04D1146844F00404146084
:1034600003E0146824F0040414608C78A407CD7879
:1034700044EA05640D7944EA05444D7944EA05546B
:103480000D886D1E2C43D461146824F0010414606F
:10349000002300E05B1C546804F00104012C03D1FC
:1034A000A3F57F44FF3CF5D1546804F00104012CDE
:1034B00001D1002000E0012030BD10B50021837A49
:1034C000012202FA03F1AB4A126842F00102AA4B50
:1034D000C3F800261A46D2F81C2622EA0102A74B9E
:1034E0001A60027BB2B9A64A126822EA0102A44B12
:1034F0001A604288C38842EA0343A24A847A42F8A7
:1035000034300288838842EA03439E4A847A02EB7D
:10351000C4025360027B012A16D1994A126842EA1A
:103520000102974B1A604288038842EA0343954A96
:10353000847A42F83430C288838842EA0343914A4D
:10354000847A02EBC4025360C27A3AB98E4A126896
:1035500022EA0102884BC3F8042606E08A4A126870
:1035600042EA0102844BC3F80426028932B9874A31
:10357000126822EA0102804BC3F814260289012A4C
:1035800006D1824A126842EA01027B4BC3F8142634
:10359000427B012A06D1794A126842EA0102764B3F
:1035A000C3F81C26734A126822F00102724BC3F85A
:1035B000002610BD00218171C171017241728172BA
:1035C000C1728170C1700321017102214171012119
:1035D000018070476749096841F00101664AC2F8F5
:1035E00000166449096843F60E7221EA0201624A34
:1035F000C2F800161146D1F8001641EA0021C2F8BF
:1036000000161146D1F8001621F00101C2F800168B
:10361000704721B1026842F48032026003E0026820
:1036200022F4803202607047E1B1026842F0800209
:1036300002604FF4C272125842F480734FF4C272A7
:1036400013504FF4CA72125842F480734FF4CA7286
:1036500013504FF4D272125842F480734FF4D27266
:1036600013501BE0026822F0800202604FF4C27225
:10367000125822F480734FF4C27213504FF4CA727E
:10368000125822F480734FF4CA7213504FF4D2725E
:10369000125822F480734FF4D2721350704710B551
:1036A00002460020936803F08063B3F1806F00D17D
:1036B00010E0936803F00063B3F1006F01D10120C3
:1036C00008E0936803F08053B3F1805F01D10220DA
:1036D00000E0042004287ED002F5C07303EB001341
:1036E0001B6803F0010402F5C07303EB00131C60B8
:1036F0000B7A7BB94B7A0C6843EA445302F5C074E9
:1037000004EB00142468234302F5C07404EB001496
:10371000236010E00B7A4C6843EAC4034C7A2343DD
:1037200002F5C07404EB00142468234302F5C0744E
:1037300004EB001423608B7A03F00F038B7202F505
:10374000C07303EB00135B6823F00F0402F5C07332
:1037500003EB00135C6002F5C07303EB00135B68BE
:103760008C7A234302F5C07404EB001463600FE00D
:103770000064004000660040006000401C6600409D
:103780000C6600404066004004660040146600403D
:103790008B7B1C064B7B44EA03440B7B44EA0323EC
:1037A000CC7A234302F5C07404EB0014A3608B7C35
:1037B0001C064B7C44EA03440B7C44EA0323CC7B89
:1037C000234302F5C07404EB0014E36002F5C073F8
:1037D00003EB001300E007E01B6843F0010402F56F
:1037E000C07303EB00131C6010BD10B5024600232C
:1037F00021B1012907D002290FD109E09068F84CC6
:1038000000EA04030BE09068F64C00EA040306E0CB
:103810009068F54C00EA040301E0002300BF00BFFC
:10382000F24C181BA34216D007DC83B16FF0806006
:1038300018180ED0022818D111E0B0F5007F10D072
:10384000EB4C001909D0B0F5003F0ED10BE002237C
:103850000DE000230BE0002309E0002307E0012333
:1038600005E0012303E0012301E0002300BF00BFC6
:10387000D8B210BD21B1012907D002290FD109E02A
:10388000826842F0800282600AE0826842F400426C
:10389000826005E0826842F40002826000E000BFBE
:1038A00000BF704710B500F5D87303EB01131B6818
:1038B00003F004031372137A53B900F5D87303EBC2
:1038C00001131B6840F2FF7404EA5353136009E0CC
:1038D00000F5D87303EB01131B686FF0604404EA32
:1038E000D303536000F5D87303EB01131B6803F097
:1038F0000203537200F5D87303EB01135B6803F006
:103900000F03937200F5D87303EB01135B681B0A76
:10391000D37400F5D87303EB01139B68D37200F5E1
:10392000D87303EB01139B681B0A137300F5D8735C
:1039300003EB01139B681B0C537300F5D87303EB67
:1039400001139B681B0E937300F5D87303EB0113EF
:10395000DB68D37300F5D87303EB0113DB681B0A34
:10396000137400F5D87303EB0113DB681B0C53745D
:1039700000F5D87303EB0113DB681B0E937421B9B8
:10398000C36843F02003C36003E0036943F02003EE
:10399000036110BD21B9C26842F02002C26003E099
:1039A000026942F02002026170470246002019B904
:1039B000D36803F0030006E0012903D1136903F083
:1039C000030000E00020704710B502460B460020BF
:1039D0004FF6FF71BBB9146824F0020444F00104EF
:1039E000146000E0491E546804F00304012C01D067
:1039F0000029F7D1546804F00304012C01D0002001
:103A000032E0012030E0012B13D1146824F00304CC
:103A1000146000E0491E546814F0030F01D000291F
:103A2000F8D1546814F0030F01D000201CE00120ED
:103A30001AE0022B17D1146824F0010444F00204A8
:103A4000146000E0491E546804F00304022C01D005
:103A50000029F7D1546804F00304022C01D000209F
:103A600002E0012000E0002010BD014600200A68AD
:103A700022F0010242F002020A604A6802F00302E8
:103A8000022A00D10120704701464FF6FF72002044
:103A90000B6823F002030B6000E0521E4B6803F03A
:103AA0000203022B01D1002AF7D14B6803F0020375
:103AB000022B00D001207047014600208A6902F0E5
:103AC00070007047014600208A69100E7047014659
:103AD00000208A69C2F3074070471AB143690B435B
:103AE000436102E043698B434361704710B502466E
:103AF000002011F4700F08D09369C1F3130423421E
:103B000001D001202DE000202BE011F0807F08D0B3
:103B10005368C1F31304234201D0012021E00020A7
:103B20001FE011F0006F08D09368C1F31304234223
:103B300001D0012015E0002013E011F0007F08D033
:103B4000D368C1F31304234201D0012009E000200F
:103B500007E01369C1F31304234201D0012000E000
:103B6000002010BD0022234B994202D10023836123
:103B700011E0C1F3130211F0007F01D0C2600AE02E
:103B800011F0806F01D0026105E011F0006F01D0EB
:103B9000826000E042607047024600200A4201D085
:103BA000012000E00020704770B504460D46002655
:103BB0006069284271D0B5F5807F68D01CDC082D83
:103BC00041D006DC012D2CD0022D30D0042D7ED129
:103BD00033E0102D3DD0202D41D0402D77D144E051
:103BE00003000004000300080000031000010008A7
:103BF0000001FFF77000F030B5F5004F61D009DC2F
:103C0000B5F5007F4AD0B5F5806F4DD0B5F5006FA2
:103C10005DD150E0B5F5803F2DD0B5F5003F56D1D0
:103C20002FE0A0685549FFF7B7FF064651E0E0686E
:103C30000321FFF7B1FF06464BE0E0680821FFF7DC
:103C4000ABFF064645E0E0681021FFF7A5FF0646FA
:103C50003FE020690321FFF79FFF064639E0206916
:103C60000821FFF799FF064633E020691021FFF78E
:103C700093FF06462DE060680821FFF78DFF06469A
:103C800027E060681021FFF787FF064621E0A06962
:103C90000121FFF781FF06461BE01BE0A06902211E
:103CA000FFF77AFF064614E0A0690421FFF774FFCE
:103CB00006460EE00BE0A0697021FFF76DFF064697
:103CC00007E060680421FFF767FF064601E0002671
:103CD00000BF00E00026304670BDB1F5007F3AD04D
:103CE0000FDC202928D006DC01291CD004291DD096
:103CF000082940D11DE0402921D0B1F5807F3AD17B
:103D000026E0B1F5004F31D006DCB1F5806F25D04B
:103D1000B1F5006F2FD124E0B1F5803F12D0B1F59D
:103D2000003F28D111E0154A826025E00822C260D8
:103D300022E01022C2601FE0082202611CE0102273
:103D4000026119E00822426016E01022426013E08E
:103D50000422426010E0042242600DE0042242602E
:103D60000AE0002282610422426005E000228261B2
:103D70000422426000E000BF00BF70470101010063
:103D800010B50446CA48844208D10121042000F03D
:103D900044FB0021042000F040FB46E0C54884427B
:103DA00008D10121082000F038FB0021082000F094
:103DB00034FB3AE0C048844208D10121102000F0D1
:103DC0002CFB0021102000F028FB2EE0BB48844291
:103DD00008D10121202000F020FB0021202000F04C
:103DE0001CFB22E0B648844208D10121402000F0AB
:103DF00014FB0021402000F010FB16E0B148844283
:103E000008D10121802000F008FB0021802000F073
:103E100004FB0AE0AC48844207D10121801500F080
:103E2000FCFA0021A01500F0F8FA10BD10B5012130
:103E3000084600F0F2FA0021012000F0EEFA10BD71
:103E40002DE9F04102460025002600200023002431
:103E5000002791F803C00CF00F0591F803C01CF087
:103E6000100F03D091F802C04CEA0505B1F800C06C
:103E70001CF0FF0F31D0146800202BE04FF0010C34
:103E80000CFA00F3B1F800C00CEA03069E4220D100
:103E900083004FF00F0C0CFA03F7BC4305FA03FC48
:103EA0004CEA040491F803C0BCF1280F06D14FF08E
:103EB000010C0CFA00FCC2F814C00AE091F803C02F
:103EC000BCF1480F05D14FF0010C0CFA00FCC2F810
:103ED00010C0401C0828D1D31460B1F800C0BCF158
:103EE000FF0F34DD546800202EE000F1080C4FF085
:103EF000010808FA0CF3B1F800C00CEA03069E4270
:103F000021D183004FF00F0C0CFA03F7BC4305FAE4
:103F100003FC4CEA040491F803C0BCF1280F05D15E
:103F200000F1080C08FA0CF8C2F8148091F803C0EC
:103F3000BCF1480F07D100F1080C4FF0010808FA56
:103F40000CF8C2F81080401C0828CED35460BDE89D
:103F5000F0814FF6FF710180022181700421C17050
:103F600070470246002093680B4201D0012000E018
:103F7000002070470146886880B2704702460020E2
:103F8000D3680B4201D0012000E0002070470146B9
:103F9000C86880B2704701617047416170470AB1DB
:103FA000016100E041617047C16070474FF48032A9
:103FB0000A43826181618261826982697047024637
:103FC0000020424B18684FF68073184040EA0210F8
:103FD00008433E4B186070473D49C8617047F0B5D3
:103FE0000A46002300240021002500F00046B6F117
:103FF000004F02D1354EF16901E0344E7168C0F3D3
:10400000034583B200F44016B6F5401F08D121F0F5
:1040100070612E4E766826F070662C4F7E6012E03E
:1040200000F48016B6F5801F06D1032606FA05F4C3
:10403000A14341F0706106E0460D360103FA06F631
:10404000B14341F0706122B1460D360103FA06F624
:10405000314300F00046B6F1004F02D11B4EF16132
:1040600001E01A4E7160F0BD30B500228B071C0FC5
:104070000F2303FA04F2154B08338C1053F8243045
:104080009343124C08348D1044F8253023468C108D
:1040900053F824308C07240F00FA04F423430B4C0C
:1040A00008348D1044F8253030BD0A490860704747
:1040B00000080140000C01400010014000140140C4
:1040C00000180140001C0140002001400000014098
:1040D00000002042DC0020420E49086070470D4974
:1040E000486070470B49886070474AF6AA20094922
:1040F000086070474CF6CC4006490860704701469E
:104100000020044AD2680A4201D0012000E00020C9
:104110007047000000300040DB48006840F00100BC
:10412000D949086008464068D8490840D6494860DF
:1041300008460068D6490840D34908600846006828
:1041400020F4802008600846406820F4FE004860A3
:104150004FF41F0088607047CB49096821F4803113
:10416000C94A11601146096821F480211160B0F537
:10417000803F03D0B0F5802F0ED106E0C249096818
:1041800041F48031C04A116007E0BF49096841F439
:10419000A021BD4A116000E000BF00BF704710B50C
:1041A00001460022002300204A11012A02D1B64C08
:1041B000236806E0022A02D1B34C236A01E0B24C24
:1041C000636A01F01F02012494401C4201D00120C7
:1041D00000E0002010BD70B500240025002600BFBF
:1041E0003120FFF7DCFF0646641CB4F5A06F01D058
:1041F000002EF5D03120FFF7D2FF08B1012500E0F5
:104200000025284670BD014600209F4A106820F016
:10421000F80040EAC100106070479E49086070478E
:1042200002460020984B586820F47C1042EA0103B3
:104230001843954B58607047964908667047014689
:104240000020914A506820F00300084350607047F6
:104250008D48406800F00C007047014600208A4AF3
:10426000506820F0F000084350607047014600207D
:10427000854A506820F4E06008435060704701466A
:104280000020814A506820F4605040EAC10050602C
:10429000704729B17C4A527A02437B4B5A7206E03E
:1042A000794A527AC343DBB21A40774B5A7270474D
:1042B00079490860704701460020734A506820F42D
:1042C00040400843506070470021744A11706E4AA4
:1042D00082F82010012802D0042808D103E001212F
:1042E0006E4A117004E005216C4A117000E000BFB5
:1042F00000BF70476A49086070476349096A014313
:10430000614A1162704767490860704730B5002103
:104310000022002400235C4D6D6805F00C0121B1E2
:10432000042905D0082923D105E05F4D056022E06E
:104330005E4D05601FE0544D6D6805F47012524DDE
:104340006D6805F48034022505EB92421CB9584D86
:10435000554305600BE04C4D6D6815F4003F03D0EC
:10436000544D5543056002E0504D5543056002E051
:104370004D4D056000BF00BF434D6D6805F0F00175
:1043800009094D4D6B5C0568DD4045603E4D6D682B
:1043900005F4E061090A484D6B5C4568DD408560C5
:1043A000394D6D6805F46051C90A434D6B5C456831
:1043B000DD40C560344D6D6805F44041890B3F4DCB
:1043C0006B5CC568B5FBF3F5056130BD29B12E4ABC
:1043D000526902432C4B5A6104E02B4A52698243D2
:1043E000294B5A61704729B1274A92690243264BEB
:1043F0009A6104E0244A92698243234B9A61704790
:1044000029B1214AD26902431F4BDA6104E01E4AF6
:10441000D26982431C4BDA61704729B11A4AD268CB
:104420000243194BDA6004E0174AD2688243164B04
:10443000DA60704729B1144A12690243124B1A61BB
:1044400004E0114A126982430F4B1A6170471C49FC
:10445000086070470F49C86470470B49C8717047BE
:104460000948406A40F08070074948627047014639
:104470000020054A92680A4201D0012000E0002095
:104480007047014988727047001002400000FFF831
:10449000FFFFF6FE00004242D800424220100240D8
:1044A000800442423C04424200127A00001BB700E2
:1044B00000093D00808D5B00640000207400002036
:1044C0004004424210B50446BF48844208D101214D
:1044D0008014FFF7A2FF0021A014FFF79EFF16E053
:1044E000BA48844208D101210014FFF7A3FF00213C
:1044F0002014FFF79FFF0AE0B548844207D101214D
:10450000C013FFF797FF0021E013FFF793FF10BDE3
:1045100010B50022028802F441520B884C882343D4
:104520008C882343CC8823430C8923434C89234321
:104530008C892343CC8923431A430280838B4FF217
:10454000FF74234083830B8A038210BD2DE9F04F53
:1045500085B005460C464FF0000902274FF00008D1
:104560004FF0010B0026B246A88B4FF240010840E5
:10457000A88302202884B5F81C90A068022801D1E5
:1045800000BF36E0A08810B94FF0010B01E04FF0FA
:10459000020B8E48854200D100E000BF6846FFF75D
:1045A000B5FEDDF800A0E088B0F5007F0AD14FEA43
:1045B0001A2000EB80004000A168B0FBF1F0401D24
:1045C00086B20BE04FEA4B10BAFBF0F000EB800034
:1045D0004000A168B0FBF1F0401D86B20A20B6FB96
:1045E000F0F606F00108A6EB0800C0F34F074FEA0B
:1045F0000828022F01DBFF2F02DD02274FF0000801
:10460000E08840EA080038432884A088A18908434C
:10461000618808432188084340F4006040EA0909A2
:10462000A5F81C9005B0BDE8F08F00210180418005
:104630008180C180018141818181C1810721018205
:1046400070470021018041808180C180022181600A
:1046500000218181704721B1028842F0400202802E
:1046600004E002884FF6BF731A400280704721B100
:10467000828B42F48062828304E0828B4FF6FF33A8
:104680001A408283704770B5002400230C11012565
:10469000A540ABB21AB185881D43858004E08588AA
:1046A000DE43B6B23540858070BD10B51AB183883F
:1046B0000B43838004E08388CC43A4B223408380EF
:1046C00010BD81817047014688897047A1F57E42FF
:1046D000FF3A04D0028842F48072028004E002882B
:1046E0004FF6FF631A400280704721B1828842F082
:1046F0000402828004E082884FF6FB731A408280B5
:10470000704702884FF2FF731A40028002880A4302
:1047100002807047018841F480510180704721B1C7
:10472000028842F40052028004E002884DF6FF73D2
:104730001A400280704702460020012901D0108BE8
:1047400000E0908A70470146088A7047B1F5804FB3
:1047500004D1028842F48042028004E002884BF6D1
:10476000FF731A40028070470246002013890B42F3
:1047700001D0012000E000207047CA430281704749
:10478000F0B50246002000240023002501F00F07A9
:104790000126BE40B4B20B1101269E40B3B29688EA
:1047A00006EA03051689264202D00DB1012000E079
:1047B0000020F0BD10B5002201F00F040123A3403A
:1047C0009AB2D343038110BD00300140003800404D
:1047D000003C004010B50446FC48844209D1012148
:1047E0008803FFF71AFE00214FF48040FFF715FE03
:1047F00032E0F748844209D101214804FFF71AFE4C
:1048000000214FF40030FFF715FE25E0F148844207
:1048100009D101218804FFF70DFE00214FF480200B
:10482000FFF708FE18E0EC48844209D10121C804D2
:10483000FFF700FE00214FF40020FFF7FBFD0BE027
:10484000E648844208D101210805FFF7F3FD002165
:104850004FF48010FFF7EEFD10BD2DE9F04786B054
:1048600005460E460024A24600BFA1460027B08997
:1048700000B100BF2F462C8A4CF6FF700440F08830
:1048800004432C82AC894EF6F3100440B088318981
:104890000843718908430443AC81AC8A4FF6FF405A
:1048A0000440B0890443AC8201A8FFF72FFDC7483C
:1048B000874202D1DDF810A001E0DDF80CA0A88944
:1048C00010F4004F08D00AEBCA0000EB0A10316860
:1048D0004900B0FBF1F807E00AEBCA0000EB0A1050
:1048E00031688900B0FBF1F86420B8FBF0F00401F6
:1048F0002009642101FB1089A88910F4004F08D019
:10490000322000EBC900B0FBF1F000F007000443D7
:1049100008E0322000EB09106421B0FBF1F000F058
:104920000F0004432C8106B0BDE8F0874FF4165108
:10493000016000218180C18001810C214181002121
:104940008181704710B502460020108A4FF2FF03A4
:1049500018400B884C8823438C882343CC882343FE
:104960001843108210BD0021018041808180C180E8
:10497000704721B1828942F40052828104E0828929
:104980004DF6FF731A4082817047F0B5034600244C
:10499000002600250020A1F510676A3F00D100BF66
:1049A0001846C1F3421401F01F06012707FA06F565
:1049B000012C01D10C3004E0022C01D1103000E0B8
:1049C00014301AB107682F43076002E00768AF434D
:1049D0000760F0BD10B51AB1838A0B43838204E0EF
:1049E000838ACC43A4B22340838210BD028A4FF64F
:1049F000F0731A400282028A0A4302827047828957
:104A00004FF2FF731A40828182890A438281704784
:104A100021B1828942F00202828104E082894FF64C
:104A2000FD731A4082817047028A4FF6DF731A4085
:104A30000282028A0A430282704721B1028A42F44A
:104A40008042028204E0028A4BF6FF731A4002821F
:104A50007047C1F308028280704701468888C0F31E
:104A600008007047818941F0010181817047028B04
:104A7000D2B20283028B42EA012202837047028B88
:104A800002F47F420283028B0A430283704721B102
:104A9000828A42F02002828204E0828A4FF6DF732B
:104AA0001A408282704721B1828A42F010028282CB
:104AB00004E0828A4FF6EF731A408282704721B178
:104AC000828A42F00802828204E0828A4FF6F773FB
:104AD0001A408282704721B1828942F40042828169
:104AE00003E08289C2F30E028281704721B1828A7B
:104AF00042F40062828204E0828A4FF2FF731A401D
:104B000082827047828A4FF6FB731A408282828AC1
:104B10000A438282704721B1828A42F00202828275
:104B200004E0828A4FF6FD731A4082827047024683
:104B30000020B1F5007F00D100BF13880B4201D0E7
:104B4000012000E00020704701F40072B2F5007F00
:104B500000D100BFCA430280704770B502460024EE
:104B6000002300250020A1F510666A3E00D100BF99
:104B7000C1F3421501F01F03012606FA03F3012DCC
:104B800002D19689334006E0022D02D1168A3340C5
:104B900001E0968A33400C12012606FA04F41688C6
:104BA000344013B10CB1012000E0002070BD10B5FD
:104BB00000220023A1F510646A3C00D100BF0A1254
:104BC00001249440A3B2DC43048010BD00380140AE
:104BD0000044004000480040004C004000500040AD
:104BE00010B50121C802FFF725FC00214FF4006039
:104BF000FFF720FC10BD0021164A126822F4C07194
:104C000041EA0001144AC2F8041C70470021114A0D
:104C1000126822F07F0100F07F0242EA01010E4A91
:104C2000C2F8041C704701200C490860704700F06E
:104C30007F010B4A1160704740F08001084A116003
:104C4000704708480068C0B27047002005490860F6
:104C500070470000042C004000200040A480054262
:104C6000002C0040082C00408AB000240AF0F2FA20
:104C7000FBF70EFB09A802F069FD30A00CF016FE50
:104C800000BF00BF00BF00F0D9FC044600BF00BF5A
:104C900030480078401C2F49087000BF00BF2046F4
:104CA00000F0D0FC00BF00BF00BF09AB0322002111
:104CB000059106A80EC00B464FF40072332126481A
:104CC000CDE90323CDE90101032300930023234A07
:104CD00023A1264807F0CAFA00BF00BF00BF00F0BA
:104CE000ADFC044600BF00BF1A480078401E1949B9
:104CF000087008460078A0B91D480088002809DD22
:104D000000BF00BF204600F09DFC00BF00BF03F0C5
:104D100049FB0DE000BF00BF204600F093FC00BF40
:104D200006E000BF00BF204600F08CFC00BF00BFC3
:104D300000BF09A802F0D9FF00BFFEE70D0A0D0A67
:104D40002B2B4E6F772053746172742B2B0D0A0D31
:104D50000A00000004010020E038002089F000086B
:104D60005374617274205461736B00001C3800200E
:104D7000C800002000210020674A126842F48032F7
:104D8000654B1A6000BF644A126802F40030491C87
:104D900010B9B1F5A06FF6D15F4A126812F4003F66
:104DA00001D0012000E00020012842D15B4A1268B6
:104DB00042F01002594B1A601A46126822F00302A0
:104DC0001A601A46126842F002021A60524A526889
:104DD000514B5A601A4652685A601A46526842F459
:104DE00080625A601A46526822F47C125A601A464F
:104DF000526842F488125A601A46126842F0807271
:104E00001A6000BF444A126812F0007FFAD0424A8A
:104E1000526822F00302404B5A601A46526842F030
:104E200002025A6000BF3C4A526802F00C02082A93
:104E3000F9D1704710B5FFF79DFF10BD10B536488A
:104E4000006840F001003449086008464068344971
:104E500008403149486008460068324908402E49F8
:104E600008600846006820F4802008600846406812
:104E700020F4FE0048604FF41F008860FFF7DAFF5F
:104E80004FF000602849086010BD10B500210020D7
:104E90000022214B5B6803F00C0121B1042906D0EC
:104EA000082928D107E0214B214C236027E0214B22
:104EB0001F4C236023E0184B5B6803F47010164B03
:104EC0005B6803F48032022303EB904022B91A4B53
:104ED0004343174C23600DE00F4B5B6813F4003F16
:104EE00004D0164B4343124C236003E0114B434361
:104EF0000F4C236003E00D4B0D4C236000BF00BF3F
:104F0000054B5B68C3F303130D4CE15C084B1B6856
:104F1000CB40074C236010BD00100240002002402F
:104F20000000FFF8FFFFF6FE08ED00E000127A0037
:104F300078000020001BB70000093D00808D5B0059
:104F40007C00002000B585B06846FFF7DFF90198C6
:104F500005B000BD10B5FFF7F5FF0446194800681D
:104F600040F080704FF0E021C1F8FC0D4FF00000E0
:104F7000154948600846006840F001000860204676
:104F800000F060FA10BD1049486870472DE9F047FD
:104F90008246FFF7D7FF4FF0000980460B4A0023F7
:104FA000404649460BF07CFF064602460B465046FB
:104FB00000210BF075FF04460D4620462946BDE84A
:104FC000F0870000FCED00E0001000E040420F0020
:104FD000704710B50446442C04D204F11000C0B24E
:104FE00000F07CFB10BD10B500F024FB10BD10B527
:104FF0000446442C04D204F11000C0B200F01AFCA4
:1050000010BD70B504460D460026442C10D200BFDA
:1050100000BF00F013FB064600BF00BFBF4840F8CA
:10502000245000BF00BF304600F00CFB00BF00BFA3
:1050300070BD70B504460D460026442C13D200BF47
:1050400000BF00F0FBFA064600BF00BF294604F18E
:105050001000C0B200F0EDFC00BF00BF304600F011
:10506000F1FA00BF00BF70BD704710B5002404E026
:10507000AB492046FFF7C5FF641C442CF8D310BD94
:1050800070B50446002600BF00BF00F0D7FA064600
:1050900000BF00BF02F0F0FB00BF00BF304600F0D1
:1050A000D1FA00BF00BF442C04D29C4850F82450D1
:1050B00005B1A84702F0F1FB70BD10B50020FFF765
:1050C000DFFF10BD10B50120FFF7DAFF10BD10B5EE
:1050D0000220FFF7D5FF10BD10B50320FFF7D0FF6A
:1050E00010BD10B50420FFF7CBFF10BD10B5052093
:1050F000FFF7C6FF10BD10B50620FFF7C1FF10BDBA
:1051000010B50720FFF7BCFF10BD10B50820FFF752
:10511000B7FF10BD10B50920FFF7B2FF10BD10B5E5
:105120000A20FFF7ADFF10BD10B50B20FFF7A8FF59
:1051300010BD10B50C20FFF7A3FF10BD10B50D205A
:10514000FFF79EFF10BD10B50E20FFF799FF10BDB1
:1051500010B50F20FFF794FF10BD10B51020FFF71A
:105160008FFF10BD10B51120FFF78AFF10BD10B5DD
:105170001220FFF785FF10BD10B51320FFF780FF49
:1051800010BD10B51420FFF77BFF10BD10B5152022
:10519000FFF776FF10BD10B51620FFF771FF10BDA9
:1051A00010B51720FFF76CFF10BD10B51820FFF7E2
:1051B00067FF10BD10B51920FFF762FF10BD10B5D5
:1051C0001A20FFF75DFF10BD10B51B20FFF758FF39
:1051D00010BD10B51C20FFF753FF10BD10B51D20EA
:1051E000FFF74EFF10BD10B51E20FFF749FF10BDA1
:1051F00010B51F20FFF744FF10BD10B52020FFF7AA
:105200003FFF10BD10B52120FFF73AFF10BD10B5CC
:105210002220FFF735FF10BD10B52320FFF730FF28
:1052200010BD10B52420FFF72BFF10BD10B52520B1
:10523000FFF726FF10BD10B52620FFF721FF10BD98
:1052400010B52720FFF71CFF10BD10B52820FFF771
:1052500017FF10BD10B52920FFF712FF10BD10B5C4
:105260002A20FFF70DFF10BD10B53220FFF708FF11
:1052700010BD10B53320FFF703FF10BD10B534206B
:10528000FFF7FEFE10BD10B53520FFF7F9FE10BD8B
:1052900010B53620FFF7F4FE10BD10B53720FFF72C
:1052A000EFFE10BD10B53820FFF7EAFE10BD10B5B7
:1052B0003920FFF7E5FE10BD10B53A20FFF7E0FEFC
:1052C00010BD10B53B20FFF7DBFE10BD10B53C2034
:1052D000FFF7D6FE10BD10B53D20FFF7D1FE10BD83
:1052E00010B53E20FFF7CCFE10BD10B53F20FFF7F4
:1052F000C7FE10BD10B54020FFF7C2FE10BD10B5AF
:105300004120FFF7BDFE10BD10B54220FFF7B8FEEB
:1053100010BD10B54320FFF7B3FE10BD44170020A9
:105320006950000810B5002400BF00BF00F086F9E6
:10533000044600BF00BF1021BB4800F0EEFE00BFD6
:1053400000BF204600F07EF900BF00BF10BD10B5C1
:10535000FFF7E8FF10BD10B50020B4490860FFF763
:10536000F9FD10BD10B5FFF7F6FFFFF7F0FF10BD18
:1053700000BFFEE770B505460C46002614B900BF15
:10538000FFF7F6FF15B90A20208070BD00BF00BFEF
:1053900000F054F9064600BF00BF1022A24928467B
:1053A00001F072FB00BF00BF304600F04BF900BFB8
:1053B00000BF0020208000BFE7E72DE9F04105464F
:1053C0000C46002714B900BFFFF7D2FF1DB90A2011
:1053D0002080BDE8F0811021284601F03DFB064603
:1053E000102E15D200BF00BF00F028F9074600BFFD
:1053F00000BF102229468C4801F046FB00BF00BFC9
:10540000384600F01FF900BF00BF0020208002E0F6
:105410004FF47A70208000BFDBE710B5FFF7B3FDD3
:105420000446204610BD7047014611B900BFFFF782
:105430009FFF7E4A106808B1002201E04FF4FA6233
:105440000A80704779490860704770B5054628465C
:1054500000F0FFF80446183C204670BD70B50546C4
:10546000284600F0F6F80446103C204670BD70B5A2
:105470000546284600F0EDF8044600BF204670BD02
:105480002DE9F04F8BB004460D464FF0FF314FF041
:105490000000091BA84143D24FF0FF31080C091B43
:1054A000A8411DD24FF0FF31080A091BA8410AD2BA
:1054B0003822A046A946204629460BF024FD064680
:1054C0005B498F5D69E03022A246AB462046294603
:1054D0000BF019FD06465649885D00F108075CE0AF
:1054E0004FF0FF31FF20091BA8410CD22822204693
:1054F0002946CDE901540BF006FD06464C49885D6E
:1055000000F1100749E0202220462946CDE9035446
:105510000BF0F9FC06464649885D00F118073CE0AF
:105520004FF6FF710020091BA8411FD26FF07F4189
:105530000020091BA8410CD2182220462946CDE99B
:1055400005540BF0E0FC06463949885D00F1200760
:1055500023E0102220462946CDE907540BF0D3FC66
:1055600006463349885D00F1280716E0FF21002038
:10557000091BA8410CD2082220462946CDE909542E
:105580000BF0C1FC06462A49885D00F1300704E0B3
:1055900026462748805D00F1380738460BB0BDE845
:1055A000F08F70B504460CB9082070BD204600F09D
:1055B00053F805462846F8E770B504460CB91020A4
:1055C00070BD204600F048F805462846F8E770B55B
:1055D00004460CB9202070BD204600F03DF8054679
:1055E0002846F8E72DE9F04704460D464FF0000144
:1055F00084EA010085EA0101084302D14020BDE8A8
:10560000F087E243E843521C40F1000102EA04063D
:1056100001EA050730463946FFF732FF8046C8F1F8
:105620003F094846EBE70000541800208C0000209A
:10563000FC2E010872B6704762B67047EFF3108017
:1056400072B6704780F31088704730BF704720BF34
:105650007047B0FA80F0704790FAA0F0B0FA80F08E
:10566000704790FAA0F0704710B5B0F1005F0AD310
:10567000F74CA04207D8440104EB810303F1085220
:10568000002414600CE0B0F1804F09D3F14CA0422B
:1056900006D8440104EB810303F184420024146022
:1056A00010BD10B5B0F1005F0AD3E94CA04207D895
:1056B000440104EB810303F10852012414600CE05F
:1056C000B0F1804F09D3E34CA04206D8440104EB6B
:1056D000810303F184420124146010BD2DE9F041DF
:1056E00004464FF00008102C72D2DFE804F0080ED8
:1056F0000F10142B42090A0B0C11120D135900BF85
:1057000000BF00BF00BF00BF91E000BF00BF00BFEF
:1057100000BF00BF8BE000BF00BFFFF78FFF8046D8
:1057200000BF00BFCC48006820F480304FF0E0217B
:10573000C1F8240D00BF00BF4046FFF783FF00BF44
:1057400000BF74E000BF00BFFFF778FF804600BFD6
:1057500000BFC148006820F400304FF0E021C1F8DC
:10576000240D00BF00BF4046FFF76CFF00BF00BF25
:105770005DE000BF00BFFFF761FF804600BF00BFD4
:10578000B548006820F480204FF0E021C1F8240DD6
:1057900000BF00BF4046FFF755FF00BF00BF46E017
:1057A00000BF00BFFFF74AFF804600BF00BF4FF0B9
:1057B000E020006920F001004FF0E021086100BF07
:1057C00000BF4046FFF73EFF00BF00BF2FE0FFE7EE
:1057D0004FF0E0204068401C102101EB4010C6B2A1
:1057E000B44223DAA4F11000C11700EBD161C1F378
:1057F0004715C11700EBD1614911A0EB4111CFB2A0
:1058000000BF00BFFFF71AFF804600BF00BF0120A6
:10581000B8404FF0E02101EB8501C1F8800100BFE5
:1058200000BF4046FFF70EFF00BF00BF00BF00BF34
:10583000BDE8F0812DE9F04104464FF00008102C3E
:1058400072D2DFE804F0080E0F10142B42090A0B85
:105850000C11120D135900BF00BF00BF00BF00BFE5
:1058600091E000BF00BF00BF00BF00BF8BE000BFE2
:1058700000BFFFF7E3FE804600BF00BF7648006828
:1058800040F480304FF0E021C1F8240D00BF00BF8C
:105890004046FFF7D7FE00BF00BF74E000BF00BF67
:1058A000FFF7CCFE804600BF00BF6B48006840F4A5
:1058B00000304FF0E021C1F8240D00BF00BF40468A
:1058C000FFF7C0FE00BF00BF5DE000BF00BFFFF7F5
:1058D000B5FE804600BF00BF5F48006840F48020EE
:1058E0004FF0E021C1F8240D00BF00BF4046FFF794
:1058F000A9FE00BF00BF46E000BF00BFFFF79EFE4D
:10590000804600BF00BF4FF0E020006940F001007A
:105910004FF0E021086100BF00BF4046FFF792FE54
:1059200000BF00BF2FE0FFE74FF0E0204068401CC1
:10593000102101EB4010C7B2BC4223DAA4F11000E1
:10594000C11700EBD161C1F34715C11700EBD1615D
:105950004911A0EB4111CEB200BF00BFFFF76EFEB0
:10596000804600BF00BF0120B0404FF0E02101EBB6
:105970008501C1F8000100BF00BF4046FFF762FE8D
:1059800000BF00BF00BF00BFBDE8F0812DE9F041BE
:1059900004464FF00008102C19D2DFE804F0080E7E
:1059A0000F10111516090A0B0C12130D141700BF56
:1059B00000BF00BF00BF00BF38E000BF00BF00BF96
:1059C00000BF00BF00BF00BF00BF00BF2EE04FF010
:1059D000E0204068401C102101EB4010C7B2BC42DF
:1059E00023DAA4F11000C11700EBD161C1F3471510
:1059F000C11700EBD1614911A0EB4111CEB200BF3C
:105A000000BFFFF71BFE804600BF00BF0120B04073
:105A10004FF0E02101EB8501C1F8800200BF00BF1B
:105A20004046FFF70FFE00BF00BF00BF00BFBDE84C
:105A3000F0812DE9F05F06460D464FF0000B284639
:105A4000FFF70FFE82464FEA1A65102E7DD205E061
:105A5000FFFF0F20FFFF0F4024ED00E0DFE806F01E
:105A6000080E0F10112A43090A0B0C5C760D8FA843
:105A700000BF00BF00BF00BF00BFF1E000BF00BF1C
:105A8000EEE000BF00BFFFF7D9FD834600BF00BFB7
:105A9000E548046824F0FF0444EA05044FF0E020E0
:105AA000C0F8184D00BF00BF5846FFF7CBFD00BF40
:105AB00000BFD5E000BF00BFFFF7C0FD834600BFB9
:105AC00000BFD948046824F47F4444EA05244FF019
:105AD000E020C0F8184D00BF00BF5846FFF7B2FDE8
